S00F00006279676765726E2E7372656327
S11300000C9435020C9452020C9452020C94520239
S11300100C9452020C9452020C9452020C9452020C
S11300200C9452020C9452020C9452020C945202FC
S11300300C9452020C9452020C9452020C945202EC
S11300400C9452020C9452020C9452020C945202DC
S11300500C9452020C9452020C9452020C945202CC
S11300600C9452020C9452020C9452020C945202BC
S1130070000000000000000000065F5F06000000B2
S11300800007070007070000147F7F147F7F140018
S1130090242E6B6B3A120000466630180C66620020
S11300A0307A4F5D377A48000407030000000000EF
S11300B0001C3E63410000000041633E1C00000040
S11300C0082A3E1C1C3E2A0808083E3E0808000078
S11300D000A0E0600000000008080808080800000C
S11300E000006060000000006030180C060301008E
S11300F03E7F594D7F3E000042427F7F40400000DA
S1130100627359496F660000226349497F360000D3
S1130110181C16137F7F1000276745457D390000A2
S11301203C7E4B4979300000036371190F070000CE
S1130130367F49497F360000064F49693F1E00005B
S113014000006C6C0000000000A0EC6C00000000DB
S1130150081C366341000000141414141414000025
S1130160004163361C080000020351590F060000C9
S11301703E7F415D5D1F1E007C7E13137E7C00006C
S1130180417F7F49497F36001C3E63414163220021
S1130190417F7F41637F1C00417F7F495D41630054
S11301A0417F7F491D0103001C3E6341517372006E
S11301B07F7F08087F7F000000417F7F41000000AF
S11301C0307040417F3F0100417F7F081C7763000E
S11301D0417F7F41406070007F7F060C067F7F0077
S11301E07F7F060C187F7F001C3E6341633E1C002A
S11301F0417F7F49090F06001E3F21717F5E000089
S1130200417F7F19396F460026674D597B320000C4
S113021003417F7F410300007F7F40407F7F0000D8
S11302201F3F60603F1F00007F7F3018307F7F00DA
S113023063771C081C776300074F78784F0700002A
S11302406773594D47637100007F7F41410000008F
S11302500103060C183060000041417F7F0000005C
S1130260080C0603060C0800808080808080808053
S11302700000030704000000207454543C7840003C
S1130280413F7F44447C3800387C44446C2800005F
S1130290307848493F7F4000387C54545C18000053
S11302A0487E7F490302000098BCA4A4F87C0400A3
S11302B0417F7F08047C780000447D7D400000007D
S11302C040C484FD7D000000417F7F10386C4400F1
S11302D000417F7F400000007C7C0C180C7C78007F
S11302E07C7C04047C780000387C44447C38000026
S11302F084FCF8A4243C1800183C24A4F8FC8400D2
S1130300447C78441C180000485C54547424000055
S113031000043E7F442400003C7C40403C7C400080
S11303201C3C60603C1C00003C7C6030607C3C00F9
S1130330446C3810386C44009CBCA0A0FC7C0000C9
S11303404C64745C4C64000008083E774141000032
S113035000000077770000004141773E0808000064
S113036002030103020301006E616E00696E660000
S113037000407A10F35A00A0724E18090010A5D458
S1130380E80000E87648170000E40B54020000CAB5
S11303909A3B000000E1F5050000809698000000FB
S11303A040420F000000A08601000000102700005A
S11303B00000E803000000006400000000000A00E0
S11303C0000000000100000000002C76D888DC67E3
S11303D04F0823DFC1DFAE59E1B1B796E5E3E4533B
S11303E0C63AE651997696E8E6C28426EB898C9B58
S11303F062ED407C6FFCEFBC9C9F40F2BAA56FA5F8
S1130400F490055A2AF75C936B6CF9676DC11BFC79
S1130410E0E40D47FEF520E6B500D0ED902E030094
S1130420943577050080841E080000204E0A0000E1
S113043000C80C333333330F986E12831141EF8DA0
S11304402114893BE65516CFFEE6DB18D1844B38E0
S11304501BF77C1D901DA4BBE424203284725E2211
S11304608100C9F124ECA1E53D2711241FBECFEF83
S1130470D4E0DEBFCDBF12E0A0E0B1E0E8E7F6E2F1
S113048002C005900D92A434B107D9F722E0A4E488
S1130490B2E001C01D92A135B207E1F70E947504D4
S11304A00C943A130C940000CF93DF93CDB7DEB7CE
S11304B081E390E021E330E0F90120812B7FFC010E
S11304C02083DF91CF910895CF93DF9300D000D0A4
S11304D01F92CDB7DEB78D8380E094E19A83898340
S11304E08D81843010F080E01EC08D818460882F5F
S11304F090E09C838B832B8189819A81FC012083EA
S1130500000080E390E0FC018081882F90E08470FB
S113051099270097B1F78B819C8129813A81820FB9
S1130520931FFC0180810F900F900F900F900F90FC
S1130530DF91CF910895CF93DF93CDB7DEB787E3F3
S113054090E027E330E0F90120812E7FFC01208335
S113055087E390E027E330E0F90120812D7FFC015F
S1130560208388E390E028E330E0F90120812460CF
S1130570FC01208387E390E027E330E0F901208148
S11305802B7FFC012083DF91CF910895CF93DF93DC
S113059000D0CDB7DEB79A8389830E940C04DC01B6
S11305A0CB0129813A81F90180839183A283B383AA
S11305B00E942004DC01CB0129813A81F901848362
S11305C09583A683B78386E390E0FC018081882F1E
S11305D090E081709927009741F089819A8121E008
S11305E030E0FC013187208705C089819A81FC01B4
S11305F01186108686E390E0FC018081882F90E0CC
S113060082709927009741F089819A8121E030E036
S1130610FC013387228705C089819A81FC011386F6
S1130620128686E390E0FC018081882F90E084703C
S11306309927009731F089819A81FC0115861486E7
S113064007C089819A8121E030E0FC013587248745
S11306500F900F90DF91CF9108951F93CF93DF9365
S1130660CDB7DEB729970FB6F894DEBF0FBECDBF66
S11306706A837B838C839D832E833F83488759873A
S113068084E089838A819B81AC81BD81BF7711E03D
S113069020E030E048E452E4BC01CD010E94EE09C0
S11306A088230CF010E081E081278823B1F48E8147
S11306B09F81A885B985BF7711E020E030E048E448
S11306C052E4BC01CD010E94EE0988230CF010E035
S11306D081E08127882309F494C08A819B81AC81BD
S11306E0BD81BF7720E030E048E452E4BC01CD0195
S11306F00E940C0B181604F58E819F81A885B9857C
S1130700BF7720E030E048E452E4BC01CD010E9410
S1130710EE0988238CF420E030E0A9016A817B8112
S11307208C819D810E94EE0988231CF482E08983D8
S113073068C083E0898365C08A819B81AC81BD8167
S1130740BF7720E030E048E452E4BC01CD010E94D0
S1130750EE098823FCF48E819F81A885B985BF7733
S113076020E030E048E452E4BC01CD010E940C0BCF
S1130770181684F420E030E0A9016E817F81888519
S113078099850E94EE0988231CF481E0898339C08D
S1130790198237C02A813B814C815D816E817F81C2
S11307A0888599850E94F209DC01CB01BF7720E09E
S11307B030E040E85FE3BC01CD010E940C0B181649
S11307C084F420E030E0A9016E817F8188859985D9
S11307D00E94EE0988231CF481E0898312C01982E7
S11307E010C020E030E0A9016A817B818C819D8169
S11307F00E94EE0988231CF482E0898302C083E00E
S11308008983898129960FB6F894DEBF0FBECDBFC8
S1130810DF91CF911F910895CF93DF931F92CDB7AE
S1130820DEB781E00E946402898389810E943404D6
S1130830DC01CB01BC01CD010F90DF91CF91089574
S1130840CF93DF931F92CDB7DEB780E00E9464029E
S1130850898389810E943404DC01CB01BC01CD0170
S11308600F90DF91CF910895CF93DF9300D000D004
S11308701F92CDB7DEB78D838D81882F90E0A0E0E5
S1130880B0E0BC01CD010E945A0ADC01CB0189838E
S11308909A83AB83BC8320E030E040E053E4698179
S11308A07A818B819C810E948909DC01CB0120E043
S11308B030E040E053E4BC01CD010E94F209DC01C8
S11308C0CB0120E030E048EC52E4BC01CD010E94B1
S11308D0100BDC01CB01BC01CD010F900F900F90E8
S11308E00F900F90DF91CF910895CF93DF9300D0B5
S11308F000D0CDB7DEB70E94D4040E9402059A83CB
S1130900898389819A810E9425061C821B820EC0DC
S11309108B819C81009721F08130910521F006C0E4
S11309200E94A30403C00E94CD04000080910A0128
S1130930882371F780E090E00F900F900F900F9054
S1130940DF91CF910895CF93DF93CDB7DEB72F9783
S11309500FB6F894DEBF0FBECDBFCE0102960E9443
S1130960C6022E813F81488559858A819B81AC814D
S1130970BD81BC01CD010E942D0389830E9486069E
S1130980682F89810E94F4052F960FB6F894DEBF74
S11309900FBECDBFDF91CF910895CF93DF93CDB735
S11309A0DEB7DF91CF910895CF93DF9300D0CDB719
S11309B0DEB785E590E025E530E0F9012081206887
S11309C0FC01208380E590E020E530E0F9012081FE
S11309D02062FC0120838FE190E09A8389838981DE
S11309E09A810E9422090E943E080E9447080E94A0
S11309F054020E949B020E948F060F900F90DF9179
S1130A00CF9108950F931F93CF93DF9300D0CDB769
S1130A10DEB78AE090E00E94250F9A83898389815A
S1130A209A8121E131E0FC01318720878AE090E05E
S1130A300E94250F9C0189819A81FC0133832283C2
S1130A4089819A81FC01828193812BE131E0FC014F
S1130A503187208789819A81FC0182819381298150
S1130A603A81FC01318320838AE090E00E94250FC3
S1130A709C0189819A81FC013583248389819A812F
S1130A80FC018481958124E231E0FC0131872087D7
S1130A9089819A81FC018481958129813A81FC01B3
S1130AA0318320838AE090E00E94250F9C01898194
S1130AB09A81FC013783268389819A81FC0186818E
S1130AC097812FE231E0FC013187208789819A8167
S1130AD0FC018681978129813A81FC01318320833D
S1130AE089819A81FC01068117818AE090E00E9445
S1130AF0250FF8019383828389819A81FC01868181
S1130B009781FC018281938128E331E0FC013187E4
S1130B10208789819A81FC0186819781FC018281E9
S1130B20938129813A81F90126813781FC0131833E
S1130B30208389819A81FC01068117818AE090E0F3
S1130B400E94250FF8019583848389819A81FC0191
S1130B5086819781FC018481958127E431E0FC0141
S1130B603187208789819A81FC0186819781FC01E4
S1130B708481958129813A81F90126813781FC019B
S1130B803183208389819A81FC01068117818AE05F
S1130B9090E00E94250FF8019783868389819A81CA
S1130BA0FC0186819781FC018681978121E531E0F2
S1130BB0FC013187208789819A81FC018681978194
S1130BC0FC018681978129813A81F9012681378147
S1130BD0FC013183208389819A810F900F90DF91EA
S1130BE0CF911F910F910895CF93DF9300D0CDB78C
S1130BF0DEB789836A8380910B019981981719F470
S1130C0084E0898303C084E080930B018981882F69
S1130C1090E0009721F08130910549F011C08A815C
S1130C20815060E00E941F0810920B0109C08A8164
S1130C308F5F60E00E941F0881E080930B01000039
S1130C400F900F90DF91CF910895CF93DF9300D051
S1130C5000D0CDB7DEB79C838B838B819C819A8334
S1130C6089830E9402070E941C0762E080E00E94C0
S1130C709A078B819C81FC01808591850E94E50700
S1130C808B819C81FC0182819381009771F062E0E9
S1130C9082E00E949A078B819C81FC01828193816E
S1130CA0FC01808591850E94E5078B819C81FC0174
S1130CB082819381009771F062E083E00E949A0739
S1130CC08B819C81FC0184819581FC0180859185C7
S1130CD00E94E5078B819C81FC01828193810097AE
S1130CE071F062E084E00E949A078B819C81FC0190
S1130CF086819781FC01808591850E94E5070F908C
S1130D000F900F900F90DF91CF910895CF93DF93C1
S1130D10CDB7DEB780911001DF91CF910895CF93C5
S1130D20DF93CDB7DEB78EEA0E94E00681EA0E9427
S1130D30E0068AED0E94E00682E10E94E00688EC6B
S1130D400E94E00688EA0E94E0068FE30E94E00623
S1130D5085ED0E94E00680E80E94E00681E80E949A
S1130D60E00680E50E94E00689ED0E94E00681E24B
S1130D700E94E00680E20E94E00682E00E94E00613
S1130D808BED0E94E00680E30E94E0068DEA0E945B
S1130D90E00680E00E94E00684EA0E94E00686EA1B
S1130DA00E94E0068FEA0E94E0060E9402070E9469
S1130DB01C0760E082E00E941F08DF91CF91089534
S1130DC0CF93DF931F92CDB7DEB7898380910C0157
S1130DD090910D012981FC0120830F90DF91CF9127
S1130DE00895CF93DF931F92CDB7DEB789838091A7
S1130DF00E0190910F012981FC0120830F90DF9156
S1130E00CF910895CF93DF9300D0CDB7DEB71A8288
S1130E10198208C089810E947A0789819A81019682
S1130E209A83898389819A81883091059CF30F90F4
S1130E300F90DF91CF910895CF93DF93CDB7DEB7B5
S1130E4081E20E94E00680E00E94E0068FE70E94B3
S1130E50E00682E20E94E00680E00E94E00687E06D
S1130E600E94E00610921001DF91CF910895CF9374
S1130E70DF931F92CDB7DEB789838981883038F438
S1130E80898180931001898180550E94E0060F902A
S1130E90DF91CF910895CF93DF9300D01F92CDB708
S1130EA0DEB78B838B81882F90E0880F991F880F82
S1130EB0991F880F991F80389105B4F48B81880F8E
S1130EC0880F880F8B838B81809344028B818F7072
S1130ED089838B8182958F70805F8A8389810E9448
S1130EE0E0068A810E94E0060F900F900F90DF9138
S1130EF0CF910895CF93DF9300D01F92CDB7DEB783
S1130F008B838B810E9437071A82198208C080E084
S1130F100E94F10689819A8101969A838983898145
S1130F209A81803891059CF30F900F900F90DF9178
S1130F30CF910895CF93DF9300D0CDB7DEB78983E7
S1130F406A8389810E9437078A810E944B070F9028
S1130F500F90DF91CF910895CF93DF9300D000D00D
S1130F6000D0CDB7DEB78E831A82198220C08E815D
S1130F70882F90E080979C01220F331F220F331F8C
S1130F80220F331F89819A81820F931F80599F4FAB
S1130F909C838B838B819C81FC0184918D838D81C7
S1130FA00E94F10689819A8101969A8389838981B5
S1130FB09A8188309105DCF226960FB6F894DEBF4C
S1130FC00FBECDBFDF91CF910895CF93DF9300D0B3
S1130FD000D0CDB7DEB79C838B831A8219821EC0E2
S1130FE089819A812B813C81820F931FFC0180812E
S1130FF00E94AC0789819A8101969A8389838981A9
S11310009A818031910529F089819A8180329105F4
S113101029F4809110018F5F0E94370789819A819A
S11310202B813C81820F931FFC0180818823C1F6B0
S11310300F900F900F900F90DF91CF910895CF9361
S1131040DF9300D0CDB7DEB789836A836A81898153
S11310500E949A0788E10E94F10688E10E94F10645
S11310608EE70E94F1068CE30E94F10688E10E945B
S1131070F1060F900F90DF91CF910895CF93DF93F6
S1131080CDB7DEB780E090E0DF91CF910895CF93A4
S1131090DF93CDB7DEB762970FB6F894DEBF0FBE0D
S11310A0CDBF80E098E19A87898780E098E09C87AB
S11310B08B871A8219821C821B828FE591E00E9421
S11310C029120E949A109E878D878D859E850E9485
S11310D09F101E821D8244C00E949A108F8729850A
S11310E03A858D819E81820F931F2F85FC01208379
S11310F029853A858D819E81820F931FFC01808111
S1131100888B98898F85981731F18F85282F30E047
S11311108889882F90E0432F4F932F93292F2F9363
S11311208F938E818F938D818F9385E791E0892FA3
S11311308F9385E791E08F930E9415128DB79EB728
S113114008960FB6F894DEBF0FBECDBF89819A8191
S113115001969A8389838D819E8101969E838D83D6
S11311602D813E818B859C852817390708F4B4CFDF
S11311708D859E850E949F1018861F823BC00E9409
S11311809A10898B29853A858F819885820F931FC0
S1131190FC0180818A8B9A898989981731F1898920
S11311A0282F30E08A89882F90E0432F4F932F9384
S11311B0292F2F938F9388858F938F818F938EEA16
S11311C091E0892F8F938EEA91E08F930E941512FC
S11311D08DB79EB708960FB6F894DEBF0FBECDBF8D
S11311E08B819C8101969C838B838F81988501964A
S11311F098878F832F8138858B859C85281739079D
S113120008F4BDCF8C818F938B818F938A818F93C8
S113121089818F938BEE91E0892F8F938BEE91E0F0
S11312208F930E9415120F900F900F900F900F90B4
S11312300F9062960FB6F894DEBF0FBECDBFDF915C
S1131240CF910895CF93DF9300D0CDB7DEB79A83C3
S1131250898380E490E029813A81232F3327FC019C
S1131260208389E290E02981FC0120838AE290E0D6
S113127028E1FC01208380E490E02EE8FC01208337
S113128060E779E08FE499E00E9498119093460218
S1131290809345020F900F90DF91CF910895CF93E3
S11312A0DF9300D01F92CDB7DEB789837B836A8337
S11312B000008BE290E0FC018081882F90E0807236
S11312C099270097B1F38CE290E02981FC012083F7
S11312D080E090E00F900F900F90DF91CF910895F0
S11312E0CF93DF9300D0CDB7DEB79A838983000014
S11312F08BE290E0FC0180818823D4F78CE290E0BB
S1131300FC018081882F90E00F900F90DF91CF91A6
S113131008955058BB27AA270ED044C135D130F0C8
S11313203AD120F031F49F3F11F41EF42AC10EF497
S1131330E095E7FB20C1E92F46D180F3BA17620795
S113134073078407950718F071F49EF55EC10EF4D7
S1131350E0950B2EBA2FA02D0B01B90190010C01C1
S1131360CA01A0011124FF27591B99F0593F50F4D9
S1131370503E68F11A16F040A22F232F342F442731
S1131380585FF3CF469537952795A795F040539529
S1131390C9F77EF41F16BA0B620B730B840BBAF0F9
S11313A09150A1F0FF0FBB1F661F771F881FC2F764
S11313B00EC0BA0F621F731F841F48F48795779578
S11313C06795B795F7959E3F08F0B3CF9395880F2F
S11313D008F09927EE0F979587950895A8D008F4FB
S11313E081E008950CD0DEC0D6D040F0CDD030F0EE
S11313F021F45F3F19F0BFC0511108C1C2C0E3D04E
S113140098F39923C9F35523B1F3951B550BBB27C7
S1131410AA2762177307840738F09F5F5F4F220F74
S1131420331F441FAA1FA9F333D00E2E3AF0E0E86D
S113143030D091505040E695001CCAF729D0FE2FB9
S113144027D0660F771F881FBB1F2617370748074B
S1131450AB07B0E809F0BB0B802DBF01FF27935801
S11314605F4F2AF09E3F510568F085C0CFC05F3FB3
S1131470ECF3983EDCF3869577956795B795F795E9
S11314809F5FC9F7880F911D9695879597F90895E1
S1131490E1E0660F771F881FBB1F6217730784077D
S11314A0BA0720F0621B730B840BBA0BEE1F88F78C
S11314B0E0950895E89409C097FB3EF490958095D3
S11314C0709561957F4F8F4F9F4F9923A9F0F92F06
S11314D096E9BB279395F695879577956795B79584
S11314E0F111F8CFFAF4BB0F11F460FF1BC06F5F6A
S11314F07F4F8F4F9F4F16C0882311F096E911C07C
S1131500772321F09EE8872F762F05C0662371F09C
S113151096E8862F70E060E02AF09A95660F771FB0
S1131520881FDAF7880F9695879597F90895990F8C
S11315300008550FAA0BE0E8FEEF16161706E80799
S1131540F907C0F012161306E407F50798F0621BBA
S1131550730B840B950B39F40A2661F0232B242B8F
S1131560252B21F408950A2609F4A140A6958FEFAE
S1131570811D811D089597F99F6780E870E060E000
S113158008959FEF80EC089500240A941616170618
S113159018060906089500240A9412161306140660
S11315A005060895092E0394000C11F4882352F0C3
S11315B0BB0F40F4BF2B11F460FF04C06F5F7F4F7B
S11315C08F4F9F4F089557FD9058440F551F59F062
S11315D05F3F71F04795880F97FB991F61F09F3F1C
S11315E079F087950895121613061406551FF2CF45
S11315F04695F1DF08C0161617061806991FF1CF95
S113160086957105610508940895E894BB276627BB
S11316107727CB0197F908958ADF08F48FEF0895AF
S11316200BD0C0CFB1DF28F0B6DF18F0952309F056
S1131630A2CFA7CF1124EACFC6DFA0F3959FD1F3A1
S1131640950F50E0551F629FF001729FBB27F00D6C
S1131650B11D639FAA27F00DB11DAA1F649F6627C1
S1131660B00DA11D661F829F2227B00DA11D621F10
S1131670739FB00DA11D621F839FA00D611D221FCA
S1131680749F3327A00D611D231F849F600D211DAE
S1131690822F762F6A2F11249F5750408AF0E1F051
S11316A088234AF0EE0FFF1FBB1F661F771F881F9A
S11316B091505040A9F79E3F510570F05CCFA6CFE2
S11316C05F3FECF3983EDCF3869577956795B79585
S11316D0F795E7959F5FC1F7FE2B880F911D9695AF
S11316E0879597F90895A3E1B0E0E9E7FBE00C944E
S11316F0EE0E7C011B016A01FC01178216828381B4
S113170081FF66C3BE016F5F7F4F4B01F701938179
S1131710F10193FD859193FF81911F01882309F4C1
S113172053C3853239F493FD859193FF81911F0151
S1131730853239F4B70190E00E94E3115601650146
S1131740E5CF10E0512C20E02032A0F48B3269F078
S113175030F4803259F0833269F420612CC08D3228
S113176039F0803339F4216026C02260246023C01C
S1131770286021C027FD27C030ED380F3A3078F4B7
S113178026FF06C0FAE01F9F300D1124132F13C04B
S11317906AE0569E300D1124532E20620CC08E3206
S11317A021F426FD11C3206406C08C3611F4206890
S11317B002C0883641F4F10193FD859193FF819134
S11317C01F018111C1CF9BEB980F933018F4206156
S11317D0805E06C09BE9980F933008F0AAC12F7E63
S11317E026FF16E02F73722E853621F4F22FF06453
S11317F07F2E08C0863621F4622F6068762E02C0E0
S11318001111115077FE07C01C3348F4442443944B
S1131810410E27E00BC0183030F4212F06C027E01A
S11318204CE3442E03C027E017E0412C560174E03A
S1131830A70EB11CF6016081718182819381042D10
S1131840A4010E94AA106C01098100FF02C003FFD9
S113185006C071FC07C072FC08C0612C08C03DE2E0
S1131860632E05C02BE2622E02C090E2692E802F07
S11318708C7099F1662011F084E001C083E0851535
S113188010F0512C0BC0581A73FC08C0B70180E249
S113189090E00E94E3115A94C9F7F3CF662029F02F
S11318A0B701862D90E00E94E31103FD03C00CE60E
S11318B013E002C008E613E0F72DF0717F2EF80163
S11318C08491882309F476C271108052B70190E0A4
S11318D00E94E3110F5F1F4FF2CF77FE0FC04C0C35
S11318E004FF04C08A81813309F44A94141474F502
S11318F0F8E0F41578F588E0482E2CC076FC2AC070
S1131900812F90E08C159D059CF06CEFC6166FEF4F
S1131910D60674F0772D7068772E0AC0E2E0F0E006
S1131920EC0FFD1FE10FF11D8081803319F411507C
S11319301111F4CF77FE0EC044244394410E812F3D
S113194090E0C816D9062CF41C1904C0442443940E
S113195001C010E077FE07C01C141D043CF496017E
S11319602F5F3F4F05C025E030E002C021E030E0AA
S1131970662011F02F5F3F4F112331F0412F50E0CB
S11319804F5F5F4F240F351F452D50E02417350757
S113199014F4521A01C0512C872D897049F4552032
S11319A039F0B70180E290E00E94E3115A94F7CF36
S11319B0662029F0B701862D90E00E94E31173FCA4
S11319C009C0552039F0B70180E390E00E94E3118B
S11319D05A94F7CF77FE5FC09C2D8D2DD7FE02C0A1
S11319E090E080E0692E782E40E050E0C601841932
S11319F091099D878C87960126193709280D391D71
S1131A00812F90E0EE27FF27E81BF90BFF87EE8775
S1131A10FFEF6F167F0669F4B7018EE290E02B8B1F
S1131A203A8B488B598B0E94E311598948893A892A
S1131A302B89C614D70454F06C857D85661577050B
S1131A402CF4F901E40FF51F818101C080E371E0FA
S1131A50671A71084F5F5F4FEE85FF856E167F062C
S1131A606CF0B70190E02B8B3A8B488B598B0E941A
S1131A70E3112B893A8948895989CACF6C147D04AA
S1131A8039F49A81963318F4953311F404FF81E301
S1131A90B70190E04BC08A81813309F00F7EB70112
S1131AA090E00E94E311111105C074FE18C085E492
S1131AB090E017C0B7018EE290E00E94E31182E04B
S1131AC066246394680EF401E80FF11D8081B70168
S1131AD090E00E94E311115041F3862DF1CF85E689
S1131AE090E0B7010E94E311D7FC05C0C114D104F2
S1131AF039F404FF05C0D194C194D1088DE201C02A
S1131B008BE2B70190E00E94E31180E36AE0C6161D
S1131B10D1042CF08F5FFAE0CF1AD108F7CFB701C8
S1131B2090E00E94E311B701C601C0960E94E31140
S1131B3041C1833631F0833779F0833509F058C0D9
S1131B4021C0560172E0A70EB11CF6018081898381
S1131B5001E010E0640114C05601F2E0AF0EB11CC4
S1131B60F601C080D18026FF03C0612F70E002C05F
S1131B706FEF7FEFC6012B8B0E948D118C012B8997
S1131B802F7715C05601F2E0AF0EB11CF601C080EC
S1131B90D18026FF03C0612F70E002C06FEF7FEF9A
S1131BA0C6012B8B0E9482118C012B892068722E16
S1131BB023FD1AC0852D90E008171907A8F4B70172
S1131BC080E290E00E94E3115A94F4CFF60177FC8E
S1131BD0859177FE81916F01B70190E00E94E31136
S1131BE051105A94015011090115110579F7E2C0F9
S1131BF0843611F0893651F5560127FF09C0F4E007
S1131C00AF0EB11CF60160817181828193810AC09B
S1131C10F2E0AF0EB11CF60160817181882777FD77
S1131C208095982F022F0F7697FF08C09095809586
S1131C30709561957F4F8F4F9F4F00682AE030E089
S1131C40A4010E945612C82EC8183EC0022F853720
S1131C5021F40F7E2AE030E01DC0097F8F3691F019
S1131C6018F4883559F0B0C0803719F0883711F06E
S1131C70ABC0006104FF09C0046007C024FF08C0B2
S1131C80066006C028E030E005C020E130E002C074
S1131C9020E132E0560107FF09C0F4E0AF0EB11CA9
S1131CA0F601608171818281938108C0F2E0AF0EF8
S1131CB0B11CF6016081718180E090E0A4010E9472
S1131CC05612C82EC8180F7706FF0BC0202F2E7F80
S1131CD0C11650F404FF0AC002FD08C0202F2E7E56
S1131CE005C0DC2C202F03C0DC2C01C0D12E24FF26
S1131CF00DC0FE01EC0DF11D8081803311F4297EAD
S1131D0009C022FF06C0D394D39404C0822F8678DE
S1131D1009F0D39423FD13C020FF06C01C2DD51455
S1131D2018F4150D1D19D52CD51468F4B70180E2EB
S1131D3090E02B8B0E94E311D3942B89F5CFD5141B
S1131D4010F45D1801C0512C24FF12C0B70180E3C8
S1131D5090E02B8B0E94E3112B8922FF17C021FFF7
S1131D6003C088E590E002C088E790E0B7010CC0AA
S1131D70822F867859F021FD02C080E201C08BE2F7
S1131D8027FD8DE2B70190E00E94E311C11638F4FB
S1131D90B70180E390E00E94E3111150F7CFCA9499
S1131DA0F401EC0DF11D8081B70190E00E94E31174
S1131DB0C110F5CF552009F4C2CCB70180E290E000
S1131DC00E94E3115A94F6CFF7018681978102C0ED
S1131DD08FEF9FEF6396E2E10C940A0F2F923F92EC
S1131DE04F925F926F927F928F929F92AF92BF9227
S1131DF0CF92DF92EF92FF920F931F93CF93DF93D3
S1131E00CDB7DEB7CA1BDB0B0FB6F894DEBF0FBE2F
S1131E10CDBF09942A88398848885F846E847D847C
S1131E208C849B84AA84B984C884DF80EE80FD807E
S1131E300C811B81AA81B981CE0FD11D0FB6F894F4
S1131E40DEBF0FBECDBFED010895CF93DF93823087
S1131E50910510F482E090E0E0914902F0914A0289
S1131E6020E030E0A0E0B0E0309739F140815181CA
S1131E7048175907B8F04817590771F482819381BC
S1131E80109729F013969C938E9312972CC09093DD
S1131E904A028093490227C02115310531F04217C7
S1131EA0530718F0A901DB0101C0EF019A01BD013C
S1131EB0DF010280F381E02DD7CF21153105F9F040
S1131EC0281B390B2430310580F48A819B816115EC
S1131ED0710521F0FB019383828304C090934A022D
S1131EE080934902FE01329644C0FE01E20FF31FC3
S1131EF08193919322503109398328833AC02091E8
S1131F00470230914802232B41F420910201309181
S1131F10030130934802209347022091000130913D
S1131F2001012115310541F42DB73EB7409104015B
S1131F3050910501241B350BE0914702F0914802B2
S1131F40E217F307A0F42E1B3F0B2817390778F08C
S1131F50AC014E5F5F4F2417350748F04E0F5F1FEB
S1131F6050934802409347028193919302C0E0E06A
S1131F70F0E0CF01DF91CF910895CF93DF930097E5
S1131F8009F487C0FC01329713821282C09149027E
S1131F90D0914A02209781F420813181280F391F82
S1131FA080914702909148028217930779F5F09344
S1131FB04802E09347026DC0DE0120E030E0AE1736
S1131FC0BF0750F412964D915C9113979D014115F2
S1131FD0510509F1DA01F3CFB383A2834081518122
S1131FE0840F951F8A179B0771F48D919C9111970B
S1131FF0840F951F02969183808312968D919C91F4
S11320001397938382832115310529F4F0934A02AF
S1132010E09349023EC0D9011396FC93EE931297C4
S11320204D915D91A40FB51FEA17FB0779F48081E8
S11320309181840F951F0296D90111969C938E93DA
S11320408281938113969C938E931297E0E0F0E043
S11320508A819B81009719F0FE01EC01F9CFCE0132
S1132060029628813981820F931F20914702309173
S113207048022817390769F4309729F410924A0264
S11320801092490202C013821282D0934802C09374
S11320904702DF91CF9108958F929F92AF92BF92A2
S11320A0CF92DF92EF92FF92CF93DF93EC0168819E
S11320B079818A819B81611571058105910521F4DE
S11320C064E279ED8BE597E02DE133EF41E050E0F8
S11320D00E94D71249015A019B01AC01A7EAB1E45D
S11320E00E94F6126B017C01ACEEB4EFA5019401E1
S11320F00E940413C60ED71EE81EF91EF7FE06C082
S113210081E0C81AD108E10880E8F80AC882D982B7
S1132110EA82FB82C6019F77DF91CF91FF90EF9017
S1132120DF90CF90BF90AF909F908F9008950E94C2
S11321304C10089586E091E00E944C100895A0E0B0
S1132140B0E08093060190930701A0930801B09337
S113215009010895283008F027E03327DA01990FA0
S1132160311D87FD916000966105710539F4326077
S11321702E5F3D9330E32A95E1F708959F3F30F0B9
S113218080387105610509F03C5F3C5F3D939130F7
S113219008F08068911DDF93CF931F930F93FF92F4
S11321A0EF92192F987F9695E92F96959695E90FBA
S11321B0FF27E653FC4F99273327EE24FF24A7017A
S11321C0E70105900894079428F4360FE71EF81EDB
S11321D0491F511D660F771F881F991F0694A1F789
S11321E00590079428F4E70EF81E491F561FC11DD9
S11321F0770F881F991F661F0694A1F7059007940F
S113220028F4F80E491F561FC71FD11D880F991FA8
S1132210661F771F0694A1F70590079420F4490FD1
S1132220561FC71FD81F990F661F771F881F069454
S1132230A9F784911095177041F0D695C7955795D5
S11322404795F794E7941A95C1F7E0E7F3E06894AB
S11322501590159135916591959105907FE273954F
S1132260E118F10A430B560BC90BD009C0F7E10C76
S1132270F11E431F561FC91FD01D7EF4703311F485
S11322808A95E6CFE894015030F0080F0AF400274D
S1132290021708F4202F2395022F7A3328F079E3CC
S11322A07D932A95E9F710C07D932A9589F60694C3
S11322B097956795379517951794E118F10A430B8D
S11322C0560BC90BD00998F023957E9173957A33F8
S11322D008F070E37C932013B8F77E9170617D93CE
S11322E030F0839571E37D9370E32A95E1F711242F
S11322F0EF90FF900F911F91CF91DF91992787FD68
S113230090950895FC010590615070400110D8F734
S1132310809590958E0F9F1F0895FC016150704029
S113232001900110D8F7809590958E0F9F1F089506
S11323300F931F93CF93DF93EC018B01009731F43C
S11323406115710519F480E090E038C06EE070E02A
S113235081E090E00E94B412FC010097A1F380E8B0
S113236083830115110571F01387028781E8838344
S113237080914B0290914C02892B21F4F0934C02F2
S1132380E0934B022097C9F0D187C0878381826094
S1132390838380914D0290914E02892B71F4F093C6
S11323A04E02E0934D0280914F0290915002892B8E
S11323B021F4F0935002E0934F02CF01DF91CF91CB
S11323C01F910F9108950F931F93CF93DF93182FAD
S11323D0092FEB018B8181FD03C08FEF9FEF20C09C
S11323E082FF10C04E815F812C813D8142175307CB
S11323F07CF4E881F9819F012F5F3F4F3983288363
S1132400108306C0E885F985812F0995892B29F762
S11324102E813F812F5F3F4F3F832E83812F902F4B
S1132420DF91CF911F910F910895A0E0B0E0EBE10F
S1132430F2E10C94FE0EFE01359661917191AF01AB
S113244080914D0290914E020E94730BE2E00C9435
S11324501A0F0F931F93CF93DF93E0914D02F091E6
S11324604E02238121FF1BC0EC0100E010E08991A2
S113247060914D0270914E02DB011896ED91FC9132
S11324801997882331F00995892B89F30FEF1FEFF2
S1132490EECF8AE00995892B11F4C80102C08FEFB1
S11324A09FEFDF91CF911F910F910895FA01AA2711
S11324B0283051F1203181F1E8946F936E7F6E5F83
S11324C07F4F8F4F9F4FAF4FB1E03ED0B4E03CD031
S11324D0670F781F891F9A1FA11D680F791F8A1F14
S11324E0911DA11D6A0F711D811D911DA11D20D07B
S11324F009F468943F912AE0269F11243019305D35
S11325003193DEF6CF010895462F4770405D419325
S1132510B3E00FD0C9F7F6CF462F4F70405D4A3372
S113252018F0495D31FD4052419302D0A9F7EACF3A
S1132530B4E0A6959795879577956795BA95C9F769
S113254000976105710508959B01AC010A2E06945C
S11325505795479537952795BA95C9F7620F731F15
S1132560841F951FA01D08950F931F93CF93DF938E
S1132570869F8001879F100D969F100D1124C8011E
S11325800E94250FEC01009729F0A80160E070E09B
S11325900E94D012CE01DF91CF911F910F91089527
S11325A0DC0101C06D9341505040E0F70895052EC1
S11325B097FB1EF400940E94EE1257FD07D00E9470
S11325C0091307FC03D04EF40C94EE125095409579
S11325D0309521953F4F4F4F5F4F089590958095CB
S11325E0709561957F4F8F4F9F4F08950E942B13D5
S11325F0A59F900DB49F900DA49F800D911D112453
S11326000895B7FF0C94F6120E94F612821B930BE6
S11326100895A1E21A2EAA1BBB1BFD010DC0AA1F1F
S1132620BB1FEE1FFF1FA217B307E407F50720F037
S1132630A21BB30BE40BF50B661F771F881F991FB2
S11326401A9469F760957095809590959B01AC01FB
S1132650BD01CF010895A29FB001B39FC001A39F04
S1132660700D811D1124911DB29F700D811D1124C7
S10B2670911D0895F894FFCFB9
S113267800005102200001000000010400100012B3
S1132688FF4D41494E204D454E55004E4557204774
S1132698414D4500484947482053434F524500534C
S11326A8455454494E4753005345542044494646DB
S11326B84943554C545900444542554747494E47A8
S11326C80043414C2E204A4F59535449434B00531D
S11326D874617274696E67205352414D2074657336
S11326E8742E2E2E005772697465207068617365A4
S11326F8206572726F723A206578745F72616D5BDF
S11327082534645D203D2025303258202873686FB5
S1132718756C642062652025303258290A00526598
S11327287472696576616C2070686173652065727E
S1132738726F723A206578745F72616D5B253464D8
S11327485D203D2025303258202873686F756C64ED
S11327582062652025303258290A005352414D2001
S11327687465737420636F6D706C65746564207729
S1132778697468200A253464206572726F72732044
S1132788696E207772697465207068617365206169
S11327986E64200A253464206572726F727320692E
S11327A86E2072657472696576616C2070686173F5
S10727B8650A0A00A0
S9030000FC
