S01600006279676765726E5F6E6F64655F312E737265638B
S11300000C94B4010C94D1010C9456030C94D101BA
S11300100C94D1010C94D1010C94D1010C94D10114
S11300200C94D1010C94D1010C94D1010C94D10104
S11300300C94D1010C94D1010C94D1010C94D101F4
S11300400C94D1010C94D1010C94D1010C94D101E4
S11300500C94D1010C94D1010C94D1010C94D101D4
S11300600C94D1010C94D1010C94D1010C94D101C4
S1130070000000000000000000065F5F06000000B2
S11300800007070007070000147F7F147F7F140018
S1130090242E6B6B3A120000466630180C66620020
S11300A0307A4F5D377A48000407030000000000EF
S11300B0001C3E63410000000041633E1C00000040
S11300C0082A3E1C1C3E2A0808083E3E0808000078
S11300D000A0E0600000000008080808080800000C
S11300E000006060000000006030180C060301008E
S11300F03E7F594D7F3E000042427F7F40400000DA
S1130100627359496F660000226349497F360000D3
S1130110181C16137F7F1000276745457D390000A2
S11301203C7E4B4979300000036371190F070000CE
S1130130367F49497F360000064F49693F1E00005B
S113014000006C6C0000000000A0EC6C00000000DB
S1130150081C366341000000141414141414000025
S1130160004163361C080000020351590F060000C9
S11301703E7F415D5D1F1E007C7E13137E7C00006C
S1130180417F7F49497F36001C3E63414163220021
S1130190417F7F41637F1C00417F7F495D41630054
S11301A0417F7F491D0103001C3E6341517372006E
S11301B07F7F08087F7F000000417F7F41000000AF
S11301C0307040417F3F0100417F7F081C7763000E
S11301D0417F7F41406070007F7F060C067F7F0077
S11301E07F7F060C187F7F001C3E6341633E1C002A
S11301F0417F7F49090F06001E3F21717F5E000089
S1130200417F7F19396F460026674D597B320000C4
S113021003417F7F410300007F7F40407F7F0000D8
S11302201F3F60603F1F00007F7F3018307F7F00DA
S113023063771C081C776300074F78784F0700002A
S11302406773594D47637100007F7F41410000008F
S11302500103060C183060000041417F7F0000005C
S1130260080C0603060C0800808080808080808053
S11302700000030704000000207454543C7840003C
S1130280413F7F44447C3800387C44446C2800005F
S1130290307848493F7F4000387C54545C18000053
S11302A0487E7F490302000098BCA4A4F87C0400A3
S11302B0417F7F08047C780000447D7D400000007D
S11302C040C484FD7D000000417F7F10386C4400F1
S11302D000417F7F400000007C7C0C180C7C78007F
S11302E07C7C04047C780000387C44447C38000026
S11302F084FCF8A4243C1800183C24A4F8FC8400D2
S1130300447C78441C180000485C54547424000055
S113031000043E7F442400003C7C40403C7C400080
S11303201C3C60603C1C00003C7C6030607C3C00F9
S1130330446C3810386C44009CBCA0A0FC7C0000C9
S11303404C64745C4C64000008083E774141000032
S113035000000077770000004141773E0808000064
S1130360020301030203010011241FBECFEFD4E0F6
S1130370DEBFCDBF13E0A0E0B1E0EEEAF0E302C0DF
S113038005900D92A433B107D9F723E0A4E3B3E0B9
S113039001C01D92AC34B207E1F70E9484050C94AD
S11303A055180C940000CF93DF93CDB7DEB781E3EB
S11303B090E021E330E0F90120812B7FFC012083D0
S11303C0DF91CF910895CF93DF9300D000D01F9297
S11303D0CDB7DEB78D8380E094E19A8389838D81E4
S11303E0843010F080E01EC08D818460882F90E0FE
S11303F09C838B832B8189819A81FC01208300005B
S113040080E390E0FC018081882F90E0847099273C
S11304100097B1F78B819C8129813A81820F931FC8
S1130420FC0180810F900F900F900F900F90DF913F
S1130430CF910895CF93DF93CDB7DEB70E947207B3
S113044040E664E680E60E94800841E06FEF8BE2BC
S11304500E9480088BE590E02BE530E0F9012081D3
S11304602068FC01208385E590E025E530E0F90172
S113047020812860FC01208385E590E025E530E0BB
S1130480F90120812B7FFC012083789480E0DF91A7
S1130490CF910895CF93DF93CDB7DEB70E942108A3
S11304A0DF91CF910895CF93DF93CDB7DEB7279730
S11304B00FB6F894DEBF0FBECDBF9F838E830E941C
S11304C03F03882309F441C08E819F81FC01808110
S11304D091819B838A838A818C838C81807E8C83A7
S11304E08A819B81892F99278D836D8181E30E9465
S11304F056086C8182E30E9456088E819F81FC011C
S11305008281682F85E30E945608198212C089816E
S1130510882F90E02E813F81820F931F0396FC0168
S1130520908189818A5C692F0E94560889818F5F36
S113053089838E819F81FC0192818981891738F397
S113054081E80E946F0881E007C00E941903882394
S113055011F08FEF01C080E027960FB6F894DEBF4C
S11305600FBECDBFDF91CF9108950F931F93CF930B
S1130570DF93CDB7DEB72F970FB6F894DEBF0FBE6B
S1130580CDBF809134038823E9F181E60E943D08C0
S1130590882F90E0182F002782E60E943D08882FBC
S11305A090E0802B912B9C838B838B819C81807E1C
S11305B09E838D8385E60E943D088F831A8219826B
S11305C013C089818A590E943D08482F9E01285FE3
S11305D03F4F89819A81820F931FFC014083898157
S11305E09A8101969A8389838F81282F30E08981AB
S11305F09A81821793072CF380913403815080935E
S1130600340301C01F82CE0105962F960FB6F894CD
S1130610DEBF0FBECDBFDF91CF911F910F91089523
S1130620CF93DF93CDB7DEB780913403DF91CF91C1
S11306300895CF93DF931F92CDB7DEB780E30E9476
S11306403D0889838981882F90E0807299270097DB
S113065031F086E191E00E94F31481E00CC08981BD
S1130660882F90E080719927009721F08FE291E024
S11306700E94F31480E00F90DF91CF910895CF93FF
S1130680DF93CDB7DEB780E30E943D08882F90E06A
S113069088709927009731F08BE491E00E94F3145D
S11306A080E001C081E0DF91CF9108951F920F9205
S11306B000905F000F9211242F933F934F935F9309
S11306C06F937F938F939F93AF93BF93EF93FF9316
S11306D0CF93DF931F92CDB7DEB78CE20E943D0823
S11306E089838981882F90E08570992785309105C9
S11306F051F440E064E08CE20E94800840E061E054
S11307008CE20E948008898188232CF440E060E810
S11307108CE20E94800840E061E08CE20E94800844
S1130720809134038F5F809334030F90DF91CF91D6
S1130730FF91EF91BF91AF919F918F917F916F91B5
S11307405F914F913F912F910F9000925F000F9016
S11307501F901895CF93DF93CDB7DEB787E390E072
S113076027E330E0F90120812E7FFC01208387E319
S113077090E027E330E0F90120812D7FFC01208304
S113078088E390E028E330E0F90120812460FC0153
S1130790208387E390E027E330E0F90120812B7F79
S11307A0FC012083DF91CF910895CF93DF9300D094
S11307B0CDB7DEB79A8389830E941B05DC01CB0188
S11307C029813A81F90180839183A283B3830E94B2
S11307D02F05DC01CB0129813A81F90184839583BA
S11307E0A683B78386E390E0FC018081882F90E0A4
S11307F081709927009741F089819A8121E030E046
S1130800FC013187208705C089819A81FC0111860A
S1130810108686E390E0FC018081882F90E082704E
S11308209927009741F089819A8121E030E0FC0109
S11308303387228705C089819A81FC011386128639
S113084086E390E0FC018081882F90E084709927F2
S1130850009731F089819A81FC011586148607C0BE
S113086089819A8121E030E0FC01358724870F904B
S11308700F90DF91CF9108951F93CF93DF93CDB75E
S1130880DEB729970FB6F894DEBF0FBECDBF6A83DB
S11308907B838C839D832E833F834887598784E0A1
S11308A089838A819B81AC81BD81BF7711E020E07F
S11308B030E048E452E4BC01CD010E944911882390
S11308C00CF010E081E081278823B1F48E819F81B0
S11308D0A885B985BF7711E020E030E048E452E410
S11308E0BC01CD010E94491188230CF010E081E085
S11308F08127882309F494C08A819B81AC81BD81BE
S1130900BF7720E030E048E452E4BC01CD010E940E
S11309109812181604F58E819F81A885B985BF7732
S113092020E030E048E452E4BC01CD010E944911CA
S113093088238CF420E030E0A9016A817B818C81DA
S11309409D810E94491188231CF482E0898368C038
S113095083E0898365C08A819B81AC81BD81BF7737
S113096020E030E048E452E4BC01CD010E9449118A
S11309708823FCF48E819F81A885B985BF7720E008
S113098030E048E452E4BC01CD010E9498121816EC
S113099084F420E030E0A9016E817F818885998507
S11309A00E94491188231CF481E0898339C019828B
S11309B037C02A813B814C815D816E817F8188852E
S11309C099850E944D11DC01CB01BF7720E030E016
S11309D040E85FE3BC01CD010E949812181684F42C
S11309E020E030E0A9016E817F81888599850E948D
S11309F0491188231CF481E0898312C0198210C034
S1130A0020E030E0A9016A817B818C819D810E9474
S1130A10491188231CF482E0898302C083E089831E
S1130A20898129960FB6F894DEBF0FBECDBFDF9142
S1130A30CF911F910895CF93DF931F92CDB7DEB767
S1130A4081E00E94E301898389810E944305DC01DE
S1130A50CB01BC01CD010F90DF91CF910895CF93CD
S1130A60DF931F92CDB7DEB780E00E94E301898354
S1130A7089810E944305DC01CB01BC01CD010F90AB
S1130A80DF91CF910895CF93DF9300D000D01F92D0
S1130A90CDB7DEB78D838D81882F90E0A0E0B0E0E4
S1130AA0BC01CD010E94E611DC01CB0189839A834C
S1130AB0AB83BC8320E030E040E053E469817A8179
S1130AC08B819C810E94E410DC01CB0120E030E0AA
S1130AD040E053E4BC01CD010E944D11DC01CB0187
S1130AE020E030E048EC52E4BC01CD010E949C12AD
S1130AF0DC01CB01BC01CD010F900F900F900F9042
S1130B000F90DF91CF910895CF93DF93CDB7DEB7E8
S1130B106D970FB6F894DEBF0FBECDBF0E943C07A1
S1130B200E944A0210923903109237030E94DB0696
S1130B308B8380E090E0A0EAB1E48C839D83AE8354
S1130B40BF8320E030E04AE753E46C817D818E81ED
S1130B509F810E949C12DC01CB0188879987AA8718
S1130B60BB8720E030E040E85FE3688579858A85CB
S1130B709B850E94491188232CF481E090E09D8795
S1130B808C873FC020E03FEF4FE757E468857985C5
S1130B908A859B850E94981218164CF520E030E057
S1130BA040E251E46C817D818E819F810E949C1280
S1130BB0DC01CB01BC01CD010E94BA11DC01CB01E7
S1130BC09D878C870FC089E190E09F878E878E85F3
S1130BD09F850197F1F79F878E878C859D85019767
S1130BE09D878C878C859D85009769F714C06885DF
S1130BF079858A859B850E94BA11DC01CB019D878A
S1130C008C878C859D85998B888B88899989019798
S1130C10F1F7998B888B80913703882F90E00097A8
S1130C2021F08130910521F006C00E947B0603C0AB
S1130C300E94D40600000E941003882309F45AC0BD
S1130C400E94B5022BE0FC01DE01539601900D9247
S1130C502A95E1F78D89282F30E08B899C89432FD1
S1130C604F932F93292F2F938F9385E691E0892F0C
S1130C708F9385E691E08F930E94D8140F900F9084
S1130C800F900F900F900F901A82198226C09E0128
S1130C902A5E3F4F89819A81820F931FFC018081D4
S1130CA0882F90E0292F2F938F938A818F938981A6
S1130CB08F9389E891E0892F8F9389E891E08F934E
S1130CC00E94D8140F900F900F900F900F900F90D8
S1130CD089819A8101969A8389838D89282F30E0AE
S1130CE089819A818217930794F28AE090E00E94A6
S1130CF0EC141CCF1BCFCF93DF93CDB7DEB72F9768
S1130D000FB6F894DEBF0FBECDBF809139038823A0
S1130D1049F480913A0390913B030E94930B81E044
S1130D2080933903CE0102960E94D5032E813F8120
S1130D30488559858A819B81AC81BD81BC01CD01E7
S1130D400E943C04898380910A01682F89810E9452
S1130D50330B80930A012E853F8580913803882FB9
S1130D6090E02817390719F41F861E8602C01092D6
S1130D7038038E859F858130910569F480910A013D
S1130D800E94130C809337038E859F8580933803CC
S1130D9082E080930A012F960FB6F894DEBF0FBE4F
S1130DA0CDBFDF91CF910895CF93DF93CDB7DEB759
S1130DB0DF91CF910895CF93DF93CDB7DEB76E97D0
S1130DC00FB6F894DEBF0FBECDBFCE0106960E94CB
S1130DD0D5032A853B854C855D858E819F81A885B9
S1130DE0B985BC01CD010E943C0489838E819F8119
S1130DF0A885B985BC01CD010E94B511DC01CB01E8
S1130E009B838A838A859B85AC85BD85BC01CD0186
S1130E100E94B511DC01CB019D838C8384E690E0B4
S1130E209D8B8C8B88E08E8B8E859F858F8B88899C
S1130E309989888F8A899B89898F89818A8F8A81F8
S1130E409B81892F990F990B8B8F8A818C8F8C8131
S1130E509D81892F990F990B8D8F8C818E8FCE0157
S1130E6044960E9453026E960FB6F894DEBF0FBEEE
S1130E70CDBFDF91CF910895CF93DF9300D0CDB74D
S1130E80DEB785E590E025E530E0F90120812068B2
S1130E90FC01208380E590E020E530E0F901208129
S1130EA02062FC0120838FE190E09A838983898109
S1130EB09A810E947D100E94990F0E94A20F0E94A5
S1130EC0D3010E94AA030E94840D0E94C10890933A
S1130ED03B0380933A030E941A020F900F90DF9114
S1130EE0CF910895CF93DF93CDB7DEB72F970FB689
S1130EF0F894DEBF0FBECDBF0E942F0F0E949F0843
S1130F0080E090E0A0E2B1E489839A83AB83BC8360
S1130F1020E030E04AE753E469817A818B819C8147
S1130F200E949C12DC01CB018D839E83AF83B88722
S1130F3020E030E040E85FE36D817E818F81988519
S1130F400E94491188232CF481E090E09A878987D4
S1130F503FC020E03FEF4FE757E46D817E818F81F2
S1130F6098850E94981218164CF520E030E040E273
S1130F7051E469817A818B819C810E949C12DC01FD
S1130F80CB01BC01CD010E94BA11DC01CB019A87CF
S1130F9089870FC089E190E09C878B878B859C852E
S1130FA00197F1F79C878B8789859A8501979A87A2
S1130FB0898789859A85009769F714C06D817E8138
S1130FC08F8198850E94BA11DC01CB019A878987A9
S1130FD089859A859E878D878D859E850197F1F7F2
S1130FE09E878D878EE00E943D088F878F85882F8E
S1130FF090E0807E99278038910531F086E991E070
S11310000E94F31481E014C08F85882F90E0292F6B
S11310102F938F9388EC91E0892F8F9388EC91E044
S11310208F930E94D8140F900F900F900F9080E030
S11310302F960FB6F894DEBF0FBECDBFDF91CF91D0
S11310400895CF93DF931F92CDB7DEB740E060EEF3
S11310508FE00E9480088EE00E943D088983898188
S1131060882F90E0807E9927009711F081E001C0DD
S113107080E00F90DF91CF910895CF93DF9300D05C
S1131080CDB7DEB78A830E94790F83E00E944D0FAB
S11310908A810E944D0F0E94630F89830E94890FE9
S11310A089810F900F90DF91CF910895CF93DF93B3
S11310B000D0CDB7DEB789836A830E94790F82E0BE
S11310C00E944D0F89810E944D0F8A810E944D0F0D
S11310D00E94890F0F900F90DF91CF910895CF93C5
S11310E0DF931F92CDB7DEB789830E94790F898180
S11310F00E944D0F0E94890F0F90DF91CF910895A8
S1131100CF93DF9300D01F92CDB7DEB789836A8374
S11311104B830E94790F85E00E944D0F89810E94C4
S11311204D0F8A810E944D0F8B810E944D0F0E94AA
S1131130890F0F900F900F90DF91CF910895CF9367
S1131140DF93CDB7DEB70E94790F80EC0E944D0F7C
S11311500E94890FDF91CF910895CF93DF931F925F
S1131160CDB7DEB789838981882F90E0880F991FD6
S1131170845F9E4FFC01808191810F90DF91CF911C
S113118008950F931F93CF93DF9300D0CDB7DEB7AD
S11311908DE090E00E94FF129A83898389819A816D
S11311A025EE31E0FC01348723878DE090E00E9436
S11311B0FF129C0189819A81FC01338322838981F6
S11311C09A81FC01828193812FEE31E0FC01348706
S11311D0238789819A81FC018281938129813A81C3
S11311E0FC013183208389819A81FC01828193816E
S11311F0FC0112868DE090E00E94FF129C0189811F
S11312009A81FC013583248389819A81FC0184813C
S1131210958128EF31E0FC013487238789819A8105
S1131220FC018481958129813A81FC0131832083E9
S113123089819A81FC018481958121E0FC012287C6
S11312408DE090E00E94FF129C0189819A81FC014B
S11312503783268389819A81FC018681978123E0E3
S113126032E0FC013487238789819A81FC018681DD
S1131270978129813A81FC013183208389819A8174
S1131280FC011186108689819A8123E0FC01228762
S113129089819A81FC01048115818DE090E00E948E
S11312A0FF12F8019383828389819A81FC018481EE
S11312B09581FC01828193812CE032E0FC0134872A
S11312C0238789819A81FC0184819581FC01828133
S11312D0938129813A81F90124813581FC0131838B
S11312E0208389819A81FC0184819581FC0182811A
S11312F09381FC01128689819A81FC014481558184
S113130089819A81FC018481958129813A81F9013D
S113131024813581F90111861086F90120853185F2
S1131320FC0137832683FC0186819781FA0195832A
S1131330848389819A81FC01068117818DE090E084
S11313400E94FF12F8019383828389819A81FC01B0
S113135086819781FC018281938123E132E0FC0143
S11313603487238789819A81FC0186819781FC01D6
S11313708281938129813A81F90126813781FC0197
S11313803183208389819A81FC0186819781FC01C4
S1131390028113818DE090E00E94FF12F801938393
S11313A0828389819A81FC0186819781FC018281F3
S11313B09381FC018281938122E232E0FC01348733
S11313C0238789819A81FC0186819781FC0182812E
S11313D09381FC018281938129813A81F9012681DB
S11313E03781F90122813381FC0131832083898192
S11313F09A81FC0186819781FC01028113818DE031
S113140090E00E94FF12F8019583848389819A8178
S1131410FC0186819781FC0182819381FC01848196
S1131420958127E232E0FC013487238789819A8100
S1131430FC0186819781FC0182819381FC01848176
S1131440958129813A81F90126813781F901228127
S11314503381FC013183208389819A81FC01868157
S11314609781FC01028113818DE090E00E94FF12BC
S1131470F8019783868389819A81FC01868197810B
S1131480FC0182819381FC01868197812EE232E006
S1131490FC013487238789819A81FC0186819781A5
S11314A0FC0182819381FC018681978129813A81A3
S11314B0F90126813781F90122813381FC013183CD
S11314C0208389819A81FC0186819781FC010281B4
S11314D013818DE090E00E94FF12F80191878087CC
S11314E089819A81FC0186819781FC0182819381A3
S11314F0FC01808591852CE032E0FC013487238750
S113150089819A81FC0186819781FC018281938182
S1131510FC018085918529813A81F90126813781F1
S1131520F90122813381FC013183208389819A81ED
S1131530FC0186819781FC018281938124E0FC0176
S1131540228789819A81FC01068117818DE090E0D0
S11315500E94FF12F8019583848389819A81FC019A
S113156086819781FC018481958123E332E0FC012B
S11315703487238789819A81FC0186819781FC01C4
S11315808481958129813A81F90126813781FC0181
S11315903183208389819A81FC01068117818DE042
S11315A090E00E94FF12F8019783868389819A81D3
S11315B0FC0186819781FC01868197812DE332E0CD
S11315C0FC013487238789819A81FC018681978174
S11315D0FC018681978129813A81F901268137812D
S11315E0FC013183208389819A81FC010681178162
S11315F08DE090E00E94FF12F80191878087898135
S11316009A81FC0186819781FC01808591852CE07B
S113161032E0FC013487238789819A81FC01868129
S11316209781FC018085918529813A81F901268180
S11316303781FC013183208389819A81FC01868171
S1131640978124E0FC01228789819A8190933D034C
S113165080933C0389819A810F900F90DF91CF9101
S11316601F910F910895CF93DF9300D01F92CDB7B0
S1131670DEB78A836B8380913C0390913D03FC0128
S11316808285898380910B019A81981719F484E0EB
S11316908A8303C084E080930B018A81882F90E0C1
S11316A08130910509F18430910519F0009731F0EA
S11316B033C060E08B810E94100F2EC08B81833079
S11316C090F060E08B810E948B0E8BE492E00E948C
S11316D0D60E8B8181508B8360E08B810E94100F2A
S11316E010920B0119C018C09B818981891798F049
S11316F060E08B810E948B0E8BE492E00E94D60EF8
S11317008B818F5F8B8360E08B810E94100F81E05F
S113171080930B0100C000008B810F900F900F90FD
S1131720DF91CF910895CF93DF9300D000D0CDB750
S1131730DEB79C838B838B819C819A8389830E94EF
S1131740F30D0E940D0E62E080E00E948B0E8B81EF
S11317509C81FC01838594850E94D60E8B819C819B
S1131760FC0182819381009771F062E082E00E9423
S11317708B0E8B819C81FC0182819381FC0183858A
S113178094850E94D60E8B819C81FC018481958175
S1131790009771F062E083E00E948B0E8B819C8144
S11317A0FC0184819581FC01838594850E94D60E79
S11317B08B819C81FC0186819781009771F062E0A6
S11317C084E00E948B0E8B819C81FC018681978131
S11317D0FC01838594850E94D60E8B819C81FC013B
S11317E080859185009771F062E085E00E948B0E00
S11317F08B819C81FC0180859185FC018385948586
S11318000E94D60E62E087E00E948B0E8091350321
S11318100E94AD080E94D60E0F900F900F900F906B
S1131820DF91CF910895CF93DF931F92CDB7DEB7A9
S1131830898380913C0390913D03FC0183859485C9
S113184065EE71E00E9484140097A9F489818230C6
S113185009F4BFC08981833041F40E947D0D8981E0
S1131860882F90E00E94EF0CB4C08981882F90E00B
S11318700E94EF0CAEC080913C0390913D03FC01AB
S11318808385948563E072E00E948414009709F0D4
S11318903FC08981823031F48981882F90E00E9491
S11318A0EF0C97C08981833049F460E089810E94FC
S11318B08B0E8BE492E00E94D60E8BC0898184301B
S11318C049F460E089810E948B0E8BE492E00E94CF
S11318D0D60E7FC08981853009F07BC080913C039E
S11318E090913D03FC018081918190933D0380930D
S11318F03C0360E089810E948B0E8BE492E00E949D
S1131900D60E80913C0390913D030E94930B61C0DD
S113191080913C0390913D03FC018385948563E1B0
S113192072E00E948414009771F58981823019F461
S11319301092350321C08981833021F481E08093A2
S113194035031AC08981843021F482E08093350301
S113195013C080913C0390913D03FC0180819181EF
S113196090933D0380933C0360E089810E948B0E39
S11319708BE492E00E94D60E80913C0390913D034B
S11319800E94930B26C080913C0390913D03FC017F
S11319908385948568EF71E00E9484140097C9F4EC
S11319A080913C0390913D03FC018081918190934F
S11319B03D0380933C0360E089810E948B0E8BE49D
S11319C092E00E94D60E80913C0390913D030E94C8
S11319D0930B809136030F90DF91CF910895CF93AD
S11319E0DF931F92CDB7DEB789838981882F90E07A
S11319F08330910581F18430910509F454C082301B
S1131A00910509F076C080913C0390913D03FC015F
S1131A10828193810097F1F080913C0390913D0382
S1131A20FC018281938190933D0380933C0360E0A9
S1131A3089810E948B0E8BE492E00E94D60E62E0B4
S1131A4084E00E94330B80913C0390913D030E94FB
S1131A50930B4FC04EC080913C0390913D03FC0119
S1131A60848195810097F1F080913C0390913D032E
S1131A70FC018481958190933D0380933C0360E055
S1131A8089810E948B0E8BE492E00E94D60E62E064
S1131A9084E00E94330B80913C0390913D030E94AB
S1131AA0930B27C026C080913C0390913D03FC0119
S1131AB0868197810097E9F080913C0390913D03E2
S1131AC0FC018681978190933D0380933C0360E001
S1131AD089810E948B0E8BE492E00E94D60E62E014
S1131AE084E00E94330B80913C0390913D030E945B
S1131AF0930B0F90DF91CF910895CF93DF93CDB7E0
S1131B00DEB7DF91CF910895CF93DF93CDB7DEB7E2
S1131B108EEA0E94D10D81EA0E94D10D8AED0E94C5
S1131B20D10D82E10E94D10D88EC0E94D10D88EA8A
S1131B300E94D10D8FE30E94D10D85ED0E94D10D3D
S1131B4080E80E94D10D81E80E94D10D80E50E94B9
S1131B50D10D89ED0E94D10D81E20E94D10D80E268
S1131B600E94D10D82E00E94D10D8BED0E94D10D17
S1131B7080E30E94D10D8DEA0E94D10D80E00E9485
S1131B80D10D84EA0E94D10D86EA0E94D10D8FEA1C
S1131B900E94D10D0E94F30D0E940D0EDF91CF9192
S1131BA00895CF93DF931F92CDB7DEB789838091D9
S1131BB01201909113012981FC0120830F90DF9180
S1131BC0CF910895CF93DF931F92CDB7DEB789836A
S1131BD080911401909115012981FC0120830F90BB
S1131BE0DF91CF910895CF93DF9300D0CDB7DEB7C7
S1131BF01A82198208C089810E946B0E89819A8198
S1131C0001969A83898389819A81883091059CF30E
S1131C100F900F90DF91CF910895CF93DF93CDB7BD
S1131C20DEB781E20E94D10D80E00E94D10D8FE7E2
S1131C300E94D10D82E20E94D10D80E00E94D10D5C
S1131C4087E00E94D10D10923E03DF91CF91089559
S1131C50CF93DF931F92CDB7DEB789838981883014
S1131C6038F4898180933E03898180550E94D10D87
S1131C700F90DF91CF910895CF93DF9300D01F92FF
S1131C80CDB7DEB78B838B81882F90E0880F991FA7
S1131C90880F991F880F991F80389105B4F48B81A0
S1131CA0880F880F880F8B838B8180933F038B81F0
S1131CB08F7089838B8182958F70805F8A838981FD
S1131CC00E94D10D8A810E94D10D0F900F900F9028
S1131CD0DF91CF910895CF93DF9300D01F92CDB7BA
S1131CE0DEB78B838B810E94280E1A82198208C06A
S1131CF080E00E94E20D89819A8101969A8389830A
S1131D0089819A81803891059CF30F900F900F90F0
S1131D10DF91CF910895CF93DF9300D0CDB7DEB795
S1131D2089836A8389810E94280E8A810E943C0EDD
S1131D300F900F90DF91CF910895CF93DF9300D050
S1131D4000D000D0CDB7DEB78E831A82198220C0AE
S1131D508E81882F90E080979C01220F331F220FE1
S1131D60331F220F331F89819A81820F931F805959
S1131D709F4F9C838B838B819C81FC0184918D83F9
S1131D808D810E94E20D89819A8101969A838983CB
S1131D9089819A8188309105DCF226960FB6F894F1
S1131DA0DEBF0FBECDBFDF91CF910895CF93DF93F8
S1131DB000D000D0CDB7DEB79C838B831A82198202
S1131DC01EC089819A812B813C81820F931FFC0163
S1131DD080810E949D0E89819A8101969A838983CC
S1131DE089819A818031910529F089819A81803293
S1131DF0910529F480913E038F5F0E94280E89810A
S1131E009A812B813C81820F931FFC01808188235E
S1131E10C1F60F900F900F900F90DF91CF9108951E
S1131E20CF93DF9300D0CDB7DEB789836A836A810D
S1131E3089810E948B0E88E10E94E20D88E10E9454
S1131E40E20D8EE70E94E20D8CE30E94E20D88E130
S1131E500E94E20D0F900F90DF91CF910895CF93E0
S1131E60DF9300D0CDB7DEB787E390E020EBFC0131
S1131E7020838DE290E021E5FC0120838EE290E056
S1131E80FC01808189838FE290E0FC0180818A8358
S1131E900F900F90DF91CF910895CF93DF931F920E
S1131EA0CDB7DEB789838FE290E02981FC012083DE
S1131EB000008EE290E0FC0180818823D4F70F902B
S1131EC0DF91CF910895CF93DF93CDB7DEB78FE243
S1131ED090E0FC01108200008EE290E0FC01808121
S1131EE08823D4F78FE290E0FC018081DF91CF91C9
S1131EF00895CF93DF93CDB7DEB788E390E028E36E
S1131F0030E0F90120812F7EFC012083DF91CF9105
S1131F100895CF93DF93CDB7DEB788E390E028E34D
S1131F2030E0F90120812061FC012083DF91CF9111
S1131F300895CF93DF93CDB7DEB780E090E0DF91D3
S1131F40CF910895CF93DF93CDB7DEB762970FB6E5
S1131F50F894DEBF0FBECDBF80E098E19A878987F1
S1131F6080E098E09C878B871A8219821C821B82EE
S1131F708EE492E00E94F3140E9474149E878D876D
S1131F808D859E850E9479141E821D8244C00E9404
S1131F9074148F8729853A858D819E81820F931FC2
S1131FA02F85FC01208329853A858D819E81820FAE
S1131FB0931FFC018081888B98898F85981731F154
S1131FC08F85282F30E08889882F90E0432F4F9306
S1131FD02F93292F2F938F938E818F938D818F939E
S1131FE084E692E0892F8F9384E692E08F930E9497
S1131FF0D8148DB79EB708960FB6F894DEBF0FBEFF
S1132000CDBF89819A8101969A8389838D819E812E
S113201001969E838D832D813E818B859C85281717
S1132020390708F4B4CF8D859E850E9479141886EB
S11320301F823BC00E947414898B29853A858F8145
S11320409885820F931FFC0180818A8B9A898989E4
S1132050981731F18989282F30E08A89882F90E0F8
S1132060432F4F932F93292F2F938F9388858F93EB
S11320708F818F938DE992E0892F8F938DE992E080
S11320808F930E94D8148DB79EB708960FB6F89414
S1132090DEBF0FBECDBF8B819C8101969C838B8359
S11320A08F819885019698878F832F8138858B85BA
S11320B09C852817390708F4BDCF8C818F938B81B9
S11320C08F938A818F9389818F938AED92E0892FF0
S11320D08F938AED92E08F930E94D8140F900F9003
S11320E00F900F900F900F9062960FB6F894DEBF8A
S11320F00FBECDBFDF91CF910895CF93DF9300D072
S1132100CDB7DEB79A83898380E490E029813A8150
S1132110232F3327FC01208389E290E02981FC01ED
S113212020838AE290E028E1FC01208380E490E0AF
S11321302EE8FC0120836BEC70E18AEA90E10E94B6
S11321408D1490934103809340030F900F90DF917F
S1132150CF910895CF93DF9300D01F92CDB7DEB710
S113216089837B836A8300008BE290E0FC01808199
S1132170882F90E0807299270097B1F38CE290E069
S11321802981FC01208380E090E00F900F900F9054
S1132190DF91CF910895CF93DF9300D0CDB7DEB711
S11321A09A83898300008BE290E0FC01808188237C
S11321B0D4F78CE290E0FC018081882F90E00F90AE
S11321C00F90DF91CF9108955058BB27AA270ED0C6
S11321D075C166D130F06BD120F031F49F3F11F41A
S11321E01EF45BC10EF4E095E7FB51C1E92F77D1F2
S11321F080F3BA17620773078407950718F071F420
S11322009EF58FC10EF4E0950B2EBA2FA02D0B0175
S1132210B90190010C01CA01A0011124FF27591B27
S113222099F0593F50F4503E68F11A16F040A22F2D
S1132230232F342F4427585FF3CF4695379527959E
S1132240A795F0405395C9F77EF41F16BA0B620B9D
S1132250730B840BBAF09150A1F0FF0FBB1F661FE4
S1132260771F881FC2F70EC0BA0F621F731F841F27
S113227048F4879577956795B795F7959E3F08F04D
S1132280B3CF9395880F08F09927EE0F979587950C
S11322900895D9D008F481E008950CD00FC107D176
S11322A040F0FED030F021F45F3F19F0F0C051113E
S11322B039C1F3C014D198F39923C9F35523B1F369
S11322C0951B550BBB27AA2762177307840738F0A1
S11322D09F5F5F4F220F331F441FAA1FA9F333D000
S11322E00E2E3AF0E0E830D091505040E695001CB4
S11322F0CAF729D0FE2F27D0660F771F881FBB1F70
S1132300261737074807AB07B0E809F0BB0B802D49
S1132310BF01FF2793585F4F2AF09E3F510568F095
S1132320B6C000C15F3FECF3983EDCF38695779529
S11323306795B795F7959F5FC9F7880F911D969597
S1132340879597F90895E1E0660F771F881FBB1FF3
S1132350621773078407BA0720F0621B730B840BA0
S1132360BA0BEE1F88F7E095089504D06894B11174
S1132370D9C00895BCD088F09F5790F0B92F992701
S1132380B751A0F0D1F0660F771F881F991F1AF07C
S1132390BA95C9F712C0B13081F0C3D0B1E0089545
S11323A0C0C0672F782F8827B85F39F0B93FCCF3C6
S11323B0869577956795B395D9F73EF49095809572
S11323C0709561957F4F8F4F9F4F0895E89409C092
S11323D097FB3EF490958095709561957F4F8F4F54
S11323E09F4F9923A9F0F92F96E9BB279395F6956A
S11323F0879577956795B795F111F8CFFAF4BB0FE8
S113240011F460FF1BC06F5F7F4F8F4F9F4F16C04B
S1132410882311F096E911C0772321F09EE8872FD5
S1132420762F05C0662371F096E8862F70E060E091
S11324302AF09A95660F771F881FDAF7880F96950A
S1132440879597F90895990F0008550FAA0BE0E8AE
S1132450FEEF16161706E807F907C0F01216130662
S1132460E407F50798F0621B730B840B950B39F4A2
S11324700A2661F0232B242B252B21F408950A2608
S113248009F4A140A6958FEF811D811D089597F948
S11324909F6780E870E060E008959FEF80EC089506
S11324A000240A941616170618060906089500242F
S11324B00A9412161306140605060895092E0394A9
S11324C0000C11F4882352F0BB0F40F4BF2B11F41D
S11324D060FF04C06F5F7F4F8F4F9F4F089557FD7C
S11324E09058440F551F59F05F3F71F04795880F7E
S11324F097FB991F61F09F3F79F087950895121615
S113250013061406551FF2CF4695F1DF08C01616C0
S113251017061806991FF1CF869571056105089471
S11325200895E894BB2766277727CB0197F9089588
S11325308ADF08F48FEF08950BD0C0CFB1DF28F005
S1132540B6DF18F0952309F0A2CFA7CF1124EACF64
S1132550C6DFA0F3959FD1F3950F50E0551F629FFE
S1132560F001729FBB27F00DB11D639FAA27F00DE8
S1132570B11DAA1F649F6627B00DA11D661F829F0F
S11325802227B00DA11D621F739FB00DA11D621FF4
S1132590839FA00D611D221F749F3327A00D611D11
S11325A0231F849F600D211D822F762F6A2F1124F3
S11325B09F5750408AF0E1F088234AF0EE0FFF1F46
S11325C0BB1F661F771F881F91505040A9F79E3F7D
S11325D0510570F05CCFA6CF5F3FECF3983EDCF37F
S11325E0869577956795B795F795E7959F5FC1F7BA
S11325F0FE2B880F911D9695879597F90895CF9393
S1132600DF938230910510F482E090E0E09144037E
S1132610F091450320E030E0A0E0B0E0309739F1DC
S11326204081518148175907B8F04817590771F488
S113263082819381109729F013969C938E9312971D
S11326402CC0909345038093440327C02115310582
S113265031F04217530718F0A901DB0101C0EF0163
S11326609A01BD01DF010280F381E02DD7CF21154E
S11326703105F9F0281B390B2430310580F48A81A7
S11326809B816115710521F0FB019383828304C052
S11326909093450380934403FE01329644C0FE01A7
S11326A0E20FF31F819391932250310939832883D8
S11326B03AC02091420330914303232B41F42091EB
S11326C0020130910301309343032093420320918C
S11326D00001309101012115310541F42DB73EB7B8
S11326E04091040150910501241B350BE0914203F4
S11326F0F0914303E217F307A0F42E1B3F0B2817B6
S1132700390778F0AC014E5F5F4F2417350748F066
S11327104E0F5F1F50934303409342038193919361
S113272002C0E0E0F0E0CF01DF91CF910895CF93B4
S1132730DF93009709F487C0FC0132971382128259
S1132740C0914403D0914503209781F420813181C5
S1132750280F391F809142039091430382179307F6
S113276079F5F0934303E09342036DC0DE0120E06A
S113277030E0AE17BF0750F412964D915C91139759
S11327809D014115510509F1DA01F3CFB383A28309
S113279040815181840F951F8A179B0771F48D9195
S11327A09C911197840F951F0296918380831296B2
S11327B08D919C911397938382832115310529F47C
S11327C0F0934503E09344033EC0D9011396FC9370
S11327D0EE9312974D915D91A40FB51FEA17FB0775
S11327E079F480819181840F951F0296D901119605
S11327F09C938E938281938113969C938E931297CC
S1132800E0E0F0E08A819B81009719F0FE01EC0181
S1132810F9CFCE01029628813981820F931F20912E
S11328204203309143032817390769F4309729F498
S1132830109245031092440302C013821282D09373
S11328404303C0934203DF91CF9108958F929F92E7
S1132850AF92BF92CF92DF92EF92FF92CF93DF932A
S1132860EC01688179818A819B81611571058105FB
S1132870910521F464E279ED8BE597E02DE133EFE6
S113288041E050E00E94BB1749015A019B01AC0191
S1132890A7EAB1E40E94DA176B017C01ACEEB4EF55
S11328A0A50194010E94E817C60ED71EE81EF91E62
S11328B0F7FE06C081E0C81AD108E10880E8F80AEA
S11328C0C882D982EA82FB82C6019F77DF91CF91C9
S11328D0FF90EF90DF90CF90BF90AF909F908F903C
S11328E008950E942614089586E091E00E9426141B
S11328F00895A0E0B0E08093060190930701A093AF
S11329000801B09309010895FB01DC018D91019048
S113291080190110D9F3990B08950F931F93CF9346
S1132920DF93EC018B01009731F46115710519F403
S113293080E090E038C06EE070E081E090E00E94BA
S1132940F216FC010097A1F380E8838301151105B9
S113295071F01387028781E8838380914603909105
S11329604703892B21F4F0934703E0934603209710
S1132970C9F0D187C08783818260838380914803B3
S113298090914903892B71F4F0934903E093480330
S113299080914A0390914B03892B21F4F0934B03CC
S11329A0E0934A03CF01DF91CF911F910F910895D6
S11329B0A0E0B0E0EEEDF4E10C94FD17FE013596D5
S11329C061917191AF0180914803909149030E94F4
S11329D02015E2E00C9419186091480370914903A2
S11329E00E942B1708950F931F93CF93DF93E091C9
S11329F04803F0914903238121FF1BC0EC0100E04F
S1132A0010E089916091480370914903DB011896A5
S1132A10ED91FC911997882331F00995892B89F35D
S1132A200FEF1FEFEECF8AE00995892B11F4C8014F
S1132A3002C08FEF9FEFDF91CF911F910F91089507
S1132A40ACE0B0E0E6E2F5E10C94ED177C016B013B
S1132A508A01FC0117821682838181FFBDC1CE01E8
S1132A6001964C01F7019381F60193FD859193FF43
S1132A7081916F01882309F4ABC1853239F493FD48
S1132A80859193FF81916F01853229F4B70190E01C
S1132A900E942B17E7CF512C312C20E02032A0F4D8
S1132AA08B3269F030F4803259F0833269F420615A
S1132AB02CC08D3239F0803339F4216026C0226075
S1132AC0246023C0286021C027FD27C030ED380FC3
S1132AD03A3078F426FF06C0FAE05F9E300D1124E8
S1132AE0532E13C08AE0389E300D1124332E2062F9
S1132AF00CC08E3221F426FD6BC1206406C08C36D6
S1132B0011F4206802C0883641F4F60193FD8591E2
S1132B1093FF81916F018111C1CF982F9F7D9554AF
S1132B20933028F40C5F1F4FFFE3F9830DC0833605
S1132B3031F0833771F0833509F05BC022C0F801AE
S1132B40808189830E5F1F4F44244394512C540188
S1132B5015C03801F2E06F0E711CF801A080B1803D
S1132B6026FF03C0652D70E002C06FEF7FEFC50143
S1132B702C870E9420172C0183012C852F77222E6D
S1132B8017C03801F2E06F0E711CF801A080B1800B
S1132B9026FF03C0652D70E002C06FEF7FEFC50113
S1132BA02C870E940E172C012C852068222E83016D
S1132BB023FC1BC0832D90E048165906B0F4B701DE
S1132BC080E290E00E942B173A94F4CFF50127FCA1
S1132BD0859127FE81915F01B70190E00E942B1738
S1132BE031103A94F1E04F1A51084114510471F72D
S1132BF0E5C0843611F0893639F5F80127FF07C09E
S1132C0060817181828193810C5F1F4F08C0608154
S1132C107181882777FD8095982F0E5F1F4F2F763F
S1132C20B22E97FF09C090958095709561957F4F5E
S1132C308F4F9F4F2068B22E2AE030E0A4010E94FB
S1132C405D17A82EA81844C0853729F42F7EB22E0C
S1132C502AE030E025C0F22FF97FBF2E8F36C1F075
S1132C6018F4883579F0B4C0803719F0883721F02A
S1132C70AFC02F2F2061B22EB4FE0DC08B2D846007
S1132C80B82E09C024FF0AC09F2F9660B92E06C033
S1132C9028E030E005C020E130E002C020E132E06D
S1132CA0F801B7FE07C060817181828193810C5F56
S1132CB01F4F06C06081718180E090E00E5F1F4F5E
S1132CC0A4010E945D17A82EA818FB2DFF77BF2E24
S1132CD0B6FE0BC02B2D2E7FA51450F4B4FE0AC0F3
S1132CE0B2FC08C02B2D2E7E05C07A2C2B2D03C0E0
S1132CF07A2C01C0752C24FF0DC0FE01EA0DF11DD4
S1132D008081803311F4297E09C022FF06C07394A8
S1132D10739404C0822F867809F0739423FD13C042
S1132D2020FF06C05A2C731418F4530C5718732C34
S1132D30731468F4B70180E290E02C870E942B178B
S1132D4073942C85F5CF731410F4371801C0312C0B
S1132D5024FF12C0B70180E390E02C870E942B1758
S1132D602C8522FF17C021FF03C088E590E002C034
S1132D7088E790E0B7010CC0822F867859F021FDD6
S1132D8002C080E201C08BE227FD8DE2B70190E032
S1132D900E942B17A51438F4B70180E390E00E9439
S1132DA02B175A94F7CFAA94F401EA0DF11D8081F0
S1132DB0B70190E00E942B17A110F5CF332009F43E
S1132DC051CEB70180E290E00E942B173A94F6CFDF
S1132DD0F7018681978102C08FEF9FEF2C96E2E185
S1132DE00C9409180F931F93CF93DF93869F800150
S1132DF0879F100D969F100D1124C8010E94FF1289
S1132E00EC01009729F0A80160E070E00E94191716
S1132E10CE01DF91CF911F910F910895FC01059090
S1132E20615070400110D8F7809590958E0F9F1FC8
S1132E300895DC0101C06D9341505040E0F70895BE
S1132E40FC016150704001900110D8F78095909575
S1132E508E0F9F1F08950F931F93CF93DF93182F07
S1132E60092FEB018B8181FD03C08FEF9FEF20C001
S1132E7082FF10C04E815F812C813D814217530730
S1132E807CF4E881F9819F012F5F3F4F39832883C8
S1132E90108306C0E885F985812F0995892B29F7C8
S1132EA02E813F812F5F3F4F3F832E83812F902FB1
S1132EB0DF91CF911F910F910895FA01AA2728302D
S1132EC051F1203181F1E8946F936E7F6E5F7F4FF3
S1132ED08F4F9F4FAF4FB1E03ED0B4E03CD0670F6F
S1132EE0781F891F9A1FA11D680F791F8A1F911DC2
S1132EF0A11D6A0F711D811D911DA11D20D009F412
S1132F0068943F912AE0269F11243019305D319353
S1132F10DEF6CF010895462F4770405D4193B3E03C
S1132F200FD0C9F7F6CF462F4F70405D4A3318F0E3
S1132F30495D31FD4052419302D0A9F7EACFB4E094
S1132F40A6959795879577956795BA95C9F700974C
S1132F506105710508959B01AC010A2E06945795ED
S1132F60479537952795BA95C9F7620F731F841F44
S1132F70951FA01D0895052E97FB1EF400940E9432
S1132F80D21757FD07D00E94241807FC03D04EF433
S1132F900C94D21750954095309521953F4F4F4F43
S1132FA05F4F089590958095709561957F4F8F4FF1
S1132FB09F4F08950E944618A59F900DB49F900DB1
S1132FC0A49F800D911D11240895B7FF0C94DA1766
S1132FD00E94DA17821B930B08952F923F924F920F
S1132FE05F926F927F928F929F92AF92BF92CF9295
S1132FF0DF92EF92FF920F931F93CF93DF93CDB79E
S1133000DEB7CA1BDB0B0FB6F894DEBF0FBECDBF15
S113301009942A88398848885F846E847D848C84E6
S11330209B84AA84B984C884DF80EE80FD800C81EF
S11330301B81AA81B981CE0FD11D0FB6F894DEBFD2
S11330400FBECDBFED010895A1E21A2EAA1BBB1B32
S1133050FD010DC0AA1FBB1FEE1FFF1FA217B30760
S1133060E407F50720F0A21BB30BE40BF50B661F76
S1133070771F881F991F1A9469F76095709580953A
S113308090959B01AC01BD01CF010895A29FB001B1
S1133090B39FC001A39F700D811D1124911DB29F88
S11130A0700D811D1124911D0895F894FFCF29
S11330AE00004C032000010000000204220227024B
S11330BE2E02001000124D657373616765206C6FEC
S11330CE7374206172626974726174696F6E0054F4
S11330DE72616E736D697373696F6E206572726F50
S11330EE722064657465637465640043414E207494
S11330FE72616E736D6974206E6F7420636F6D7080
S113310E6C657465004D6573736167652049443A57
S113311E2025752C206D657373616765206C656E53
S113312E6774683A2025640A00446174612025643A
S113313E3A20256420004D435032353135206973D1
S113314E204E4F5420696E20636F6E6669677572E8
S113315E6174696F6E206D6F64652061667465724B
S113316E20726573657421004D435032353135201C
S113317E6D6F646520616674657220696E69743A58
S113318E2025640A004D41494E204D454E55004EB2
S113319E45572047414D4500484947482053434F22
S11331AE52450053455454494E47530052455455C5
S11331BE524E0053455420444946464943554C54B7
S11331CE590045415359004D454449554D00484118
S11331DE524400444542554747494E470043414CEB
S11331EE2E204A4F59535449434B00202000537408
S11331FE617274696E67205352414D207465737405
S113320E2E2E2E00577269746520706861736520C6
S113321E6572726F723A206578745F72616D5B25A8
S113322E34645D203D2025303258202873686F7534
S113323E6C642062652025303258290A0052657468
S113324E72696576616C207068617365206572724F
S113325E6F723A206578745F72616D5B2534645DBC
S113326E203D2025303258202873686F756C6420F9
S113327E62652025303258290A005352414D20747C
S113328E65737420636F6D706C6574656420776903
S113329E7468200A253464206572726F7273206913
S11332AE6E20777269746520706861736520616E33
S11332BE64200A253464206572726F727320696EFD
S11332CE2072657472696576616C207068617365CD
S10732DE0A0A0000D4
S9030000FC
