:100000000C94B4010C94D1010C9495030C94D1017F
:100010000C94D1010C94D1010C94D1010C94D10118
:100020000C94D1010C94D1010C94D1010C94D10108
:100030000C94D1010C94D1010C94D1010C94D101F8
:100040000C94D1010C94D1010C94D1010C94D101E8
:100050000C94D1010C94D1010C94D1010C94D101D8
:100060000C94D1010C94D1010C94D1010C94D101C8
:10007000000000000000000000065F5F06000000B6
:100080000007070007070000147F7F147F7F14001C
:10009000242E6B6B3A120000466630180C66620024
:1000A000307A4F5D377A48000407030000000000F3
:1000B000001C3E63410000000041633E1C00000044
:1000C000082A3E1C1C3E2A0808083E3E080800007C
:1000D00000A0E06000000000080808080808000010
:1000E00000006060000000006030180C0603010092
:1000F0003E7F594D7F3E000042427F7F40400000DE
:10010000627359496F660000226349497F360000D7
:10011000181C16137F7F1000276745457D390000A6
:100120003C7E4B4979300000036371190F070000D2
:10013000367F49497F360000064F49693F1E00005F
:1001400000006C6C0000000000A0EC6C00000000DF
:10015000081C366341000000141414141414000029
:10016000004163361C080000020351590F060000CD
:100170003E7F415D5D1F1E007C7E13137E7C000070
:10018000417F7F49497F36001C3E63414163220025
:10019000417F7F41637F1C00417F7F495D41630058
:1001A000417F7F491D0103001C3E63415173720072
:1001B0007F7F08087F7F000000417F7F41000000B3
:1001C000307040417F3F0100417F7F081C77630012
:1001D000417F7F41406070007F7F060C067F7F007B
:1001E0007F7F060C187F7F001C3E6341633E1C002E
:1001F000417F7F49090F06001E3F21717F5E00008D
:10020000417F7F19396F460026674D597B320000C8
:1002100003417F7F410300007F7F40407F7F0000DC
:100220001F3F60603F1F00007F7F3018307F7F00DE
:1002300063771C081C776300074F78784F0700002E
:100240006773594D47637100007F7F414100000093
:100250000103060C183060000041417F7F00000060
:10026000080C0603060C0800808080808080808057
:100270000000030704000000207454543C78400040
:10028000413F7F44447C3800387C44446C28000063
:10029000307848493F7F4000387C54545C18000057
:1002A000487E7F490302000098BCA4A4F87C0400A7
:1002B000417F7F08047C780000447D7D4000000081
:1002C00040C484FD7D000000417F7F10386C4400F5
:1002D00000417F7F400000007C7C0C180C7C780083
:1002E0007C7C04047C780000387C44447C3800002A
:1002F00084FCF8A4243C1800183C24A4F8FC8400D6
:10030000447C78441C180000485C54547424000059
:1003100000043E7F442400003C7C40403C7C400084
:100320001C3C60603C1C00003C7C6030607C3C00FD
:10033000446C3810386C44009CBCA0A0FC7C0000CD
:100340004C64745C4C64000008083E774141000036
:1003500000000077770000004141773E0808000068
:10036000020301030203010011241FBECFEFD4E0FA
:10037000DEBFCDBF13E0A0E0B1E0E8E8F1E302C0EA
:1003800005900D92A43CB107D9F723E0A4ECB3E0AB
:1003900001C01D92AD3DB207E1F70E94D1050C945A
:1003A000C2180C940000CF93DF93CDB7DEB781E382
:1003B00090E021E330E0F90120812B7FFC012083D4
:1003C000DF91CF910895CF93DF9300D000D01F929B
:1003D000CDB7DEB78D8380E094E19A8389838D81E8
:1003E000843010F080E01EC08D818460882F90E002
:1003F0009C838B832B8189819A81FC01208300005F
:1004000080E390E0FC018081882F90E08470992740
:100410000097B1F78B819C8129813A81820F931FCC
:10042000FC0180810F900F900F900F900F90DF9143
:10043000CF910895CF93DF93CDB7DEB70E94DF074A
:1004400040E664E680E60E94ED0841E06FEF8BE253
:100450000E94ED088BE590E02BE530E0F90120816A
:100460002068FC01208385E590E025E530E0F90176
:1004700020812860FC01208385E590E025E530E0BF
:10048000F90120812B7FFC012083789480E0DF91AB
:10049000CF910895CF93DF93CDB7DEB70E948E083A
:1004A000DF91CF910895CF93DF93CDB7DEB7279734
:1004B0000FB6F894DEBF0FBECDBF9F838E830E9420
:1004C0006803882309F443C08E819F81FC018081E9
:1004D00091819B838A838A818C838C818295880F0A
:1004E000807E8C838A819B81892F99278D836D8162
:1004F00081E30E94C3086C8182E30E94C3088E815D
:100500009F81FC018281682F85E30E94C3081982C4
:1005100012C08981882F90E02E813F81820F931F26
:100520000396FC01908189818A5C692F0E94C3082F
:1005300089818F5F89838E819F81FC01928189816E
:10054000891738F381E80E94DC0881E007C00E9427
:100550003003882311F08FEF01C080E027960FB69B
:10056000F894DEBF0FBECDBFDF91CF9108950F93FA
:100570001F93CF93DF9300D000D000D0CDB7DEB76C
:100580009E838D838091C403882309F44FC081E644
:100590000E94AA08882F90E0182F002782E60E9468
:1005A000AA08882F90E0802B912B9C838B838B81D2
:1005B0009C819C0136952795329522952F70232793
:1005C0003F7023278D819E81FC013183208385E646
:1005D0000E94AA08282F8D819E81FC0122831A8205
:1005E000198213C089818A590E94AA08482F2D8137
:1005F0003E8189819A81820F931F0396FC0140837B
:1006000089819A8101969A8389838D819E81FC01DB
:100610008281282F30E089819A818217930714F311
:100620008091C40381508093C40304C08D819E8156
:10063000FC0112828D819E8126960FB6F894DEBF52
:100640000FBECDBFDF91CF911F910F910895CF9332
:10065000DF93CDB7DEB78091C403DF91CF910895CA
:10066000CF93DF931F92CDB7DEB780E30E94AA0835
:1006700089838981882F90E080729927009731F0D3
:1006800087E191E00E94601581E01EC08981882F7A
:1006900090E080719927009721F080E391E00E941B
:1006A00060158981882F90E080749927009759F010
:1006B0008CE491E00E94601540E460E48DE20E94C9
:1006C000ED0883E001C080E00F90DF91CF910895A5
:1006D000CF93DF93CDB7DEB780E30E94AA08882FBF
:1006E00090E0887099270097E1F08DE691E00E94F4
:1006F00060158091C7038F5F8093C7039091C703F4
:1007000080910A01981759F440E068E080E30E9464
:10071000ED0887E891E00E9460151092C70380E021
:1007200001C081E0DF91CF9108951F920F92009058
:100730005F000F9211242F933F934F935F936F931A
:100740007F938F939F93AF93BF93EF93FF93CF9339
:10075000DF931F92CDB7DEB78CE20E94AA0889838F
:100760008981882F90E0857099278530910551F413
:1007700040E064E08CE20E94ED0840E061E08CE241
:100780000E94ED08898188232CF440E060E88CE227
:100790000E94ED0840E061E08CE20E94ED0880914B
:1007A000C4038F5F8093C4030F90DF91CF91FF91BB
:1007B000EF91BF91AF919F918F917F916F915F91D9
:1007C0004F913F912F910F9000925F000F901F90DB
:1007D0001895CF93DF93CDB7DEB787E390E027E39B
:1007E00030E0F90120812E7FFC01208387E390E037
:1007F00027E330E0F90120812D7FFC01208388E38D
:1008000090E028E330E0F90120812460FC0120839E
:1008100087E390E027E330E0F90120812B7FFC01A2
:100820002083DF91CF910895CF93DF9300D0CDB790
:10083000DEB79A8389830E945A05DC01CB012981A6
:100840003A81F90180839183A283B3830E946E056C
:10085000DC01CB0129813A81F90184839583A68348
:10086000B78386E390E0FC018081882F90E081705F
:100870009927009741F089819A8121E030E0FC01BD
:100880003187208705C089819A81FC0111861086F5
:1008900086E390E0FC018081882F90E082709927A8
:1008A000009741F089819A8121E030E0FC01338793
:1008B000228705C089819A81FC011386128686E30E
:1008C00090E0FC018081882F90E084709927009748
:1008D00031F089819A81FC011586148607C08981CF
:1008E0009A8121E030E0FC01358724870F900F903A
:1008F000DF91CF9108951F93CF93DF93CDB7DEB7EC
:1009000029970FB6F894DEBF0FBECDBF6A837B83F5
:100910008C839D832E833F834887598784E0898316
:100920008A819B81AC81BD81BF7711E020E030E0FE
:1009300048E452E4BC01CD010E94B61188230CF0BA
:1009400010E081E081278823B1F48E819F81A88502
:10095000B985BF7711E020E030E048E452E4BC0103
:10096000CD010E94B61188230CF010E081E08127B0
:10097000882309F494C08A819B81AC81BD81BF77B3
:1009800020E030E048E452E4BC01CD010E940513B0
:10099000181604F58E819F81A885B985BF7720E060
:1009A00030E048E452E4BC01CD010E94B611882336
:1009B0008CF420E030E0A9016A817B818C819D81EB
:1009C0000E94B61188231CF482E0898368C083E00A
:1009D000898365C08A819B81AC81BD81BF7720E01E
:1009E00030E048E452E4BC01CD010E94B6118823F6
:1009F000FCF48E819F81A885B985BF7720E030E027
:100A000048E452E4BC01CD010E940513181684F499
:100A100020E030E0A9016E817F81888599850E9460
:100A2000B61188231CF481E0898339C0198237C04C
:100A30002A813B814C815D816E817F81888599858A
:100A40000E94BA11DC01CB01BF7720E030E040E822
:100A50005FE3BC01CD010E940513181684F420E069
:100A600030E0A9016E817F81888599850E94B61149
:100A700088231CF481E0898312C0198210C020E011
:100A800030E0A9016A817B818C819D810E94B61131
:100A900088231CF482E0898302C083E089838981F2
:100AA00029960FB6F894DEBF0FBECDBFDF91CF9170
:100AB0001F910895CF93DF931F92CDB7DEB781E0EA
:100AC0000E94E301898389810E949005DC01CB01AA
:100AD000BC01CD010F90DF91CF910895CF93DF93AB
:100AE0001F92CDB7DEB780E00E94E3018983898140
:100AF0000E949005DC01CB01BC01CD010F90DF917C
:100B0000CF910895CF93DF931F92CDB7DEB783E0E7
:100B10000E94E301898389810F90DF91CF9108952D
:100B2000CF93DF9300D000D01F92CDB7DEB78D8377
:100B30008D81882F90E0A0E0B0E0BC01CD010E9443
:100B40005312DC01CB0189839A83AB83BC8320E001
:100B500030E040E053E469817A818B819C810E947E
:100B60005111DC01CB0120E030E040E053E4BC0156
:100B7000CD010E94BA11DC01CB0120E030E048EC4D
:100B800052E4BC01CD010E940913DC01CB01BC0180
:100B9000CD010F900F900F900F900F90DF91CF919C
:100BA0000895CF93DF93CDB7DEB762970FB6F89471
:100BB000DEBF0FBECDBF0E94A9070E944A0210925D
:100BC000CA031092C80380E090E0A8E4B2E48C83EA
:100BD0009D83AE83BF832AE939E949E954E46C81F6
:100BE0007D818E819F810E940913DC01CB01888762
:100BF0009987AA87BB8720E030E040E85FE36885FB
:100C000079858A859B850E94B61188232CF481E022
:100C100090E09D878C873FC020E03FEF4FE757E48F
:100C2000688579858A859B850E94051318164CF581
:100C300020E030E040E251E46C817D818E819F8133
:100C40000E940913DC01CB01BC01CD010E942712D7
:100C5000DC01CB019D878C870FC08AE790E09F87DE
:100C60008E878E859F850197F1F79F878E878C856C
:100C70009D8501979D878C878C859D85009769F759
:100C800014C0688579858A859B850E942712DC01BE
:100C9000CB019D878C878C859D85998B888B8889D6
:100CA00099890197F1F7998B888B0E943407898382
:100CB0008981813021F482EA91E00E94601580915F
:100CC000C803882F90E0009721F08130910521F032
:100CD00006C00E94D40603C00E942D0700000E9497
:100CE0002703882309F45FC08BE090E00E946C1317
:100CF0009B838A838A819B810E94B7028A819B8120
:100D0000FC018081918183309105E1F48A819B818E
:100D1000FC018381882F90E023E030E0A901481B8B
:100D2000590BCA01292F2F938F9384EB91E0892FC0
:100D30008F9384EB91E08F930E9445150F900F9055
:100D40000F900F908A819B81FC018081918182307C
:100D5000910501F58A819B81FC018381882F90E0B8
:100D600023E030E0A901481B590BCA01292F2F931A
:100D70008F938BEC91E0892F8F938BEC91E08F9385
:100D80000E9445150F900F900F900F908DEE91E0FF
:100D90000E9460158AE090E00E9459158A819B812B
:100DA0000E94041410CF0FCFCF93DF93CDB7DEB7DF
:100DB0002F970FB6F894DEBF0FBECDBF8091CA0348
:100DC000882349F48091CB039091CC030E94000CBE
:100DD00081E08093CA03CE0102960E9414042E8102
:100DE0003F81488559858A819B81AC81BD81BC0149
:100DF000CD010E947B04898380910B01682F89813A
:100E00000E94A00B80930B012E853F858091C90322
:100E1000882F90E02817390719F41F861E8602C014
:100E20001092C9038E859F858130910569F4809168
:100E30000B010E94800C8093C8038E859F85809350
:100E4000C90382E080930B012F960FB6F894DEBFA2
:100E50000FBECDBFDF91CF910895CF93DF93CDB774
:100E6000DEB7DF91CF910895CF93DF93CDB7DEB793
:100E70006F970FB6F894DEBF0FBECDBFCE010396BD
:100E80000E9414042F81388549855A858B819C8165
:100E9000AD81BE81BC01CD010E947B0489838B8121
:100EA0009C81AD81BE81BC01CD010E942212DC017A
:100EB000CB019A8B898B8F819885A985BA85BC01D6
:100EC000CD010E942212DC01CB019C8B8B8B0E94F6
:100ED00082058A8381E090E09E8B8D8B87E08F8BEB
:100EE0008B859C85888F8D859E85898F8F85988938
:100EF0008A8F89818B8F89898C8F8A898D8F8A8946
:100F0000282F30E08989882F90E0432F4F932F932B
:100F1000292F2F938F9389E092E0892F8F9389E077
:100F200092E08F930E9445150F900F900F900F90B5
:100F30000F900F908A818E8FCE0145960E945302AA
:100F40006F960FB6F894DEBF0FBECDBFDF91CF9185
:100F50000895CF93DF9300D0CDB7DEB785E590E05D
:100F600025E530E0F90120812068FC01208380E53F
:100F700090E020E530E0F90120812062FC0120832F
:100F80008FE190E09A83898389819A810E94EA1097
:100F90000E9406100E940F100E94D3010E94E903D4
:100FA0000E94F10D0E942E099093CC038093CB03F5
:100FB0000E941A020F900F90DF91CF910895CF9366
:100FC000DF93CDB7DEB72F970FB6F894DEBF0FBE15
:100FD000CDBF0E949C0F0E940C0980E090E0A0E22F
:100FE000B1E489839A83AB83BC832AE939E949E96F
:100FF00054E469817A818B819C810E940913DC0110
:10100000CB018D839E83AF83B88720E030E040E83A
:101010005FE36D817E818F8198850E94B611882360
:101020002CF481E090E09A8789873FC020E03FEF71
:101030004FE757E46D817E818F8198850E9405136B
:1010400018164CF520E030E040E251E469817A81E5
:101050008B819C810E940913DC01CB01BC01CD0175
:101060000E942712DC01CB019A8789870FC08AE78B
:1010700090E09C878B878B859C850197F1F79C87F7
:101080008B8789859A8501979A87898789859A852B
:10109000009769F714C06D817E818F8198850E94C9
:1010A0002712DC01CB019A87898789859A859E87DB
:1010B0008D878D859E850197F1F79E878D878EE0C0
:1010C0000E94AA088F878F85882F90E0807E9927BD
:1010D0008038910531F086E292E00E94601581E04F
:1010E00014C08F85882F90E0292F2F938F9388E548
:1010F00092E0892F8F9388E592E08F930E944515A7
:101100000F900F900F900F9080E02F960FB6F894ED
:10111000DEBF0FBECDBFDF91CF910895CF93DF9398
:101120001F92CDB7DEB740E060EE8FE00E94ED0881
:101130008EE00E94AA0889838981882F90E0807EB2
:101140009927009711F081E001C080E00F90DF91B6
:10115000CF910895CF93DF9300D0CDB7DEB78A83C8
:101160000E94E60F83E00E94BA0F8A810E94BA0FA4
:101170000E94D00F89830E94F60F89810F900F90F3
:10118000DF91CF910895CF93DF9300D0CDB7DEB735
:1011900089836A830E94E60F82E00E94BA0F8981E8
:1011A0000E94BA0F8A810E94BA0F0E94F60F0F9018
:1011B0000F90DF91CF910895CF93DF931F92CDB71A
:1011C000DEB789830E94E60F89810E94BA0F0E94D0
:1011D000F60F0F90DF91CF910895CF93DF9300D05A
:1011E0001F92CDB7DEB789836A834B830E94E60FD7
:1011F00085E00E94BA0F89810E94BA0F8A810E94FD
:10120000BA0F8B810E94BA0F0E94F60F0F900F90B9
:101210000F90DF91CF910895CF93DF93CDB7DEB7D5
:101220000E94E60F80EC0E94BA0F0E94F60FDF9139
:10123000CF910895CF93DF931F92CDB7DEB7898307
:101240008981882F90E0880F991F835F9E4FFC0152
:10125000808191810F90DF91CF9108950F931F931B
:10126000CF93DF9300D0CDB7DEB78DE090E00E9442
:101270006C139A83898389819A8125E732E0FC0186
:10128000348723878DE090E00E946C139C01898154
:101290009A81FC013383228389819A81FC018281B6
:1012A00093812FE732E0FC013487238789819A817B
:1012B000FC018281938129813A81FC013183208361
:1012C00089819A81FC0182819381FC0112868DE0E3
:1012D00090E00E946C139C0189819A81FC01358306
:1012E000248389819A81FC018481958128E832E0F8
:1012F000FC013487238789819A81FC01848195814F
:1013000029813A81FC013183208389819A81FC0102
:101310008481958121E0FC0122878DE090E00E948C
:101320006C139C0189819A81FC0137832683898112
:101330009A81FC018681978123E932E0FC013487A0
:10134000238789819A81FC018681978129813A814D
:10135000FC013183208389819A81FC0111861086EA
:1013600089819A8123E0FC01228789819A81FC018D
:10137000048115818DE090E00E946C13F801938345
:10138000828389819A81FC0184819581FC0182811B
:1013900093812CE932E0FC013487238789819A818B
:1013A000FC0184819581FC018281938129813A81AC
:1013B000F90124813581FC013183208389819A815F
:1013C000FC0184819581FC0182819381FC0112865C
:1013D00089819A81FC014481558189819A81FC012E
:1013E0008481958129813A81F90124813581F9012E
:1013F00011861086F90120853185FC01378326830B
:10140000FC0186819781FA019583848389819A8181
:10141000FC01068117818DE090E00E946C13F801B9
:101420009383828389819A81FC0186819781FC0163
:101430008281938123EA32E0FC013487238789810A
:101440009A81FC0186819781FC01828193812981A7
:101450003A81F90126813781FC013183208389811A
:101460009A81FC0186819781FC01028113818DE0C4
:1014700090E00E946C13F8019383828389819A81A2
:10148000FC0186819781FC0182819381FC0182812C
:10149000938122EB32E0FC013487238789819A8192
:1014A000FC0186819781FC0182819381FC0182810C
:1014B000938129813A81F90126813781F9012281BD
:1014C0003381FC013183208389819A81FC018681EB
:1014D0009781FC01028113818DE090E00E946C13E2
:1014E000F8019583848389819A81FC0186819781A3
:1014F000FC0182819381FC018481958127EB32E09C
:10150000FC013487238789819A81FC018681978138
:10151000FC0182819381FC018481958129813A813A
:10152000F90126813781F90122813381FC01318360
:10153000208389819A81FC0186819781FC01028147
:1015400013818DE090E00E946C13F80197838683ED
:1015500089819A81FC0186819781FC018281938136
:10156000FC01868197812EEB32E0FC0134872387D2
:1015700089819A81FC0186819781FC018281938116
:10158000FC018681978129813A81F9012681378181
:10159000F90122813381FC013183208389819A8181
:1015A000FC0186819781FC01028113818DE090E02E
:1015B0000E946C13F8019187808789819A81FC01D0
:1015C00086819781FC0182819381FC0180859185D0
:1015D0002CE932E0FC013487238789819A81FC0160
:1015E00086819781FC0182819381FC0180859185B0
:1015F00029813A81F90126813781F90122813381DC
:10160000FC013183208389819A81FC018681978145
:10161000FC018281938124E0FC01228789819A81E7
:10162000FC01068117818DE090E00E946C13F801A7
:101630009583848389819A81FC0186819781FC014D
:101640008481958123EC32E0FC01348723878981F2
:101650009A81FC0186819781FC0184819581298191
:101660003A81F90126813781FC0131832083898108
:101670009A81FC01068117818DE090E00E946C1335
:10168000F8019783868389819A81FC0186819781FD
:10169000FC01868197812DEC32E0FC0134872387A1
:1016A00089819A81FC0186819781FC0186819781DD
:1016B00029813A81F90126813781FC013183208318
:1016C00089819A81FC01068117818DE090E00E945A
:1016D0006C13F8019187808789819A81FC0186814A
:1016E0009781FC01808591852CE932E0FC013487EB
:1016F000238789819A81FC0186819781FC018085FD
:10170000918529813A81F90126813781FC01318354
:10171000208389819A81FC018681978124E0FC01E4
:10172000228789819A819093CE038093CD0389810A
:101730009A810F900F90DF91CF911F910F91089593
:10174000CF93DF9300D01F92CDB7DEB78A836B8330
:101750008091CD039091CE03FC0182858983809195
:101760000C019A81981719F484E08A8303C084E0FD
:1017700080930C018A81882F90E08130910509F1D6
:101780008430910519F0009731F033C060E08B810F
:101790000E947D0F2EC08B81833090F060E08B81A2
:1017A0000E94F80E8BED92E00E94430F8B818150D6
:1017B0008B8360E08B810E947D0F10920C0119C019
:1017C00018C09B818981891798F060E08B810E9405
:1017D000F80E8BED92E00E94430F8B818F5F8B831D
:1017E00060E08B810E947D0F81E080930C0100C03E
:1017F00000008B810F900F900F90DF91CF91089593
:10180000CF93DF9300D000D0CDB7DEB79C838B831E
:101810008B819C819A8389830E94600E0E947A0E3C
:1018200062E080E00E94F80E8B819C81FC01838540
:1018300094850E94430F8B819C81FC01828193815E
:10184000009771F062E082E00E94F80E8B819C812B
:10185000FC0182819381FC01838594850E94430F62
:101860008B819C81FC0184819581009771F062E0FD
:1018700083E00E94F80E8B819C81FC01848195811C
:10188000FC01838594850E94430F8B819C81FC0120
:1018900086819781009771F062E084E00E94F80EE3
:1018A0008B819C81FC0186819781FC0183859485D5
:1018B0000E94430F8B819C81FC018085918500975C
:1018C00071F062E085E00E94F80E8B819C81FC0142
:1018D00080859185FC01838594850E94430F62E099
:1018E00087E00E94F80E8091C5030E941A090E94A9
:1018F000430F0F900F900F900F90DF91CF910895AD
:10190000CF93DF931F92CDB7DEB789838091CD034C
:101910009091CE03FC018385948565E772E00E9477
:10192000F1140097A9F48981823009F4BFC089813C
:10193000833041F40E94EA0D8981882F90E00E9453
:101940005C0DB4C08981882F90E00E945C0DAEC010
:101950008091CD039091CE03FC018385948563E94A
:1019600072E00E94F114009709F03FC08981823033
:1019700031F48981882F90E00E945C0D97C08981A5
:10198000833049F460E089810E94F80E8BED92E08B
:101990000E94430F8BC08981843049F460E08981C3
:1019A0000E94F80E8BED92E00E94430F7FC0898168
:1019B000853009F07BC08091CD039091CE03FC016E
:1019C000808191819093CE038093CD0360E08981E3
:1019D0000E94F80E8BED92E00E94430F8091CD03A0
:1019E0009091CE030E94000C61C08091CD03909134
:1019F000CE03FC018385948563EA72E00E94F114B2
:101A0000009771F58981823019F41092C50321C0C5
:101A10008981833021F481E08093C5031AC08981D4
:101A2000843021F482E08093C50313C08091CD03FC
:101A30009091CE03FC01808191819093CE0380939D
:101A4000CD0360E089810E94F80E8BED92E00E9448
:101A5000430F8091CD039091CE030E94000C26C0CD
:101A60008091CD039091CE03FC018385948568E835
:101A700072E00E94F1140097C9F48091CD03909117
:101A8000CE03FC01808191819093CE038093CD039E
:101A900060E089810E94F80E8BED92E00E94430F76
:101AA0008091CD039091CE030E94000C8091C603DB
:101AB0000F90DF91CF910895CF93DF931F92CDB711
:101AC000DEB789838981882F90E08330910581F189
:101AD0008430910509F454C08230910509F076C034
:101AE0008091CD039091CE03FC0182819381009778
:101AF000F1F08091CD039091CE03FC01828193811E
:101B00009093CE038093CD0360E089810E94F80E0C
:101B10008BED92E00E94430F62E084E00E94A00BF4
:101B20008091CD039091CE030E94000C4FC04EC017
:101B30008091CD039091CE03FC0184819581009723
:101B4000F1F08091CD039091CE03FC0184819581C9
:101B50009093CE038093CD0360E089810E94F80EBC
:101B60008BED92E00E94430F62E084E00E94A00BA4
:101B70008091CD039091CE030E94000C27C026C017
:101B80008091CD039091CE03FC01868197810097CF
:101B9000E9F08091CD039091CE03FC01868197817D
:101BA0009093CE038093CD0360E089810E94F80E6C
:101BB0008BED92E00E94430F62E084E00E94A00B54
:101BC0008091CD039091CE030E94000C0F90DF9185
:101BD000CF910895CF93DF93CDB7DEB7DF91CF914B
:101BE0000895CF93DF93CDB7DEB78EEA0E943E0E05
:101BF00081EA0E943E0E8AED0E943E0E82E10E9422
:101C00003E0E88EC0E943E0E88EA0E943E0E8FE354
:101C10000E943E0E85ED0E943E0E80E80E943E0E20
:101C200081E80E943E0E80E50E943E0E89ED0E94F2
:101C30003E0E81E20E943E0E80E20E943E0E82E055
:101C40000E943E0E8BED0E943E0E80E30E943E0EEF
:101C50008DEA0E943E0E80E00E943E0E84EA0E94C1
:101C60003E0E86EA0E943E0E8FEA0E943E0E0E94C1
:101C7000600E0E947A0EDF91CF910895CF93DF938B
:101C80001F92CDB7DEB78983809113019091140123
:101C90002981FC0120830F90DF91CF910895CF938C
:101CA000DF931F92CDB7DEB78983809115019091A4
:101CB00016012981FC0120830F90DF91CF910895B7
:101CC000CF93DF9300D0CDB7DEB71A82198208C058
:101CD00089810E94D80E89819A8101969A8389838D
:101CE00089819A81883091059CF30F900F90DF9144
:101CF000CF910895CF93DF93CDB7DEB781E20E94F5
:101D00003E0E80E00E943E0E8FE70E943E0E82E271
:101D10000E943E0E80E00E943E0E87E00E943E0E32
:101D20001092CF03DF91CF910895CF93DF931F924D
:101D3000CDB7DEB789838981883038F48981809373
:101D4000CF03898180550E943E0E0F90DF91CF9185
:101D50000895CF93DF9300D01F92CDB7DEB78B836A
:101D60008B81882F90E0880F991F880F991F880F0B
:101D7000991F80389105B4F48B81880F880F880FE4
:101D80008B838B818093D0038B818F7089838B8130
:101D900082958F70805F8A8389810E943E0E8A813E
:101DA0000E943E0E0F900F900F90DF91CF910895FB
:101DB000CF93DF9300D01F92CDB7DEB78B838B819B
:101DC0000E94950E1A82198208C080E00E944F0E70
:101DD00089819A8101969A83898389819A81803841
:101DE00091059CF30F900F900F90DF91CF91089584
:101DF000CF93DF9300D0CDB7DEB789836A83898123
:101E00000E94950E8A810E94A90E0F900F90DF917B
:101E1000CF910895CF93DF9300D000D000D0CDB7FD
:101E2000DEB78E831A82198220C08E81882F90E0BF
:101E300080979C01220F331F220F331F220F331F65
:101E400089819A81820F931F80599F4F9C838B8336
:101E50008B819C81FC0184918D838D810E944F0E2A
:101E600089819A8101969A83898389819A818830B0
:101E70009105DCF226960FB6F894DEBF0FBECDBFFB
:101E8000DF91CF910895CF93DF9300D000D0CDB7ED
:101E9000DEB79C838B831A8219821EC089819A8146
:101EA0002B813C81820F931FFC0180810E940A0FCD
:101EB00089819A8101969A83898389819A81803167
:101EC000910529F089819A818032910529F48091C8
:101ED000CF038F5F0E94950E89819A812B813C816F
:101EE000820F931FFC0180818823C1F60F900F9011
:101EF0000F900F90DF91CF910895CF93DF9300D093
:101F0000CDB7DEB789836A836A8189810E94F80E22
:101F100088E10E944F0E88E10E944F0E8EE70E94DA
:101F20004F0E8CE30E944F0E88E10E944F0E0F90DF
:101F30000F90DF91CF910895CF93DF9300D0CDB76D
:101F4000DEB787E390E020EBFC0120838DE290E098
:101F500021E5FC0120838EE290E0FC0180818983F1
:101F60008FE290E0FC0180818A830F900F90DF91D7
:101F7000CF910895CF93DF931F92CDB7DEB78983BA
:101F80008FE290E02981FC01208300008EE290E046
:101F9000FC0180818823D4F70F90DF91CF910895C1
:101FA000CF93DF93CDB7DEB78FE290E0FC011082D4
:101FB00000008EE290E0FC0180818823D4F78FE25C
:101FC00090E0FC018081DF91CF910895CF93DF9362
:101FD000CDB7DEB788E390E028E330E0F901208157
:101FE0002F7EFC012083DF91CF910895CF93DF9363
:101FF000CDB7DEB788E390E028E330E0F901208137
:102000002061FC012083DF91CF910895CF93DF936E
:10201000CDB7DEB780E090E0DF91CF910895CF9308
:10202000DF93CDB7DEB762970FB6F894DEBF0FBE71
:10203000CDBF80E098E19A87898780E098E09C870F
:102040008B871A8219821C821B828EED92E00E947D
:1020500060150E94E1149E878D878D859E850E9464
:10206000E6141E821D8244C00E94E1148F872985D8
:102070003A858D819E81820F931F2F85FC012083DD
:1020800029853A858D819E81820F931FFC01808175
:10209000888B98898F85981731F18F85282F30E0AC
:1020A0008889882F90E0432F4F932F93292F2F93C8
:1020B0008F938E818F938D818F9384EF92E0892F00
:1020C0008F9384EF92E08F930E9445158DB79EB752
:1020D00008960FB6F894DEBF0FBECDBF89819A81F6
:1020E00001969A8389838D819E8101969E838D833B
:1020F0002D813E818B859C852817390708F4B4CF44
:102100008D859E850E94E61418861F823BC00E9422
:10211000E114898B29853A858F819885820F931FD9
:10212000FC0180818A8B9A898989981731F1898984
:10213000282F30E08A89882F90E0432F4F932F93E8
:10214000292F2F938F9388858F938F818F938DE283
:1021500093E0892F8F938DE293E08F930E94451532
:102160008DB79EB708960FB6F894DEBF0FBECDBFF1
:102170008B819C8101969C838B838F8198850196AE
:1021800098878F832F8138858B859C852817390701
:1021900008F4BDCF8C818F938B818F938A818F932D
:1021A00089818F938AE693E0892F8F938AE693E063
:1021B0008F930E9445150F900F900F900F900F90E6
:1021C0000F9062960FB6F894DEBF0FBECDBFDF91C1
:1021D000CF910895CF93DF9300D0CDB7DEB79A8328
:1021E000898380E490E029813A81232F3327FC0101
:1021F000208389E290E02981FC0120838AE290E03B
:1022000028E1FC01208380E490E02EE8FC0120839B
:1022100068E371E187E191E10E94FA149093D2039F
:102220008093D1030F900F90DF91CF910895CF93BA
:10223000DF9300D01F92CDB7DEB789837B836A839B
:1022400000008BE290E0FC018081882F90E080729A
:1022500099270097B1F38CE290E02981FC0120835B
:1022600080E090E00F900F900F90DF91CF91089554
:10227000CF93DF9300D0CDB7DEB79A838983000078
:102280008BE290E0FC0180818823D4F78CE290E01F
:10229000FC018081882F90E00F900F90DF91CF910B
:1022A00008955058BB27AA270ED075C166D130F0CB
:1022B0006BD120F031F49F3F11F41EF45BC10EF49A
:1022C000E095E7FB51C1E92F77D180F3BA17620798
:1022D00073078407950718F071F49EF58FC10EF40B
:1022E000E0950B2EBA2FA02D0B01B90190010C0126
:1022F000CA01A0011124FF27591B99F0593F50F43E
:10230000503E68F11A16F040A22F232F342F442795
:10231000585FF3CF469537952795A795F04053958D
:10232000C9F77EF41F16BA0B620B730B840BBAF05D
:102330009150A1F0FF0FBB1F661F771F881FC2F7C8
:102340000EC0BA0F621F731F841F48F487957795DC
:102350006795B795F7959E3F08F0B3CF9395880F93
:1023600008F09927EE0F979587950895D9D008F42E
:1023700081E008950CD00FC107D140F0FED030F0BD
:1023800021F45F3F19F0F0C0511139C1F3C014D1ED
:1023900098F39923C9F35523B1F3951B550BBB272C
:1023A000AA2762177307840738F09F5F5F4F220FD9
:1023B000331F441FAA1FA9F333D00E2E3AF0E0E8D2
:1023C00030D091505040E695001CCAF729D0FE2F1E
:1023D00027D0660F771F881FBB1F261737074807B0
:1023E000AB07B0E809F0BB0B802DBF01FF27935866
:1023F0005F4F2AF09E3F510568F0B6C000C15F3FB5
:10240000ECF3983EDCF3869577956795B795F7954D
:102410009F5FC9F7880F911D9695879597F9089545
:10242000E1E0660F771F881FBB1F621773078407E1
:10243000BA0720F0621B730B840BBA0BEE1F88F7F0
:10244000E095089504D06894B111D9C00895BCD026
:1024500088F09F5790F0B92F9927B751A0F0D1F08D
:10246000660F771F881F991F1AF0BA95C9F712C017
:10247000B13081F0C3D0B1E00895C0C0672F782F8C
:102480008827B85F39F0B93FCCF386957795679583
:10249000B395D9F73EF490958095709561957F4FEF
:1024A0008F4F9F4F0895E89409C097FB3EF4909595
:1024B0008095709561957F4F8F4F9F4F9923A9F01D
:1024C000F92F96E9BB279395F695879577956795AC
:1024D000B795F111F8CFFAF4BB0F11F460FF1BC0F0
:1024E0006F5F7F4F8F4F9F4F16C0882311F096E983
:1024F00011C0772321F09EE8872F762F05C0662331
:1025000071F096E8862F70E060E02AF09A95660FE9
:10251000771F881FDAF7880F9695879597F90895A2
:10252000990F0008550FAA0BE0E8FEEF16161706E4
:10253000E807F907C0F012161306E407F50798F04C
:10254000621B730B840B950B39F40A2661F0232B65
:10255000242B252B21F408950A2609F4A140A695E1
:102560008FEF811D811D089597F99F6780E870E0C6
:1025700060E008959FEF80EC089500240A941616F9
:10258000170618060906089500240A941216130661
:10259000140605060895092E0394000C11F48823EF
:1025A00052F0BB0F40F4BF2B11F460FF04C06F5F0B
:1025B0007F4F8F4F9F4F089557FD9058440F551FE1
:1025C00059F05F3F71F04795880F97FB991F61F0B5
:1025D0009F3F79F087950895121613061406551F2C
:1025E000F2CF4695F1DF08C0161617061806991F98
:1025F000F1CF86957105610508940895E894BB278D
:1026000066277727CB0197F908958ADF08F48FEFC3
:1026100008950BD0C0CFB1DF28F0B6DF18F09523B6
:1026200009F0A2CFA7CF1124EACFC6DFA0F3959F70
:10263000D1F3950F50E0551F629FF001729FBB27A9
:10264000F00DB11D639FAA27F00DB11DAA1F649F55
:102650006627B00DA11D661F829F2227B00DA11D08
:10266000621F739FB00DA11D621F839FA00D611D8E
:10267000221F749F3327A00D611D231F849F600DAF
:10268000211D822F762F6A2F11249F5750408AF0E8
:10269000E1F088234AF0EE0FFF1FBB1F661F771F74
:1026A000881F91505040A9F79E3F510570F05CCFB4
:1026B000A6CF5F3FECF3983EDCF386957795679560
:1026C000B795F795E7959F5FC1F7FE2B880F911D92
:1026D0009695879597F90895CF93DF93823091056A
:1026E00010F482E090E0E091D503F091D60320E071
:1026F00030E0A0E0B0E0309739F1408151814817D7
:102700005907B8F04817590771F4828193811097DF
:1027100029F013969C938E9312972CC09093D60316
:102720008093D50327C02115310531F04217530797
:1027300018F0A901DB0101C0EF019A01BD01DF0121
:102740000280F381E02DD7CF21153105F9F0281B48
:10275000390B2430310580F48A819B816115710524
:1027600021F0FB019383828304C09093D60380936E
:10277000D503FE01329644C0FE01E20FF31F8193A0
:10278000919322503109398328833AC02091D30391
:102790003091D403232B41F42091020130910301A5
:1027A0003093D4032093D303209100013091010191
:1027B0002115310541F42DB73EB7409104015091E8
:1027C0000501241B350BE091D303F091D403E217EC
:1027D000F307A0F42E1B3F0B2817390778F0AC0144
:1027E0004E5F5F4F2417350748F04E0F5F1F509321
:1027F000D4034093D3038193919302C0E0E0F0E0CF
:10280000CF01DF91CF910895CF93DF93009709F423
:1028100087C0FC01329713821282C091D503D091F8
:10282000D603209781F420813181280F391F8091B0
:10283000D3039091D4038217930779F5F093D403CF
:10284000E093D3036DC0DE0120E030E0AE17BF0798
:1028500050F412964D915C9113979D0141155105CD
:1028600009F1DA01F3CFB383A28340815181840F50
:10287000951F8A179B0771F48D919C911197840F76
:10288000951F02969183808312968D919C91139748
:10289000938382832115310529F4F093D603E093C5
:1028A000D5033EC0D9011396FC93EE9312974D9138
:1028B0005D91A40FB51FEA17FB0779F48081918120
:1028C000840F951F0296D90111969C938E93828155
:1028D000938113969C938E931297E0E0F0E08A81A7
:1028E0009B81009719F0FE01EC01F9CFCE01029611
:1028F00028813981820F931F2091D3033091D40313
:102900002817390769F4309729F41092D6031092EA
:10291000D50302C013821282D093D403C093D30391
:10292000DF91CF9108958F929F92AF92BF92CF92F5
:10293000DF92EF92FF92CF93DF93EC016881798170
:102940008A819B81611571058105910521F464E2FD
:1029500079ED8BE597E02DE133EF41E050E00E9407
:10296000281849015A019B01AC01A7EAB1E40E9471
:1029700047186B017C01ACEEB4EFA50194010E94F5
:102980005518C60ED71EE81EF91EF7FE06C081E0D8
:10299000C81AD108E10880E8F80AC882D982EA8218
:1029A000FB82C6019F77DF91CF91FF90EF90DF9080
:1029B000CF90BF90AF909F908F9008950E949314F6
:1029C000089586E091E00E9493140895A0E0B0E09D
:1029D0008093060190930701A0930801B093090129
:1029E0000895FB01DC018D91019080190110D9F34C
:1029F000990B08950F931F93CF93DF93EC018B01F5
:102A0000009731F46115710519F480E090E038C049
:102A10006EE070E081E090E00E945F17FC0100979B
:102A2000A1F380E883830115110571F013870287F4
:102A300081E883838091D7039091D803892B21F477
:102A4000F093D803E093D7032097C9F0D187C087CC
:102A50008381826083838091D9039091DA03892BEB
:102A600071F4F093DA03E093D9038091DB03909142
:102A7000DC03892B21F4F093DC03E093DB03CF012B
:102A8000DF91CF911F910F910895A0E0B0E0EBE4AA
:102A9000F5E10C946A18FE01359661917191AF01D0
:102AA0008091D9039091DA030E948D15E2E00C9495
:102AB00086186091D9037091DA030E9498170895DF
:102AC0000F931F93CF93DF93E091D903F091DA0333
:102AD000238121FF1BC0EC0100E010E0899160918F
:102AE000D9037091DA03DB011896ED91FC911997E7
:102AF000882331F00995892B89F30FEF1FEFEECF73
:102B00008AE00995892B11F4C80102C08FEF9FEF6D
:102B1000DF91CF911F910F910895ACE0B0E0E3E910
:102B2000F5E10C945A187C016B018A01FC011782B3
:102B30001682838181FFBDC1CE0101964C01F70150
:102B40009381F60193FD859193FF81916F01882315
:102B500009F4ABC1853239F493FD859193FF8191DE
:102B60006F01853229F4B70190E00E949817E7CFF2
:102B7000512C312C20E02032A0F48B3269F030F45B
:102B8000803259F0833269F420612CC08D3239F0E3
:102B9000803339F4216026C02260246023C028607D
:102BA00021C027FD27C030ED380F3A3078F426FFDA
:102BB00006C0FAE05F9E300D1124532E13C08AE048
:102BC000389E300D1124332E20620CC08E3221F439
:102BD00026FD6BC1206406C08C3611F4206802C04B
:102BE000883641F4F60193FD859193FF81916F0141
:102BF0008111C1CF982F9F7D9554933028F40C5F9D
:102C00001F4FFFE3F9830DC0833631F0833771F036
:102C1000833509F05BC022C0F801808189830E5F93
:102C20001F4F44244394512C540115C03801F2E045
:102C30006F0E711CF801A080B18026FF03C0652DC6
:102C400070E002C06FEF7FEFC5012C870E948D17E7
:102C50002C0183012C852F77222E17C03801F2E03A
:102C60006F0E711CF801A080B18026FF03C0652D96
:102C700070E002C06FEF7FEFC5012C870E947B17C9
:102C80002C012C852068222E830123FC1BC0832D60
:102C900090E048165906B0F4B70180E290E00E9437
:102CA00098173A94F4CFF50127FC859127FE81917E
:102CB0005F01B70190E00E94981731103A94F1E05B
:102CC0004F1A51084114510471F7E5C0843611F0D0
:102CD000893639F5F80127FF07C06081718182814B
:102CE00093810C5F1F4F08C060817181882777FD39
:102CF0008095982F0E5F1F4F2F76B22E97FF09C039
:102D000090958095709561957F4F8F4F9F4F20686C
:102D1000B22E2AE030E0A4010E94CA17A82EA818FB
:102D200044C0853729F42F7EB22E2AE030E025C03A
:102D3000F22FF97FBF2E8F36C1F018F4883579F065
:102D4000B4C0803719F0883721F0AFC02F2F206131
:102D5000B22EB4FE0DC08B2D8460B82E09C024FFA6
:102D60000AC09F2F9660B92E06C028E030E005C04B
:102D700020E130E002C020E132E0F801B7FE07C0F8
:102D800060817181828193810C5F1F4F06C06081D9
:102D9000718180E090E00E5F1F4FA4010E94CA176E
:102DA000A82EA818FB2DFF77BF2EB6FE0BC02B2D2B
:102DB0002E7FA51450F4B4FE0AC0B2FC08C02B2D1F
:102DC0002E7E05C07A2C2B2D03C07A2C01C0752CC9
:102DD00024FF0DC0FE01EA0DF11D8081803311F446
:102DE000297E09C022FF06C07394739404C0822F09
:102DF000867809F0739423FD13C020FF06C05A2C77
:102E0000731418F4530C5718732C731468F4B70127
:102E100080E290E02C870E94981773942C85F5CF60
:102E2000731410F4371801C0312C24FF12C0B701FD
:102E300080E390E02C870E9498172C8522FF17C012
:102E400021FF03C088E590E002C088E790E0B70169
:102E50000CC0822F867859F021FD02C080E201C0AB
:102E60008BE227FD8DE2B70190E00E949817A51430
:102E700038F4B70180E390E00E9498175A94F7CF96
:102E8000AA94F401EA0DF11D8081B70190E00E943F
:102E90009817A110F5CF332009F451CEB70180E285
:102EA00090E00E9498173A94F6CFF70186819781B7
:102EB00002C08FEF9FEF2C96E2E10C9476180F93EF
:102EC0001F93CF93DF93869F8001879F100D969F5E
:102ED000100D1124C8010E946C13EC01009729F019
:102EE000A80160E070E00E948617CE01DF91CF91CB
:102EF0001F910F910895FC010590615070400110E1
:102F0000D8F7809590958E0F9F1F0895DC0101C022
:102F10006D9341505040E0F70895FC0161507040BE
:102F200001900110D8F7809590958E0F9F1F0895FE
:102F30000F931F93CF93DF93182F092FEB018B81F2
:102F400081FD03C08FEF9FEF20C082FF10C04E8134
:102F50005F812C813D81421753077CF4E881F98120
:102F60009F012F5F3F4F39832883108306C0E88578
:102F7000F985812F0995892B29F72E813F812F5FB4
:102F80003F4F3F832E83812F902FDF91CF911F9151
:102F90000F910895FA01AA27283051F1203181F1CB
:102FA000E8946F936E7F6E5F7F4F8F4F9F4FAF4F51
:102FB000B1E03ED0B4E03CD0670F781F891F9A1F64
:102FC000A11D680F791F8A1F911DA11D6A0F711D18
:102FD000811D911DA11D20D009F468943F912AE024
:102FE000269F11243019305D3193DEF6CF0108950C
:102FF000462F4770405D4193B3E00FD0C9F7F6CF3D
:10300000462F4F70405D4A3318F0495D31FD405204
:10301000419302D0A9F7EACFB4E0A695979587959A
:1030200077956795BA95C9F7009761057105089579
:103030009B01AC010A2E0694579547953795279525
:10304000BA95C9F7620F731F841F951FA01D0895BD
:10305000052E97FB1EF400940E943F1857FD07D0E1
:103060000E94911807FC03D04EF40C943F18509521
:103070004095309521953F4F4F4F5F4F0895909564
:103080008095709561957F4F8F4F9F4F08950E9457
:10309000B318A59F900DB49F900DA49F800D911D16
:1030A00011240895B7FF0C9447180E944718821BFB
:1030B000930B08952F923F924F925F926F927F925F
:1030C0008F929F92AF92BF92CF92DF92EF92FF9238
:1030D0000F931F93CF93DF93CDB7DEB7CA1BDB0BE4
:1030E0000FB6F894DEBF0FBECDBF09942A88398889
:1030F00048885F846E847D848C849B84AA84B98490
:10310000C884DF80EE80FD800C811B81AA81B9819B
:10311000CE0FD11D0FB6F894DEBF0FBECDBFED01AF
:103120000895A1E21A2EAA1BBB1BFD010DC0AA1F08
:10313000BB1FEE1FFF1FA217B307E407F50720F020
:10314000A21BB30BE40BF50B661F771F881F991F9B
:103150001A9469F760957095809590959B01AC01E4
:10316000BD01CF010895A29FB001B39FC001A39FED
:10317000700D811D1124911DB29F700D811D1124B0
:08318000911D0895F894FFCFA2
:103188000000DD03200001000000050204B202B7C0
:1031980002BE02001000124D657373616765206CF2
:1031A8006F7374206172626974726174696F6E0002
:1031B8005472616E736D697373696F6E2065727294
:1031C8006F72206465746563746564005265636535
:1031D80069766520627566666572206F76657266C7
:1031E8006C6F7720666C6167207365740043414E8D
:1031F800207472616E736D6974206E6F7420636FD2
:103208006D706C65746500526573657420747261C5
:103218006E736D697373696F6E207265717565730E
:1032280074004D65737361676520776173207365FA
:103238006E7421004E756D626572206F66206C6930
:103248007665732069733A2025640047414D45200F
:103258004C4F53542C206E756D626572206F66203A
:103268006C697665732069732025640A005072655D
:10327800737320627574746F6E20746F2073746139
:10328800727420616761696E0058206178697320E3
:103298006461746120313A2025642064617461207E
:1032A800323A202564004D43503235313520697358
:1032B800204E4F5420696E20636F6E666967757281
:1032C8006174696F6E206D6F6465206166746572E4
:1032D80020726573657421004D43503235313520B5
:1032E8006D6F646520616674657220696E69743AF1
:1032F8002025640A004D41494E204D454E55004E4B
:1033080045572047414D4500484947482053434FBA
:1033180052450053455454494E475300524554555D
:10332800524E0053455420444946464943554C544F
:10333800590045415359004D454449554D004841B0
:10334800524400444542554747494E470043414C83
:103358002E204A4F59535449434B002020005374A0
:10336800617274696E67205352414D20746573749D
:103378002E2E2E005772697465207068617365205F
:103388006572726F723A206578745F72616D5B2541
:1033980034645D203D2025303258202873686F75CD
:1033A8006C642062652025303258290A0052657401
:1033B80072696576616C20706861736520657272E8
:1033C8006F723A206578745F72616D5B2534645D55
:1033D800203D2025303258202873686F756C642092
:1033E80062652025303258290A005352414D207415
:1033F80065737420636F6D706C657465642077699C
:103408007468200A253464206572726F72732069AB
:103418006E20777269746520706861736520616ECB
:1034280064200A253464206572726F727320696E95
:103438002072657472696576616C20706861736565
:043448000A0A00006C
:00000001FF
