:100000000C94B4010C94D1010C9495030C94D1017F
:100010000C94D1010C94D1010C94D1010C94D10118
:100020000C94D1010C94D1010C94D1010C94D10108
:100030000C94D1010C94D1010C94D1010C94D101F8
:100040000C94D1010C94D1010C94D1010C94D101E8
:100050000C94D1010C94D1010C94D1010C94D101D8
:100060000C94D1010C94D1010C94D1010C94D101C8
:10007000000000000000000000065F5F06000000B6
:100080000007070007070000147F7F147F7F14001C
:10009000242E6B6B3A120000466630180C66620024
:1000A000307A4F5D377A48000407030000000000F3
:1000B000001C3E63410000000041633E1C00000044
:1000C000082A3E1C1C3E2A0808083E3E080800007C
:1000D00000A0E06000000000080808080808000010
:1000E00000006060000000006030180C0603010092
:1000F0003E7F594D7F3E000042427F7F40400000DE
:10010000627359496F660000226349497F360000D7
:10011000181C16137F7F1000276745457D390000A6
:100120003C7E4B4979300000036371190F070000D2
:10013000367F49497F360000064F49693F1E00005F
:1001400000006C6C0000000000A0EC6C00000000DF
:10015000081C366341000000141414141414000029
:10016000004163361C080000020351590F060000CD
:100170003E7F415D5D1F1E007C7E13137E7C000070
:10018000417F7F49497F36001C3E63414163220025
:10019000417F7F41637F1C00417F7F495D41630058
:1001A000417F7F491D0103001C3E63415173720072
:1001B0007F7F08087F7F000000417F7F41000000B3
:1001C000307040417F3F0100417F7F081C77630012
:1001D000417F7F41406070007F7F060C067F7F007B
:1001E0007F7F060C187F7F001C3E6341633E1C002E
:1001F000417F7F49090F06001E3F21717F5E00008D
:10020000417F7F19396F460026674D597B320000C8
:1002100003417F7F410300007F7F40407F7F0000DC
:100220001F3F60603F1F00007F7F3018307F7F00DE
:1002300063771C081C776300074F78784F0700002E
:100240006773594D47637100007F7F414100000093
:100250000103060C183060000041417F7F00000060
:10026000080C0603060C0800808080808080808057
:100270000000030704000000207454543C78400040
:10028000413F7F44447C3800387C44446C28000063
:10029000307848493F7F4000387C54545C18000057
:1002A000487E7F490302000098BCA4A4F87C0400A7
:1002B000417F7F08047C780000447D7D4000000081
:1002C00040C484FD7D000000417F7F10386C4400F5
:1002D00000417F7F400000007C7C0C180C7C780083
:1002E0007C7C04047C780000387C44447C3800002A
:1002F00084FCF8A4243C1800183C24A4F8FC8400D6
:10030000447C78441C180000485C54547424000059
:1003100000043E7F442400003C7C40403C7C400084
:100320001C3C60603C1C00003C7C6030607C3C00FD
:10033000446C3810386C44009CBCA0A0FC7C0000CD
:100340004C64745C4C64000008083E774141000036
:1003500000000077770000004141773E0808000068
:10036000020301030203010011241FBECFEFD4E0FA
:10037000DEBFCDBF13E0A0E0B1E0E0E1F3E302C0F7
:1003800005900D92A83AB107D9F723E0A8EAB3E0A7
:1003900001C01D92A13CB207E1F70E94D1050C9467
:1003A00086190C940000CF93DF93CDB7DEB781E3BD
:1003B00090E021E330E0F90120812B7FFC012083D4
:1003C000DF91CF910895CF93DF9300D000D01F929B
:1003D000CDB7DEB78D8380E094E19A8389838D81E8
:1003E000843010F080E01EC08D818460882F90E002
:1003F0009C838B832B8189819A81FC01208300005F
:1004000080E390E0FC018081882F90E08470992740
:100410000097B1F78B819C8129813A81820F931FCC
:10042000FC0180810F900F900F900F900F90DF9143
:10043000CF910895CF93DF93CDB7DEB70E94FC072D
:1004400040E664E680E60E940A0941E06FEF8BE235
:100450000E940A098BE590E02BE530E0F90120814C
:100460002068FC01208385E590E025E530E0F90176
:1004700020812860FC01208385E590E025E530E0BF
:10048000F90120812B7FFC012083789480E0DF91AB
:10049000CF910895CF93DF93CDB7DEB70E94AB081D
:1004A000DF91CF910895CF93DF93CDB7DEB7279734
:1004B0000FB6F894DEBF0FBECDBF9F838E830E9420
:1004C0006803882309F443C08E819F81FC018081E9
:1004D00091819B838A838A818C838C818295880F0A
:1004E000807E8C838A819B81892F99278D836D8162
:1004F00081E30E94E0086C8182E30E94E0088E8123
:100500009F81FC018281682F85E30E94E0081982A7
:1005100012C08981882F90E02E813F81820F931F26
:100520000396FC01908189818A5C692F0E94E00812
:1005300089818F5F89838E819F81FC01928189816E
:10054000891738F381E80E94F90881E007C00E940A
:100550003003882311F08FEF01C080E027960FB69B
:10056000F894DEBF0FBECDBFDF91CF9108950F93FA
:100570001F93CF93DF9300D000D000D0CDB7DEB76C
:100580009E838D838091A803882309F44FC081E660
:100590000E94C708882F90E0182F002782E60E944B
:1005A000C708882F90E0802B912B9C838B838B81B5
:1005B0009C819C0136952795329522952F70232793
:1005C0003F7023278D819E81FC013183208385E646
:1005D0000E94C708282F8D819E81FC0122831A82E8
:1005E000198213C089818A590E94C708482F2D811A
:1005F0003E8189819A81820F931F0396FC0140837B
:1006000089819A8101969A8389838D819E81FC01DB
:100610008281282F30E089819A818217930714F311
:100620008091A80381508093A80304C08D819E818E
:10063000FC0112828D819E8126960FB6F894DEBF52
:100640000FBECDBFDF91CF911F910F910895CF9332
:10065000DF93CDB7DEB78091A803DF91CF910895E6
:10066000CF93DF931F92CDB7DEB780E30E94C70818
:1006700089838981882F90E080729927009731F0D3
:1006800087E191E00E94241681E01EC08981882FB5
:1006900090E080719927009721F080E391E00E941B
:1006A00024168981882F90E080749927009759F04B
:1006B0008CE491E00E94241640E460E48DE20E9404
:1006C0000A0983E001C080E00F90DF91CF91089587
:1006D000CF93DF93CDB7DEB780E30E94C708882FA2
:1006E00090E0887099270097E1F08DE691E00E94F4
:1006F00024168091AC038F5F8093AC039091AC0380
:1007000080910A01981759F440E068E080E30E9464
:100710000A0987E891E00E9424161092AC0380E059
:1007200001C081E0DF91CF9108951F920F92009058
:100730005F000F9211242F933F934F935F936F931A
:100740007F938F939F93AF93BF93EF93FF93CF9339
:10075000DF931F92CDB7DEB78CE20E94C708898372
:100760008981882F90E0857099278530910551F413
:1007700040E064E08CE20E940A0940E061E08CE223
:100780000E940A09898188232CF440E060E88CE209
:100790000E940A0940E061E08CE20E940A0980910F
:1007A000A8038F5F8093A8030F90DF91CF91FF91F3
:1007B000EF91BF91AF919F918F917F916F915F91D9
:1007C0004F913F912F910F9000925F000F901F90DB
:1007D0001895CF93DF93CDB7DEB787E390E027E39B
:1007E00030E0F90120812E7FFC01208387E390E037
:1007F00027E330E0F90120812D7FFC01208388E38D
:1008000090E028E330E0F90120812460FC0120839E
:1008100087E390E027E330E0F90120812B7FFC01A2
:100820002083DF91CF910895CF93DF9300D0CDB790
:10083000DEB79A8389830E945A05DC01CB012981A6
:100840003A81F90180839183A283B3830E946E056C
:10085000DC01CB0129813A81F90184839583A68348
:10086000B78386E390E0FC018081882F90E081705F
:100870009927009741F089819A8121E030E0FC01BD
:100880003187208705C089819A81FC0111861086F5
:1008900086E390E0FC018081882F90E082709927A8
:1008A000009741F089819A8121E030E0FC01338793
:1008B000228705C089819A81FC011386128686E30E
:1008C00090E0FC018081882F90E084709927009748
:1008D00031F089819A81FC011586148607C08981CF
:1008E0009A8121E030E0FC01358724870F900F903A
:1008F000DF91CF9108951F93CF93DF93CDB7DEB7EC
:1009000029970FB6F894DEBF0FBECDBF6A837B83F5
:100910008C839D832E833F834887598784E0898316
:100920008A819B81AC81BD81BF7711E020E030E0FE
:1009300048E452E4BC01CD010E947A1288230CF0F5
:1009400010E081E081278823B1F48E819F81A88502
:10095000B985BF7711E020E030E048E452E4BC0103
:10096000CD010E947A1288230CF010E081E08127EB
:10097000882309F494C08A819B81AC81BD81BF77B3
:1009800020E030E048E452E4BC01CD010E94C913EC
:10099000181604F58E819F81A885B985BF7720E060
:1009A00030E048E452E4BC01CD010E947A12882371
:1009B0008CF420E030E0A9016A817B818C819D81EB
:1009C0000E947A1288231CF482E0898368C083E045
:1009D000898365C08A819B81AC81BD81BF7720E01E
:1009E00030E048E452E4BC01CD010E947A12882331
:1009F000FCF48E819F81A885B985BF7720E030E027
:100A000048E452E4BC01CD010E94C913181684F4D5
:100A100020E030E0A9016E817F81888599850E9460
:100A20007A1288231CF481E0898339C0198237C087
:100A30002A813B814C815D816E817F81888599858A
:100A40000E947E12DC01CB01BF7720E030E040E85D
:100A50005FE3BC01CD010E94C913181684F420E0A5
:100A600030E0A9016E817F81888599850E947A1284
:100A700088231CF481E0898312C0198210C020E011
:100A800030E0A9016A817B818C819D810E947A126C
:100A900088231CF482E0898302C083E089838981F2
:100AA00029960FB6F894DEBF0FBECDBFDF91CF9170
:100AB0001F910895CF93DF931F92CDB7DEB781E0EA
:100AC0000E94E301898389810E949005DC01CB01AA
:100AD000BC01CD010F90DF91CF910895CF93DF93AB
:100AE0001F92CDB7DEB780E00E94E3018983898140
:100AF0000E949005DC01CB01BC01CD010F90DF917C
:100B0000CF910895CF93DF931F92CDB7DEB783E0E7
:100B10000E94E301898389810F90DF91CF9108952D
:100B2000CF93DF9300D000D01F92CDB7DEB78D8377
:100B30008D81882F90E0A0E0B0E0BC01CD010E9443
:100B40001713DC01CB0189839A83AB83BC8320E03C
:100B500030E040E053E469817A818B819C810E947E
:100B60001512DC01CB0120E030E040E053E4BC0191
:100B7000CD010E947E12DC01CB0120E030E048EC88
:100B800052E4BC01CD010E94CD13DC01CB01BC01BC
:100B9000CD010F900F900F900F900F90DF91CF919C
:100BA0000895CF93DF93CDB7DEB761970FB6F89472
:100BB000DEBF0FBECDBF0E94C6070E944A02109240
:100BC000AE0380E090E0A8E4B2E48B839C83AD8325
:100BD000BE832AE939E949E954E46B817C818D813E
:100BE0009E810E94CD13DC01CB018F839887A9875A
:100BF000BA8720E030E040E85FE36F81788589853F
:100C00009A850E947A1288232CF481E090E09C87D8
:100C10008B873FC020E03FEF4FE757E46F81788537
:100C200089859A850E94C91318164CF520E030E09A
:100C300040E251E46B817C818D819E810E94CD13C5
:100C4000DC01CB01BC01CD010E94EB12DC01CB0128
:100C50009C878B870FC08AE790E09E878D878D8564
:100C60009E850197F1F79E878D878B859C850197DF
:100C70009C878B878B859C85009769F714C06F8153
:100C8000788589859A850E94EB12DC01CB019C87CF
:100C90008B878B859C85988B8F878F85988901970B
:100CA000F1F7988B8F870E94A10E009719F410928C
:100CB000A90308C00E94A10E8130910519F481E0BA
:100CC0008093A9038091A903882F90E0009721F0D9
:100CD0008130910521F006C00E94D70603C00E9412
:100CE000300700000E942703882309F45FC08BE0CF
:100CF00090E00E9430149A83898389819A810E94AE
:100D0000B70289819A81FC018081918183309105AC
:100D1000E1F489819A81FC018381882F90E023E0AE
:100D200030E0A901481B590BCA01292F2F938F933B
:100D300082EA91E0892F8F9382EA91E08F930E945B
:100D400009160F900F900F900F9089819A81FC01E6
:100D5000808191818230910501F589819A81FC0120
:100D60008381882F90E023E030E0A901481B590BD4
:100D7000CA01292F2F938F9389EB91E0892F8F93AD
:100D800089EB91E08F930E9409160F900F900F90BE
:100D90000F908BED91E00E9424168AE090E00E9473
:100DA0001D1689819A810E94C8140BCF0ACFCF9358
:100DB000DF93CDB7DEB72F970FB6F894DEBF0FBE27
:100DC000CDBF8091AE03882349F48091AF03909109
:100DD000B0030E946F0C81E08093AE03CE010296B7
:100DE0000E9414042E813F81488559858A819B8108
:100DF000AC81BD81BC01CD010E947B0489838091BF
:100E00000B01682F89810E940F0C80930B012E85A6
:100E10003F858091AD03882F90E02817390719F49A
:100E20001F861E8602C01092AD038E859F8581307D
:100E3000910569F480910B010E94EF0C8093A90346
:100E40008E859F858093AD0382E080930B012F9662
:100E50000FB6F894DEBF0FBECDBFDF91CF910895DE
:100E6000CF93DF93CDB7DEB72F970FB6F894DEBFE1
:100E70000FBECDBF0E946C078983CE0102960E94EF
:100E800014048C859D85292F2F938F9387EF91E0F4
:100E9000892F8F9387EF91E08F930E9409160F900F
:100EA0000F900F900F908C859D858130910559F49E
:100EB0000E94AC0E1092A90382E080930B018091F6
:100EC0000B010E94EF0C2F960FB6F894DEBF0FBEF9
:100ED000CDBFDF91CF910895CF93DF93CDB7DEB72C
:100EE0006F970FB6F894DEBF0FBECDBFCE0103964D
:100EF0000E9414042F81388549855A858B819C81F5
:100F0000AD81BE81BC01CD010E947B0489838B81B0
:100F10009C81AD81BE81BC01CD010E94E612DC0145
:100F2000CB019A8B898B8F819885A985BA85BC0165
:100F3000CD010E94E612DC01CB019C8B8B8B0E94C1
:100F400082058A8381E090E09E8B8D8B87E08F8B7A
:100F50008B859C85888F8D859E85898F8F859889C7
:100F60008A8F89818B8F89898C8F8A898D8F8A81DD
:100F70008E8FCE0145960E9453026F960FB6F8945D
:100F8000DEBF0FBECDBFDF91CF910895CF93DF932A
:100F900000D0CDB7DEB785E590E025E530E0F9017A
:100FA00020812068FC01208380E590E020E530E08E
:100FB000F90120812062FC0120838FE190E09A8377
:100FC000898389819A810E94AE110E94CA100E9471
:100FD000D3100E94D3010E94E9030E94B50E0E9423
:100FE0004B099093B0038093AF030E941A020F90B5
:100FF0000F90DF91CF910895CF93DF93CDB7DEB7F8
:101000002F970FB6F894DEBF0FBECDBF0E946010C1
:101010000E94290980E090E0A0E2B1E489839A83EC
:10102000AB83BC832AE939E949E954E469817A81CF
:101030008B819C810E94CD13DC01CB018D839E832B
:10104000AF83B88720E030E040E85FE36D817E81C8
:101050008F8198850E947A1288232CF481E090E099
:101060009A8789873FC020E03FEF4FE757E46D81C3
:101070007E818F8198850E94C91318164CF520E057
:1010800030E040E251E469817A818B819C810E9449
:10109000CD13DC01CB01BC01CD010E94EB12DC01C0
:1010A000CB019A8789870FC08AE790E09C878B875E
:1010B0008B859C850197F1F79C878B8789859A851D
:1010C00001979A87898789859A85009769F714C05F
:1010D0006D817E818F8198850E94EB12DC01CB01AE
:1010E0009A87898789859A859E878D878D859E8534
:1010F0000197F1F79E878D878EE00E94C7088F8742
:101100008F85882F90E0807E99278038910531F077
:1011100083E092E00E94241681E014C08F85882F1E
:1011200090E0292F2F938F9385E392E0892F8F935F
:1011300085E392E08F930E9409160F900F900F9015
:101140000F9080E02F960FB6F894DEBF0FBECDBF94
:10115000DF91CF910895CF93DF931F92CDB7DEB784
:1011600040E060EE8FE00E940A098EE00E94C7080E
:1011700089838981882F90E0807E9927009711F0DC
:1011800081E001C080E00F90DF91CF910895CF936F
:10119000DF9300D0CDB7DEB78A830E94AA1083E028
:1011A0000E947E108A810E947E100E949410898382
:1011B0000E94BA1089810F900F90DF91CF9108950E
:1011C000CF93DF9300D0CDB7DEB789836A830E94C7
:1011D000AA1082E00E947E1089810E947E108A817E
:1011E0000E947E100E94BA100F900F90DF91CF9155
:1011F0000895CF93DF931F92CDB7DEB789830E9406
:10120000AA1089810E947E100E94BA100F90DF916F
:10121000CF910895CF93DF9300D01F92CDB7DEB763
:1012200089836A834B830E94AA1085E00E947E1006
:1012300089810E947E108A810E947E108B810E948B
:101240007E100E94BA100F900F900F90DF91CF91F7
:101250000895CF93DF93CDB7DEB70E94AA1080EC3C
:101260000E947E100E94BA10DF91CF910895CF9313
:10127000DF931F92CDB7DEB789838981882F90E0F5
:10128000880F991F835F9E4FFC01808191810F9091
:10129000DF91CF9108950F931F93CF93DF9300D0E9
:1012A000CDB7DEB78DE090E00E9430149A83898339
:1012B00089819A8122E532E0FC01348723878DE021
:1012C00090E00E9430149C0189819A81FC01338353
:1012D000228389819A81FC01828193812CE532E00D
:1012E000FC013487238789819A81FC018281938163
:1012F00029813A81FC013183208389819A81FC0113
:101300008281938121E0FC0122878DE090E00E94A0
:1013100030149C0189819A81FC0135832483898161
:101320009A81FC018481958125E632E0FC013487B5
:10133000238789819A81FC018481958129813A8161
:10134000FC013183208389819A81FC01848195810C
:1013500021E0FC0122878DE090E00E9430149C0186
:1013600089819A81FC013783268389819A81FC01D6
:101370008681978120E732E0FC01348723878981C9
:101380009A81FC018681978129813A81FC01318310
:10139000208389819A81FC011186108689819A8136
:1013A00023E0FC01228789819A81FC01028113815B
:1013B0008DE090E00E943014F8019383828389814C
:1013C0009A81FC0182819381FC018281938129E7CA
:1013D00032E0FC013487238789819A81FC01828174
:1013E0009381FC0182819381FC01128689819A811B
:1013F000FC0182819381FC018281938129813A8160
:10140000F90122813381FC013183208389819A8112
:10141000FC014281538189819A81FC0182819381FF
:1014200029813A81F90122813381F90111861086DF
:10143000F90120853185FC0137832683FC018681F3
:101440009781FA019583848389819A81FC010481C3
:1014500015818DE090E00E943014F801938382831F
:1014600089819A81FC0184819581FC01828193812B
:1014700021E832E0FC013487238789819A81FC01CD
:1014800084819581FC018281938129813A81F901CE
:1014900024813581FC013183208389819A81FC017B
:1014A00084819581FC0182819381FC01128689816E
:1014B0009A81FC014481558189819A81FC01848152
:1014C000958129813A81F90124813581F9011186BB
:1014D0001086F90120853185FC0137832683FC01C4
:1014E00086819781FA019583848389819A81FC01A1
:1014F000068117818DE090E00E943014F8019383FB
:10150000828389819A81FC0186819781FC01828195
:10151000938128E832E0FC013487238789819A810E
:10152000FC0186819781FC018281938129813A8126
:10153000F90126813781FC013183208389819A81D9
:10154000FC0186819781FC01028113818DE090E08E
:101550000E943014F8019383828389819A81FC016F
:1015600086819781FC0182819381FC018281938134
:1015700027E932E0FC013487238789819A81FC01C5
:1015800086819781FC0182819381FC018281938114
:1015900029813A81F90126813781F901228133813C
:1015A000FC013183208389819A81FC0186819781A6
:1015B000FC01028113818DE090E00E943014F8015B
:1015C0009583848389819A81FC0186819781FC01BE
:1015D00082819381FC01848195812CE932E0FC01B8
:1015E0003487238789819A81FC0186819781FC0158
:1015F00082819381FC018481958129813A81F9015D
:1016000026813781F90122813381FC0131832083D6
:1016100089819A81FC0186819781FC010281138175
:101620008DE090E00E943014F801978386838981D1
:101630009A81FC0186819781FC0182819381FC0162
:101640008681978123EA32E0FC01348723878981F0
:101650009A81FC0186819781FC0182819381FC0142
:101660008681978129813A81F90126813781F901A3
:1016700022813381FC013183208389819A81FC019D
:1016800086819781FC01028113818DE090E00E94A8
:101690003014F8019187808789819A81FC018681C5
:1016A0009781FC0182819381FC018085918521E8ED
:1016B00032E0FC013487238789819A81FC0186818D
:1016C0009781FC0182819381FC018085918529812C
:1016D0003A81F90126813781F90122813381FC01A8
:1016E0003183208389819A81FC0186819781FC0165
:1016F0008281938124E0FC01228789819A81FC0107
:10170000068117818DE090E00E943014F8019583E6
:10171000848389819A81FC0186819781FC0184817F
:10172000958128EA32E0FC013487238789819A81F8
:10173000FC0186819781FC018481958129813A8110
:10174000F90126813781FC013183208389819A81C7
:10175000FC01068117818DE090E00E943014F801B1
:101760009783868389819A81FC0186819781FC0118
:101770008681978122EB32E0FC01348723878981BF
:101780009A81FC0186819781FC018681978129815C
:101790003A81F90126813781FC01318320838981D7
:1017A0009A81FC01068117818DE090E00E9430143F
:1017B000F8019187808789819A81FC0186819781D0
:1017C000FC018085918521E832E0FC013487238784
:1017D00089819A81FC0186819781FC0180859185B0
:1017E00029813A81F90126813781FC0131832083E7
:1017F00089819A81FC018681978124E0FC012287FE
:1018000089819A819093B2038093B10389819A81EF
:101810000F900F90DF91CF911F910F910895CF936B
:10182000DF9300D01F92CDB7DEB78A836B838091A0
:10183000B1039091B203FC018285898380910C01F0
:101840009A81981719F484E08A8303C084E0809316
:101850000C018A81882F90E08130910509F1843054
:10186000910519F0009731F033C060E08B810E9440
:1018700041102EC08B81833090F060E08B810E94FC
:10188000BC0F80EC92E00E9407108B8181508B830B
:1018900060E08B810E94411010920C0119C018C0A9
:1018A0009B818981891798F060E08B810E94BC0F31
:1018B00080EC92E00E9407108B818F5F8B8360E049
:1018C0008B810E94411081E080930C0100C00000D8
:1018D0008B810F900F900F90DF91CF910895CF9350
:1018E000DF9300D000D0CDB7DEB79C838B838B8194
:1018F0009C819A8389830E94240F0E943E0F62E09C
:1019000080E00E94BC0F8B819C81FC0183859485C3
:101910000E9407108B819C81FC018281938100973A
:1019200071F062E082E00E94BC0F8B819C81FC011F
:1019300082819381FC01838594850E9407108B81AD
:101940009C81FC0184819581009771F062E083E0C5
:101950000E94BC0F8B819C81FC0184819581FC01DC
:10196000838594850E9407108B819C81FC01868170
:101970009781009771F062E084E00E94BC0F8B8138
:101980009C81FC0186819781FC01838594850E945E
:1019900007108B819C81FC0180859185009771F0F7
:1019A00062E085E00E94BC0F8B819C81FC018085F8
:1019B0009185FC01838594850E94071062E087E091
:1019C0000E94BC0F8091AA030E9437090E94071051
:1019D0000F900F900F900F90DF91CF910895CF93BC
:1019E000DF931F92CDB7DEB789838091B1039091C9
:1019F000B203FC0183859485292F2F938F930E9436
:101A000009160F900F908091B1039091B203FC01E1
:101A10008385948562E572E00E94B5150097E9F42C
:101A20008981823049F481E08093AB038981882FDA
:101A300090E00E940C0EEAC08981833041F40E943C
:101A40009A0E8981882F90E00E940C0EDFC0898158
:101A5000882F90E00E940C0ED9C08091B103909124
:101A6000B203FC01838594856CE572E00E94B51594
:101A70000097F1F48981823009F0C8C08091B103E8
:101A80009091B203FC01808191819093B203809385
:101A9000B10360E089810E94BC0F80EC92E00E945B
:101AA00007108091B1039091B2030E946F0CAEC0F9
:101AB0008091B1039091B203FC018385948560E726
:101AC00072E00E94B515009709F03FC0898182300D
:101AD00031F48981882F90E00E940C0E97C0898193
:101AE000833049F460E089810E94BC0F80EC92E071
:101AF0000E9407108BC08981843049F460E089819D
:101B00000E94BC0F80EC92E00E9407107FC0898188
:101B1000853009F07BC08091B1039091B203FC0144
:101B2000808191819093B2038093B10360E08981B9
:101B30000E94BC0F80EC92E00E9407108091B103DC
:101B40009091B2030E946F0C61C08091B10390919B
:101B5000B203FC018385948568E872E00E94B515A4
:101B6000009771F58981823019F41092AA0321C07F
:101B70008981833021F481E08093AA031AC089818E
:101B8000843021F482E08093AA0313C08091B103D2
:101B90009091B203FC01808191819093B203809374
:101BA000B10360E089810E94BC0F80EC92E00E944A
:101BB00007108091B1039091B2030E946F0C26C070
:101BC0008091B1039091B203FC018385948565E611
:101BD00072E00E94B5150097C9F48091B10390910D
:101BE000B203FC01808191819093B2038093B10391
:101BF00060E089810E94BC0F80EC92E00E94071097
:101C00008091B1039091B2030E946F0C8091AB035D
:101C10000F90DF91CF910895CF93DF931F92CDB7AF
:101C2000DEB789838981882F90E08330910581F127
:101C30008430910509F454C08230910509F076C0D2
:101C40008091B1039091B203FC018281938100974E
:101C5000F1F08091B1039091B203FC0182819381F4
:101C60009093B2038093B10360E089810E94BC0F1E
:101C700080EC92E00E94071062E084E00E940F0C6A
:101C80008091B1039091B2030E946F0C4FC04EC07F
:101C90008091B1039091B203FC01848195810097FA
:101CA000F1F08091B1039091B203FC0184819581A0
:101CB0009093B2038093B10360E089810E94BC0FCE
:101CC00080EC92E00E94071062E084E00E940F0C1A
:101CD0008091B1039091B2030E946F0C27C026C07F
:101CE0008091B1039091B203FC01868197810097A6
:101CF000E9F08091B1039091B203FC018681978154
:101D00009093B2038093B10360E089810E94BC0F7D
:101D100080EC92E00E94071062E084E00E940F0CC9
:101D20008091B1039091B2030E946F0C0F90DF91EC
:101D3000CF910895CF93DF93CDB7DEB7DF91CF91E9
:101D40000895CF93DF93CDB7DEB78091AB03882F93
:101D500090E0DF91CF910895CF93DF93CDB7DEB7B9
:101D60001092AB03DF91CF910895CF93DF93CDB75E
:101D7000DEB78EEA0E94020F81EA0E94020F8AED0E
:101D80000E94020F82E10E94020F88EC0E94020F63
:101D900088EA0E94020F8FE30E94020F85ED0E94E5
:101DA000020F80E80E94020F81E80E94020F80E586
:101DB0000E94020F89ED0E94020F81E20E94020F31
:101DC00080E20E94020F82E00E94020F8BED0E94CF
:101DD000020F80E30E94020F8DEA0E94020F80E052
:101DE0000E94020F84EA0E94020F86EA0E94020FFC
:101DF0008FEA0E94020F0E94240F0E943E0FDF9183
:101E0000CF910895CF93DF931F92CDB7DEB789832B
:101E100080911301909114012981FC0120830F907E
:101E2000DF91CF910895CF93DF931F92CDB7DEB7A7
:101E3000898380911501909116012981FC012083ED
:101E40000F90DF91CF910895CF93DF9300D0CDB75E
:101E5000DEB71A82198208C089810E949C0F89818D
:101E60009A8101969A83898389819A818830910524
:101E70009CF30F900F90DF91CF910895CF93DF9354
:101E8000CDB7DEB781E20E94020F80E00E94020F10
:101E90008FE70E94020F82E20E94020F80E00E9400
:101EA000020F87E00E94020F1092B303DF91CF91DF
:101EB0000895CF93DF931F92CDB7DEB789838981D1
:101EC000883038F489818093B303898180550E94DA
:101ED000020F0F90DF91CF910895CF93DF9300D041
:101EE0001F92CDB7DEB78B838B81882F90E0880F50
:101EF000991F880F991F880F991F80389105B4F496
:101F00008B81880F880F880F8B838B818093B4031C
:101F10008B818F7089838B8182958F70805F8A839C
:101F200089810E94020F8A810E94020F0F900F90F8
:101F30000F90DF91CF910895CF93DF9300D01F9240
:101F4000CDB7DEB78B838B810E94590F1A8219821D
:101F500008C080E00E94130F89819A8101969A83BC
:101F6000898389819A81803891059CF30F900F9025
:101F70000F90DF91CF910895CF93DF9300D0CDB72D
:101F8000DEB789836A8389810E94590F8A810E9402
:101F90006D0F0F900F90DF91CF910895CF93DF9346
:101FA00000D000D000D0CDB7DEB78E831A82198260
:101FB00020C08E81882F90E080979C01220F331FD4
:101FC000220F331F220F331F89819A81820F931FA3
:101FD00080599F4F9C838B838B819C81FC018491D2
:101FE0008D838D810E94130F89819A8101969A8336
:101FF000898389819A8188309105DCF226960FB613
:10200000F894DEBF0FBECDBFDF91CF910895CF937F
:10201000DF9300D000D0CDB7DEB79C838B831A82CC
:1020200019821EC089819A812B813C81820F931F66
:10203000FC0180810E94CE0F89819A8101969A834A
:10204000898389819A818031910529F089819A81DA
:102050008032910529F48091B3038F5F0E94590F5C
:1020600089819A812B813C81820F931FFC018081A1
:102070008823C1F60F900F900F900F90DF91CF91B2
:102080000895CF93DF9300D0CDB7DEB789836A83FD
:102090006A8189810E94BC0F88E10E94130F88E148
:1020A0000E94130F8EE70E94130F8CE30E94130F00
:1020B00088E10E94130F0F900F90DF91CF91089548
:1020C000CF93DF9300D0CDB7DEB787E390E020EB6E
:1020D000FC0120838DE290E021E5FC0120838EE26B
:1020E00090E0FC01808189838FE290E0FC01808197
:1020F0008A830F900F90DF91CF910895CF93DF9354
:102100001F92CDB7DEB789838FE290E02981FC0171
:10211000208300008EE290E0FC0180818823D4F7C8
:102120000F90DF91CF910895CF93DF93CDB7DEB7B6
:102130008FE290E0FC01108200008EE290E0FC0152
:1021400080818823D4F78FE290E0FC018081DF91C9
:10215000CF910895CF93DF93CDB7DEB788E390E0BA
:1021600028E330E0F90120812F7EFC012083DF91FC
:10217000CF910895CF93DF93CDB7DEB788E390E09A
:1021800028E330E0F90120812061FC012083DF9108
:10219000CF910895CF93DF93CDB7DEB780E090E085
:1021A000DF91CF910895CF93DF93CDB7DEB76297DC
:1021B0000FB6F894DEBF0FBECDBF80E098E19A87DE
:1021C000898780E098E09C878B871A8219821C821D
:1021D0001B8283EC92E00E9424160E94A5159E8724
:1021E0008D878D859E850E94AA151E821D8244C002
:1021F0000E94A5158F8729853A858D819E81820F42
:10220000931F2F85FC01208329853A858D819E812E
:10221000820F931FFC018081888B98898F85981786
:1022200031F18F85282F30E08889882F90E0432F67
:102230004F932F93292F2F938F938E818F938D817F
:102240008F9389ED92E0892F8F9389ED92E08F93A0
:102250000E9409168DB79EB708960FB6F894DEBF98
:102260000FBECDBF89819A8101969A8389838D8122
:102270009E8101969E838D832D813E818B859C85D9
:102280002817390708F4B4CF8D859E850E94AA15BA
:1022900018861F823BC00E94A515898B29853A8527
:1022A0008F819885820F931FFC0180818A8B9A8988
:1022B0008989981731F18989282F30E08A89882FF8
:1022C00090E0432F4F932F93292F2F938F9388853F
:1022D0008F938F818F9382E193E0892F8F9382E197
:1022E00093E08F930E9409168DB79EB708960FB69C
:1022F000F894DEBF0FBECDBF8B819C8101969C837D
:102300008B838F819885019698878F832F8138855D
:102310008B859C852817390708F4BDCF8C818F9356
:102320008B818F938A818F9389818F938FE493E040
:10233000892F8F938FE493E08F930E9409160F905B
:102340000F900F900F900F900F9062960FB6F89429
:10235000DEBF0FBECDBFDF91CF910895CF93DF9346
:1023600000D0CDB7DEB79A83898380E490E02981DD
:102370003A81232F3327FC01208389E290E02981D1
:10238000FC0120838AE290E028E1FC01208380E4C4
:1023900090E02EE8FC0120836CEF71E18BED91E180
:1023A0000E94BE159093B6038093B5030F900F90D3
:1023B000DF91CF910895CF93DF9300D01F92CDB7D7
:1023C000DEB789837B836A8300008BE290E0FC01A7
:1023D0008081882F90E0807299270097B1F38CE27A
:1023E00090E02981FC01208380E090E00F900F9025
:1023F0000F90DF91CF910895CF93DF9300D0CDB7A9
:10240000DEB79A83898300008BE290E0FC01808133
:102410008823D4F78CE290E0FC018081882F90E043
:102420000F900F90DF91CF9108955058BB27AA27A6
:102430000ED075C166D130F06BD120F031F49F3FE2
:1024400011F41EF45BC10EF4E095E7FB51C1E92FD6
:1024500077D180F3BA17620773078407950718F0DE
:1024600071F49EF58FC10EF4E0950B2EBA2FA02DBE
:102470000B01B90190010C01CA01A0011124FF2731
:10248000591B99F0593F50F4503E68F11A16F0402C
:10249000A22F232F342F4427585FF3CF469537952B
:1024A0002795A795F0405395C9F77EF41F16BA0BF0
:1024B000620B730B840BBAF09150A1F0FF0FBB1F9E
:1024C000661F771F881FC2F70EC0BA0F621F731FE7
:1024D000841F48F4879577956795B795F7959E3F44
:1024E00008F0B3CF9395880F08F09927EE0F9795D2
:1024F00087950895D9D008F481E008950CD00FC1D4
:1025000007D140F0FED030F021F45F3F19F0F0C069
:10251000511139C1F3C014D198F39923C9F355234C
:10252000B1F3951B550BBB27AA27621773078407C6
:1025300038F09F5F5F4F220F331F441FAA1FA9F37C
:1025400033D00E2E3AF0E0E830D091505040E6956E
:10255000001CCAF729D0FE2F27D0660F771F881FCF
:10256000BB1F261737074807AB07B0E809F0BB0BBE
:10257000802DBF01FF2793585F4F2AF09E3F5105E2
:1025800068F0B6C000C15F3FECF3983EDCF386957F
:1025900077956795B795F7959F5FC9F7880F911D58
:1025A0009695879597F90895E1E0660F771F881F44
:1025B000BB1F621773078407BA0720F0621B730BF7
:1025C000840BBA0BEE1F88F7E095089504D0689449
:1025D000B111D9C00895BCD088F09F5790F0B92FA1
:1025E0009927B751A0F0D1F0660F771F881F991F68
:1025F0001AF0BA95C9F712C0B13081F0C3D0B1E07A
:102600000895C0C0672F782F8827B85F39F0B93F89
:10261000CCF3869577956795B395D9F73EF4909569
:102620008095709561957F4F8F4F9F4F0895E894E7
:1026300009C097FB3EF490958095709561957F4F0A
:102640008F4F9F4F9923A9F0F92F96E9BB279395B8
:10265000F695879577956795B795F111F8CFFAF4C8
:10266000BB0F11F460FF1BC06F5F7F4F8F4F9F4FF9
:1026700016C0882311F096E911C0772321F09EE857
:10268000872F762F05C0662371F096E8862F70E0BD
:1026900060E02AF09A95660F771F881FDAF7880F97
:1026A0009695879597F90895990F0008550FAA0BED
:1026B000E0E8FEEF16161706E807F907C0F0121655
:1026C0001306E407F50798F0621B730B840B950B58
:1026D00039F40A2661F0232B242B252B21F40895AD
:1026E0000A2609F4A140A6958FEF811D811D08954A
:1026F00097F99F6780E870E060E008959FEF80ECB5
:10270000089500240A941616170618060906089557
:1027100000240A9412161306140605060895092EBD
:102720000394000C11F4882352F0BB0F40F4BF2B2C
:1027300011F460FF04C06F5F7F4F8F4F9F4F08956C
:1027400057FD9058440F551F59F05F3F71F0479562
:10275000880F97FB991F61F09F3F79F08795089547
:10276000121613061406551FF2CF4695F1DF08C066
:10277000161617061806991FF1CF86957105610583
:1027800008940895E894BB2766277727CB0197F92B
:1027900008958ADF08F48FEF08950BD0C0CFB1DF22
:1027A00028F0B6DF18F0952309F0A2CFA7CF1124A7
:1027B000EACFC6DFA0F3959FD1F3950F50E0551FE8
:1027C000629FF001729FBB27F00DB11D639FAA2786
:1027D000F00DB11DAA1F649F6627B00DA11D661FD5
:1027E000829F2227B00DA11D621F739FB00DA11DF6
:1027F000621F839FA00D611D221F749F3327A00DB0
:10280000611D231F849F600D211D822F762F6A2F4B
:1028100011249F5750408AF0E1F088234AF0EE0FD0
:10282000FF1FBB1F661F771F881F91505040A9F7DD
:102830009E3F510570F05CCFA6CF5F3FECF3983E12
:10284000DCF3869577956795B795F795E7959F5F44
:10285000C1F7FE2B880F911D9695879597F90895DE
:10286000CF93DF938230910510F482E090E0E09105
:10287000B903F091BA0320E030E0A0E0B0E0309777
:1028800039F14081518148175907B8F04817590765
:1028900071F482819381109729F013969C938E9303
:1028A00012972CC09093BA038093B90327C02115C7
:1028B000310531F04217530718F0A901DB0101C0BF
:1028C000EF019A01BD01DF010280F381E02DD7CF36
:1028D00021153105F9F0281B390B2430310580F41E
:1028E0008A819B816115710521F0FB0193838283AD
:1028F00004C09093BA038093B903FE01329644C09A
:10290000FE01E20FF31F8193919322503109398325
:1029100028833AC02091B7033091B803232B41F4A8
:1029200020910201309103013093B8032093B70343
:1029300020910001309101012115310541F42DB79D
:102940003EB74091040150910501241B350BE091E5
:10295000B703F091B803E217F307A0F42E1B3F0B67
:102960002817390778F0AC014E5F5F4F2417350701
:1029700048F04E0F5F1F5093B8034093B703819305
:10298000919302C0E0E0F0E0CF01DF91CF91089594
:10299000CF93DF93009709F487C0FC01329713822D
:1029A0001282C091B903D091BA03209781F420819B
:1029B0003181280F391F8091B7039091B803821796
:1029C000930779F5F093B803E093B7036DC0DE0188
:1029D00020E030E0AE17BF0750F412964D915C91A5
:1029E00013979D014115510509F1DA01F3CFB38326
:1029F000A28340815181840F951F8A179B0771F430
:102A00008D919C911197840F951F029691838083DD
:102A100012968D919C911397938382832115310592
:102A200029F4F093BA03E093B9033EC0D901139699
:102A3000FC93EE9312974D915D91A40FB51FEA1789
:102A4000FB0779F480819181840F951F0296D9014B
:102A500011969C938E938281938113969C938E936F
:102A60001297E0E0F0E08A819B81009719F0FE0167
:102A7000EC01F9CFCE01029628813981820F931F94
:102A80002091B7033091B8032817390769F43097BC
:102A900029F41092BA031092B90302C01382128271
:102AA000D093B803C093B703DF91CF9108958F926D
:102AB0009F92AF92BF92CF92DF92EF92FF92CF930D
:102AC000DF93EC01688179818A819B8161157105B1
:102AD0008105910521F464E279ED8BE597E02DE124
:102AE00033EF41E050E00E94EC1849015A019B018C
:102AF000AC01A7EAB1E40E940B196B017C01ACEEBA
:102B0000B4EFA50194010E941919C60ED71EE81E44
:102B1000F91EF7FE06C081E0C81AD108E10880E876
:102B2000F80AC882D982EA82FB82C6019F77DF91C8
:102B3000CF91FF90EF90DF90CF90BF90AF909F909C
:102B40008F9008950E945715089586E091E00E94A5
:102B500057150895A0E0B0E0809306019093070117
:102B6000A0930801B09309010895FB01DC018D9148
:102B7000019080190110D9F3990B08950F931F93B9
:102B8000CF93DF93EC018B01009731F46115710550
:102B900019F480E090E038C06EE070E081E090E0F1
:102BA0000E942318FC010097A1F380E8838301159C
:102BB000110571F01387028781E883838091BB033D
:102BC0009091BC03892B21F4F093BC03E093BB03E9
:102BD0002097C9F0D187C0878381826083838091E9
:102BE000BD039091BE03892B71F4F093BE03E09373
:102BF000BD038091BF039091C003892B21F4F09312
:102C0000C003E093BF03CF01DF91CF911F910F91DC
:102C10000895A0E0B0E0EFE0F6E10C942E19FE017B
:102C2000359661917191AF018091BD039091BE0382
:102C30000E945116E2E00C944A196091BD03709114
:102C4000BE030E945C1808950F931F93CF93DF93E8
:102C5000E091BD03F091BE03238121FF1BC0EC0175
:102C600000E010E089916091BD037091BE03DB012B
:102C70001896ED91FC911997882331F00995892BCD
:102C800089F30FEF1FEFEECF8AE00995892B11F43E
:102C9000C80102C08FEF9FEFDF91CF911F910F917D
:102CA0000895ACE0B0E0E7E5F6E10C941E197C0174
:102CB0006B018A01FC0117821682838181FFBDC1ED
:102CC000CE0101964C01F7019381F60193FD8591A8
:102CD00093FF81916F01882309F4ABC1853239F4E8
:102CE00093FD859193FF81916F01853229F4B7019E
:102CF00090E00E945C18E7CF512C312C20E020326C
:102D0000A0F48B3269F030F4803259F0833269F4E8
:102D100020612CC08D3239F0803339F4216026C017
:102D20002260246023C0286021C027FD27C030ED29
:102D3000380F3A3078F426FF06C0FAE05F9E300D77
:102D40001124532E13C08AE0389E300D1124332EE7
:102D500020620CC08E3221F426FD6BC1206406C0B7
:102D60008C3611F4206802C0883641F4F60193FDD8
:102D7000859193FF81916F018111C1CF982F9F7D24
:102D80009554933028F40C5F1F4FFFE3F9830DC077
:102D9000833631F0833771F0833509F05BC022C090
:102DA000F801808189830E5F1F4F44244394512C86
:102DB000540115C03801F2E06F0E711CF801A080BB
:102DC000B18026FF03C0652D70E002C06FEF7FEF7A
:102DD000C5012C870E9451182C0183012C852F7767
:102DE000222E17C03801F2E06F0E711CF801A0808E
:102DF000B18026FF03C0652D70E002C06FEF7FEF4A
:102E0000C5012C870E943F182C012C852068222E9A
:102E1000830123FC1BC0832D90E048165906B0F4B3
:102E2000B70180E290E00E945C183A94F4CFF5017B
:102E300027FC859127FE81915F01B70190E00E94F8
:102E40005C1831103A94F1E04F1A510841145104C2
:102E500071F7E5C0843611F0893639F5F80127FF9E
:102E600007C060817181828193810C5F1F4F08C010
:102E700060817181882777FD8095982F0E5F1F4FA5
:102E80002F76B22E97FF09C0909580957095619529
:102E90007F4F8F4F9F4F2068B22E2AE030E0A40171
:102EA0000E948E18A82EA81844C0853729F42F7EBA
:102EB000B22E2AE030E025C0F22FF97FBF2E8F36E8
:102EC000C1F018F4883579F0B4C0803719F088372C
:102ED00021F0AFC02F2F2061B22EB4FE0DC08B2D7C
:102EE0008460B82E09C024FF0AC09F2F9660B92EB7
:102EF00006C028E030E005C020E130E002C020E15B
:102F000032E0F801B7FE07C0608171818281938150
:102F10000C5F1F4F06C06081718180E090E00E5F02
:102F20001F4FA4010E948E18A82EA818FB2DFF7712
:102F3000BF2EB6FE0BC02B2D2E7FA51450F4B4FE71
:102F40000AC0B2FC08C02B2D2E7E05C07A2C2B2D7A
:102F500003C07A2C01C0752C24FF0DC0FE01EA0DC0
:102F6000F11D8081803311F4297E09C022FF06C043
:102F70007394739404C0822F867809F0739423FDB0
:102F800013C020FF06C05A2C731418F4530C5718A2
:102F9000732C731468F4B70180E290E02C870E94D0
:102FA0005C1873942C85F5CF731410F4371801C096
:102FB000312C24FF12C0B70180E390E02C870E94DF
:102FC0005C182C8522FF17C021FF03C088E590E024
:102FD00002C088E790E0B7010CC0822F867859F0D4
:102FE00021FD02C080E201C08BE227FD8DE2B70126
:102FF00090E00E945C18A51438F4B70180E390E0DB
:103000000E945C185A94F7CFAA94F401EA0DF11DBE
:103010008081B70190E00E945C18A110F5CF3320A9
:1030200009F451CEB70180E290E00E945C183A9416
:10303000F6CFF7018681978102C08FEF9FEF2C9624
:10304000E2E10C943A190F931F93CF93DF93869F7D
:103050008001879F100D969F100D1124C8010E94BA
:103060003014EC01009729F0A80160E070E00E94A4
:103070004A18CE01DF91CF911F910F910895FC0165
:103080000590615070400110D8F7809590958E0F93
:103090009F1F0895DC0101C06D9341505040E0F73F
:1030A0000895FC016150704001900110D8F780959F
:1030B00090958E0F9F1F08950F931F93CF93DF93CB
:1030C000182F092FEB018B8181FD03C08FEF9FEF3C
:1030D00020C082FF10C04E815F812C813D8142174C
:1030E00053077CF4E881F9819F012F5F3F4F3983BB
:1030F0002883108306C0E885F985812F0995892BDF
:1031000029F72E813F812F5F3F4F3F832E83812FF1
:10311000902FDF91CF911F910F910895FA01AA2767
:10312000283051F1203181F1E8946F936E7F6E5F0A
:103130007F4F8F4F9F4FAF4FB1E03ED0B4E03CD0B8
:10314000670F781F891F9A1FA11D680F791F8A1F9B
:10315000911DA11D6A0F711D811D911DA11D20D002
:1031600009F468943F912AE0269F11243019305DBC
:103170003193DEF6CF010895462F4770405D4193AD
:10318000B3E00FD0C9F7F6CF462F4F70405D4A33FA
:1031900018F0495D31FD4052419302D0A9F7EACFC2
:1031A000B4E0A6959795879577956795BA95C9F7F1
:1031B00000976105710508959B01AC010A2E0694E4
:1031C0005795479537952795BA95C9F7620F731F9D
:1031D000841F951FA01D0895052E97FB1EF40094D3
:1031E0000E94031957FD07D00E94551907FC03D010
:1031F0004EF40C94031950954095309521953F4F0E
:103200004F4F5F4F089590958095709561957F4FD2
:103210008F4F9F4F08950E947719A59F900DB49FDF
:10322000900DA49F800D911D11240895B7FF0C945B
:103230000B190E940B19821B930B08952F923F923A
:103240004F925F926F927F928F929F92AF92BF92B6
:10325000CF92DF92EF92FF920F931F93CF93DF9362
:10326000CDB7DEB7CA1BDB0B0FB6F894DEBF0FBEBF
:10327000CDBF09942A88398848885F846E847D840C
:103280008C849B84AA84B984C884DF80EE80FD800E
:103290000C811B81AA81B981CE0FD11D0FB6F89484
:1032A000DEBF0FBECDBFED010895A1E21A2EAA1B0D
:1032B000BB1BFD010DC0AA1FBB1FEE1FFF1FA217E6
:1032C000B307E407F50720F0A21BB30BE40BF50BE3
:1032D000661F771F881F991F1A9469F7609570956C
:1032E000809590959B01AC01BD01CF010895A29FEF
:1032F000B001B39FC001A39F700D811D1124911DCA
:10330000B29F700D811D1124911D0895F894FFCF77
:103310000000C10320000100000005020497029C88
:1033200002A302001000124D657373616765206C83
:103330006F7374206172626974726174696F6E0078
:103340005472616E736D697373696F6E206572720A
:103350006F722064657465637465640052656365AB
:1033600069766520627566666572206F766572663D
:103370006C6F7720666C6167207365740043414E03
:10338000207472616E736D6974206E6F7420636F48
:103390006D706C657465005265736574207472613C
:1033A0006E736D697373696F6E2072657175657385
:1033B00074004E756D626572206F66206C6976656B
:1033C000732069733A2025640047414D45204C4FD6
:1033D00053542C206E756D626572206F66206C6987
:1033E0007665732069732025640A005072657373D3
:1033F00020627574746F6E20746F207374617274C0
:1034000020616761696E00627574746F6E3A202581
:10341000640A004D435032353135206973204E4FD8
:103420005420696E20636F6E666967757261746996
:103430006F6E206D6F6465206166746572207265C1
:1034400073657421004D435032353135206D6F6402
:103450006520616674657220696E69743A2025641E
:103460000A004D41494E204D454E55004E455720CE
:1034700047414D4500484947482053434F52450076
:1034800053455454494E475300504C4159494E47B7
:103490000052455455524E00534554204449464627
:1034A0004943554C54590045415359004D454449F1
:1034B000554D004841524400444542554747494E06
:1034C000470043414C2E204A4F59535449434B0027
:1034D0002020005374617274696E67205352414D0D
:1034E00020746573742E2E2E0057726974652070D7
:1034F00068617365206572726F723A206578745FD7
:1035000072616D5B2534645D203D2025303258208A
:103510002873686F756C64206265202530325829E5
:103520000A0052657472696576616C207068617317
:1035300065206572726F723A206578745F72616D92
:103540005B2534645D203D20253032582028736887
:103550006F756C642062652025303258290A00534B
:1035600052414D207465737420636F6D706C657487
:1035700065642077697468200A2534642065727256
:103580006F727320696E207772697465207068614C
:10359000736520616E64200A253464206572726F41
:1035A000727320696E2072657472696576616C2031
:0835B00070686173650A0A00EE
:00000001FF
