S01600006279676765726E5F6E6F64655F312E737265638B
S11300000C94B4010C94D1010C9496030C94D1017A
S11300100C94D1010C94D1010C94D1010C94D10114
S11300200C94D1010C94D1010C94D1010C94D10104
S11300300C94D1010C9454090C94D1010C94D10169
S11300400C94D1010C94D1010C94D1010C94D101E4
S11300500C94D1010C94D1010C94D1010C94D101D4
S11300600C94D1010C94D1010C94D1010C94D101C4
S1130070000000000000000000065F5F06000000B2
S11300800007070007070000147F7F147F7F140018
S1130090242E6B6B3A120000466630180C66620020
S11300A0307A4F5D377A48000407030000000000EF
S11300B0001C3E63410000000041633E1C00000040
S11300C0082A3E1C1C3E2A0808083E3E0808000078
S11300D000A0E0600000000008080808080800000C
S11300E000006060000000006030180C060301008E
S11300F03E7F594D7F3E000042427F7F40400000DA
S1130100627359496F660000226349497F360000D3
S1130110181C16137F7F1000276745457D390000A2
S11301203C7E4B4979300000036371190F070000CE
S1130130367F49497F360000064F49693F1E00005B
S113014000006C6C0000000000A0EC6C00000000DB
S1130150081C366341000000141414141414000025
S1130160004163361C080000020351590F060000C9
S11301703E7F415D5D1F1E007C7E13137E7C00006C
S1130180417F7F49497F36001C3E63414163220021
S1130190417F7F41637F1C00417F7F495D41630054
S11301A0417F7F491D0103001C3E6341517372006E
S11301B07F7F08087F7F000000417F7F41000000AF
S11301C0307040417F3F0100417F7F081C7763000E
S11301D0417F7F41406070007F7F060C067F7F0077
S11301E07F7F060C187F7F001C3E6341633E1C002A
S11301F0417F7F49090F06001E3F21717F5E000089
S1130200417F7F19396F460026674D597B320000C4
S113021003417F7F410300007F7F40407F7F0000D8
S11302201F3F60603F1F00007F7F3018307F7F00DA
S113023063771C081C776300074F78784F0700002A
S11302406773594D47637100007F7F41410000008F
S11302500103060C183060000041417F7F0000005C
S1130260080C0603060C0800808080808080808053
S11302700000030704000000207454543C7840003C
S1130280413F7F44447C3800387C44446C2800005F
S1130290307848493F7F4000387C54545C18000053
S11302A0487E7F490302000098BCA4A4F87C0400A3
S11302B0417F7F08047C780000447D7D400000007D
S11302C040C484FD7D000000417F7F10386C4400F1
S11302D000417F7F400000007C7C0C180C7C78007F
S11302E07C7C04047C780000387C44447C38000026
S11302F084FCF8A4243C1800183C24A4F8FC8400D2
S1130300447C78441C180000485C54547424000055
S113031000043E7F442400003C7C40403C7C400080
S11303201C3C60603C1C00003C7C6030607C3C00F9
S1130330446C3810386C44009CBCA0A0FC7C0000C9
S11303404C64745C4C64000008083E774141000032
S113035000000077770000004141773E0808000064
S1130360020301030203010011241FBECFEFD4E0F6
S1130370DEBFCDBF13E0A0E0B1E0E6EEF8E302C0DB
S113038005900D92AC39B107D9F724E0ACE9B3E09C
S113039001C01D92A234B207E1F70E942B060C940F
S11303A0711C0C940000CF93DF93CDB7DEB781E3CB
S11303B090E021E330E0F90120812B7FFC012083D0
S11303C0DF91CF910895CF93DF9300D000D01F9297
S11303D0CDB7DEB78D8380E094E19A8389838D81E4
S11303E0843010F080E01EC08D818460882F90E0FE
S11303F09C838B832B8189819A81FC01208300005B
S113040080E390E0FC018081882F90E0847099273C
S11304100097B1F78B819C8129813A81820F931FC8
S1130420FC0180810F900F900F900F900F90DF913F
S1130430CF910895CF93DF93CDB7DEB70E949B0988
S113044040E664E680E60E94A90A41E06FEF8BE291
S11304500E94A90A8BE590E02BE530E0F9012081A8
S11304602068FC01208385E590E025E530E0F90172
S113047020812860FC01208385E590E025E530E0BB
S1130480F90120812B7FFC01208380E0DF91CF9153
S11304900895CF93DF93CDB7DEB70E944A0ADF9168
S11304A0CF910895CF93DF93CDB7DEB727970FB6DB
S11304B0F894DEBF0FBECDBF9F838E830E94690375
S11304C0882309F443C08E819F81FC01808191813E
S11304D09B838A838A818C838C818295880F807E1A
S11304E08C838A819B81892F99278D836D8181E3F8
S11304F00E947F0A6C8182E30E947F0A8E819F8121
S1130500FC018281682F85E30E947F0A198212C050
S11305108981882F90E02E813F81820F931F03965B
S1130520FC01908189818A5C692F0E947F0A8981FC
S11305308F5F89838E819F81FC01928189818917D4
S113054038F381E80E94980A81E007C00E942F03D3
S1130550882311F08FEF01C080E027960FB6F8943E
S1130560DEBF0FBECDBFDF91CF9108950F931F93D0
S1130570CF93DF9300D000D000D0CDB7DEB79E83F9
S11305808D8380919C03882309F44FC081E60E94E7
S1130590660A882F90E0182F002782E60E94660AD8
S11305A0882F90E0802B912B9C838B838B819C8163
S11305B09C0136952795329522952F7023273F70FD
S11305C023278D819E81FC013183208385E60E944F
S11305D0660A282F8D819E81FC0122831A8219824A
S11305E013C089818A590E94660A482F2D813E8151
S11305F089819A81820F931F0396FC01408389812C
S11306009A8101969A8389838D819E81FC018281DE
S1130610282F30E089819A818217930714F38091FF
S11306209C03815080939C0304C08D819E81FC01B6
S113063012828D819E8126960FB6F894DEBF0FBE7E
S1130640CDBFDF91CF911F910F910895CF93DF9389
S1130650CDB7DEB780919C03DF91CF910895CF93FE
S1130660DF931F92CDB7DEB780E30E94660A8983C9
S11306708981882F90E080729927009731F083E177
S113068091E00E94D71881E020C08981882F90E0F2
S113069080719927009731F08CE291E00E94D7187D
S11306A082E013C08981882F90E080749927009795
S11306B059F088E491E00E94D71840E460E48DE2A8
S11306C00E94A90A83E001C080E00F90DF91CF91DE
S11306D00895CF93DF93CDB7DEB780E30E94660A17
S11306E0882F90E0887099270097E1F089E691E0DF
S11306F00E94D7188091A0038F5F8093A0039091EC
S1130700A00380910A01981759F440E068E080E35F
S11307100E94A90A83E891E00E94D7181092A003CE
S113072080E001C081E0DF91CF9108951F920F9284
S113073000905F000F9211242F933F934F935F9388
S11307406F937F938F939F93AF93BF93EF93FF9395
S1130750CF93DF931F92CDB7DEB78CE20E94660A77
S113076089838981882F90E0857099278530910548
S113077051F440E064E08CE20E94A90A40E061E0A8
S11307808CE20E94A90A898188232CF440E060E865
S11307908CE20E94A90A40E061E08CE20E94A90A6E
S11307A080919C038F5F80939C030F90DF91CF9186
S11307B0FF91EF91BF91AF919F918F917F916F9135
S11307C05F914F913F912F910F9000925F000F9096
S11307D01F901895CF93DF93CDB7DEB787E390E0F2
S11307E027E330E0F90120812E7FFC01208387E399
S11307F090E027E330E0F90120812D7FFC01208384
S113080088E390E028E330E0F90120812460FC01D2
S1130810208387E390E027E330E0F90120812B7FF8
S1130820FC0120831092A5031092A6031092A70343
S11308301092A8038091A5039091A603A091A70309
S1130840B091A8038093A1039093A203A093A30360
S1130850B093A403DF91CF910895CF93DF9300D099
S1130860CDB7DEB79A8389830E949805DC01CB015A
S113087029813A81F90180839183A283B3830E9401
S1130880BA05DC01CB0129813A81F901848395837E
S1130890A683B78386E390E0FC018081882F90E0F3
S11308A081709927009741F089819A8121E030E095
S11308B0FC013187208705C089819A81FC0111865A
S11308C0108686E390E0FC018081882F90E082709E
S11308D09927009741F089819A8121E030E0FC0159
S11308E03387228705C089819A81FC011386128689
S11308F086E390E0FC018081882F90E08470992742
S1130900009731F089819A81FC011586148607C00D
S113091089819A8121E030E0FC01358724870F909A
S11309200F90DF91CF910895CF93DF93CDB7DEB7CA
S113093081E00E94E3010E94EA05DC01CB0180937F
S1130940A1039093A203A093A303B093A40380E014
S11309500E94E3010E94EA05DC01CB018093A50318
S11309609093A603A093A703B093A803DF91CF911C
S113097008951F93CF93DF93CDB7DEB729970FB6B2
S1130980F894DEBF0FBECDBF6A837B838C839D83C7
S11309902E833F834887598784E089838A819B819A
S11309A0AC81BD81BF7711E020E030E048E452E43F
S11309B0BC01CD010E94FD1488230CF010E081E0FD
S11309C081278823B1F48E819F81A885B985BF775B
S11309D011E020E030E048E452E4BC01CD010E9483
S11309E0FD1488230CF010E081E08127882309F4AA
S11309F094C08A819B81AC81BD81BF7720E030E0C7
S1130A0048E452E4BC01CD010E944C16181604F5CA
S1130A108E819F81A885B985BF7720E030E048E4C6
S1130A2052E4BC01CD010E94FD1488238CF420E023
S1130A3030E0A9016A817B818C819D810E94FD1433
S1130A4088231CF482E0898368C083E0898365C0BD
S1130A508A819B81AC81BD81BF7720E030E048E48E
S1130A6052E4BC01CD010E94FD148823FCF48E8164
S1130A709F81A885B985BF7720E030E048E452E43F
S1130A80BC01CD010E944C16181684F420E030E01D
S1130A90A9016E817F81888599850E94FD14882330
S1130AA01CF481E0898339C0198237C02A813B81D3
S1130AB04C815D816E817F81888599850E940115B5
S1130AC0DC01CB01BF7720E030E040E85FE3BC010C
S1130AD0CD010E944C16181684F420E030E0A901E0
S1130AE06E817F81888599850E94FD1488231CF47A
S1130AF081E0898312C0198210C020E030E0A9018E
S1130B006A817B818C819D810E94FD1488231CF461
S1130B1082E0898302C083E08983898129960FB6A4
S1130B20F894DEBF0FBECDBFDF91CF911F91089522
S1130B30CF93DF931F92CDB7DEB781E00E94E3012C
S1130B40898389810E94EA05DC01CB012091A103FC
S1130B503091A2034091A3035091A403BC01CD01A1
S1130B600E949814DC01CB01BC01CD010F90DF91F0
S1130B70CF910895CF93DF931F92CDB7DEB780E076
S1130B800E94E301898389810E94EA05DC01CB018B
S1130B902091A5033091A6034091A7035091A80387
S1130BA0BC01CD010E949814DC01CB01BC01CD0134
S1130BB00F90DF91CF910895CF93DF931F92CDB71C
S1130BC0DEB783E00E94E301898389810F90DF917E
S1130BD0CF910895CF93DF9300D000D01F92CDB76B
S1130BE0DEB78D838D81882F90E0A0E0B0E0BC015A
S1130BF0CD010E949A15DC01CB0189839A83AB83D2
S1130C00BC8320E030E040E053E469817A818B8149
S1130C109C810E949814DC01CB0120E030E040E08C
S1130C2053E4BC01CD010E940115DC01CB0120E09D
S1130C3030E048EC52E4BC01CD010E945016DC01C6
S1130C40CB01BC01CD010F900F900F900F900F902E
S1130C50DF91CF910895CF93DF93CDB7DEB70E9494
S1130C60A6081092BD038BE090E00E94B316909307
S1130C70B8038093B7030E94840E009719F410926E
S1130C809D0336C00E94840E8130910589F581E070
S1130C9080939D0380919E03882351F58091C10325
S1130CA09091C2030E9410100E9434098091B703EE
S1130CB09091B80322E030E0FC01318320838091DD
S1130CC0B7039091B80321E0FC0122838091B7031C
S1130CD09091B80321E0FC0123838091B7039091A4
S1130CE0B8030E94520281E080939E0310920D018A
S1130CF080919D03882F90E0009721F08130910529
S1130D0021F006C00E948F0603C00E94F106000075
S1130D108091B7039091B8030E944B17A4CFCF934F
S1130D20DF9300D0CDB7DEB78091BD03882349F4AB
S1130D308091BE039091BF030E94250C81E08093B3
S1130D40BD0384E0898389EA93E00E942D04209105
S1130D50AD033091AE034091AF035091B003809145
S1130D60A9039091AA03A091AB03B091AC03BC0179
S1130D70CD010E94B9048A8380910B01682F8A8176
S1130D800E94BE0B80930B012091B5033091B603F2
S1130D908091BC03882F90E02817390729F410921A
S1130DA0B6031092B50302C01092BC038091B50340
S1130DB09091B6038130910579F480910B010E94E2
S1130DC0B40C80939D038091B5039091B6038093F6
S1130DD0BC0382E080930B010F900F90DF91CF91C1
S1130DE00895CF93DF9300D0CDB7DEB70E940408F7
S1130DF00E942603882309F45DC08BE090E00E94E2
S1130E00B3169A83898389819A810E94B602898163
S1130E109A81FC01808191818330910509F042C05F
S1130E2080910C01815080930C0180910C010E94EF
S1130E30E30F8091C1039091C2030E941010898135
S1130E409A81FC0183818093B90389819A81FC0191
S1130E5084818093BA038091B9039091BA030E946C
S1130E60980E8091B7039091B80322E030E0FC0122
S1130E70318320838091B7039091B80321E0FC0172
S1130E8022838091B7039091B803FC01138280916F
S1130E90B7039091B8030E94520281E080930D0140
S1130EA00E9444098AE090E00E94D01889819A81C6
S1130EB00E944B178091B3039091B4038130910544
S1130EC0A1F50E9444090E9434101092C2031092AA
S1130ED0C1038091B7039091B80322E030E0FC0194
S1130EE0318320838091B7039091B80321E0FC0102
S1130EF022838091B7039091B803FC0113828091FF
S1130F00B7039091B8030E9452020E948F0E109270
S1130F109E0310929D0382E080930B0183E08093F3
S1130F200C0180910B010E94B40C8091B503909147
S1130F30B6038130910561F580910D01882341F15B
S1130F400E9434090E9434101092C2031092C1030B
S1130F508091B7039091B80322E030E0FC01318323
S1130F6020838091B7039091B80321E0FC01228390
S1130F708091B7039091B80321E0FC012383809111
S1130F80B7039091B8030E94520210920D0137C02A
S1130F9080910C01882399F50E9444098091B7033C
S1130FA09091B80322E030E0FC01318320838091EA
S1130FB0B7039091B80321E0FC0122838091B70329
S1130FC09091B803FC0113828091B7039091B80308
S1130FD00E94520210929E030E948F0E10929D0353
S1130FE083E080930C011092C2031092C1030E940B
S1130FF0341082E00E94B40C83E00E94900D0F90A4
S11310000F90DF91CF910895CF93DF9300D000D05C
S113101000D0CDB7DEB78091C003882309F48DC01A
S113102089EA93E00E942D042091AD033091AE0330
S11310304091AF035091B0038091A9039091AA030A
S1131040A091AB03B091AC03BC01CD010E94B904E3
S113105089838091A9039091AA03A091AB03B091D5
S1131060AC03BC01CD010E946915DC01CB019C835A
S11310708B838091AD039091AE03A091AF03B091A7
S1131080B003BC01CD010E946915DC01CB019E8334
S11310908D830E94DC058A838091B7039091B80305
S11310A021E030E0FC01318320838091B7039091EB
S11310B0B80327E0FC0122838091B7039091B80321
S11310C02091B1033091B203FC0123838091B703D3
S11310D09091B8032091B3033091B403FC012483AD
S11310E08091B7039091B8032091B5033091B60372
S11310F0FC0125838091B7039091B8032981FC01F9
S113110026838091B7039091B8032B81FC01278338
S11311108091B7039091B8032C81FC0120878091C2
S1131120B7039091B8032A81FC0121878091B7030A
S11311309091B8030E94520200C026960FB6F8940C
S1131140DEBF0FBECDBFDF91CF910895CF93DF9364
S113115000D0CDB7DEB785E590E025E530E0F901B4
S113116020812068FC01208380E590E020E530E0C8
S1131170F90120812062FC0120838FE190E09A83B1
S1131180898389819A810E9431140E944D130E949F
S113119056130E94D3010E94EA030E9427110E9461
S11311A0D60A9093BF038093BE038EE991E0892F02
S11311B08F938EE991E08F930E94BC180F900F904B
S11311C00E941A028EEA91E0892F8F938EEA91E0B1
S11311D08F930E94BC180F900F900E9494040E9459
S11311E04902882F90E0292F2F938F9387EB91E06A
S11311F0892F8F9387EB91E08F930E94BC180F90F7
S11312000F900F900F908AE490E020E036E0FC010C
S1131210318320838FE490E02FE430E0F9012081D2
S11312202064FC0120838EE490E02EE430E0F90198
S113123020812260FC0120838EE490E02EE430E0E3
S1131240F90120812160FC0120838EE490E02EE4EA
S113125030E0F90120812860FC01208378940F900C
S11312600F90DF91CF910895CF93DF93CDB7DEB781
S113127089E590E029E530E0F90120812064FC0152
S11312802083DF91CF910895CF93DF93CDB7DEB75D
S113129089E590E029E530E0F90120812F7BFC010C
S11312A02083DF91CF9108951F920F9200905F00E9
S11312B00F9211242F933F934F935F936F937F93D8
S11312C08F939F93AF93BF93EF93FF93CF93DF934A
S11312D0CDB7DEB781E08093C0038091BB038F5FFD
S11312E08093BB038091BB03823389F41092BB03C8
S11312F08091C1039091C20301969093C20380939D
S1131300C1038091C1039091C2030E941010DF9128
S1131310CF91FF91EF91BF91AF919F918F917F9169
S11313206F915F914F913F912F910F9000925F00C9
S11313300F901F901895CF93DF93CDB7DEB72F97FB
S11313400FB6F894DEBF0FBECDBF0E94D2120E942A
S1131350C80A80E090E0A0E2B1E489839A83AB8379
S1131360BC832AE939E949E954E469817A818B81AA
S11313709C810E945016DC01CB018D839E83AF8338
S1131380B88720E030E040E85FE36D817E818F81A3
S113139098850E94FD1488232CF481E090E09A87BC
S11313A089873FC020E03FEF4FE757E46D817E819E
S11313B08F8198850E944C1618164CF520E030E079
S11313C040E251E469817A818B819C810E945016AC
S11313D0DC01CB01BC01CD010E946E15DC01CB0107
S11313E09A8789870FC08AE790E09C878B878B85D3
S11313F09C850197F1F79C878B8789859A8501974E
S11314009A87898789859A85009769F714C06D81C1
S11314107E818F8198850E946E15DC01CB019A87AD
S1131420898789859A859E878D878D859E85019775
S1131430F1F79E878D878EE00E94660A8F878F85DD
S1131440882F90E0807E99278038910531F083EDD4
S113145091E00E94D71881E014C08F85882F90E016
S1131460292F2F938F9385E092E0892F8F9385E026
S113147092E08F930E94BC180F900F900F900F90E2
S113148080E02F960FB6F894DEBF0FBECDBFDF917C
S1131490CF910895CF93DF931F92CDB7DEB740E08D
S11314A060EE8FE00E94A90A8EE00E94660A89839A
S11314B08981882F90E0807E9927009711F081E040
S11314C001C080E00F90DF91CF910895CF93DF9317
S11314D000D0CDB7DEB78A830E942D1383E00E942B
S11314E001138A810E9401130E94171389830E94A9
S11314F03D1389810F900F90DF91CF910895CF9381
S1131500DF9300D0CDB7DEB789836A830E942D13A1
S113151082E00E94011389810E9401138A810E9442
S113152001130E943D130F900F90DF91CF91089506
S1131530CF93DF931F92CDB7DEB789830E942D131B
S113154089810E9401130E943D130F90DF91CF9176
S11315500895CF93DF9300D01F92CDB7DEB7898370
S11315606A834B830E942D1385E00E9401138981B5
S11315700E9401138A810E9401138B810E9401132E
S11315800E943D130F900F900F90DF91CF9108951B
S1131590CF93DF93CDB7DEB70E942D1380EC0E946A
S11315A001130E943D13DF91CF910895CF93DF93F0
S11315B0CDB7DEB728970FB6F894DEBF0FBECDBF08
S11315C01A8219820EC089819A81880F991F8D53BE
S11315D09C4FFC011182108289819A8101969A8321
S11315E0898389819A81833091056CF363E070E08B
S11315F083EC93E00E94590F80E090E00E94D61A99
S11316009C838B8382E090E00E94D61A9E838D8314
S113161084E090E00E94D61A98878F838B819C8106
S11316201816190634F48B819C819093C40380931B
S1131630C3038D819E811816190634F48D819E8111
S11316409093C6038093C5038F8198851816190655
S113165034F48F8198859093C8038093C70382E202
S113166092E09093D5038093D40385EF93E0909315
S1131670CC038093CB038FE194E09093CE038093CB
S1131680CD0386ED93E09093D0038093CF0383E062
S11316908093D3038CE292E090930104809300043E
S11316A089EC93E09093F6038093F50381E08093B3
S11316B0FF0385E392E090932B0480932A0489EC42
S11316C093E09093200480931F0484E08093290482
S11316D082E094E0909328048093270480E492E0CD
S11316E09093E2038093E10389EC93E09093D70312
S11316F08093D60384E08093E00382E094E09093A7
S1131700DD038093DC0389E492E090930E048093DC
S11317100D0489EC93E0909303048093020489EC14
S113172093E09093F4038093F3038091C303909127
S1131730C4034AE050E06BEE73E00E9441188091CC
S1131740C5039091C6034AE050E06CE274E00E9445
S113175041188091C7039091C8034AE050E06FE0BC
S113176074E00E94411889EC93E028960FB6F8942F
S1131770DEBF0FBECDBFDF91CF910895CF93DF932E
S113178000D000D0CDB7DEB78B836C838C81898386
S11317908091F3039091F403FC0182858A83809104
S11317A00E019B81981719F484E08B8303C084E0B5
S11317B080930E018B81882F90E08130910509F18F
S11317C08430910519F0009731F037C060E08981C9
S11317D00E94B31232C08981833090F060E0898125
S11317E00E942E1280E592E00E9479128981815034
S11317F0898360E089810E94B31210920E011DC09A
S11318001CC099818A818917B8F060E089810E949F
S11318102E1280E592E00E9479128981873009F4C2
S1131820198289818F5F898360E089810E94B31264
S113183081E080930E0100C0000089810F900F9019
S11318400F900F90DF91CF910895CF93DF9300D045
S1131850CDB7DEB79A83898389819A819093F40303
S11318608093F3030E9496110E94B01162E080E01D
S11318700E942E1289819A81FC01838594850E949D
S1131880791289819A81FC0182819381009771F098
S113189062E082E00E942E1289819A81FC01828199
S11318A09381FC01838594850E94791289819A81B0
S11318B0FC0184819581009771F062E083E00E94CD
S11318C02E1289819A81FC0184819581FC01838592
S11318D094850E94791289819A81FC01868197817D
S11318E0009771F062E084E00E942E1289819A814F
S11318F0FC0186819781FC01838594850E9479127D
S113190089819A81FC0180859185009771F062E05C
S113191085E00E942E1289819A81FC01808591853F
S1131920FC01838594850E94791289819A81FC0146
S11319308385948565E372E00E943818009711F45A
S11319400E941E0E89819A81FC018385948560E43E
S113195072E00E943818009711F40E945D0E0F90F7
S11319600F90DF91CF910895CF93DF931F92CDB75E
S1131970DEB789838091F3039091F403FC0183859E
S1131980948562E272E00E9438180097C1F489815C
S1131990823051F481E080939F0389810E94900DED
S11319A083E00E94E30FB6C08981833021F48981EA
S11319B00E94900DAFC089810E94900DABC08091B0
S11319C0F3039091F403FC01838594856CE272E047
S11319D00E9438180097F1F48981823009F09AC086
S11319E08091F3039091F403FC01808191819093A1
S11319F0F4038093F30360E089810E942E1280E552
S1131A0092E00E9479128091F3039091F4030E9472
S1131A10250C80C08091F3039091F403FC0183852D
S1131A20948560E472E00E943818009709F049C078
S1131A308981823049F460E089810E942E1280E518
S1131A4092E00E94791266C089818330B1F460E02B
S1131A5089810E942E1280E592E00E9479120E94F0
S1131A6094048091F3039091F403FC0180819181AB
S1131A709093F4038093F3034DC08981843019F467
S1131A800E94431047C08981853009F043C080918A
S1131A90F3039091F403FC01808191819093F4030A
S1131AA08093F30360E089810E942E1280E592E026
S1131AB00E9479128091F3039091F4030E94250C03
S1131AC029C08091F3039091F403FC0183859485EC
S1131AD065E372E00E9438180097E1F4898185304B
S1131AE059F48091F3039091F403FC018081918176
S1131AF09093F4038093F30360E089810E942E1293
S1131B0080E592E00E9479128091F3039091F403AE
S1131B100E94250C80919F030F90DF91CF9108952F
S1131B20CF93DF931F92CDB7DEB789838981882F46
S1131B3090E08330910581F18430910509F454C01B
S1131B408230910509F076C08091F3039091F403FB
S1131B50FC01828193810097F1F08091F3039091CD
S1131B60F403FC01828193819093F4038093F30343
S1131B7060E089810E942E1280E592E00E94791231
S1131B8062E084E00E94BE0B8091F3039091F40321
S1131B900E94250C4FC04EC08091F3039091F40332
S1131BA0FC01848195810097F1F08091F303909179
S1131BB0F403FC01848195819093F4038093F303EF
S1131BC060E089810E942E1280E592E00E947912E1
S1131BD062E084E00E94BE0B8091F3039091F403D1
S1131BE00E94250C27C026C08091F3039091F40332
S1131BF0FC01868197810097E9F08091F30390912D
S1131C00F403FC01868197819093F4038093F3039A
S1131C1060E089810E942E1280E592E00E94791290
S1131C2062E084E00E94BE0B8091F3039091F40380
S1131C300E94250C0F90DF91CF910895CF93DF93ED
S1131C40CDB7DEB762E082E00E942E1283E592E017
S1131C500E94791266E082E00E942E128BEE93E0DD
S1131C600E94791262E083E00E942E1287E592E0DE
S1131C700E94791266E083E00E942E128CE294E0C6
S1131C800E94791262E084E00E942E128BE592E0B9
S1131C900E94791266E084E00E942E128FE094E0A4
S1131CA00E94791262E085E00E942E1289E492E09B
S1131CB00E947912DF91CF910895CF93DF93CDB72E
S1131CC0DEB762E082E00E942E128FE592E00E946D
S1131CD0791262E083E00E942E1289E692E00E946B
S1131CE0791262E084E00E942E1287E792E00E945B
S1131CF0791262E085E00E942E1289E492E00E944B
S1131D007912DF91CF910895CF93DF93CDB7DEB7EA
S1131D1080919F03882F90E0DF91CF910895CF9316
S1131D20DF93CDB7DEB710929F03DF91CF91089573
S1131D30CF93DF93CDB7DEB72B970FB6F894DEBF02
S1131D400FBECDBF9B878A87198255C08981882F92
S1131D5090E0880F991F8D539C4FFC0120813181A5
S1131D608A859B85281739070CF042C08981823007
S1131D7069F48981882F90E0880F991F8D539C4FB7
S1131D802A853B85FC013183208339C082E090E0C1
S1131D909B838A8318C08A819B810197880F991F2E
S1131DA08D539C4FFC01208131818A819B81880F56
S1131DB0991F8D539C4FFC01318320838A819B8121
S1131DC001979B838A838981282F30E08A819B81B4
S1131DD02817390704F38981882F90E0880F991F09
S1131DE08D539C4F2A853B85FC013183208307C09A
S1131DF089818F5F89838981833008F4A7CF63E069
S1131E0070E083EC93E00E94590F8091C30390919A
S1131E10C4039D838C838091C5039091C6039F83E3
S1131E208E838091C7039091C80399878887809196
S1131E30C3039091C403BC0180E090E00E94DC1ACB
S1131E408091C5039091C603BC0182E090E00E949A
S1131E50DC1A8091C7039091C803BC0184E090E030
S1131E600E94DC1A8091C3039091C4034AE050E0BD
S1131E706BEE73E00E9441188091C5039091C603F4
S1131E804AE050E06CE274E00E9441188091C7037C
S1131E909091C8034AE050E06FE074E00E9441185A
S1131EA02B960FB6F894DEBF0FBECDBFDF91CF9156
S1131EB00895CF93DF93CDB7DEB72A970FB6F89482
S1131EC0DEBF0FBECDBF98878F837A8769878985E8
S1131ED09A859C838B8381E08A8362C08A8189830B
S1131EE03BC08981882F90E0880F991F2F81388506
S1131EF0820F931FFC01808191819E838D83898150
S1131F00882F90E0880F991F2F813885820F931FA7
S1131F102981222F30E021503048220F331F4F8176
S1131F205885240F351FF90120813181FC0131834B
S1131F3020838981882F90E081509048880F991FD1
S1131F402F813885820F931F2D813E81FC013183BF
S1131F50208389818150898389818823F1F0898153
S1131F60882F90E0880F991F2F813885820F931F47
S1131F70FC01208131818981882F90E08150904833
S1131F80880F991F4F815885840F951FFC0180810C
S1131F9091818217930708F4A4CF8A818F5F8A8383
S1131FA08A81282F30E08B819C81019782179307C7
S1131FB00CF094CF2A960FB6F894DEBF0FBECDBFB7
S1131FC0DF91CF910895CF93DF931F92CDB7DEB702
S1131FD089830E9496110E94B01162E083E00E94FE
S1131FE02E1282E893E00E94791262E085E00E945A
S1131FF02E128FE893E00E9479126DE085E00E9432
S11320002E128981882F90E04AE050E067E174E065
S11320100E9441180E9479120F90DF91CF91089588
S1132020CF93DF9300D0CDB7DEB79A83898362E084
S113203086E00E942E1282E892E00E9479120E94A9
S1132040341068E086E00E942E1289819A814AE069
S113205050E063EE73E00E9441180E9479120F90E1
S11320600F90DF91CF910895CF93DF93CDB7DEB773
S113207068E086E00E942E1288E892E00E947912BD
S1132080DF91CF910895CF93DF93CDB7DEB76097FB
S11320900FB6F894DEBF0FBECDBF1A8219820EC0F0
S11320A089819A81880F991F8D539C4FFC0111825D
S11320B0108289819A8101969A83898389819A8180
S11320C0833091056CF38091C3039091C403BC01E8
S11320D080E090E00E94DC1A8091C5039091C603D1
S11320E0BC0182E090E00E94DC1A8091C7039091C9
S11320F0C803BC0184E090E00E94DC1A8091C30311
S11321009091C4034AE050E06BEE73E00E944118E2
S11321108091C5039091C6034AE050E06CE274E0FC
S11321200E9441188091C7039091C8034AE050E08F
S11321306FE074E00E9441180E94961162E083E00F
S11321400E942E1281E992E00E94791280E090E0D0
S1132150AAEFB3E48B839C83AD83BE832AE939E978
S113216049E954E46B817C818D819E810E945016E3
S1132170DC01CB018F839887A987BA8720E030E000
S113218040E85FE36F81788589859A850E94FD1414
S113219088232CF481E090E09C878B873FC020E06B
S11321A03FEF4FE757E46F81788589859A850E94D0
S11321B04C1618164CF520E030E040E251E46B81F7
S11321C07C818D819E810E945016DC01CB01BC0173
S11321D0CD010E946E15DC01CB019C878B870FC05B
S11321E08AE790E09E878D878D859E850197F1F71C
S11321F09E878D878B859C8501979C878B878B8594
S11322009C85009769F714C06F81788589859A85C4
S11322100E946E15DC01CB019C878B878B859C8586
S1132220988B8F878F8598890197F1F7988B8F8783
S11322308091F3039091F4030E94250C60960FB6ED
S1132240F894DEBF0FBECDBFDF91CF910895CF9339
S1132250DF93CDB7DEB78EEA0E94741181EA0E9443
S113226074118AED0E94741182E10E94741188EC49
S11322700E94741188EA0E9474118FE30E94741101
S113228085ED0E94741180E80E94741181E80E9417
S1132290741180E50E94741189ED0E94741181E229
S11322A00E94741180E20E94741182E00E947411F1
S11322B08BED0E94741180E30E9474118DEA0E94D8
S11322C0741180E00E94741184EA0E94741186EAF9
S11322D00E9474118FEA0E9474110E9496110E9448
S11322E0B011DF91CF910895CF93DF931F92CDB7B3
S11322F0DEB7898380910F01909110012981FC013F
S113230020830F90DF91CF910895CF93DF931F9295
S1132310CDB7DEB789838091110190911201298193
S1132320FC0120830F90DF91CF910895CF93DF9329
S113233000D0CDB7DEB71A82198208C089810E9405
S11323400E1289819A8101969A83898389819A815F
S1132350883091059CF30F900F90DF91CF910895F1
S1132360CF93DF93CDB7DEB781E20E94741180E092
S11323700E9474118FE70E94741182E20E9474110A
S113238080E00E94741187E00E947411109234045A
S1132390DF91CF910895CF93DF931F92CDB7DEB72E
S11323A089838981883038F48981809334048981D0
S11323B080550E9474110F90DF91CF910895CF93AF
S11323C0DF9300D01F92CDB7DEB78B838B81882F2C
S11323D090E0880F991F880F991F880F991F8038E4
S11323E09105B4F48B81880F880F880F8B838B81C0
S11323F0809335048B818F7089838B8182958F7054
S1132400805F8A8389810E9474118A810E94741179
S11324100F900F900F90DF91CF910895CF93DF939A
S113242000D01F92CDB7DEB78B838B810E94CB1176
S11324301A82198208C080E00E94851189819A81DC
S113244001969A83898389819A81803891059CF3C6
S11324500F900F900F90DF91CF910895CF93DF935A
S113246000D0CDB7DEB789836A8389810E94CB11FE
S11324708A810E94DF110F900F90DF91CF91089510
S1132480CF93DF9300D000D000D0CDB7DEB78E83DA
S11324901A82198220C08E81882F90E080979C0137
S11324A0220F331F220F331F220F331F89819A817A
S11324B0820F931F80599F4F9C838B838B819C81B8
S11324C0FC0184918D838D810E94851189819A817B
S11324D001969A83898389819A8188309105DCF2F7
S11324E026960FB6F894DEBF0FBECDBFDF91CF9115
S11324F00895CF93DF9300D000D0CDB7DEB79C838F
S11325008B831A8219821EC089819A812B813C8116
S1132510820F931FFC0180810E94401289819A815D
S113252001969A83898389819A818031910529F062
S113253089819A818032910529F4809134048F5FD6
S11325400E94CB1189819A812B813C81820F931F38
S1132550FC0180818823C1F60F900F900F900F909B
S1132560DF91CF910895CF93DF9300D0CDB7DEB73D
S113257089836A836A8189810E942E1288E10E947C
S1132580851188E10E9485118EE70E9485118CE3F4
S11325900E94851188E10E9485110F900F90DF91B0
S11325A0CF910895CF93DF9300D0CDB7DEB787E303
S11325B090E027E330E0F9012081206BFC012083C7
S11325C087E390E027E330E0F90120812F7BFC01D1
S11325D020838DE290E02DE230E0F9012081216535
S11325E0FC0120838EE290E0FC01808189838FE2EC
S11325F090E0FC0180818A830F900F90DF91CF914E
S11326000895CF93DF931F92CDB7DEB789838FE20E
S113261090E02981FC01208300008EE290E0FC011F
S113262080818823D4F70F90DF91CF910895CF93C1
S1132630DF93CDB7DEB78FE290E0FC01108200009B
S11326408EE290E0FC0180818823D4F78FE290E051
S1132650FC018081DF91CF910895CF93DF93CDB7B3
S1132660DEB788E390E028E330E0F90120812F7E93
S1132670FC012083DF91CF910895CF93DF93CDB7F1
S1132680DEB788E390E028E330E0F901208120619F
S1132690FC012083DF91CF910895CF93DF93CDB7D1
S11326A0DEB780E090E0DF91CF910895CF93DF9380
S11326B0CDB7DEB762970FB6F894DEBF0FBECDBFBD
S11326C080E098E19A87898780E098E09C878B87EF
S11326D01A8219821C821B828DE992E00E94D7180B
S11326E00E9428189E878D878D859E850E942D18AF
S11326F01E821D8244C00E9428188F8729853A852E
S11327008D819E81820F931F2F85FC012083298553
S11327103A858D819E81820F931FFC018081888B75
S113272098898F85981731F18F85282F30E0888913
S1132730882F90E0432F4F932F93292F2F938F931C
S11327408E818F938D818F9383EB92E0892F8F936A
S113275083EB92E08F930E94BC188DB79EB70896C6
S11327600FB6F894DEBF0FBECDBF89819A81019662
S11327709A8389838D819E8101969E838D832D8189
S11327803E818B859C852817390708F4B4CF8D8545
S11327909E850E942D1818861F823BC00E9428180F
S11327A0898B29853A858F819885820F931FFC0137
S11327B080818A8B9A898989981731F18989282F90
S11327C030E08A89882F90E0432F4F932F93292F4D
S11327D02F938F9388858F938F818F938CEE92E0C4
S11327E0892F8F938CEE92E08F930E94BC188DB743
S11327F09EB708960FB6F894DEBF0FBECDBF8B818F
S11328009C8101969C838B838F8198850196988700
S11328108F832F8138858B859C852817390708F489
S1132820BDCF8C818F938B818F938A818F93898184
S11328308F9389E293E0892F8F9389E293E08F93BA
S11328400E94BC180F900F900F900F900F900F9054
S113285062960FB6F894DEBF0FBECDBFDF91CF9165
S11328600895CF93DF9300D0CDB7DEB79A838983E1
S113287080E490E029813A81232F3327FC012083CF
S113288089E290E02981FC0120838AE290E028E13A
S1132890FC01208380E490E02EE8FC0120836FE7B4
S11328A074E18EE594E10E9471189093370480934B
S11328B036040F900F90DF91CF910895CF93DF935B
S11328C000D01F92CDB7DEB789837B836A83000073
S11328D08BE290E0FC018081882F90E08072992740
S11328E00097B1F38CE290E02981FC01208380E021
S11328F090E00F900F900F90DF91CF910895CF93B8
S1132900DF9300D0CDB7DEB79A83898300008BE2D2
S113291090E0FC0180818823D4F78CE290E0FC01F4
S11329208081882F90E00F900F90DF91CF910895D0
S11329305058BB27AA270ED075C166D130F06BD191
S113294020F031F49F3F11F41EF45BC10EF4E095C6
S1132950E7FB51C1E92F77D180F3BA1762077307F8
S11329608407950718F071F49EF58FC10EF4E09575
S11329700B2EBA2FA02D0B01B90190010C01CA0135
S1132980A0011124FF27591B99F0593F50F4503EE0
S113299068F11A16F040A22F232F342F4427585FD2
S11329A0F3CF469537952795A795F0405395C9F7EA
S11329B07EF41F16BA0B620B730B840BBAF09150A2
S11329C0A1F0FF0FBB1F661F771F881FC2F70EC041
S11329D0BA0F621F731F841F48F487957795679514
S11329E0B795F7959E3F08F0B3CF9395880F08F0FD
S11329F09927EE0F979587950895D9D008F481E02B
S1132A0008950CD00FC107D140F0FED030F021F46E
S1132A105F3F19F0F0C0511139C1F3C014D198F3DC
S1132A209923C9F35523B1F3951B550BBB27AA274B
S1132A3062177307840738F09F5F5F4F220F331FBD
S1132A40441FAA1FA9F333D00E2E3AF0E0E830D089
S1132A5091505040E695001CCAF729D0FE2F27D08C
S1132A60660F771F881FBB1F261737074807AB075A
S1132A70B0E809F0BB0B802DBF01FF2793585F4FCF
S1132A802AF09E3F510568F0B6C000C15F3FECF3E9
S1132A90983EDCF3869577956795B795F7959F5F94
S1132AA0C9F7880F911D9695879597F90895E1E0E8
S1132AB0660F771F881FBB1F621773078407BA0747
S1132AC020F0621B730B840BBA0BEE1F88F7E095A2
S1132AD0089504D06894B111D9C00895BCD088F089
S1132AE09F5790F0B92F9927B751A0F0D1F0660FF6
S1132AF0771F881F991F1AF0BA95C9F712C0B13011
S1132B0081F0C3D0B1E00895C0C0672F782F882723
S1132B10B85F39F0B93FCCF3869577956795B3954F
S1132B20D9F73EF490958095709561957F4F8F4FBE
S1132B309F4F0895E89409C097FB3EF490958095C3
S1132B40709561957F4F8F4F9F4F9923A9F0F92F6F
S1132B5096E9BB279395F695879577956795B795ED
S1132B60F111F8CFFAF4BB0F11F460FF1BC06F5FD3
S1132B707F4F8F4F9F4F16C0882311F096E911C0E5
S1132B80772321F09EE8872F762F05C0662371F006
S1132B9096E8862F70E060E02AF09A95660F771F1A
S1132BA0881FDAF7880F9695879597F90895990FF6
S1132BB00008550FAA0BE0E8FEEF16161706E80703
S1132BC0F907C0F012161306E407F50798F0621B24
S1132BD0730B840B950B39F40A2661F0232B242BF9
S1132BE0252B21F408950A2609F4A140A6958FEF18
S1132BF0811D811D089597F99F6780E870E060E06A
S1132C0008959FEF80EC089500240A941616170681
S1132C1018060906089500240A94121613061406C9
S1132C2005060895092E0394000C11F4882352F02C
S1132C30BB0F40F4BF2B11F460FF04C06F5F7F4FE4
S1132C408F4F9F4F089557FD9058440F551F59F0CB
S1132C505F3F71F04795880F97FB991F61F09F3F85
S1132C6079F087950895121613061406551FF2CFAE
S1132C704695F1DF08C0161617061806991FF1CFFE
S1132C8086957105610508940895E894BB27662725
S1132C907727CB0197F908958ADF08F48FEF089519
S1132CA00BD0C0CFB1DF28F0B6DF18F0952309F0C0
S1132CB0A2CFA7CF1124EACFC6DFA0F3959FD1F30B
S1132CC0950F50E0551F629FF001729FBB27F00DD6
S1132CD0B11D639FAA27F00DB11DAA1F649F66272B
S1132CE0B00DA11D661F829F2227B00DA11D621F7A
S1132CF0739FB00DA11D621F839FA00D611D221F34
S1132D00749F3327A00D611D231F849F600D211D17
S1132D10822F762F6A2F11249F5750408AF0E1F0BA
S1132D2088234AF0EE0FFF1FBB1F661F771F881F03
S1132D3091505040A9F79E3F510570F05CCFA6CF4B
S1132D405F3FECF3983EDCF3869577956795B795EE
S1132D50F795E7959F5FC1F7FE2B880F911D969518
S1132D60879597F90895CF93DF938230910510F4F6
S1132D7082E090E0E0913A04F0913B0420E030E0FE
S1132D80A0E0B0E0309739F14081518148175907EC
S1132D90B8F04817590771F482819381109729F08C
S1132DA013969C938E9312972CC090933B0480931C
S1132DB03A0427C02115310531F04217530718F0A2
S1132DC0A901DB0101C0EF019A01BD01DF0102800D
S1132DD0F381E02DD7CF21153105F9F0281B390BEC
S1132DE02430310580F48A819B816115710521F0BD
S1132DF0FB019383828304C090933B0480933A0441
S1132E00FE01329644C0FE01E20FF31F81939193B9
S1132E1022503109398328833AC0209138043091F3
S1132E203904232B41F420910201309103013093A2
S1132E3039042093380420910001309101012115B7
S1132E40310541F42DB73EB740910401509105017D
S1132E50241B350BE0913804F0913904E217F30791
S1132E60A0F42E1B3F0B2817390778F0AC014E5FF6
S1132E705F4F2417350748F04E0F5F1F50933904F6
S1132E80409338048193919302C0E0E0F0E0CF01D5
S1132E90DF91CF910895CF93DF93009709F487C012
S1132EA0FC01329713821282C0913A04D0913B0400
S1132EB0209781F420813181280F391F80913804B3
S1132EC0909139048217930779F5F0933904E093CC
S1132ED038046DC0DE0120E030E0AE17BF0750F4C7
S1132EE012964D915C9113979D014115510509F17D
S1132EF0DA01F3CFB383A28340815181840F951FFC
S1132F008A179B0771F48D919C911197840F951FDB
S1132F1002969183808312968D919C91139793834B
S1132F2082832115310529F4F0933B04E0933A049C
S1132F303EC0D9011396FC93EE9312974D915D9187
S1132F40A40FB51FEA17FB0779F480819181840FE0
S1132F50951F0296D90111969C938E938281938139
S1132F6013969C938E931297E0E0F0E08A819B8104
S1132F70009719F0FE01EC01F9CFCE0102962881E9
S1132F803981820F931F2091380430913904281716
S1132F90390769F4309729F410923B0410923A04EB
S1132FA002C013821282D0933904C0933804DF9193
S1132FB0CF9108958F929F92AF92BF92CF92DF925A
S1132FC0EF92FF92CF93DF93EC01688179818A813C
S1132FD09B81611571058105910521F464E279ED08
S1132FE08BE597E02DE133EF41E050E00E94D71BE1
S1132FF049015A019B01AC01A7EAB1E40E94F61B06
S11330006B017C01ACEEB4EFA50194010E94041C99
S1133010C60ED71EE81EF91EF7FE06C081E0C81AC8
S1133020D108E10880E8F80AC882D982EA82FB82E2
S1133030C6019F77DF91CF91FF90EF90DF90CF9003
S1133040BF90AF909F908F9008950E94DA170895D3
S113305086E091E00E94DA170895A0E0B0E0809342
S1133060060190930701A0930801B0930901089504
S1133070FB01DC018D91019080190110D9F3990BAA
S113308008954532510520F4423010F00C944C1848
S1133090FB011082CB010895BB274A3031F49923F8
S11330A022F4BDE2909581959F4F0C945818BB274C
S11330B0FB015527AA27880F991FAA1FA41710F0F0
S11330C0A41B83955051B9F7A05DAA3308F0A95DFC
S11330D0A193009779F7B111B1931192CB010C949C
S11330E01A1B0F931F93CF93DF93EC018B0100976F
S11330F031F46115710519F480E090E038C06EE098
S113310070E081E090E00E94E11AFC010097A1F3D5
S113311080E883830115110571F01387028781E824
S1133120838380913C0490913D04892B21F4F09396
S11331303D04E0933C042097C9F0D187C087838184
S11331408260838380913E0490913F04892B71F4C3
S1133150F0933F04E0933E04809140049091410435
S1133160892B21F4F0934104E0934004CF01DF91D3
S1133170CF911F910F910895A0E0B0E0E2ECF8E147
S11331800C94191CFE01359661917191AF018091E7
S11331903E0490913F040E940419E2E00C94351C13
S11331A060913E0470913F040E942A1B08950F937E
S11331B01F93CF93DF93E0913E04F0913F0423816A
S11331C021FF1BC0EC0100E010E0899160913E04F6
S11331D070913F04DB011896ED91FC9119978823B7
S11331E031F00995892B89F30FEF1FEFEECF8AE0B9
S11331F00995892B11F4C80102C08FEF9FEFDF916D
S1133200CF911F910F910895ACE0B0E0EAE0F9E1AD
S11332100C94091C7C016B018A01FC011782168243
S1133220838181FFBDC1CE0101964C01F7019381D9
S1133230F60193FD859193FF81916F01882309F431
S1133240ABC1853239F493FD859193FF81916F0170
S1133250853229F4B70190E00E942A1BE7CF512C54
S1133260312C20E02032A0F48B3269F030F480322B
S113327059F0833269F420612CC08D3239F08033E7
S113328039F4216026C02260246023C0286021C054
S113329027FD27C030ED380F3A3078F426FF06C0FA
S11332A0FAE05F9E300D1124532E13C08AE0389E3D
S11332B0300D1124332E20620CC08E3221F426FDF1
S11332C06BC1206406C08C3611F4206802C08836B5
S11332D041F4F60193FD859193FF81916F01811172
S11332E0C1CF982F9F7D9554933028F40C5F1F4FC6
S11332F0FFE3F9830DC0833631F0833771F08335F2
S113330009F05BC022C0F801808189830E5F1F4FE2
S113331044244394512C540115C03801F2E06F0E3B
S1133320711CF801A080B18026FF03C0652D70E0F8
S113333002C06FEF7FEFC5012C870E940F1B2C0189
S113334083012C852F77222E17C03801F2E06F0EEF
S1133350711CF801A080B18026FF03C0652D70E0C8
S113336002C06FEF7FEFC5012C870E94FD1A2C016C
S11333702C852068222E830123FC1BC0832D90E022
S113338048165906B0F4B70180E290E00E942A1B67
S11333903A94F4CFF50127FC859127FE81915F01D2
S11333A0B70190E00E942A1B31103A94F1E04F1AC1
S11333B051084114510471F7E5C0843611F089367F
S11333C039F5F80127FF07C06081718182819381FB
S11333D00C5F1F4F08C060817181882777FD80953D
S11333E0982F0E5F1F4F2F76B22E97FF09C090952E
S11333F08095709561957F4F8F4F9F4F2068B22EB7
S11334002AE030E0A4010E945C1BA82EA81844C046
S1133410853729F42F7EB22E2AE030E025C0F22F22
S1133420F97FBF2E8F36C1F018F4883579F0B4C017
S1133430803719F0883721F0AFC02F2F2061B22ECA
S1133440B4FE0DC08B2D8460B82E09C024FF0AC0C1
S11334509F2F9660B92E06C028E030E005C020E119
S113346030E002C020E132E0F801B7FE07C060811D
S11334707181828193810C5F1F4F06C060817181CD
S113348080E090E00E5F1F4FA4010E945C1BA82EF9
S1133490A818FB2DFF77BF2EB6FE0BC02B2D2E7F59
S11334A0A51450F4B4FE0AC0B2FC08C02B2D2E7E25
S11334B005C07A2C2B2D03C07A2C01C0752C24FF57
S11334C00DC0FE01EA0DF11D8081803311F4297EC7
S11334D009C022FF06C07394739404C0822F8678B7
S11334E009F0739423FD13C020FF06C05A2C7314F3
S11334F018F4530C5718732C731468F4B70180E252
S113350090E02C870E942A1B73942C85F5CF7314AA
S113351010F4371801C0312C24FF12C0B70180E326
S113352090E02C870E942A1B2C8522FF17C021FFC4
S113353003C088E590E002C088E790E0B7010CC0C2
S1133540822F867859F021FD02C080E201C08BE20F
S113355027FD8DE2B70190E00E942A1BA51438F4E0
S1133560B70180E390E00E942A1B5A94F7CFAA94F3
S1133570F401EA0DF11D8081B70190E00E942A1B3D
S1133580A110F5CF332009F451CEB70180E290E0C9
S11335900E942A1B3A94F6CFF7018681978102C0D4
S11335A08FEF9FEF2C96E2E10C94251CA8E1B0E08C
S11335B042E050E00C94BC1B0E94CA1B272F0C94C1
S11335C0CB1B0F931F93CF93DF93869F8001879F1D
S11335D0100D969F100D1124C8010E94B316EC0122
S11335E0009729F0A80160E070E00E94081BCE015A
S11335F0DF91CF911F910F910895FC0105906150C7
S113360070400110D8F7809590958E0F9F1F0895F4
S1133610DC0101C06D9341505040E0F70895FC0176
S11336206150704001900110D8F7809590958E0FED
S11336309F1F0895DC01FC01672F71917723E1F747
S1133640329704C07C916D9370836291AE17BF076B
S1133650C8F308950F931F93CF93DF93182F092F67
S1133660EB018B8181FD03C08FEF9FEF20C082FFB0
S113367010C04E815F812C813D81421753077CF439
S1133680E881F9819F012F5F3F4F3983288310839D
S113369006C0E885F985812F0995892B29F72E81A4
S11336A03F812F5F3F4F3F832E83812F902FDF91E8
S11336B0CF911F910F910895FA01AA27283051F153
S11336C0203181F1E8946F936E7F6E5F7F4F8F4F4F
S11336D09F4FAF4FB1E03ED0B4E03CD0670F781FAE
S11336E0891F9A1FA11D680F791F8A1F911DA11D93
S11336F06A0F711D811D911DA11D20D009F46894CC
S11337003F912AE0269F11243019305D3193DEF673
S1133710CF010895462F4770405D4193B3E00FD029
S1133720C9F7F6CF462F4F70405D4A3318F0495D14
S113373031FD4052419302D0A9F7EACFB4E0A695F7
S11337409795879577956795BA95C9F70097610519
S1133750710508959B01AC010A2E0694579547956F
S113376037952795BA95C9F7620F731F841F951F64
S1133770A01D0895DC01CB01FC01E199FECF06C038
S1133780FFBBEEBBE09A31960DB20D924150504012
S1133790B8F70895262FE199FECF9FBB8EBB2DBBB2
S11337A00FB6F894E29AE19A0FBE01960895052E99
S11337B097FB1EF400940E94EE1B57FD07D00E9455
S11337C0401C07FC03D04EF40C94EE1B509540951E
S11337D0309521953F4F4F4F5F4F089590958095B9
S11337E0709561957F4F8F4F9F4F08950E94621C83
S11337F0A59F900DB49F900DA49F800D911D112441
S11338000895B7FF0C94F61B0E94F61B821B930BC2
S113381008952F923F924F925F926F927F928F9270
S11338209F92AF92BF92CF92DF92EF92FF920F934B
S11338301F93CF93DF93CDB7DEB7CA1BDB0B0FB655
S1133840F894DEBF0FBECDBF09942A883988488812
S11338505F846E847D848C849B84AA84B984C884A8
S1133860DF80EE80FD800C811B81AA81B981CE0F9F
S1133870D11D0FB6F894DEBF0FBECDBFED01089584
S1133880A1E21A2EAA1BBB1BFD010DC0AA1FBB1F60
S1133890EE1FFF1FA217B307E407F50720F0A21BD2
S11338A0B30BE40BF50B661F771F881F991F1A943F
S11338B069F760957095809590959B01AC01BD0169
S11338C0CF010895A29FB001B39FC001A39F700DC3
S11338D0811D1124911DB29F700D811D1124911D14
S10938E00895F894FFCFE7
S11338E60000420420000100000005020301040058
S11338F61000124D657373616765206C6F737420D5
S11339066172626974726174696F6E005472616E79
S1133916736D697373696F6E206572726F7220645A
S113392665746563746564005265636569766520CC
S1133936627566666572206F766572666C6F77204F
S1133946666C6167207365740043414E207472612E
S11339566E736D6974206E6F7420636F6D706C6521
S11339667465005265736574207472616E736D6953
S11339767373696F6E20726571756573740045742F
S1133986746572206D656E7520696E697400436195
S11339966E20696E697400456E61626C65204341F0
S11339A64E206E6F726D616C206D6F64653A2025D2
S11339B6640A004D435032353135206973204E4F29
S11339C65420696E20636F6E6669677572617469E7
S11339D66F6E206D6F646520616674657220726512
S11339E673657421004D435032353135206D6F6453
S11339F66520616674657220696E69743A2025646F
S1133A060A004D41494E204D454E55004E4557201E
S1133A1647414D4500484947482053434F524500C6
S1133A2653455454494E47530052455455524E003B
S1133A36202000313A2000323A2000333A20004454
S1133A464542554747494E470043414C2E204A4F6D
S1133A56595354434B2E005253542048474853431A
S1133A66520054494D453A00202020202020202091
S1133A76004847485343522052535421005374611B
S1133A867274696E67205352414D20746573742EA7
S1133A962E2E0057726974652070686173652065FF
S1133AA672726F723A206578745F72616D5B253449
S1133AB6645D203D2025303258202873686F756C6C
S1133AC6642062652025303258290A0052657472D2
S1133AD6696576616C207068617365206572726FC2
S1133AE6723A206578745F72616D5B2534645D207B
S1133AF63D2025303258202873686F756C64206227
S1133B06652025303258290A005352414D207465E8
S1133B16737420636F6D706C657465642077697463
S1133B2668200A253464206572726F727320696E88
S1133B3620777269746520706861736520616E64AC
S1133B46200A253464206572726F727320696E20B0
S1133B5672657472696576616C2070686173650A52
S1133B660A0047414D4520504C4159494E47004CA7
S10F3B7649564553204C4546543A000083
S9030000FC
