:100000000C94B4010C94D1010C949E020C94D10177
:100010000C94D1010C94D1010C94D1010C94D10118
:100020000C94D1010C94D1010C94D1010C94D10108
:100030000C94D1010C94D1010C94D1010C94D101F8
:100040000C94D1010C94D1010C94D1010C94D101E8
:100050000C94D1010C94D1010C94D1010C94D101D8
:100060000C94D1010C94D1010C94D1010C94D101C8
:10007000000000000000000000065F5F06000000B6
:100080000007070007070000147F7F147F7F14001C
:10009000242E6B6B3A120000466630180C66620024
:1000A000307A4F5D377A48000407030000000000F3
:1000B000001C3E63410000000041633E1C00000044
:1000C000082A3E1C1C3E2A0808083E3E080800007C
:1000D00000A0E06000000000080808080808000010
:1000E00000006060000000006030180C0603010092
:1000F0003E7F594D7F3E000042427F7F40400000DE
:10010000627359496F660000226349497F360000D7
:10011000181C16137F7F1000276745457D390000A6
:100120003C7E4B4979300000036371190F070000D2
:10013000367F49497F360000064F49693F1E00005F
:1001400000006C6C0000000000A0EC6C00000000DF
:10015000081C366341000000141414141414000029
:10016000004163361C080000020351590F060000CD
:100170003E7F415D5D1F1E007C7E13137E7C000070
:10018000417F7F49497F36001C3E63414163220025
:10019000417F7F41637F1C00417F7F495D41630058
:1001A000417F7F491D0103001C3E63415173720072
:1001B0007F7F08087F7F000000417F7F41000000B3
:1001C000307040417F3F0100417F7F081C77630012
:1001D000417F7F41406070007F7F060C067F7F007B
:1001E0007F7F060C187F7F001C3E6341633E1C002E
:1001F000417F7F49090F06001E3F21717F5E00008D
:10020000417F7F19396F460026674D597B320000C8
:1002100003417F7F410300007F7F40407F7F0000DC
:100220001F3F60603F1F00007F7F3018307F7F00DE
:1002300063771C081C776300074F78784F0700002E
:100240006773594D47637100007F7F414100000093
:100250000103060C183060000041417F7F00000060
:10026000080C0603060C0800808080808080808057
:100270000000030704000000207454543C78400040
:10028000413F7F44447C3800387C44446C28000063
:10029000307848493F7F4000387C54545C18000057
:1002A000487E7F490302000098BCA4A4F87C0400A7
:1002B000417F7F08047C780000447D7D4000000081
:1002C00040C484FD7D000000417F7F10386C4400F5
:1002D00000417F7F400000007C7C0C180C7C780083
:1002E0007C7C04047C780000387C44447C3800002A
:1002F00084FCF8A4243C1800183C24A4F8FC8400D6
:10030000447C78441C180000485C54547424000059
:1003100000043E7F442400003C7C40403C7C400084
:100320001C3C60603C1C00003C7C6030607C3C00FD
:10033000446C3810386C44009CBCA0A0FC7C0000CD
:100340004C64745C4C64000008083E774141000036
:1003500000000077770000004141773E0808000068
:10036000020301030203010011241FBECFEFD4E0FA
:10037000DEBFCDBF13E0A0E0B1E0E2E1F3E202C0F6
:1003800005900D92A432B107D9F723E0A4E2B3E0BF
:1003900001C01D92AC33B207E1F70E9484040C94B3
:1003A00087110C9400008A980895843050F484607A
:1003B000809300148299FECFE82FF0E0FC5E8081EC
:1003C000089580E008950E94690540E664E680E6AD
:1003D0000E94300541E06FEF8BE20E9430058BB741
:1003E00080688BBF85B7886085BF85B78B7F85BFE9
:1003F000789480E008950E944A050895EF92FF9254
:100400000F931F93CF93DF93CDB7DEB72B970FB624
:10041000F894DEBF0FBECDBF80912403882359F12D
:1004200081E60E94FF04182F82E60E94FF04212F1C
:1004300030E0322F2227282B207E3A83298385E63D
:100440000E94FF048B838823A1F07E0184E0E80EE4
:10045000F11C00E010E086E6800F0E94FF04F70127
:1004600081937F010F5F1F4F8B8190E00817190761
:1004700094F310922403CE0101962B960FB6F894B4
:10048000DEBF0FBECDBFDF91CF911F910F91FF90C7
:10049000EF90089580912403089580E30E94FF0463
:1004A00085FD06C0982F907184FF03C092E001C0C3
:1004B00091E0892F089580E30E94FF0483FB882741
:1004C00080F991E0892708951F93CF93DF93EC0182
:1004D0000E945B02882319F11881698181E30E94DF
:1004E0001105612F607E82E30E9411056A8185E318
:1004F0000E9411058A81882369F010E0FE01E10F56
:10050000F11D638186E3810F0E9411051F5F8A81BF
:100510001817A0F381E80E94250581E00BC00E9416
:100520004D02882331F080E191E00E94250E8FEF8B
:1005300001C080E0DF91CF911F9108951F920F922B
:100540000FB60F9211242F933F934F935F936F93A6
:100550007F938F939F93AF93BF93EF93FF93CF932B
:10056000DF931F92CDB7DEB78CE20E94FF04898330
:100570008981813049F440E061E08CE20E943005DD
:1005800081E08093240311C089818570853069F4EE
:1005900040E064E08CE20E94300540E061E08CE2E3
:1005A0000E94300581E080932403898188232CF404
:1005B00040E060E88CE20E9430050F90DF91CF911F
:1005C000FF91EF91BF91AF919F918F917F916F912B
:1005D0005F914F913F912F910F900FBE0F901F9001
:1005E0001895B898B998C29ABA9808954F925F92A0
:1005F0006F927F928F929F92AF92BF92CF92DF9233
:10060000EF92FF922B013C0149015A016B017C01E1
:10061000E894F7F820E030E048E452E4C701B6017E
:100620000E94AC0A882364F420E030E048E452E4FD
:10063000C501B4019F770E94AC0A88230CF46BC0FB
:1006400020E030E048E452E4C701B6010E94CA0B42
:100650001816CCF420E030E048E452E4C501B401BF
:100660009F770E94AC0A882374F420E030E0A9014F
:10067000C301B2010E94AC0A881F8827881F93E03B
:10068000981B892F49C020E030E048E452E4C701BC
:10069000B6010E94AC0A8823B4F420E030E048E4BC
:1006A00052E4C501B4019F770E94CA0B18165CF48E
:1006B00020E030E0A901C501B4010E94AC0A881F06
:1006C0008827881F29C0A3019201C501B4010E9497
:1006D000B00A9F7720E030E040E85FE30E94CA0B59
:1006E00018165CF420E030E0A901C501B4010E94B5
:1006F000AC0A881F8827881F0FC020E030E0A901BE
:10070000C301B2010E94AC0A881F8827881F93E0AA
:10071000981B892F01C084E0FF90EF90DF90CF906D
:10072000BF90AF909F908F907F906F905F904F9011
:100730000895682F70E080E090E00E94180B20E0A0
:1007400030E040E053E40E94470A20E030E040E01F
:100750005CE30E94CE0B20E030E048EC52E40E94C3
:10076000CE0B089581E00E94D5010E94990308955F
:1007700080E00E94D5010E9499030895CF93DF93F2
:10078000EC010E94B203688379838A839B830E9471
:10079000B8036C837D838E839F83B09B05C081E00B
:1007A00090E09987888702C019861886B19B05C09A
:1007B00081E090E09B878A8702C01B861A86B29BE5
:1007C00003C01D861C8604C081E090E09D878C8755
:1007D000DF91CF910895CF93DF93CDB7DEB72E97FA
:1007E0000FB6F894DEBF0FBECDBF809129038111F3
:1007F00009C080912A0390912B030E94CA0681E0D0
:1008000080932903CE0101960E94BE032D813E8173
:100810004F81588569817A818B819C810E94F60283
:1008200060910A010E948A0680930A0120912803A0
:1008300030E04D855E854217530779F0109228030A
:100840004130510551F40E948907809327038D851B
:100850008093280382E080930A012E960FB6F894C5
:10086000DEBF0FBECDBFDF91CF910895CF93DF9351
:10087000CDB7DEB769970FB6F894DEBF0FBECDBF18
:10088000CE0101960E94BE0380E290E0988B8F8794
:1008900088E0898B79816A815B814C813D812E81E1
:1008A0009F8188857A8B6B8B5C8B4D8B3E8B2F8BDE
:1008B000988F898FCE010F960E94640269960FB6B9
:1008C000F894DEBF0FBECDBFDF91CF91089585B7FD
:1008D000806885BF80B7806280BF8FE190E00E9412
:1008E000360A0E94A3090E94A6090E94D3010E9411
:1008F000F1020E94A9080E94920590932B03809315
:100900002A030E94E3010895CF93DF93CDB7DEB7AA
:100910002B970FB6F894DEBF0FBECDBF0E946704C1
:100920000E94FB0110922903109227030F2EFBE077
:100930007F2EF02D0F2EF1E58F2EF1E09F2EF02D62
:10094000512C612C0F2EF5E7CF2EF1E0DF2EF02D8C
:100950000E943604813021F489E291E00E94250E44
:1009600080912703811102C00E94EB030E944A027A
:10097000882371F30E94FE01FC01DE011196272DF0
:1009800001900D922A95E1F7FC010081F18012811E
:100990008BE391E00E94250EA12EB12C1F921F9394
:1009A000FF920F939F928F920E940A0E0F900F90CA
:1009B0000F900F900F900F901A141B04DCF4CE01CF
:1009C00004967C01052D162DF70181917F011F9260
:1009D0008F931F930F93DF92CF920E940A0E0F5FA7
:1009E0001F4F0F900F900F900F900F900F900A15C0
:1009F0001B0554F38AE090E00E941E0EA9CFCF930E
:100A0000C82F0E949F0983E00E9496098C2F0E94A4
:100A100096090E949A09C82F0E94A1098C2FCF9194
:100A20000895CF93DF93D82FC62F0E949F0982E0AD
:100A30000E9496098D2F0E9496098C2F0E9496097C
:100A40000E94A109DF91CF910895CF93C82F0E94F2
:100A50009F098C2F0E9496090E94A109CF910895A9
:100A60001F93CF93DF93182FD62FC42F0E949F0977
:100A700085E00E949609812F0E9496098D2F0E9481
:100A800096098C2F0E9496090E94A109DF91CF91AF
:100A90001F910895CF93DF931F92CDB7DEB740E04B
:100AA00060EE8FE00E9430058EE00E94FF04898393
:100AB0009981907E81E009F480E00F90DF91CF91E1
:100AC00008950E949F0980EC0E9496090E94A10946
:100AD0000895CF93DF931F92CDB7DEB70E948F09A1
:100AE0000E9461058EE00E94FF0489838981807ED7
:100AF000803831F081E891E00E94250E81E00EC03F
:100B000089811F928F9383EB91E09F938F930E9433
:100B10000A0E0F900F900F900F9080E00F90DF91D2
:100B2000CF910895BF92CF92DF92EF92FF920F93F1
:100B30001F93CF93DF938DE090E00E94310C7C01F6
:100B400080ED91E0D7011C969C938E931B978DE0CE
:100B500090E00E94310CFC01D70113969C938E9378
:100B600012978AED91E094878387F182E082128662
:100B70008DE090E00E94310C8C01F7019583848315
:100B800083EE91E0D8011C969C938E931B9711964F
:100B9000FC92EE9281E01A968C938DE090E00E9498
:100BA000310CEC01F701978386838EEE91E09C87F0
:100BB0008B87F982E8821186108683E082878DE038
:100BC00090E00E94310CFC01D80113969C938E9307
:100BD00012970F2EF7EFCF2EF1E0DF2EF02DD486F7
:100BE000C38611830083128619961C921E92189751
:100BF00017961C921E92169715961C921E92149789
:100C00008DE090E00E94310C8C019B838A838EEFF3
:100C100091E0F80194878387D183C0838DE090E0D1
:100C20000E94310CD80113969C938E9312972DE05D
:100C300032E0FC0134872387118300838DE090E04C
:100C40000E94310CD80115969C938E93149722E143
:100C500032E0FC0134872387118300838DE090E02C
:100C60000E94310CD80117969C938E93169729E118
:100C700032E0FC0134872387118300838DE090E00C
:100C80000E94310CD80119969C938E931897FC0101
:100C9000D486C386118300836894BB24B2F81A9665
:100CA000BC928DE090E00E94310C9D838C832EE1FC
:100CB00032E0DC011C963C932E931B97CD93DC9382
:100CC0008DE090E00E94310C9F838E8328E232E019
:100CD000FC0134872387D183C0838DE090E00E949C
:100CE000310C99878887DC011C96DC92CE921B9789
:100CF000CD93DC93BA86F0922D03E0922C03C701CA
:100D0000DF91CF911F910F91FF90EF90DF90CF90E7
:100D1000BF900895CF93982FC62FE0912C03F091A8
:100D20002D03228580910B01981741F084E0809378
:100D30000B019130D1F038F0943049F560E08C2F00
:100D40000E94700924C0633010F160E08C2F0E9473
:100D5000310986E392E00E945009C15060E08C2F77
:100D60000E94700910920B0112C0261780F060E0FB
:100D70008C2F0E94310986E392E00E945009CF5FD8
:100D800060E08C2F0E94700981E080930B018C2F12
:100D9000CF910895CF93DF93EC010E949F080E94AA
:100DA000420862E080E00E9431098B859C850E94A8
:100DB00050098A819B81892B51F062E082E00E9478
:100DC0003109EA81FB81838594850E9450098C81D9
:100DD0009D81892B51F062E083E00E943109EC8112
:100DE000FD81838594850E9450098E819F81892B86
:100DF00051F062E084E00E943109EE81FF81838539
:100E000094850E94500988859985892B51F062E06C
:100E100085E00E943109E885F985838594850E94E3
:100E2000500962E087E00E943109E0912603F0E07A
:100E3000EE0FFF1FE75CFD4F808191810E945009FA
:100E4000DF91CF910895833031F1843009F442C0AD
:100E5000823009F05DC0E0912C03F0912D03828176
:100E60009381009709F454C090932D0380932C0331
:100E700060E082E00E94310986E392E00E9450091E
:100E800062E084E00E948A0680912C0390912D03F9
:100E90000E94CA060895E0912C03F0912D038481ED
:100EA00095810097A9F190932D0380932C0360E026
:100EB00083E00E94310986E392E00E94500962E0DB
:100EC00084E00E948A0680912C0390912D030E9459
:100ED000CA060895E0912C03F0912D038681978135
:100EE0000097B1F090932D0380932C0360E084E091
:100EF0000E94310986E392E00E94500962E084E09A
:100F00000E948A0680912C0390912D030E94CA06AC
:100F10000895FF920F931F93CF93DF93F82E0091C4
:100F20002C0310912D03F801C385D48560ED71E089
:100F3000CE010E94B60D892B89F4F2E0FF1609F468
:100F400099C083E0F81205C083E090E00E94230777
:100F500091C08F2D90E00E9423078CC06EEE71E04F
:100F6000CE010E94B60D892BC1F5E2E0FE1205C04C
:100F700082E090E00E9423077DC0F3E0FF1209C0E9
:100F800060E083E00E94310986E392E00E9450090C
:100F900071C084E0F81208C060E00E94310986E365
:100FA00092E00E94500966C0E5E0FE1263C0F801BD
:100FB0008081918190932D0380932C0360E085E0E4
:100FC0000E94310986E392E00E94500980912C032F
:100FD00090912D030E94CA064DC06EEF71E0CE01C4
:100FE0000E94B60D892B51F5F2E0FF1203C010925A
:100FF00026031DC083E0F81204C081E0809326031D
:1010000016C0E4E0FE1204C082E0809326030FC005
:10101000F8012081318130932D0320932C0360E06F
:101020008F2D0E94310986E392E00E945009809141
:101030002C0390912D030E94CA061CC063EE71E040
:10104000CE010E94B60D892BA9F4F80120813181CF
:1010500030932D0320932C0360E08F2D0E943109E3
:1010600086E392E00E94500980912C0390912D0319
:101070000E94CA0680912503DF91CF911F910F91A5
:10108000FF900895E0910E01F0910F0181E28083BD
:10109000E0910E01F0910F011082E0910E01F091AC
:1010A0000F018FE78083E0910E01F0910F0182E242
:1010B0008083E0910E01F0910F011082E0910E010A
:1010C000F0910F0187E0808310922E0308958830FD
:1010D00040F480932E038055E0910E01F0910F01B2
:1010E00080830895282F30E0220F331F220F331FF3
:1010F000220F331F20383105A4F4880F880F880F82
:1011000080932F03982F9F7082958F70805FE0915E
:101110000E01F0910F019083E0910E01F0910F010B
:10112000808308950E94670880E890E0E0910C01B8
:10113000F0910D01108201970097C1F70895CF93A8
:10114000C0E08C2F0E949208CF5FC830D1F7CF91BA
:101150000895E0910E01F0910F018EEA8083E091F5
:101160000E01F0910F0181EA8083E0910E01F09170
:101170000F018AED8083E0910E01F0910F0182E171
:101180008083E0910E01F0910F0188EC8083E09163
:101190000E01F0910F0188EA8083E0910E01F09139
:1011A0000F018FE38083E0910E01F0910F0185ED37
:1011B0008083E0910E01F0910F0180E88083E0913F
:1011C0000E01F0910F0181E88083E0910E01F09112
:1011D0000F0180E58083E0910E01F0910F0189ED10
:1011E0008083E0910E01F0910F0181E28083E09114
:1011F0000E01F0910F0180E28083E0910E01F091E9
:101200000F0182E08083E0910E01F0910F018BEDE0
:101210008083E0910E01F0910F0180E38083E091E3
:101220000E01F0910F018DEA8083E0910E01F091A3
:101230000F011082E0910E01F0910F0184EA80838A
:10124000E0910E01F0910F0186EA8083E0910E019A
:10125000F0910F018FEA80830E949F080E9442084C
:101260000895CF93C62F0E9467088C2F0E947208A2
:10127000CF91089528E0829FC0011124FC01E0591C
:10128000F04020E030E08491A0910C01B0910D017C
:101290008C932F5F3F4F319628303105A1F7089589
:1012A0000F931F93CF93DF938C01C0E0D0E00EC06B
:1012B0000E943A092196C031D10519F0C032D105FA
:1012C00029F480912E038F5F0E946708F8018191B5
:1012D0008F018111EDCFDF91CF911F910F91089573
:1012E0000E943109E0910C01F0910D0188E18083A9
:1012F000E0910C01F0910D018083E0910C01F091DF
:101300000D019EE79083E0910C01F0910D019CE3AB
:101310009083E0910C01F0910D018083089580EBA2
:1013200087BB81E58DB98EB18FB108958FB9779B59
:10133000FECF08951FB8779BFECF8FB10895C49854
:101340000895C49A089580E090E00895CF92DF92C6
:10135000EF92FF920F931F93CF93DF938FE392E06F
:101360000E94250E0E94A60D6C010E94AB0DC0E0EC
:10137000D0E000E010E00F2EF5E5EF2EF2E0FF2EBA
:10138000F02D0E94A60DFE01F85E808320812817B3
:10139000A9F099279F938F931F922F93DF93CF9359
:1013A000FF92EF920E940A0E0F5F1F4F8DB79EB7FC
:1013B00008960FB6F8949EBF0FBE8DBF2196C1153B
:1013C00098E0D907F1F6C6010E94AB0DC0E0D0E06D
:1013D000E12CF12C0F2EFEE8CF2EF2E0DF2EF02DC7
:1013E0000E94A60DFE01F85E20812817B1F0992712
:1013F0009F938F931F922F93DF93CF93DF92CF9280
:101400000E940A0E8FEFE81AF80A8DB79EB7089669
:101410000FB6F8949EBF0FBE8DBF2196C11598E000
:10142000D907F1F6FF92EF921F930F938BEC92E0A6
:101430009F938F930E940A0E0F900F900F900F9022
:101440000F900F90DF91CF911F910F91FF90EF9030
:10145000DF90CF9008955D9BFECF8CB980E090E047
:1014600008955F9BFECF8CB190E0089590BD89B93F
:1014700088E18AB98EE880BD61E37AE08BE29AE088
:101480000E94BF0D9093310380933003089550580C
:10149000BB27AA270ED044C135D130F03AD120F075
:1014A00031F49F3F11F41EF42AC10EF4E095E7FBDE
:1014B00020C1E92F46D180F3BA176207730784076A
:1014C000950718F071F49EF55EC10EF4E0950B2EB1
:1014D000BA2FA02D0B01B90190010C01CA01A00186
:1014E0001124FF27591B99F0593F50F4503E68F1E1
:1014F0001A16F040A22F232F342F4427585FF3CF22
:10150000469537952795A795F0405395C9F77EF4F2
:101510001F16BA0B620B730B840BBAF09150A1F03B
:10152000FF0FBB1F661F771F881FC2F70EC0BA0FC1
:10153000621F731F841F48F4879577956795B79549
:10154000F7959E3F08F0B3CF9395880F08F0992741
:10155000EE0F979587950895A8D008F481E0089537
:101560000CD0DEC0D6D040F0CDD030F021F45F3FBB
:1015700019F0BFC0511108C1C2C0E3D098F399233C
:10158000C9F35523B1F3951B550BBB27AA27621747
:101590007307840738F09F5F5F4F220F331F441F8C
:1015A000AA1FA9F333D00E2E3AF0E0E830D09150C4
:1015B0005040E695001CCAF729D0FE2F27D0660FB1
:1015C000771F881FBB1F261737074807AB07B0E8F0
:1015D00009F0BB0B802DBF01FF2793585F4F2AF006
:1015E0009E3F510568F085C0CFC05F3FECF3983E49
:1015F000DCF3869577956795B795F7959F5FC9F763
:10160000880F911D9695879597F90895E1E0660FEB
:10161000771F881FBB1F621773078407BA0720F064
:10162000621B730B840BBA0BEE1F88F7E0950895CD
:10163000E89409C097FB3EF490958095709561956C
:101640007F4F8F4F9F4F9923A9F0F92F96E9BB2722
:101650009395F695879577956795B795F111F8CF9E
:10166000FAF4BB0F11F460FF1BC06F5F7F4F8F4F09
:101670009F4F16C0882311F096E911C0772321F0FF
:101680009EE8872F762F05C0662371F096E8862F97
:1016900070E060E02AF09A95660F771F881FDAF7EE
:1016A000880F9695879597F90895990F0008550F1B
:1016B000AA0BE0E8FEEF16161706E807F907C0F0D8
:1016C00012161306E407F50798F0621B730B840BE0
:1016D000950B39F40A2661F0232B242B252B21F4BA
:1016E00008950A2609F4A140A6958FEF811D811D5A
:1016F000089597F99F6780E870E060E008959FEF94
:1017000080EC089500240A94161617061806090698
:10171000089500240A941216130614060506089567
:10172000092E0394000C11F4882352F0BB0F40F4EF
:10173000BF2B11F460FF04C06F5F7F4F8F4F9F4F2F
:10174000089557FD9058440F551F59F05F3F71F0B1
:101750004795880F97FB991F61F09F3F79F0879518
:101760000895121613061406551FF2CF4695F1DFA1
:1017700008C0161617061806991FF1CF8695710531
:10178000610508940895E894BB2766277727CB0165
:1017900097F908958ADF08F48FEF08950BD0C0CF32
:1017A000B1DF28F0B6DF18F0952309F0A2CFA7CF5C
:1017B0001124EACFC6DFA0F3959FD1F3950F50E037
:1017C000551F629FF001729FBB27F00DB11D639FF3
:1017D000AA27F00DB11DAA1F649F6627B00DA11D99
:1017E000661F829F2227B00DA11D621F739FB00D3F
:1017F000A11D621F839FA00D611D221F749F3327AF
:10180000A00D611D231F849F600D211D822F762F47
:101810006A2F11249F5750408AF0E1F088234AF044
:10182000EE0FFF1FBB1F661F771F881F9150504090
:10183000A9F79E3F510570F05CCFA6CF5F3FECF358
:10184000983EDCF3869577956795B795F795E7957C
:101850009F5FC1F7FE2B880F911D9695879597F98D
:101860000895CF93DF938230910510F482E090E0E9
:10187000E0913403F091350320E030E0A0E0B0E0E7
:10188000309739F14081518148175907B8F048170E
:10189000590771F482819381109729F013969C93D4
:1018A0008E9312972CC0909335038093340327C0F6
:1018B0002115310531F04217530718F0A901DB015A
:1018C00001C0EF019A01BD01DF010280F381E02D2B
:1018D000D7CF21153105F9F0281B390B24303105FC
:1018E00080F48A819B816115710521F0FB0193834E
:1018F000828304C09093350380933403FE013296B3
:1019000044C0FE01E20FF31F8193919322503109ED
:10191000398328833AC02091320330913303232B3B
:1019200041F420910201309103013093330320935D
:10193000320320910001309101012115310541F45C
:101940002DB73EB74091040150910501241B350B82
:10195000E0913203F0913303E217F307A0F42E1B5A
:101960003F0B2817390778F0AC014E5F5F4F241703
:10197000350748F04E0F5F1F5093330340933203F7
:101980008193919302C0E0E0F0E0CF01DF91CF912D
:101990000895CF93DF93009709F487C0FC01329735
:1019A00013821282C0913403D0913503209781F4C1
:1019B00020813181280F391F8091320390913303A8
:1019C0008217930779F5F0933303E09332036DC0E8
:1019D000DE0120E030E0AE17BF0750F412964D91C3
:1019E0005C9113979D014115510509F1DA01F3CF7F
:1019F000B383A28340815181840F951F8A179B076F
:101A000071F48D919C911197840F951F029691838B
:101A1000808312968D919C911397938382832115D5
:101A2000310529F4F0933503E09334033EC0D90126
:101A30001396FC93EE9312974D915D91A40FB51FF1
:101A4000EA17FB0779F480819181840F951F029634
:101A5000D90111969C938E938281938113969C93C6
:101A60008E931297E0E0F0E08A819B81009719F055
:101A7000FE01EC01F9CFCE01029628813981820F57
:101A8000931F20913203309133032817390769F4EB
:101A9000309729F4109235031092340302C0138258
:101AA0001282D0933303C0933203DF91CF91089514
:101AB0008F929F92AF92BF92CF92DF92EF92FF925E
:101AC000CF93DF93EC01688179818A819B816115D5
:101AD00071058105910521F464E279ED8BE597E0CC
:101AE0002DE133EF41E050E00E94ED1049015A0131
:101AF0009B01AC01A7EAB1E40E940C116B017C01CF
:101B0000ACEEB4EFA50194010E941A11C60ED71EC7
:101B1000E81EF91EF7FE06C081E0C81AD108E108E8
:101B200080E8F80AC882D982EA82FB82C6019F77E0
:101B3000DF91CF91FF90EF90DF90CF90BF90AF906B
:101B40009F908F9008950E94580D089586E091E02F
:101B50000E94580D0895A0E0B0E080930601909394
:101B60000701A0930801B09309010895FB01DC016E
:101B70008D91019080190110D9F3990B08950F935D
:101B80001F93CF93DF93EC018B01009731F4611524
:101B9000710519F480E090E038C06EE070E081E0FB
:101BA00090E00E942410FC010097A1F380E8838359
:101BB0000115110571F01387028781E883838091F5
:101BC000360390913703892B21F4F0933703E09388
:101BD00036032097C9F0D187C087838182608383D1
:101BE0008091380390913903892B71F4F093390374
:101BF000E093380380913A0390913B03892B21F4C1
:101C0000F0933B03E0933A03CF01DF91CF911F9113
:101C10000F910895A0E0B0E0E0E1FEE00C942F11F8
:101C2000FE01359661917191AF01809138039091D9
:101C300039030E94520EE2E00C944B11609138037C
:101C4000709139030E945D1008950F931F93CF93F5
:101C5000DF93E0913803F0913903238121FF1BC00A
:101C6000EC0100E010E08991609138037091390334
:101C7000DB011896ED91FC911997882331F00995B5
:101C8000892B89F30FEF1FEFEECF8AE00995892B9F
:101C900011F4C80102C08FEF9FEFDF91CF911F9128
:101CA0000F910895ACE0B0E0E8E5FEE00C941F1160
:101CB0007C016B018A01FC0117821682838181FFFE
:101CC000BDC1CE0101964C01F7019381F60193FD50
:101CD000859193FF81916F01882309F4ABC185320F
:101CE00039F493FD859193FF81916F01853229F439
:101CF000B70190E00E945D10E7CF512C312C20E01D
:101D00002032A0F48B3269F030F4803259F0833203
:101D100069F420612CC08D3239F0803339F42160B0
:101D200026C02260246023C0286021C027FD27C070
:101D300030ED380F3A3078F426FF06C0FAE05F9EA7
:101D4000300D1124532E13C08AE0389E300D11241B
:101D5000332E20620CC08E3221F426FD6BC120642C
:101D600006C08C3611F4206802C0883641F4F601B2
:101D700093FD859193FF81916F018111C1CF982FC0
:101D80009F7D9554933028F40C5F1F4FFFE3F98338
:101D90000DC0833631F0833771F0833509F05BC0B5
:101DA00022C0F801808189830E5F1F4F4424439431
:101DB000512C540115C03801F2E06F0E711CF8016E
:101DC000A080B18026FF03C0652D70E002C06FEFD8
:101DD0007FEFC5012C870E9452102C0183012C85B6
:101DE0002F77222E17C03801F2E06F0E711CF80118
:101DF000A080B18026FF03C0652D70E002C06FEFA8
:101E00007FEFC5012C870E9440102C012C85206893
:101E1000222E830123FC1BC0832D90E04816590617
:101E2000B0F4B70180E290E00E945D103A94F4CFE4
:101E3000F50127FC859127FE81915F01B70190E0B4
:101E40000E945D1031103A94F1E04F1A510841148C
:101E5000510471F7E5C0843611F0893639F5F8017F
:101E600027FF07C060817181828193810C5F1F4FC2
:101E700008C060817181882777FD8095982F0E5F5B
:101E80001F4F2F76B22E97FF09C0909580957095C1
:101E900061957F4F8F4F9F4F2068B22E2AE030E030
:101EA000A4010E948F10A82EA81844C0853729F4D9
:101EB0002F7EB22E2AE030E025C0F22FF97FBF2E10
:101EC0008F36C1F018F4883579F0B4C0803719F036
:101ED000883721F0AFC02F2F2061B22EB4FE0DC085
:101EE0008B2D8460B82E09C024FF0AC09F2F9660F6
:101EF000B92E06C028E030E005C020E130E002C085
:101F000020E132E0F801B7FE07C060817181828173
:101F100093810C5F1F4F06C06081718180E090E06B
:101F20000E5F1F4FA4010E948F10A82EA818FB2D32
:101F3000FF77BF2EB6FE0BC02B2D2E7FA51450F4BD
:101F4000B4FE0AC0B2FC08C02B2D2E7E05C07A2C30
:101F50002B2D03C07A2C01C0752C24FF0DC0FE016F
:101F6000EA0DF11D8081803311F4297E09C022FF22
:101F700006C07394739404C0822F867809F073941A
:101F800023FD13C020FF06C05A2C731418F4530C01
:101F90005718732C731468F4B70180E290E02C8713
:101FA0000E945D1073942C85F5CF731410F43718CC
:101FB00001C0312C24FF12C0B70180E390E02C87D0
:101FC0000E945D102C8522FF17C021FF03C088E509
:101FD00090E002C088E790E0B7010CC0822F8678BD
:101FE00059F021FD02C080E201C08BE227FD8DE2A5
:101FF000B70190E00E945D10A51438F4B70180E3AA
:1020000090E00E945D105A94F7CFAA94F401EA0D73
:10201000F11D8081B70190E00E945D10A110F5CF05
:10202000332009F451CEB70180E290E00E945D10A8
:102030003A94F6CFF7018681978102C08FEF9FEF28
:102040002C96E2E10C943B110F931F93CF93DF93F7
:10205000869F8001879F100D969F100D1124C80147
:102060000E94310CEC01009729F0A80160E070E0BB
:102070000E944B10CE01DF91CF911F910F910895D7
:10208000FC010590615070400110D8F78095909543
:102090008E0F9F1F0895DC0101C06D934150504089
:1020A000E0F70895FC016150704001900110D8F7ED
:1020B000809590958E0F9F1F08950F931F93CF9338
:1020C000DF93182F092FEB018B8181FD03C08FEF68
:1020D0009FEF20C082FF10C04E815F812C813D8127
:1020E000421753077CF4E881F9819F012F5F3F4F2E
:1020F00039832883108306C0E885F985812F0995E7
:10210000892B29F72E813F812F5F3F4F3F832E83FD
:10211000812F902FDF91CF911F910F910895FA0198
:10212000AA27283051F1203181F1E8946F936E7F16
:102130006E5F7F4F8F4F9F4FAF4FB1E03ED0B4E007
:102140003CD0670F781F891F9A1FA11D680F791F48
:102150008A1F911DA11D6A0F711D811D911DA11D59
:1021600020D009F468943F912AE0269F1124301969
:10217000305D3193DEF6CF010895462F4770405D04
:102180004193B3E00FD0C9F7F6CF462F4F70405DB3
:102190004A3318F0495D31FD4052419302D0A9F70E
:1021A000EACFB4E0A6959795879577956795BA9508
:1021B000C9F700976105710508959B01AC010A2ECE
:1021C00006945795479537952795BA95C9F7620FA5
:1021D000731F841F951FA01D0895052E97FB1EF4E5
:1021E00000940E94041157FD07D00E94561107FC6D
:1021F00003D04EF40C9404115095409530952195E0
:102200003F4F4F4F5F4F0895909580957095619522
:102210007F4F8F4F9F4F08950E947811A59F900D7B
:10222000B49F900DA49F800D911D11240895B7FFB8
:102230000C940C110E940C11821B930B08952F9289
:102240003F924F925F926F927F928F929F92AF9246
:10225000BF92CF92DF92EF92FF920F931F93CF9393
:10226000DF93CDB7DEB7CA1BDB0B0FB6F894DEBF2A
:102270000FBECDBF09942A88398848885F846E8450
:102280007D848C849B84AA84B984C884DF80EE809A
:10229000FD800C811B81AA81B981CE0FD11D0FB6A3
:1022A000F894DEBF0FBECDBFED010895A1E21A2E56
:1022B000AA1BBB1BFD010DC0AA1FBB1FEE1FFF1FEA
:1022C000A217B307E407F50720F0A21BB30BE40B3A
:1022D000F50B661F771F881F991F1A9469F7609581
:1022E0007095809590959B01AC01BD01CF0108953B
:1022F000A29FB001B39FC001A39F700D811D112447
:10230000911DB29F700D811D1124911D0895F894A7
:02231000FFCFFD
:1023120000003C0320000100000002040012001033
:1023220043414E204D4553534147452053454E446A
:10233200204641494C454421004D657373616765F0
:10234200207761732073656E7421004D657373612C
:1023520067652077617320726563656976656421BC
:10236200004D6573736167652049443A2025752CD9
:10237200206D657373616765206C656E6774683A7A
:102382002025640A00446174612025643A20256492
:10239200004D435032353135206973204E4F542061
:1023A200696E20636F6E66696775726174696F6EBC
:1023B200206D6F6465206166746572207265736555
:1023C2007421004D435032353135206D6F646520E4
:1023D200616674657220696E69743A2025640A0028
:1023E2004D41494E204D454E55004E4557204741DF
:1023F2004D4500484947482053434F5245005345F5
:102402005454494E47530052455455524E00534579
:102412005420444946464943554C5459004541537A
:1024220059004D454449554D0048415244004445E8
:1024320042554747494E470043414C2E204A4F5987
:10244200535449434B002020000D0212021902533B
:1024520074617274696E67205352414D20746573C2
:10246200742E2E2E00577269746520706861736530
:10247200206572726F723A206578745F72616D5B6B
:102482002534645D203D2025303258202873686F42
:10249200756C642062652025303258290A00526525
:1024A2007472696576616C2070686173652065720B
:1024B200726F723A206578745F72616D5B25346465
:1024C2005D203D2025303258202873686F756C647A
:1024D2002062652025303258290A005352414D208E
:1024E2007465737420636F6D706C657465642077B6
:1024F200697468200A253464206572726F727320D1
:10250200696E2077726974652070686173652061F5
:102512006E64200A253464206572726F72732069BA
:102522006E2072657472696576616C207068617381
:04253200650A0A002C
:00000001FF
