S01500004279676765726E5F6E6F6465322E737265630A
S1130000C2C00000E0C00000DEC00000DCC0000090
S1130010DAC00000D8C00000D6C00000D4C0000080
S1130020D2C00000D0C00000CEC00000CCC0000090
S1130030CAC00000C8C00000C6C00000C4C00000A0
S1130040C2C000004BC40000BEC00000BCC0000021
S1130050BAC00000B8C00000B6C00000B4C00000C0
S1130060B2C00000B0C00000AEC00000ACC00000D0
S1130070AAC00000A8C00000A6C00000A4C00000E0
S1130080A2C00000A0C000009EC000009CC00000F0
S11300909AC0000098C0000096C00000A1C60000ED
S11300A092C0000090C000008EC000008CC0000010
S11300B08AC0000088C0000086C0000084C0000020
S11300C082C0000080C000007EC000007CC0000030
S11300D07AC0000078C0000076C0000074C0000040
S11300E072C000000B075D075D075D075D075D07D4
S11300F05D075D070B075D075D075D075D075D072E
S11301005D075D070D075D075D075D075D075D071B
S11301105D075D075D075D075D075D075D075D07BB
S11301205D075D070D075D075D075D075D075D07FB
S11301305D075D075D075D075D075D075D075D079B
S11301405D075D0759075D075D075D075D075D078F
S11301505D075D0736075D075D075D075D075D07A2
S11301605D075D075D075D075D075D075D075D076B
S11301705D075D072A075D075D075D075D075D078E
S11301805D075D07480711241FBECFEFD1E2DEBF34
S1130190CDBF00E00CBF13E0A0E0B2E0E0EFFBE174
S11301A000E00BBF02C007900D92A83FB107D9F73A
S11301B024E0A8EFB3E001C01D92AC33B207E1F72D
S11301C051D10C94F60D1CCFE4E6F0E080818E7FD3
S11301D08083ECE7F0E08081806680838081807694
S11301E08083EAE7F0E08081806A8083EBE7F0E0D7
S11301F08081887F80830895EAE7F0E08081806AC7
S1130200808380818064808308958091790008953B
S113021042D240E664E680E60CD241E06FEF8BE226
S113022008D280E0089519C20895EF92FF920F93C7
S11302301F93CF93DF938C018CE2D7D180FF35C01D
S113024081E6D3D1C82F82E6D0D12C2F30E0322FD3
S11302502227282B36952795329522952F70232710
S11302603F702327F8013183208385E6BED1F8014E
S11302708283882399F07801F3E0EF0EF11CC0E04B
S1130280D0E08C2F8A59B1D1F70181937F01219657
S1130290F801828190E0C817D9079CF340E061E03F
S11302A08CE2C7D11092F80304C0F80111821082C5
S11302B01282C801DF91CF911F910F91FF90EF90AF
S11302C0089580E392D185FF06C08CE092E00E94FD
S11302D0140B91E015C084FF06C085E292E00E94F1
S11302E0140B92E00DC0982F907486FF09C081E42E
S11302F092E00E94140B40E460E48DE29AD193E012
S1130300892F089580E371D183FF15C082E692E0BE
S11303100E94140B809104048F5F809304049091D5
S1130320060289130AC040E068E080E382D110929B
S1130330040480E0089581E0089580E008951F9307
S1130340CF93DF93EC01DEDF882301F1188169810B
S113035081E358D1612F6295660F607E82E352D1AA
S11303606A8185E34FD18A81882361F010E0FE0120
S1130370E10FF11D638186E3810F44D11F5F8A8100
S11303801817A8F381E84DD181E007C09ADF91E006
S1130390811101C090E0892F8195DF91CF911F9148
S11303A00895F2D48AB183608AB9789408951F932A
S11303B0CF93DF93182F83E090E0B4D7EC018EE560
S11303C0888319821A8387EC90E00197F1F700C0C3
S11303D0000063E0CE01E2D48FE891E00197F1F7E9
S11303E000C00000CE010E942A0ADF91CF911F9124
S11303F00895EF92FF920F931F9387E690E086D5BE
S11304002FEF89EF90E0215080409040E1F700C049
S1130410000088E792E00E94140BFADE04DFD8D3D0
S113042096D3D2DEE9DE8FD45DD180E0E7D1E12C32
S1130430F12C87012AE939E949E95EE360E070E0DB
S113044080E89FE32AD21F910F91FF90EF900895C7
S11304501092070281E08093080280E0CFD180E00F
S1130460BFC10895CF93DF93CDB7DEB72B970FB6F7
S1130470F894DEBF0FBECDBFBCDF0F2EF2E38F2E8C
S1130480F02D212CC12CD12C512C412C332433940C
S11304900F2EF5ECAF2EF2E0BF2EF02D8091080266
S11304A081111FC0B2DEC80ED11C539485E05812CE
S11304B018C0DF92CF92A5E8B2E0BF93AF930E9439
S11304C0030B0F900F900F900F90F4E6CF16D1040A
S11304D02CF4BEDFC12CD12C542C03C0C12CD12C44
S11304E0542C8BE090E01ED78C019FDED8018D91B7
S11304F09C9199278130910519F0029789F034C0B5
S1130500F801858190E0778060848184222D30E039
S11305108217930749F1019731F506D4232C24C09F
S11305208CE992E00E94140BD80113968C918130CF
S113053061F48CEA92E00E94140B40920802832D2D
S11305405DD1A6D1832D4CD10FC081110DC089EB93
S113055092E00E94140B30920802842D4FD1842D16
S11305603FD196D101C0242C882D90E0F5D0E72C02
S1130570F62C97012919310997FC3395C901992360
S113058024F488279927821B930B049734F0632D56
S1130590882799278E199F0960D39E2C8091070282
S11305A0811120C070D1E82EF92E9F938F93BF92B2
S11305B0AF920E94030B6CD1E3E0F0E0FA83E9838D
S11305C0F2E0FB83EC82FD82CE010196B8DE0F904F
S11305D00F900F900F90813019F43092070202C0EF
S11305E040920702C80136D759CFCF93C82FC6D33C
S11305F083E0B9D38C2FB7D3BBD3C82FC2D38C2FEE
S1130600CF910895CF93DF93D82FC62FB7D382E02D
S1130610AAD38D2FA8D38C2FA6D3B3D3DF91CF9198
S11306200895CF93C82FAAD38C2F9DD3AAD3CF914B
S113063008951F93CF93DF93182FD62FC42F9ED3E3
S113064085E091D3812F8FD38D2F8DD38C2F8BD396
S113065098D3DF91CF911F910895CF93DF931F9289
S1130660CDB7DEB740E060EE8FE0E3DF8EE0BDDFC4
S113067089838981807E29F482E093E0D5D780E064
S113068001C081E00F90DF91CF91089577D380EC82
S11306906AD377C30895CF93DF931F92CDB7DEB7A4
S11306A059D3F4DF89E193E0BFD78EE09EDF8983DD
S11306B08981807E803829F086E293E0B5D781E095
S11306C00DC089811F928F9388E593E09F938F9348
S11306D09AD70F900F900F900F9080E00F90DF91BA
S11306E0CF91089588E893E19093890080938800DE
S11306F0E0E8F0E0808180648083E1E8F0E08081DC
S11307008B608083EFE6F0E08081826080830895CF
S1130710823031F4E2E0F1E08081826080830895E8
S1130720813029F4E2E0F1E080818D7F80830895B7
S1130730882349F0E2E0F1E080818061808385E7ED
S113074093E072C7089583E893E06ED7E2E0F1E0A6
S113075080818F7E808308952FEF30E0281B390B32
S113076030931604209315040895882331F0E2E0B1
S1130770F1E080818F7D80830895E2E0F1E0808163
S1130780806280830895CF93DF9381E0EEDFE2E01F
S1130790F1E08081877F80838AE68A95F1F700C043
S11307A0C09106018081886080838AE68A95F1F78A
S11307B000C0D091060180E0D8DF8D2F90E09C2B03
S11307C0DF91CF910895E2E0F1E080818F7B808317
S11307D08AE68A95F1F700C0808180648083089559
S11307E0882339F081E090E09093FC038093FB032D
S11307F008951092FC031092FB030895CF93C82F21
S11308001F928F9322E933E03F932F93FCD60F90EE
S11308100F900F900F90CC2339F081E090E09093EB
S1130820FA038093F90304C01092FA031092F903B7
S1130830CF9108958C392FEF920714F48CE99FEF30
S11308408536910514F084E690E00895CF93DF9304
S1130850EC0199DF90930C0480930B04CE01EADF42
S1130860EC01DD2324F4882799278C1B9D0B9FDD45
S11308701C161D061CF482E04BDF02C081E048DF39
S1130880DF91CF91089580911304909114040895F9
S113089010921404109213040895EF92FF920F9390
S11308A01F9360931C0470931D0480931E04909303
S11308B01F04209317043093180440931904509391
S11308C01A04E0920704F0920804009309041093B8
S11308D00A041F910F91FF90EF9008951F920F92B9
S11308E00FB60F9211240BB60F928F929F92AF9274
S11308F0BF92CF92DF92EF92FF922F933F934F9349
S11309005F936F937F938F939F93AF93BF93EF9373
S1130910FF938091FB039091FC03892B99F08091C4
S11309201B048F5F823318F480931B040BC0109256
S11309301B04809113049091140401969093140461
S1130940809313048091F9039091FA03892B09F49D
S11309507EC019DF992324F09C0140E050E003C0DD
S113096020E030E0A901C0901504D0901604EE24D4
S1130970D7FCE094FE2CAFEFB0E099D420910504AD
S11309803091060440E050E070D4C701B601621B08
S1130990730B840B950B66D36B017C0130D36E5FB4
S11309A07F4F6530710518F480E001DD50C0809000
S11309B00E0490900F04A0901004B0901104C5018F
S11309C0B4011DD32091090230910A026217730702
S11309D0A4F42AE037ED43EA5CE3C701B601CED3C1
S11309E09B01AC01C501B401A6D260930E047093BF
S11309F00F04809310049093110480911C0490912F
S1130A001D04A0911E04B0911F04BC01CD01905897
S1130A10A7019601B3D3F3D26B017C018091170433
S1130A2090911804A0911904B0911A04BC01CD014D
S1130A30905820910E0430910F044091100450916D
S1130A4011049CD3DCD2CB018C0D9D1DFFDEFF91E4
S1130A50EF91BF91AF919F918F917F916F915F9132
S1130A604F913F912F91FF90EF90DF90CF90BF90E7
S1130A70AF909F908F900F900BBE0F900FBE0F9072
S1130A801F901895CF93DF9388EA93E09F938F93F9
S1130A90BAD580E590E0DADE2FEF85EC9CE52150B5
S1130AA080409040E1F700C0000080E090E0CEDE9E
S1130AB02FEF83EC99E0215080409040E1F700C093
S1130AC0000061DE9F938F938CEB93E09F938F9351
S1130AD09AD579DE80EB9FEFB9DE2FEF87E99AE3B1
S1130AE0215080409040E1F700C0000080E090E099
S1130AF0ADDE2FEF81EE94E0215080409040E1F78D
S1130B0000C0000040DE9F938F938FEC93E09F938F
S1130B108F9379D538DEEC0184E190E097DE2FEFF6
S1130B2083EC99E0215080409040E1F700C0000040
S1130B3080E090E08BDE8DB79EB70A960FB6F894EE
S1130B409EBF0FBE8DBFCE01DF91CF910895E1E02E
S1130B50F1E08081806480838081806280838081F1
S1130B6080618083808182608083808188608083CB
S1130B701092070116DC81E0F8DD25DE80E017DC49
S1130B8081E0D6DD7FDF80930504909306049F9374
S1130B908F9384EE93E09F938F9335D51092140432
S1130BA01092130410921B0482E890E090931604B0
S1130BB08093150410920E0410920F0410921004E6
S1130BC0109211040F900F900F900F9080E00895F1
S1130BD0E0E9F0E080818268808380818E7F808379
S1130BE0E1E9F0E080818B61808380818B7F808369
S1130BF088E893E190939700809396006B9A87E737
S1130C0091E090939900809398008CE99FEF9093E2
S1130C1026048093250484E690E090932204809334
S1130C202104109220044FEF409323048AEF90E0B4
S1130C3090932B0480932A0424EF31E030932F0403
S1130C4020932E0428EC20932404409329049093A9
S1130C502D0480932C0480E00895613019F06230F3
S1130C6079F158C020912504309126048217930706
S1130C700CF452C0409121045091220448175907A2
S1130C800CF44CC0AC01421B530B20912C0430914A
S1130C902D04429FC001439F900D529F900D11243B
S1130CA06091240470E0CDD280912A0490912B04A9
S1130CB0680F791F709399006093980080E00895FD
S1130CC02091200430E08217930754F140912304CB
S1130CD050E04817590734F1AC01421B530B2091E3
S1130CE02C0430912D04429FC001439F900D529FCC
S1130CF0900D11246091290470E0A3D280912A04FC
S1130D0090912B04680F791F709399006093980059
S1130D1080E0089581E0089581E0089581E00895D8
S1130D2081E0089581E0089511989EE106C086B59A
S1130D308436E8F316BC915021F086B58436B8F3B6
S1130D40F9CF119A0895099A119A85B5856085BDE0
S1130D50EBCF089587E884B923982B9A81E58CBD5D
S1130D608DB58EB508958EBD0DB407FEFDCF0895E3
S1130D701EBC0DB407FEFDCF8EB508952F9828989C
S1130D8008952F9A289A08958CE08093B8008FEFE5
S1130D908093BB0084E08093BC000895ECEBF0E00A
S1130DA0208120FDFDCF6093FF03FC01208120936F
S1130DB0000420FD0CC0623050F0DC011196E1E02B
S1130DC0F4E081E09D9191938F5F8613FBCF1092A5
S1130DD0FE0388EF80930B0285EA8093BC0008959C
S1130DE01F920F920FB60F9211240BB60F922F93EE
S1130DF03F938F939F93AF93BF93EF93FF93809110
S1130E00B90090E0FC013897E135F10508F055C0D0
S1130E10EE58FF4F46C21092FD03E091FD0380910E
S1130E20FF03E81770F481E08E0F8093FD03F0E078
S1130E30E050FC4F80818093BB0085E88093BC0028
S1130E4043C08091FE0381608093FE0384E9809314
S1130E50BC003AC0E091FD0381E08E0F8093FD0356
S1130E608091BB00F0E0E050FC4F80832091FD03B3
S1130E7030E08091FF0390E001972817390724F4AC
S1130E8085EC8093BC0020C085E88093BC001CC026
S1130E908091BB00E091FD03F0E0E050FC4F8083C3
S1130EA08091FE0381608093FE0384E98093BC00FB
S1130EB00BC085EA8093BC0007C08091B900809381
S1130EC00B0284E08093BC00FF91EF91BF91AF913E
S1130ED09F918F913F912F910F900BBE0F900FBE5A
S1130EE00F901F901895E0ECF0E0908195FFFDCFF6
S1130EF08093C60080E090E00895E0ECF0E080810B
S1130F008823ECF78091C60090E008959093C50083
S1130F108093C40088E18093C1008EE08093C20076
S1130F206DE777E083E797E024D3909331048093CF
S1130F30300408955058BB27AA270ED0E5C0D6D058
S1130F4030F0DBD020F031F49F3F11F41EF4CBC01D
S1130F500EF4E095E7FBC1C0E92FE7D080F3BA17A0
S1130F60620773078407950718F071F49EF5FFC0B4
S1130F700EF4E0950B2EBA2FA02D0B01B9019001B0
S1130F800C01CA01A0011124FF27591B99F0593FF4
S1130F9050F4503E68F11A16F040A22F232F342F3C
S1130FA04427585FF3CF469537952795A795F0408A
S1130FB05395C9F77EF41F16BA0B620B730B840B9F
S1130FC0BAF09150A1F0FF0FBB1F661F771F881F57
S1130FD0C2F70EC0BA0F621F731F841F48F48795AF
S1130FE077956795B795F7959E3F08F0B3CF93959E
S1130FF0880F08F09927EE0F97958795089504D0E8
S11310006894B111B5C0089598D088F09F5790F0B6
S1131010B92F9927B751A0F0D1F0660F771F881F19
S1131020991F1AF0BA95C9F712C0B13081F09FD058
S1131030B1E008959CC0672F782F8827B85F39F0F6
S1131040B93FCCF3869577956795B395D9F73EF478
S113105090958095709561957F4F8F4F9F4F089520
S1131060E89409C097FB3EF490958095709561953E
S11310707F4F8F4F9F4F9923A9F0F92F96E9BB27F4
S11310809395F695879577956795B795F111F8CF70
S1131090FAF4BB0F11F460FF1BC06F5F7F4F8F4FDB
S11310A09F4F16C0882311F096E911C0772321F0D1
S11310B09EE8872F762F05C0662371F096E8862F69
S11310C070E060E02AF09A95660F771F881FDAF7C0
S11310D0880F9695879597F9089597F99F6780E803
S11310E070E060E008959FEF80EC089500240A9476
S11310F01616170618060906089500240A941216EF
S11311001306140605060895092E0394000C11F421
S1131110882352F0BB0F40F4BF2B11F460FF04C0CE
S11311206F5F7F4F8F4F9F4F089557FD9058440F27
S1131130551F59F05F3F71F04795880F97FB991F32
S113114061F09F3F79F087950895121613061406EF
S1131150551FF2CF4695F1DF08C01616170618067C
S1131160991FF1CF86957105610508940895E89457
S1131170BB2766277727CB0197F908950BD0C4CFF7
S1131180B5DF28F0BADF18F0952309F0A6CFABCF6E
S11311901124EECFCADFA0F3959FD1F3950F50E051
S11311A0551F629FF001729FBB27F00DB11D639F15
S11311B0AA27F00DB11DAA1F649F6627B00DA11DBB
S11311C0661F829F2227B00DA11D621F739FB00D61
S11311D0A11D621F839FA00D611D221F749F3327D1
S11311E0A00D611D231F849F600D211D822F762F6A
S11311F06A2F11249F5750408AF0E1F088234AF067
S1131200EE0FFF1FBB1F661F771F881F91505040B2
S1131210A9F79E3F510570F060CFAACF5F3FECF372
S1131220983EDCF3869577956795B795F795E7959E
S11312309F5FC1F7FE2B880F911D9695879597F9AF
S11312400895AA1BBB1B51E107C0AA1FBB1FA61709
S1131250B70710F0A61BB70B881F991F5A95A9F75B
S113126080959095BC01CD010895052E97FB16F449
S113127000940FD057FD05D024D007FC02D046F4CB
S113128008C050954095309521953F4F4F4F5F4F83
S1131290089590958095709561957F4F8F4F9F4FDE
S11312A00895EE0FFF1F0590F491E02D19942BD0B3
S11312B0A59F900DB49F900DA49F800D911D1124A6
S11312C00895A1E21A2EAA1BBB1BFD010DC0AA1F83
S11312D0BB1FEE1FFF1FA217B307E407F50720F09B
S11312E0A21BB30BE40BF50B661F771F881F991F16
S11312F01A9469F760957095809590959B01AC015F
S1131300BD01CF010895A29FB001B39FC001A39F67
S1131310700D811D1124911DB29F700D811D11242A
S1131320911D0895CF93DF938230910510F482E0EC
S113133090E0E0913404F091350420E030E0A0E046
S1131340B0E0309739F14081518148175907B8F01E
S11313504817590771F482819381109729F01396E5
S11313609C938E9312972CC09093350480933404ED
S113137027C02115310531F04217530718F0A90190
S1131380DB0101C0EF019A01BD01DF010280F3819D
S1131390E02DD7CF21153105F9F0281B390B243066
S11313A0310580F48A819B816115710521F0FB016F
S11313B09383828304C09093350480933404FE01A4
S11313C0329644C0FE01E20FF31F819391932250A1
S11313D03109398328833AC020913204309133048F
S11313E0232B41F420910202309103023093330401
S11313F0209332042091000230910102211531051D
S113140041F42DB73EB74091040250910502241BCC
S1131410350BE0913204F0913304E217F307A0F4A2
S11314202E1B3F0B2817390778F0AC014E5F5F4F36
S11314302417350748F04E0F5F1F50933304409331
S113144032048193919302C0E0E0F0E0CF01DF9198
S1131450CF910895CF93DF93009709F487C0FC01DF
S1131460329713821282C0913404D09135042097AC
S113147081F420813181280F391F809132049091A9
S113148033048217930779F5F0933304E09332041D
S11314906DC0DE0120E030E0AE17BF0750F41296B5
S11314A04D915C9113979D014115510509F1DA01A4
S11314B0F3CFB383A28340815181840F951F8A1790
S11314C09B0771F48D919C911197840F951F02963F
S11314D09183808312968D919C9113979383828339
S11314E02115310529F4F0933504E09334043EC00A
S11314F0D9011396FC93EE9312974D915D91A40F2D
S1131500B51FEA17FB0779F480819181840F951F39
S11315100296D90111969C938E938281938113969E
S11315209C938E931297E0E0F0E08A819B81009770
S113153019F0FE01EC01F9CFCE0102962881398120
S1131540820F931F209132043091330428173907F6
S113155069F4309729F4109235041092340402C0CF
S113156013821282D0933304C0933204DF91CF915B
S113157008950F931F93CF93DF93EC018B01009792
S113158031F46115710519F480E090E037C06EE024
S113159070E081E090E063D2FC010097A9F380E859
S11315A083830115110571F01387028781E8838312
S11315B08091360490913704892B21F4F0933704F9
S11315C0E09336042097C9F0D187C0878381826075
S11315D083838091380490913904892B71F4F093BA
S11315E03904E093380480913A0490913B04892BA8
S11315F021F4F0933B04E0933A04CF01DF91CF91BF
S11316001F910F910895CF93DF93CDB7DEB7FE01FD
S1131610369661917191AF018091380490913904AB
S113162030D0DF91CF9108950F931F93CF93DF9321
S1131630E0913804F0913904238121FF1BC0EC01AF
S113164000E010E089916091380470913904DB0165
S11316501896ED91FC911997882331F01995892BEF
S113166089F30FEF1FEFEECF8AE01995892B11F460
S1131670C80102C08FEF9FEFDF91CF911F910F91AF
S113168008952F923F924F925F926F927F928F9222
S11316909F92AF92BF92CF92DF92EF92FF920F93FD
S11316A01F93CF93DF93CDB7DEB72C970FB6F89483
S11316B0DEBF0FBECDBF7C016B018A01FC01178226
S11316C01682838181FFB0C1CE0101964C01F701DE
S11316D09381F60193FD859193FF81916F01882396
S11316E009F49EC1853239F493FD859193FF81916C
S11316F06F01853221F4B70190E0E8D1E8CF512C95
S1131700312C20E02032A0F48B3269F030F48032A6
S113171059F0833269F420612CC08D3239F0803362
S113172039F4216026C02260246023C0286021C0CF
S113173027FD27C030ED380F3A3078F426FF06C075
S1131740FAE05F9E300D1124532E13C08AE0389EB8
S1131750300D1124332E20620CC08E3221F426FD6C
S11317605FC1206406C08C3611F4206802C088363C
S113177041F4F60193FD859193FF81916F018111ED
S1131780C1CF982F9F7D9554933028F40C5F1F4F41
S1131790FFE3F9830DC0833631F0833771F083356D
S11317A009F057C021C0F801808189830E5F1F4F63
S11317B044244394512C540114C03801F2E06F0EB8
S11317C0711CF801A080B18026FF03C0652D70E074
S11317D002C06FEF7FEFC5012C876DD12C0183010F
S11317E02C852F77222E16C03801F2E06F0E711C63
S11317F0F801A080B18026FF03C0652D70E002C00F
S11318006FEF7FEFC5012C8744D12C012C85206814
S1131810222E830123FC19C0832D90E0481659061B
S1131820A0F4B70180E290E051D13A94F5CFF501EC
S113183027FC859127FE81915F01B70190E046D195
S113184031103A94F1E04F1A51084114510479F7D8
S1131850DEC0843611F0893631F5F80127FF07C060
S113186060817181828193810C5F1F4F08C0608108
S11318707181882777FD8095982F0E5F1F4F2F76F3
S1131880B22E97FF09C090958095709561957F4F12
S11318908F4F9F4F2068B22E2AE030E0A40148D138
S11318A0A82EA81843C0853729F42F7EB22E2AE02B
S11318B030E025C0F22FF97FBF2E8F36C1F018F427
S11318C0883579F0ADC0803719F0883721F0A8C089
S11318D02F2F2061B22EB4FE0DC08B2D8460B82E44
S11318E009C024FF0AC09F2F9660B92E06C028E0C5
S11318F030E005C020E130E002C020E132E0F80130
S1131900B7FE07C060817181828193810C5F1F4F94
S113191006C06081718180E090E00E5F1F4FA401DA
S113192007D1A82EA818FB2DFF77BF2EB6FE0BC03B
S11319302B2D2E7FA51450F4B4FE0AC0B2FC08C0AF
S11319402B2D2E7E05C07A2C2B2D03C07A2C01C0A2
S1131950752C24FF0DC0FE01EA0DF11D808180333A
S113196011F4297E09C022FF06C07394739404C045
S1131970822F867809F0739423FD12C020FF06C0DD
S11319805A2C731418F4530C5718732C731460F4F2
S1131990B70180E290E02C8799D073942C85F6CF20
S11319A0731410F4371801C0312C24FF11C0B7018F
S11319B080E390E02C878AD02C8522FF16C021FF7B
S11319C003C088E590E002C088E790E0B7010CC04E
S11319D0822F867851F021FD02C080E201C08BE2A3
S11319E027FD8DE2B70190E071D0A51430F4B70162
S11319F080E390E06BD05A94F8CFAA94F401EA0DF6
S1131A00F11D8081B70190E061D0A110F6CF3320A1
S1131A1009F45DCEB70180E290E058D03A94F7CF54
S1131A20F7018681978102C08FEF9FEF2C960FB646
S1131A30F894DEBF0FBECDBFDF91CF911F910F9100
S1131A40FF90EF90DF90CF90BF90AF909F908F90DA
S1131A507F906F905F904F903F902F9008950F93D9
S1131A601F93CF93DF93869F8001879F100D969FCE
S1131A70100D1124C80156DCEC01009721F0A801D7
S1131A8060E070E011D0CE01DF91CF911F910F91F2
S1131A900895FC010590615070400110D8F78095BD
S1131AA090958E0F9F1F0895DC0101C06D934150E6
S1131AB05040E0F70895FC0161507040019001101E
S1131AC0D8F7809590958E0F9F1F08950F931F93BD
S1131AD0CF93DF93182F092FEB018B8181FD03C076
S1131AE08FEF9FEF20C082FF10C04E815F812C8159
S1131AF03D81421753077CF4E881F9819F012F5FF0
S1131B003F4F39832883108306C0E885F985812FE8
S1131B101995892B29F72E813F812F5F3F4F3F83F2
S1131B202E83812F902FDF91CF911F910F910895D4
S1131B30FA01AA27283051F1203181F1E8946F93FA
S1131B406E7F6E5F7F4F8F4F9F4FAF4FB1E03ED0A0
S1131B50B4E03CD0670F781F891F9A1FA11D680F3E
S1131B60791F8A1F911DA11D6A0F711D811D911D71
S1131B70A11D20D009F468943F912AE0269F1124E6
S1131B803019305D3193DEF6CF010895462F47704A
S1131B90405D4193B3E00FD0C9F7F6CF462F4F70A5
S1131BA0405D4A3318F0495D31FD4052419302D003
S1131BB0A9F7EACFB4E0A6959795879577956795A9
S1131BC0BA95C9F700976105710508959B01AC01A9
S1131BD00A2E06945795479537952795BA95C9F7D0
S1131BE0620F731F841F951FA01D0895F894FFCFE3
S1131BF000003C0420000501012C01F84D657373BD
S1131C00616765206C6F73742061726269747261BC
S1131C1074696F6E005472616E736D697373696F6A
S1131C206E206572726F7220646574656374656496
S1131C300052656365697665206275666665722023
S1131C406F766572666C6F7720666C61672073656A
S1131C5074005472616E736D6974206E6F742063C6
S1131C606F6D706C65746500496E69742063616C96
S1131C706C65642000616363756D756C6174656483
S1131C805F76616C75653D2025640A005265636565
S1131C9069766564206361736520320050617573F1
S1131CA065206973206F66660050617573652069ED
S1131CB073206F6E00506C617965642074696D6582
S1131CC0203D2025640A002573003A004E4F54201D
S1131CD0696E204C4F4F504241434B206D6F6465F9
S1131CE0004C6F6F706261636B20656E61626C653E
S1131CF064004D43503235313520696E206E6F7269
S1131D006D616C206D6F64650052656164206D6364
S1131D107032353135004D435032353135206973D9
S1131D20204E4F5420696E20636F6E66696775722A
S1131D306174696F6E206D6F64652061667465728D
S1131D4020726573657421004D435032353135205E
S1131D506D6F646520616674657220696E69743A9A
S1131D602025640A006D6F746F7220656E61626C69
S1131D706564004D6F746F722064697361626C6591
S1131D80640053657420706C6179696E6720666CB9
S1131D9061673A2025640A00496E2066696E6420F2
S1131DA0656E636F646572206D617800456E636F64
S1131DB06465722076616C75653A2025640A0009B1
S1131DC0456E636F6465722076616C7565323A2086
S1131DD025640A00456E636F646572206D61782026
S10B1DE06973203A2025640018
S9030000FC
