:10000000C2C00000E0C00000DEC00000DCC0000094
:10001000DAC00000D8C00000D6C00000D4C0000084
:10002000D2C00000D0C00000CEC00000CCC0000094
:10003000CAC00000C8C00000C6C00000C4C00000A4
:10004000C2C00000C0C00000BEC00000BCC00000B4
:10005000BAC00000B8C00000B6C00000B4C00000C4
:10006000B2C00000B0C00000AEC00000ACC00000D4
:10007000AAC00000A8C00000A6C00000A4C00000E4
:10008000A2C00000A0C000009EC000009CC00000F4
:100090009AC0000098C0000096C000003CC5000057
:1000A00092C0000090C000008EC000008CC0000014
:1000B0008AC0000088C0000086C0000084C0000024
:1000C00082C0000080C000007EC000007CC0000034
:1000D0007AC0000078C0000076C0000074C0000044
:1000E00072C00000A605F805F805F805F805F80542
:1000F000F805F805A605F805F805F805F805F8056A
:10010000F805F805A805F805F805F805F805F80557
:10011000F805F805F805F805F805F805F805F805F7
:10012000F805F805A805F805F805F805F805F80537
:10013000F805F805F805F805F805F805F805F805D7
:10014000F805F805F405F805F805F805F805F805CB
:10015000F805F805D105F805F805F805F805F805DE
:10016000F805F805F805F805F805F805F805F805A7
:10017000F805F805C505F805F805F805F805F805CA
:10018000F805F805E30511241FBECFEFD1E2DEBF6D
:10019000CDBF00E00CBF13E0A0E0B2E0EAE6F5E17D
:1001A00000E00BBF02C007900D92A03BB107D9F74A
:1001B00023E0A0EBB3E001C01D92AF3EB207E1F730
:1001C00055D10C94B30A1CCFE4E6F0E080818E7F19
:1001D0008083ECE7F0E08081806680838081807698
:1001E0008083EAE7F0E08081806A8083EBE7F0E0DB
:1001F0008081887F80830895EAE7F0E08081806ACB
:10020000808380818064808308958091790008953F
:1002100035D240E664E680E6FFD141E06FEF8BE245
:10022000FBD180E008950CC20895EF92FF920F93E6
:100230001F93CF93DF938C018CE2CAD180FF35C02E
:1002400081E6C6D1C82F82E6C3D12C2F30E0322FF1
:100250002227282B36952795329522952F70232714
:100260003F702327F8013183208385E6B1D1F8015F
:100270008283882399F07801F3E0EF0EF11CC0E04F
:10028000D0E08C2F8A59A4D1F70181937F01219668
:10029000F801828190E0C817D9079CF340E061E043
:1002A0008CE2BAD11092B00304C0F801118210821E
:1002B0001282C801DF91CF911F910F91FF90EF90B3
:1002C000089580E385D185FF05C088E092E069D676
:1002D00091E013C084FF05C081E292E062D692E013
:1002E0000CC0982F907486FF08C08DE392E059D619
:1002F00040E460E48DE290D193E0892F089580E39B
:1003000067D183FF14C08EE592E04BD68091BD0388
:100310008F5F8093BD039091060289130AC040E06D
:1003200068E080E379D11092BD0380E0089581E018
:10033000089580E008951F93CF93DF93EC01DFDFF2
:10034000882301F11881698181E34FD1612F629582
:10035000660F607E82E349D16A8185E346D18A8156
:10036000882361F010E0FE01E10FF11D638186E357
:10037000810F3BD11F5F8A811817A8F381E844D110
:1003800081E007C09EDF91E0811101C090E0892FDC
:100390008195DF91CF911F91089591D38AB18360A8
:1003A0008AB9789408951F93CF93DF93182F83E031
:1003B00090E075D4EC018EE5888319821A8387EC6E
:1003C00090E00197F1F700C0000063E0CE0181D317
:1003D0008FE891E00197F1F700C00000CE01F7D45B
:1003E000DF91CF911F910895EF92FF920F931F938A
:1003F00087E690E026D42FEF89EF90E021508040EF
:100400009040E1F700C0000084E792E0CAD500DF29
:100410000ADFC5D2D9DEF0DE85D257D181E0C8D15E
:10042000E12CF12C87012DEC3CEC4CEC5DE360E021
:1004300070E080E09FE304D21F910F91FF90EF9056
:1004400008958091B3038F5F8093B3031092B1033B
:100450001F928F9381E892E09F938F9391D50F9095
:100460000F900F900F908091B3030895CF93DF9377
:10047000CDB7DEB72B970FB6F894DEBF0FBECDBF5A
:10048000B3DF512CE12CF12C912C312C412C812CFF
:10049000772473940F2EF3E0AF2EB12CF02D6894D7
:1004A000CC24C1F8D12C8091B203811118C0ADDEEB
:1004B000E80EF11C939425E0921211C080E9E81631
:1004C00081E0F8064CF4BDDF8093B3037092B20371
:1004D000E32CF42C982C03C0E32CF42C982C8BE008
:1004E00090E0DDD38C01A1DEF8018081918101973C
:1004F00039F5238130E0878190852184452D50E0B6
:100500002417350751F02130310531F48092B203C0
:100510008092B103572C01C0582C64D1822D90E0F9
:10052000AC01461951099A0122F422273327241BD2
:10053000350B273031051CF06FD2622C01C0622CC4
:100540008091B3038330C0F49091B103911114C032
:10055000BA82A9827B828C83CE010196ECDEEFE326
:10056000FCE93197F1F700C00000813019F4709276
:10057000B10302C08092B103C80129D48091B303B2
:100580008330E0F09091B103911118C0DA82C982F2
:100590007B828C83CE010196CEDEEFE3FCE93197BE
:1005A000F1F700C00000813019F47092B10302C06D
:1005B0008092B1038092B3037092B203FFEF20E701
:1005C00082E0F15020408040E1F700C000006BCF96
:1005D000CF93C82F6ED283E061D28C2F5FD263D2CB
:1005E000C82F6AD28C2FCF910895CF93DF93D82F45
:1005F000C62F5FD282E052D28D2F50D28C2F4ED296
:100600005BD2DF91CF910895CF93C82F52D28C2F18
:1006100045D252D2CF9108951F93CF93DF93182FD5
:10062000D62FC42F46D285E039D2812F37D28D2FD5
:1006300035D28C2F33D240D2DF91CF911F910895C4
:10064000CF93DF931F92CDB7DEB740E060EE8FE02F
:10065000E3DF8EE0BDDF89838981807E29F485EB2D
:1006600092E09FD480E001C081E00F90DF91CF91B4
:1006700008951FD280EC12D21FC20895CF93DF934A
:100680001F92CDB7DEB701D2F4DF8CEC92E089D4B3
:100690008EE09EDF89838981807E803829F089ED14
:1006A00092E07FD481E00DC089811F928F938BE00F
:1006B00093E09F938F9364D40F900F900F900F90BF
:1006C00080E00F90DF91CF91089584EC99E09093B2
:1006D000890080938800E0E8F0E080818064808376
:1006E0008CE080938100EFE6F0E08081826080837F
:1006F0000895823031F4E2E0F1E08081826080830D
:100700000895813029F4E2E0F1E080818D7F8083DB
:100710000895882349F0E2E0F1E0808180618083E0
:1007200088E293E03EC4089586E393E03AD4E2E0A1
:10073000F1E080818F7E80830895882331F0E2E0AC
:10074000F1E080818F7D80830895E2E0F1E0808197
:10075000806280830895CF93DF9381E0EEDFE2E053
:10076000F1E08081877F80838AE68A95F1F700C077
:10077000C09106018081886080838AE68A95F1F7BE
:1007800000C0D091060180E0D8DF8D2F90E09C2B37
:10079000DF91CF910895E2E0F1E080818F7B80834B
:1007A0008AE68A95F1F700C080818064808308958D
:1007B000882339F081E090E09093B5038093B403EF
:1007C00008951092B5031092B403089583382FEF63
:1007D000920714F483E89FEF8E37910514F08DE7AC
:1007E00090E00895CF93DF93EC01B5DF9C019093E7
:1007F000C5038093C4038091BE039091BF03821709
:10080000930718F01C161D0614F0DD23A4F4CE0186
:10081000DDDFEC01DD2324F4882799278C1B9D0B59
:10082000880FC1DD1C161D061CF482E062DF05C0C6
:1008300081E05FDF02C080E0B6DDDF91CF910895F7
:10084000EF92FF920F931F936093D3037093D4039F
:100850008093D5039093D6032093CE033093CF0398
:100860004093D0035093D103E092C003F092C103B0
:100870000093C2031093C3031F910F91FF90EF9059
:10088000089580E693E09F938F937AD382E390E07C
:10089000A9DF2FEF3DE389E4215030408040E1F7AC
:1008A00000C0000080E090E09DDF9FEF23EC39E086
:1008B000915020403040E1F700C000004CDF9F9392
:1008C0008F9384E793E09F938F935AD364DF8EECEA
:1008D0009FEF88DF8FEF9DE329E481509040204017
:1008E000E1F700C0000080E090E07CDF3FEF81EEA8
:1008F00094E0315080409040E1F700C000002BDFD1
:100900009F938F9387E893E09F938F9339D323DF4F
:100910002DB73EB7265F3F4F0FB6F8943EBF0FBED0
:100920002DBF0895E1E0F1E08081806480838081C3
:100930008062808380818061808380818260808307
:100940008081886080831092070127DD81E0F5DED9
:1009500022DF80E028DD81E0DCDE93DF8093BE03D0
:100960009093BF039F938F938CE993E09F938F9312
:1009700007D31092CB031092CA031092D20384E6DD
:1009800090E09093CD038093CC031092C803109213
:10099000C7030F900F900F900F9080E00895E0E94B
:1009A000F0E080818268808380818E7F8083E1E9AE
:1009B000F0E080818B61808380818B7F808388E8F9
:1009C00093E190939700809396006B9A87E791E06C
:1009D00090939900809398001092D8031092D703B7
:1009E0002FEF30E03093DA032093D9038AEF90E0C1
:1009F0009093DE038093DD0344EF51E05093E203D4
:100A00004093E1033093DC032093DB039093E003F6
:100A10008093DF0380E008952091D7033091D803BD
:100A20008217930770F16091D9037091DA03681708
:100A3000790748F18F5F9109AC01992324F4442789
:100A40005527481B590B421B530B2091DF03309154
:100A5000E003429FC001439F900D529F900D1124CF
:100A60006091DB037091DC0300D18091DD039091F4
:100A7000DE03680F791F709399006093980080E0FF
:100A8000089581E0089581E0089587E884B9239866
:100A90002B9A81E58CBD8DB58EB508958EBD0DB4B4
:100AA00007FEFDCF08951EBC0DB407FEFDCF8EB529
:100AB00008952F98289808952F9A289A08958CE0E1
:100AC0008093B8008FEF8093BB0084E08093BC00DC
:100AD0000895ECEBF0E0208120FDFDCF6093B8039A
:100AE000FC0120812093B90320FD0CC0623050F03E
:100AF000DC011196EAEBF3E081E09D9191938F5F29
:100B00008613FBCF1092B70388EF8093070285EA24
:100B10008093BC0008951F920F920FB60F9211247C
:100B20000BB60F922F933F938F939F93AF93BF93E7
:100B3000EF93FF938091B90090E0FC013897E13585
:100B4000F10508F055C0EE58FF4FA3C01092B60350
:100B5000E091B6038091B803E81770F481E08E0F3E
:100B60008093B603F0E0E754FC4F80818093BB0094
:100B700085E88093BC0043C08091B7038160809377
:100B8000B70384E98093BC003AC0E091B60381E0EA
:100B90008E0F8093B6038091BB00F0E0E754FC4FCA
:100BA00080832091B60330E08091B80390E00197F4
:100BB0002817390724F485EC8093BC0020C085E811
:100BC0008093BC001CC08091BB00E091B603F0E0B4
:100BD000E754FC4F80838091B70381608093B70313
:100BE00084E98093BC000BC085EA8093BC0007C0F9
:100BF0008091B9008093070284E08093BC00FF914C
:100C0000EF91BF91AF919F918F913F912F910F9055
:100C10000BBE0F900FBE0F901F901895E0ECF0E008
:100C2000908195FFFDCF8093C60080E090E008950D
:100C3000E0ECF0E080818823ECF78091C60090E042
:100C400008959093C5008093C40088E18093C1000B
:100C50008EE08093C20068E176E08EE096E046D1B7
:100C60009093E4038093E3030895AA1BBB1B51E117
:100C700007C0AA1FBB1FA617B70710F0A61BB70B0C
:100C8000881F991F5A95A9F780959095BC01CD01B1
:100C90000895EE0FFF1F0590F491E02D1994CF9366
:100CA000DF938230910510F482E090E0E091E70359
:100CB000F091E80320E030E0A0E0B0E0309739F1B7
:100CC0004081518148175907B8F04817590771F406
:100CD00082819381109729F013969C938E9312979B
:100CE0002CC09093E8038093E70327C021153105BA
:100CF00031F04217530718F0A901DB0101C0EF01E1
:100D00009A01BD01DF010280F381E02DD7CF2115CB
:100D10003105F9F0281B390B2430310580F48A8124
:100D20009B816115710521F0FB019383828304C0CF
:100D30009093E8038093E703FE01329644C0FE01DE
:100D4000E20FF31F81939193225031093983288355
:100D50003AC02091E5033091E603232B41F4209122
:100D60000202309103023093E6032093E5032091C1
:100D70000002309101022115310541F42DB73EB733
:100D80004091040250910502241B350BE091E503CC
:100D9000F091E603E217F307A0F42E1B3F0B281790
:100DA000390778F0AC014E5F5F4F2417350748F0E4
:100DB0004E0F5F1F5093E6034093E5038193919399
:100DC00002C0E0E0F0E0CF01DF91CF910895CF9332
:100DD000DF93009709F487C0FC01329713821282D7
:100DE000C091E703D091E803209781F420813181FD
:100DF000280F391F8091E5039091E603821793072E
:100E000079F5F093E603E093E5036DC0DE0120E0A1
:100E100030E0AE17BF0750F412964D915C911397D6
:100E20009D014115510509F1DA01F3CFB383A28386
:100E300040815181840F951F8A179B0771F48D9112
:100E40009C911197840F951F02969183808312962F
:100E50008D919C911397938382832115310529F4F9
:100E6000F093E803E093E7033EC0D9011396FC93A7
:100E7000EE9312974D915D91A40FB51FEA17FB07F2
:100E800079F480819181840F951F0296D901119682
:100E90009C938E938281938113969C938E93129749
:100EA000E0E0F0E08A819B81009719F0FE01EC01FF
:100EB000F9CFCE01029628813981820F931F2091AC
:100EC000E5033091E6032817390769F4309729F4D0
:100ED0001092E8031092E70302C013821282D093AB
:100EE000E603C093E503DF91CF9108950F931F931D
:100EF000CF93DF93EC018B01009731F461157105FD
:100F000019F480E090E037C06EE070E081E090E09E
:100F100063D2FC010097A9F380E8838301151105D2
:100F200071F01387028781E883838091E9039091B0
:100F3000EA03892B21F4F093EA03E093E903209775
:100F4000C9F0D187C0878381826083838091EB035E
:100F50009091EC03892B71F4F093EC03E093EB0395
:100F60008091ED039091EE03892B21F4F093EE0331
:100F7000E093ED03CF01DF91CF911F910F91089581
:100F8000CF93DF93CDB7DEB7FE01369661917191B5
:100F9000AF018091EB039091EC0330D0DF91CF91C2
:100FA00008950F931F93CF93DF93E091EB03F0919C
:100FB000EC03238121FF1BC0EC0100E010E08991CC
:100FC0006091EB037091EC03DB011896ED91FC91BD
:100FD0001997882331F01995892B89F30FEF1FEFAB
:100FE000EECF8AE01995892B11F4C80102C08FEF6A
:100FF0009FEFDF91CF911F910F9108952F923F9214
:101000004F925F926F927F928F929F92AF92BF9218
:10101000CF92DF92EF92FF920F931F93CF93DF93C4
:10102000CDB7DEB72C970FB6F894DEBF0FBECDBF9D
:101030007C016B018A01FC0117821682838181FF8A
:10104000B0C1CE0101964C01F7019381F60193FDE9
:10105000859193FF81916F01882309F49EC18532A8
:1010600039F493FD859193FF81916F01853221F4CD
:10107000B70190E0E8D1E8CF512C312C20E02032AC
:10108000A0F48B3269F030F4803259F0833269F485
:1010900020612CC08D3239F0803339F4216026C0B4
:1010A0002260246023C0286021C027FD27C030EDC6
:1010B000380F3A3078F426FF06C0FAE05F9E300D14
:1010C0001124532E13C08AE0389E300D1124332E84
:1010D00020620CC08E3221F426FD5FC1206406C060
:1010E0008C3611F4206802C0883641F4F60193FD75
:1010F000859193FF81916F018111C1CF982F9F7DC1
:101100009554933028F40C5F1F4FFFE3F9830DC013
:10111000833631F0833771F0833509F057C021C031
:10112000F801808189830E5F1F4F44244394512C22
:10113000540114C03801F2E06F0E711CF801A08058
:10114000B18026FF03C0652D70E002C06FEF7FEF16
:10115000C5012C876DD12C0183012C852F77222E80
:1011600016C03801F2E06F0E711CF801A080B1804A
:1011700026FF03C0652D70E002C06FEF7FEFC50151
:101180002C8744D12C012C852068222E830123FC3E
:1011900019C0832D90E048165906A0F4B70180E2EB
:1011A00090E051D13A94F5CFF50127FC859127FEC7
:1011B00081915F01B70190E046D131103A94F1E09E
:1011C0004F1A51084114510479F7DEC0843611F0EA
:1011D000893631F5F80127FF07C06081718182816E
:1011E00093810C5F1F4F08C060817181882777FD54
:1011F0008095982F0E5F1F4F2F76B22E97FF09C054
:1012000090958095709561957F4F8F4F9F4F206887
:10121000B22E2AE030E0A40148D1A82EA81843C07D
:10122000853729F42F7EB22E2AE030E025C0F22F38
:10123000F97FBF2E8F36C1F018F4883579F0ADC034
:10124000803719F0883721F0A8C02F2F2061B22EE7
:10125000B4FE0DC08B2D8460B82E09C024FF0AC0D7
:101260009F2F9660B92E06C028E030E005C020E12F
:1012700030E002C020E132E0F801B7FE07C0608133
:101280007181828193810C5F1F4F06C060817181E3
:1012900080E090E00E5F1F4FA40107D1A82EA81890
:1012A000FB2DFF77BF2EB6FE0BC02B2D2E7FA51476
:1012B00050F4B4FE0AC0B2FC08C02B2D2E7E05C02F
:1012C0007A2C2B2D03C07A2C01C0752C24FF0DC065
:1012D000FE01EA0DF11D8081803311F4297E09C0E1
:1012E00022FF06C07394739404C0822F867809F09D
:1012F000739423FD12C020FF06C05A2C731418F4F7
:10130000530C5718732C731460F4B70180E290E00B
:101310002C8799D073942C85F6CF731410F437185A
:1013200001C0312C24FF11C0B70180E390E02C876D
:101330008AD02C8522FF16C021FF03C088E590E0EB
:1013400002C088E790E0B7010CC0822F867851F088
:1013500021FD02C080E201C08BE227FD8DE2B701D2
:1013600090E071D0A51430F4B70180E390E06BD029
:101370005A94F8CFAA94F401EA0DF11D8081B701C7
:1013800090E061D0A110F6CF332009F45DCEB70113
:1013900080E290E058D03A94F7CFF70186819781A8
:1013A00002C08FEF9FEF2C960FB6F894DEBF0FBEF2
:1013B000CDBFDF91CF911F910F91FF90EF90DF9004
:1013C000CF90BF90AF909F908F907F906F905F90E5
:1013D0004F903F902F9008950F931F93CF93DF93DB
:1013E000869F8001879F100D969F100D1124C801C4
:1013F00056DCEC01009721F0A80160E070E011D00C
:10140000CE01DF91CF911F910F910895FC010590BE
:10141000615070400110D8F7809590958E0F9F1FF6
:101420000895DC0101C06D9341505040E0F70895EC
:10143000FC016150704001900110D8F780959095A3
:101440008E0F9F1F08950F931F93CF93DF93182F35
:10145000092FEB018B8181FD03C08FEF9FEF20C02F
:1014600082FF10C04E815F812C813D81421753075E
:101470007CF4E881F9819F012F5F3F4F39832883F6
:10148000108306C0E885F985812F1995892B29F7E6
:101490002E813F812F5F3F4F3F832E83812F902FDF
:1014A000DF91CF911F910F910895FA01AA2728305B
:1014B00051F1203181F1E8946F936E7F6E5F7F4F21
:1014C0008F4F9F4FAF4FB1E03ED0B4E03CD0670F9D
:1014D000781F891F9A1FA11D680F791F8A1F911DF0
:1014E000A11D6A0F711D811D911DA11D20D009F440
:1014F00068943F912AE0269F11243019305D319382
:10150000DEF6CF010895462F4770405D4193B3E06A
:101510000FD0C9F7F6CF462F4F70405D4A3318F011
:10152000495D31FD4052419302D0A9F7EACFB4E0C2
:10153000A6959795879577956795BA95C9F700977A
:101540006105710508959B01AC010A2E069457951B
:10155000479537952795BA95C9F7620F731F841F72
:0A156000951FA01D0895F894FFCF19
:10156A000000EF03200005F84D657373616765207D
:10157A006C6F7374206172626974726174696F6EE0
:10158A00005472616E736D697373696F6E20657250
:10159A00726F722064657465637465640052656372
:1015AA006569766520627566666572206F76657212
:1015BA00666C6F7720666C6167207365740054727D
:1015CA00616E736D6974206E6F7420636F6D706CD9
:1015DA0065746500496E69742063616C6C6564208A
:1015EA000053636F72652069733A2025640A004EBE
:1015FA004F5420696E204C4F4F504241434B206D4F
:10160A006F6465004C6F6F706261636B20656E6119
:10161A00626C6564004D43503235313520696E2065
:10162A006E6F726D616C206D6F64650052656164E6
:10163A00206D637032353135004D435032353135C6
:10164A00206973204E4F5420696E20636F6E66695D
:10165A006775726174696F6E206D6F64652061666B
:10166A0074657220726573657421004D435032357A
:10167A003135206D6F646520616674657220696E0C
:10168A0069743A2025640A006D6F746F7220656E62
:10169A0061626C6564004D6F746F72206469736176
:1016AA00626C65640054696D65722074726967675B
:1016BA006572656420696E74657272757074200053
:1016CA00496E2066696E6420656E636F6465722078
:1016DA006D617800456E636F6465722076616C7522
:1016EA00653A2025640A0009456E636F64657220B5
:1016FA0076616C7565323A2025640A00456E636F1F
:10170A00646572206D6178206973203A202564002F
:00000001FF
