S01500004279676765726E5F6E6F6465322E737265630A
S1130000C2C00000E0C00000DEC00000DCC0000090
S1130010DAC00000D8C00000D6C00000D4C0000080
S1130020D2C00000D0C00000CEC00000CCC0000090
S1130030CAC00000C8C00000C6C00000C4C00000A0
S1130040C2C00000C0C00000BEC00000BCC00000B0
S1130050BAC00000B8C00000B6C00000B4C00000C0
S1130060B2C00000B0C00000AEC00000ACC00000D0
S1130070AAC00000A8C00000A6C00000A4C00000E0
S1130080A2C00000A0C000009EC000009CC00000F0
S11300909AC0000098C0000096C0000086C6000008
S11300A092C0000090C000008EC000008CC0000010
S11300B08AC0000088C0000086C0000084C0000020
S11300C082C0000080C000007EC000007CC0000030
S11300D07AC0000078C0000076C0000074C0000040
S11300E072C0000004077207720772077207720772
S11300F072077207040772077207720772077207A2
S1130100720772070607720772077207720772078F
S11301107207720772077207720772077207720713
S1130120720772070607720772077207720772076F
S113013072077207720772077207720772077207F3
S1130140720772076C0772077207720772077207E9
S1130150720772073D077207720772077207720708
S113016072077207720772077207720772077207C3
S1130170720772072D0772077207720772077207F8
S113018072077207550711241FBECFEFD1E2DEBFFD
S1130190CDBF00E00CBF13E0A0E0B2E0E0E3FBE180
S11301A000E00BBF02C007900D92AC36B107D9F73F
S11301B023E0ACE6B3E001C01D92A039B207E1F739
S11301C096D10C94960D1CCFCF93DF93CDB7DEB7A9
S11301D084E690E024E630E0F90120812E7FFC01E2
S11301E020838CE790E02CE730E0F9012081206641
S11301F0FC0120838CE790E02CE730E0F9012081BA
S11302002076FC0120838AE790E02AE730E0F901B8
S11302102081206AFC0120838BE790E02BE730E00B
S1130220F9012081287FFC012083DF91CF9108957B
S1130230CF93DF93CDB7DEB78AE790E02AE730E0CB
S1130240F9012081206AFC0120838AE790E02AE7F3
S113025030E0F90120812064FC012083DF91CF91FB
S11302600895CF93DF93CDB7DEB789E790E0FC0123
S11302708081DF91CF910895CF93DF93CDB7DEB71F
S11302808BD340E664E680E60DD441E06FEF8BE269
S113029009D480E0DF91CF910895CF93DF93CDB758
S11302A0DEB7ABD3DF91CF910895CF93DF93CDB772
S11302B0DEB727970FB6F894DEBF0FBECDBF9F837E
S11302C08E83EED0882309F43EC08E819F81FC0189
S11302D0808191819B838A838A818C838C8182959E
S11302E0880F807E8C838A819B81892F99278D83B7
S11302F06D8181E3B4D36C8182E3B1D38E819F811C
S1130300FC018281682F85E3AAD3198211C08981F7
S1130310882F90E02E813F81820F931F0396FC016A
S1130320908189818A5C692F9AD389818F5F8983BF
S11303308E819F81FC0192818981891740F381E834
S1130340A3D381E006C074D0882311F08FEF01C0DD
S113035080E027960FB6F894DEBF0FBECDBFDF91C5
S1130360CF9108950F931F93CF93DF93CDB7DEB74B
S11303702F970FB6F894DEBF0FBECDBF8CE25AD3D1
S1130380882F90E081709927009709F441C081E695
S113039051D3882F90E0182F002782E64BD3882F63
S11303A090E0802B912B9C838B838B819C819695F1
S11303B08795929582958F7089279F7089279E8350
S11303C08D8385E637D38F831A82198212C089817F
S11303D08A5930D3482F9E01285F3F4F89819A81E3
S11303E0820F931FFC01408389819A8101969A832D
S11303F089838F81282F30E089819A81821793071E
S113040034F340E061E08CE24DD310926C0303C0FE
S11304101E821D821F82CE0105962F960FB6F89478
S1130420DEBF0FBECDBFDF91CF911F910F91089515
S1130430CF93DF931F92CDB7DEB780E3FBD28983DE
S11304408981882F90E080729927009731F088E0A5
S113045092E00E94B40A81E01FC08981882F90E055
S113046080719927009731F081E292E00E94B40AEA
S113047082E012C08981882F90E0807499270097C8
S113048051F08DE392E00E94B40A40E460E48DE20E
S113049009D383E001C080E00F90DF91CF910895EC
S11304A0CF93DF93CDB7DEB780E3C4D2882F90E03B
S11304B0887099270097B9F08EE592E00E94B40AFB
S11304C0809177038F5F8093770390917703809176
S11304D00602981731F440E068E080E3E3D210921A
S11304E0770380E001C081E0DF91CF910895CF933D
S11304F0DF93CDB7DEB7C754D1090FB6F894DEBF8A
S11305000FBECDBF02D219821E821B821A821886A8
S11305101F821C8282E3898780916E03882341F5C0
S1130520A0DE8E838E81882F90E02A813B81820F0A
S1130530931F9B838A8389818F5F89838981853017
S1130540B9F419828A819B8125E030E0B90171D622
S1130550CB0198878F831B821A828F81988580357F
S1130560910534F418861F82EAD180936D030AD270
S11305708BE090E077D69B878A87F4DE9B878A8717
S11305808A859B85FC0180819181009719F489E912
S113059092E0EAD78A859B85FC0180819181813034
S11305A0910509F090C08A859B85FC018381282FE1
S11305B030E0CE01805C9F4FFC01318320838A852B
S11305C09B85FC018481282F30E0CE018E5B9F4FF8
S11305D0FC01318320838A859B85FC018581282F3A
S11305E030E0CE018C5B9F4FFC01318320838A85F0
S11305F09B85FC0186818C878A859B85FC0187818C
S1130600882F90E0382F22278A859B85FC018085DE
S1130610882F90E0822B932B9E878D878A859B85DC
S1130620FC0181858987CE01805C9F4FFC0120817C
S113063031818C81882F90E02817390739F4CE0155
S1130640805C9F4FFC011182108201C01C82CE018C
S1130650805C9F4FFC01808191818130910559F428
S1130660CE01805C9F4FFC01808191818C8310922C
S11306706E0310926F038E858F938D858F9384EA1A
S113068092E0892F8F9384EA92E08F935CD70F9046
S11306900F900F900F908985282F30E08D81882F3F
S11306A090E0A901481B590BCA0199231CF49195A8
S11306B0819591098730910524F08985882F90E0F0
S11306C08DD289858D8380916D03833008F087C036
S11306D080916F03882309F082C083E090E09EA795
S11306E08DA781E08FA780916D0388ABCE018D9695
S11306F0DCDD8F8780E090E0A0E2B1E4898B9A8B07
S1130700AB8BBC8B20E030E04AE753E469897A89FB
S11307108B899C8917D5DC01CB018D8B9E8BAF8B8C
S1130720B88F20E030E040E85FE36D897E898F89EF
S1130730988D5FD488232CF481E090E09A8F898F80
S11307403BC020E03FEF4FE757E46D897E898F89F6
S1130750988DF4D418163CF520E030E040E251E4E2
S113076069897A898B899C89EDD4DC01CB01BC0130
S1130770CD0143D4DC01CB019A8F898F0FC089E16D
S113078090E09C8F8B8F8B8D9C8D0197F1F79C8FC4
S11307908B8F898D9A8D01979A8F898F898D9A8DE8
S11307A0009769F713C06D897E898F89988D25D448
S11307B0DC01CB019A8F898F898D9A8D9E8F8D8FC5
S11307C08D8D9E8D0197F1F79E8F8D8F8F85813052
S11307D021F481E080936F0302C010926F038A8535
S11307E09B85D8D580916D03833008F48DC08091AA
S11307F06F03882309F088C082E090E09EA78DA74C
S113080081E08FA780916D0388ABCE018D964DDD7D
S1130810888B80E090E0A0E2B1E48F8F98A3A9A335
S1130820BAA320E030E04AE753E46F8D78A189A1B0
S11308309AA188D4DC01CB018BA39CA3ADA3BEA356
S113084020E030E040E85FE36BA17CA18DA19EA194
S1130850D0D388232CF481E090E098A78FA33BC0E9
S113086020E03FEF4FE757E46BA17CA18DA19EA14F
S113087065D418163CF520E030E040E251E46F8D79
S113088078A189A19AA15ED4DC01CB01BC01CD0180
S1130890B4D3DC01CB0198A78FA30FC089E190E00A
S11308A09AA789A789A59AA50197F1F79AA789A775
S11308B08FA198A5019798A78FA38FA198A50097BA
S11308C069F713C06BA17CA18DA19EA196D3DC0115
S11308D0CB0198A78FA38FA198A59CA78BA78BA5C5
S11308E09CA50197F1F79CA78BA78889813021F4F7
S11308F081E080936F0302C010926F0310926D0326
S113090081E080936E0308CE07CECF93DF931F92CE
S11309101F92CDB7DEB787E690E09A8389838981F9
S11309209A8100D38BEA92E01FD6A6DCB6DCDDD038
S11309304BDC7EDC0F900F90DF91CF910895CF9325
S1130940DF93CDB7DEB780916D038F5F80936D0326
S113095010926F0380916D03882F90E0292F2F93BD
S11309608F9388EB92E0892F8F9388EB92E08F939B
S1130970EAD50F900F900F900F9080916D03DF9147
S1130980CF910895CF93DF93CDB7DEB781E0809305
S11309906E03DF91CF910895CF93DF931F92CDB76C
S11309A0DEB774D197D082ED92E0DED58EE042D0EE
S11309B089838981882F90E0807E992780389105EA
S11309C029F08FED92E0D0D581E013C08981882F82
S11309D090E0292F2F938F9381E193E0892F8F93B8
S11309E081E193E08F93AFD50F900F900F900F900C
S11309F080E00F90DF91CF910895CF93DF931F9202
S1130A00CDB7DEB740E060EE8FE04CD08EE012D080
S1130A1089838981882F90E0807E9927009711F03F
S1130A2081E004C084E593E09FD580E00F90DF91DE
S1130A30CF910895CF93DF931F921F92CDB7DEB766
S1130A408A8381D183E053D18A8151D166D189834C
S1130A5093D189810F900F90DF91CF910895CF9317
S1130A60DF931F921F92CDB7DEB789836A836BD160
S1130A7082E03DD189813BD18A8139D17DD10F90EA
S1130A800F90DF91CF910895CF93DF931F92CDB74D
S1130A90DEB7898358D189812AD16ED10F90DF9135
S1130AA0CF910895CF93DF9300D0CDB7DEB789837C
S1130AB06A834B8348D185E01AD1898118D18A8110
S1130AC016D18B8114D158D10F900F900F90DF91D4
S1130AD0CF910895CF93DF93CDB7DEB734D180ECB7
S1130AE006D14AD1DF91CF910895CF93DF93CDB74B
S1130AF0DEB780E990E020E930E0F9012081226846
S1130B00FC01208380E990E020E930E0F9012081B4
S1130B102E7FFC01208381E990E021E930E0F90196
S1130B2020812B61FC01208381E990E021E930E000
S1130B30F90120812B7FFC01208386E990E028E8DD
S1130B4033E1FC01318320838DE290E02DE230E03B
S1130B50F90120812860FC01208388E990E027E7DF
S1130B6031E0FC01318320831092790310927803E1
S1130B708FEF90E090937B0380937A038AEF90E069
S1130B8090937F0380937E0384EF91E0909383039B
S1130B908093820320917A0330917B0380917803C0
S1130BA090917903A901481B590BCA0190937D03C5
S1130BB080937C03209182033091830380917E0390
S1130BC090917F03F901E81BF90BCF019093810306
S1130BD08093800380E0DF91CF910895CF93DF93DA
S1130BE000D000D0CDB7DEB79C838B838B819C81F2
S1130BF08F5F910999231CF49195819591099A83AA
S1130C0089832B813C818091780390917903281703
S1130C10390790F12B813C8180917A0390917B0379
S1130C208217930748F128E930E049815A8180917D
S1130C30780390917903BA01681B790B4091800382
S1130C4050918103649FC001659F900D749F900D26
S1130C50112440917C0350917D03BA01D6D2CB017B
S1130C60AC0180917E0390917F03840F951FF9015D
S1130C709183808380E001C081E026960FB6F894CA
S1130C80DEBF0FBECDBFDF91CF910895CF93DF9329
S1130C901F921F92CDB7DEB784E290E027E8FC01F3
S1130CA0208384E290E024E230E0F9012081277F70
S1130CB0FC01208385E290E025E230E0F901208107
S1130CC02860FC0120838CE490E021E5FC01208372
S1130CD08DE490E0FC01808189838EE490E0FC0146
S1130CE080818A830F900F90DF91CF910895CF93E5
S1130CF0DF931F92CDB7DEB789838EE490E029811C
S1130D00FC01208300008DE490E0FC0180818823B5
S1130D10D4F70F90DF91CF910895CF93DF93CDB7A0
S1130D20DEB78EE490E0FC01108200008DE490E0D8
S1130D30FC0180818823D4F78EE490E0FC0180815B
S1130D40DF91CF910895CF93DF93CDB7DEB785E2DE
S1130D5090E025E230E0F90120812F77FC01208327
S1130D6085E290E025E230E0F90120812E7FFC014C
S1130D702083DF91CF910895CF93DF93CDB7DEB772
S1130D8085E290E025E230E0F90120812068FC0151
S1130D90208385E290E025E230E0F90120812160A2
S1130DA0FC012083DF91CF9108951F920F92009050
S1130DB05F000F92112400905B000F922F933F93DA
S1130DC04F935F938F939F93AF93BF93EF93FF934F
S1130DD0CF93DF93CDB7DEB789EB90E0FC01808140
S1130DE0882F90E0AA2797FDA095BA2F48E050E0FD
S1130DF020E530E0841B950B2817390708F472C0EE
S1130E008E589F4FFC0128C210927603909176036E
S1130E10809174039817B0F48BEB90E020917603E3
S1130E2031E0320F30937603222F30E020593C4FCB
S1130E30F9012081FC0120838CEB90E025E8FC0182
S1130E4020835BC0809175038160809375038CEB74
S1130E5090E024E9FC01208350C08091760391E066
S1130E60980F90937603882F90E02BEB30E0F901F4
S1130E70208180599C4FFC01208380917603282F88
S1130E8030E080917403882F90E001972817390788
S1130E9034F48CEB90E025ECFC0120832EC08CEB29
S1130EA090E025E8FC01208328C080917603882FF8
S1130EB090E02BEB30E0F901208180599C4FFC013C
S1130EC02083809175038160809375038CEB90E09F
S1130ED024E9FC01208311C08CEB90E025EAFC019D
S1130EE020830BC089EB90E0FC0180818093070292
S1130EF08CEB90E024E0FC012083DF91CF91FF9103
S1130F00EF91BF91AF919F918F915F914F913F91DD
S1130F102F910F9000925B000F9000925F000F9052
S1130F201F901895CF93DF931F921F92CDB7DEB712
S1130F309A83898385EC90E029813A81232F332792
S1130F40FC01208384EC90E02981FC01208381EC66
S1130F5090E028E1FC01208382EC90E02EE0FC018B
S1130F6020836FED77E08FEB97E0A3D29093850316
S1130F70809384030F900F90DF91CF910895CF93C6
S1130F80DF9300D0CDB7DEB789837B836A8300000B
S1130F9080EC90E0FC018081882F90E0807299279A
S1130FA00097B1F386EC90E02981FC01208380E076
S1130FB090E00F900F900F90DF91CF910895CF9311
S1130FC0DF931F921F92CDB7DEB79A838983000007
S1130FD080EC90E0FC0180818823D4F786EC90E0DB
S1130FE0FC018081882F90E00F900F90DF91CF91CA
S1130FF008952FD008F481E008957FD088F09F579A
S113100090F0B92F9927B751A0F0D1F0660F771F50
S1131010881F991F1AF0BA95C9F712C0B13081F030
S113102086D0B1E0089583C0672F782F8827B85FF2
S113103039F0B93FCCF3869577956795B395D9F791
S11310403EF490958095709561957F4F8F4F9F4F9B
S11310500895990F0008550FAA0BE0E8FEEF161645
S11310601706E807F907C0F012161306E407F50798
S113107098F0621B730B840B950B39F40A2661F00C
S1131080232B242B252B21F408950A2609F4A140AF
S1131090A6958FEF811D811D089597F99F6780E8BC
S11310A070E060E008959FEF80EC089500240A94B6
S11310B01616170618060906089500240A9412162F
S11310C01306140605060895092E0394000C11F462
S11310D0882352F0BB0F40F4BF2B11F460FF04C00F
S11310E06F5F7F4F8F4F9F4F089557FD9058440F68
S11310F0551F59F05F3F71F04795880F97FB991F73
S113110061F09F3F79F0879508951216130614062F
S1131110551FF2CF4695F1DF08C0161617061806BC
S1131120991FF1CF86957105610508940895E89497
S1131130BB2766277727CB0197F908958ADF08F440
S11311408FEF08950BD0C0CFB1DF28F0B6DF18F0D1
S1131150952309F0A2CFA7CF1124EACFC6DFA0F3CD
S1131160959FD1F3950F50E0551F629FF001729F38
S1131170BB27F00DB11D639FAA27F00DB11DAA1F57
S1131180649F6627B00DA11D661F829F2227B00DA4
S1131190A11D621F739FB00DA11D621F839FA00D2F
S11311A0611D221F749F3327A00D611D231F849F7F
S11311B0600D211D822F762F6A2F11249F575040D6
S11311C08AF0E1F088234AF0EE0FFF1FBB1F661F71
S11311D0771F881F91505040A9F79E3F510570F02A
S11311E05CCFA6CF5F3FECF3983EDCF38695779512
S11311F06795B795F795E7959F5FC1F7FE2B880F25
S1131200911D9695879597F90895AA1BBB1B51E1EB
S113121007C0AA1FBB1FA617B70710F0A61BB70B62
S1131220881F991F5A95A9F780959095BC01CD0107
S1131230089597FB072E16F4009406D077FD08D086
S1131240E4DF07FC05D03EF4909581959F4F089507
S1131250709561957F4F0895EE0FFF1F0590F491EF
S1131260E02D1994CF93DF938230910510F482E03E
S113127090E0E0918803F091890320E030E0A0E061
S1131280B0E0309739F14081518148175907B8F0DF
S11312904817590771F482819381109729F01396A6
S11312A09C938E9312972CC0909389038093880308
S11312B027C02115310531F04217530718F0A90151
S11312C0DB0101C0EF019A01BD01DF010280F3815E
S11312D0E02DD7CF21153105F9F0281B390B243027
S11312E0310580F48A819B816115710521F0FB0130
S11312F09383828304C09093890380938803FE01BF
S1131300329644C0FE01E20FF31F81939193225061
S11313103109398328833AC02091860330918703A9
S1131320232B41F42091020230910302309387036E
S1131330209386032091000230910102211531058A
S113134041F42DB73EB74091040250910502241B8D
S1131350350BE0918603F0918703E217F307A0F4BD
S11313602E1B3F0B2817390778F0AC014E5F5F4FF7
S11313702417350748F04E0F5F1F5093870340939F
S113138086038193919302C0E0E0F0E0CF01DF9106
S1131390CF910895CF93DF93009709F487C0FC01A0
S11313A0329713821282C0918803D09189032097C7
S11313B081F420813181280F391F80918603909117
S11313C087038217930779F5F0938703E0938603E5
S11313D06DC0DE0120E030E0AE17BF0750F4129676
S11313E04D915C9113979D014115510509F1DA0165
S11313F0F3CFB383A28340815181840F951F8A1751
S11314009B0771F48D919C911197840F951F0296FF
S11314109183808312968D919C91139793838283F9
S11314202115310529F4F0938903E09388033EC024
S1131430D9011396FC93EE9312974D915D91A40FED
S1131440B51FEA17FB0779F480819181840F951FFA
S11314500296D90111969C938E938281938113965F
S11314609C938E931297E0E0F0E08A819B81009731
S113147019F0FE01EC01F9CFCE01029628813981E1
S1131480820F931F20918603309187032817390711
S113149069F4309729F4109289031092880302C0EA
S11314A013821282D0938703C0938603DF91CF9176
S11314B008950F931F93CF93DF93EC018B01009753
S11314C031F46115710519F480E090E037C06EE0E5
S11314D070E081E090E063D2FC010097A9F380E81A
S11314E083830115110571F01387028781E88383D3
S11314F080918A0390918B03892B21F4F0938B03C1
S1131500E0938A032097C9F0D187C08783818260E2
S1131510838380918C0390918D03892B71F4F093D4
S11315208D03E0938C0380918E0390918F03892B1C
S113153021F4F0938F03E0938E03CF01DF91CF91D9
S11315401F910F910895CF93DF93CDB7DEB7FE01BE
S1131550369661917191AF0180918C0390918D03C6
S113156030D0DF91CF9108950F931F93CF93DF93E2
S1131570E0918C03F0918D03238121FF1BC0EC01CA
S113158000E010E0899160918C0370918D03DB0180
S11315901896ED91FC911997882331F01995892BB0
S11315A089F30FEF1FEFEECF8AE01995892B11F421
S11315B0C80102C08FEF9FEFDF91CF911F910F9170
S11315C008952F923F924F925F926F927F928F92E3
S11315D09F92AF92BF92CF92DF92EF92FF920F93BE
S11315E01F93CF93DF93CDB7DEB72C970FB6F89444
S11315F0DEBF0FBECDBF7C016B018A01FC011782E7
S11316001682838181FFB0C1CE0101964C01F7019E
S11316109381F60193FD859193FF81916F01882356
S113162009F49EC1853239F493FD859193FF81912C
S11316306F01853221F4B70190E0E8D1E8CF512C55
S1131640312C20E02032A0F48B3269F030F4803267
S113165059F0833269F420612CC08D3239F0803323
S113166039F4216026C02260246023C0286021C090
S113167027FD27C030ED380F3A3078F426FF06C036
S1131680FAE05F9E300D1124532E13C08AE0389E79
S1131690300D1124332E20620CC08E3221F426FD2D
S11316A05FC1206406C08C3611F4206802C08836FD
S11316B041F4F60193FD859193FF81916F018111AE
S11316C0C1CF982F9F7D9554933028F40C5F1F4F02
S11316D0FFE3F9830DC0833631F0833771F083352E
S11316E009F057C021C0F801808189830E5F1F4F24
S11316F044244394512C540114C03801F2E06F0E79
S1131700711CF801A080B18026FF03C0652D70E034
S113171002C06FEF7FEFC5012C876DD12C018301CF
S11317202C852F77222E16C03801F2E06F0E711C23
S1131730F801A080B18026FF03C0652D70E002C0CF
S11317406FEF7FEFC5012C8744D12C012C852068D5
S1131750222E830123FC19C0832D90E048165906DC
S1131760A0F4B70180E290E051D13A94F5CFF501AD
S113177027FC859127FE81915F01B70190E046D156
S113178031103A94F1E04F1A51084114510479F799
S1131790DEC0843611F0893631F5F80127FF07C021
S11317A060817181828193810C5F1F4F08C06081C9
S11317B07181882777FD8095982F0E5F1F4F2F76B4
S11317C0B22E97FF09C090958095709561957F4FD3
S11317D08F4F9F4F2068B22E2AE030E0A40148D1F9
S11317E0A82EA81843C0853729F42F7EB22E2AE0EC
S11317F030E025C0F22FF97FBF2E8F36C1F018F4E8
S1131800883579F0ADC0803719F0883721F0A8C049
S11318102F2F2061B22EB4FE0DC08B2D8460B82E04
S113182009C024FF0AC09F2F9660B92E06C028E085
S113183030E005C020E130E002C020E132E0F801F0
S1131840B7FE07C060817181828193810C5F1F4F55
S113185006C06081718180E090E00E5F1F4FA4019B
S113186007D1A82EA818FB2DFF77BF2EB6FE0BC0FC
S11318702B2D2E7FA51450F4B4FE0AC0B2FC08C070
S11318802B2D2E7E05C07A2C2B2D03C07A2C01C063
S1131890752C24FF0DC0FE01EA0DF11D80818033FB
S11318A011F4297E09C022FF06C07394739404C006
S11318B0822F867809F0739423FD12C020FF06C09E
S11318C05A2C731418F4530C5718732C731460F4B3
S11318D0B70180E290E02C8799D073942C85F6CFE1
S11318E0731410F4371801C0312C24FF11C0B70150
S11318F080E390E02C878AD02C8522FF16C021FF3C
S113190003C088E590E002C088E790E0B7010CC00E
S1131910822F867851F021FD02C080E201C08BE263
S113192027FD8DE2B70190E071D0A51430F4B70122
S113193080E390E06BD05A94F8CFAA94F401EA0DB6
S1131940F11D8081B70190E061D0A110F6CF332062
S113195009F45DCEB70180E290E058D03A94F7CF15
S1131960F7018681978102C08FEF9FEF2C960FB607
S1131970F894DEBF0FBECDBFDF91CF911F910F91C1
S1131980FF90EF90DF90CF90BF90AF909F908F909B
S11319907F906F905F904F903F902F9008950F939A
S11319A01F93CF93DF93869F8001879F100D969F8F
S11319B0100D1124C80156DCEC01009721F0A80198
S11319C060E070E011D0CE01DF91CF911F910F91B3
S11319D00895FC010590615070400110D8F780957E
S11319E090958E0F9F1F0895DC0101C06D934150A7
S11319F05040E0F70895FC016150704001900110DF
S1131A00D8F7809590958E0F9F1F08950F931F937D
S1131A10CF93DF93182F092FEB018B8181FD03C036
S1131A208FEF9FEF20C082FF10C04E815F812C8119
S1131A303D81421753077CF4E881F9819F012F5FB0
S1131A403F4F39832883108306C0E885F985812FA9
S1131A501995892B29F72E813F812F5F3F4F3F83B3
S1131A602E83812F902FDF91CF911F910F91089595
S1131A70FA01AA27283051F1203181F1E8946F93BB
S1131A806E7F6E5F7F4F8F4F9F4FAF4FB1E03ED061
S1131A90B4E03CD0670F781F891F9A1FA11D680FFF
S1131AA0791F8A1F911DA11D6A0F711D811D911D32
S1131AB0A11D20D009F468943F912AE0269F1124A7
S1131AC03019305D3193DEF6CF010895462F47700B
S1131AD0405D4193B3E00FD0C9F7F6CF462F4F7066
S1131AE0405D4A3318F0495D31FD4052419302D0C4
S1131AF0A9F7EACFB4E0A69597958795779567956A
S1131B00BA95C9F700976105710508959B01AC0169
S1131B100A2E06945795479537952795BA95C9F790
S1131B20620F731F841F951FA01D0895F894FFCFA3
S1131B3000009003200005F84D657373616765200C
S1131B406C6F7374206172626974726174696F6E10
S1131B50005472616E736D697373696F6E20657280
S1131B60726F7220646574656374656400526563A2
S1131B706569766520627566666572206F76657242
S1131B80666C6F7720666C616720736574005472AD
S1131B90616E736D6974206E6F7420636F6D706C09
S1131BA065746500496E2066696E6420656E636FB6
S1131BB0646572206D6178004865686500486568F1
S1131BC06532004865686533006E6F206D65737318
S1131BD061676500583A2025640A00496E697420DB
S1131BE063616C6C6564200053636F726520697374
S1131BF03A2025640A00496E206D792064656C6181
S1131C00790052656164206D637032353135004D61
S1131C10435032353135206973204E4F5420696E5C
S1131C2020636F6E66696775726174696F6E206D8B
S1131C306F646520616674657220726573657421D2
S1131C40004D435032353135206D6F646520616637
S1131C5074657220696E69743A2025640A004E4FD7
S1131C605420696E204C4F4F504241434B206D6FBE
S1131C706465004C6F6F706261636B20656E6162B6
S1131C806C6564004D43503235313520696E206EE9
S10F1C906F726D616C206D6F6465000064
S9030000FC
