S01500004279676765726E5F6E6F6465322E737265630A
S113000071C000008EC000008CC000008AC00000D7
S113001088C000008DC1000084C0000082C00000C0
S113002080C000007EC000007CC000007AC00000D8
S113003078C0000076C0000074C0000072C00000E8
S113004070C000006EC000006CC000006AC00000F8
S113005068C0000066C0000064C0000062C0000008
S113006060C000005EC000005CC000005AC0000018
S113007058C0000056C0000054C0000052C0000028
S113008050C000004EC000004CC000004AC0000038
S113009048C0000046C0000044C0000042C0000048
S11300A040C000003EC000003CC000003AC0000058
S11300B038C0000036C0000034C0000032C0000068
S11300C030C000002EC000002CC000002AC0000078
S11300D028C0000026C0000024C0000022C0000088
S11300E020C0000011241FBECFEFD1E2DEBFCDBF80
S11300F000E00CBF13E0A0E0B2E0ECEBF0E100E0C4
S11301000BBF02C007900D92A23FB107D9F724E0BC
S1130110A2EFB3E001C01D92AB32B207E1F764D1A4
S1130120CBC76ECFE4E6F0E080818E7F8083ECE77E
S1130130F0E0808180668083808180768083EAE736
S1130140F0E08081806A8083EBE7F0E08081887F43
S113015080830895EAE7F0E08081806A808380816B
S113016080648083089580917900089559D240E68F
S113017064E680E623D241E06FEF8BE21FD2EC9A73
S1130180EAE6F0E080818260808380818E7F8083D4
S1130190789480E0089526C20895EF92FF920F9319
S11301A01F93CF93DF93CDB7DEB72B970FB6F89499
S11301B0DEBF0FBECDBF8091F2038823A9F181E693
S11301C0D9D1182F82E6D6D1212F30E0322F222721
S11301D0282B36952795329522952F7023273F702B
S11301E023273A83298385E6C5D18B83882399F015
S11301F07E0184E0E80EF11C00E010E086E6800F4A
S1130200B9D1F70181937F010F5F1F4F8B8190E07C
S1130210081719079CF340E061E08CE2CFD180918C
S1130220F20381508093F203CE0101962B960FB610
S1130230F894DEBF0FBECDBFDF91CF911F910F9118
S1130240FF90EF9008958091F203089580E392D196
S113025085FF05C088E092E026D391E013C084FFB7
S113026005C081E292E01FD392E00CC0982F9074F5
S113027086FF08C08DE392E016D340E460E48DE28B
S11302809DD193E0892F089580E374D183FF14C036
S11302908EE592E008D38091F4038F5F8093F4039A
S11302A09091060289130AC040E068E080E386D199
S11302B01092F40380E0089581E0089580E00895A9
S11302C01F93CF93DF93EC01DFDF882301F11881C3
S11302D0698181E35CD1612F6295660F607E82E360
S11302E056D16A8185E353D18A81882361F010E075
S11302F0FE01E10FF11D638186E3810F48D11F5F89
S11303008A811817A8F381E851D181E00DC09EDFDE
S1130310882349F084E792E09F938F93B3D20F90A0
S11303200F908FEF01C080E0DF91CF911F9108956E
S11303301F920F920FB60F9211240BB60F922F93A8
S11303403F934F935F936F937F938F939F93AF9359
S1130350BF93EF93FF93CF93DF931F92CDB7DEB795
S11303608CE208D1898389818570853041F440E02D
S113037064E08CE223D140E061E08CE21FD189810A
S1130380882324F440E060E88CE218D140E061E086
S11303908CE214D18091F2038F5F8093F2030F906B
S11303A0DF91CF91FF91EF91BF91AF919F918F9189
S11303B07F916F915F914F913F912F910F900BBE61
S11303C00F900FBE0F901F90189587E690E0E8D12C
S11303D0CDDEE1DE4CD1A6DEBDCE08958091F303DF
S11303E08F5F8093F3030895CF93DF93CDB7DEB788
S11303F02B970FB6F894DEBF0FBECDBFE6DF00E04B
S113040010E0312C0F2EF5EA6F2EF2E07F2EF02D46
S11304100F2EF4EC4F2EF2E05F2EF02D22C0A3DE5F
S1130420080F111D339425E032121BC01F930F9344
S1130430ADE8B2E0BF93AF9325D20F900F900F9029
S11304400F90043F114054F4C9DF8093F30381E01B
S11304508093070200E010E0312C03C000E010E0BC
S1130460312C809107028823D1F2EDDE8823C9F371
S113047094DE2BE0FC01A8E0B4E001900D922A95F3
S1130480E1F78091080490910904019751F5ACE0DB
S1130490B4E0EC90F12CEDE0F4E0A080B12CAEE0FF
S11304A0B4E02C90EFE0F4E0C080D12CDC2CCC2420
S11304B0A0E1B4E08C91C82AE1E1F4E08080912CC1
S11304C0982C8824A2E1B4E08C91882AB1E0AB1680
S11304D0B10411F410920702882799278C199D09F9
S11304E007D1EAE0F4E080811F928F93E8E0F4E022
S11304F081818F9380818F937F926F92C3D19F92DA
S11305008F92DF92CF92E22DF0E0EE0FFF1FE15BBE
S1130510FC4F81818F9380818F93BF92AF92FF9222
S1130520EF92FF92EF925F924F92ACD18091F303DE
S11305300FB6F894DEBF0FBECDBF833008F491CF61
S1130540A2E0B0E0BA83A98391E09B838C83CE01BF
S11305500196B6DEE3EDF0E33197F1F700C0000059
S1130560813021F486E293E09ED17BCF8DE293E04B
S11305709AD177CFCF93C82FFAD083E0EDD08C2FC8
S1130580EBD0EFD0C82FF6D08C2FCF910895CF9316
S1130590DF93D82FC62FEBD082E0DED08D2FDCD0B6
S11305A08C2FDAD0E7D0DF91CF910895CF93C82F65
S11305B0DED08C2FD1D0DED0CF9108951F93CF936E
S11305C0DF93182FD62FC42FD2D085E0C5D0812F2A
S11305D0C3D08D2FC1D08C2FBFD0CCD0DF91CF9181
S11305E01F910895CF93DF931F92CDB7DEB740E0FC
S11305F060EE8FE0E3DF8EE0BDDF89838981807E5A
S113060029F48FE793E04FD180E001C081E00F909F
S1130610DF91CF910895ABD080EC9ED0ABC008950C
S1130620CF93DF931F92CDB7DEB78DD0F4DF86E989
S113063093E039D18EE09EDF89838981807E803882
S113064029F083EA93E02FD181E00DC089811F92C4
S11306508F9385ED93E09F938F9314D10F900F9018
S11306600F900F9080E00F90DF91CF910895E0E913
S1130670F0E080818268808380818E7F8083E1E9DD
S1130680F0E080818B61808380818B7F808388E828
S113069093E190939700809396006B9A87E791E09B
S11306A090939900809398008CE99FEF90931404A1
S11306B08093130484E690E09093160480931504C9
S11306C08AEF90E090931A048093190424EF31E0A8
S11306D030931E0420931D0428EC30E0309318045A
S11306E02093170490931C0480931B0480E00895C6
S11306F09C012C593F4F293C310518F520911304D6
S113070030911404AC01421B530B20911B04309113
S11307101C04429FC001439F900D529F900D1124D1
S113072060911704709118044FD08091190490912E
S11307301A04680F791F709399006093980080E001
S1130740089581E0089587E884B923982B9A81E578
S11307508CBD8DB58EB508958EBD0DB407FEFDCF4D
S113076008951EBC0DB407FEFDCF8EB508952F98D5
S1130770289808952F9A289A0895E0ECF0E0908143
S113078095FFFDCF8093C60080E090E00895E0ECF3
S1130790F0E080818823ECF78091C60090E0089512
S11307A09093C5008093C40088E18093C1008EE0DB
S11307B08093C20067EC73E08DEB93E019D09093C3
S11307C0200480931F040895AA1BBB1B51E107C09A
S11307D0AA1FBB1FA617B70710F0A61BB70B881FCD
S11307E0991F5A95A9F780959095BC01CD0108955C
S11307F00F931F93CF93DF93EC018B01009731F498
S11308006115710519F480E090E037C06EE070E086
S113081081E090E063D2FC010097A9F380E8838330
S11308200115110571F01387028781E88383809194
S1130830210490912204892B21F4F0932204E09363
S113084021042097C9F0D187C08783818260838384
S11308508091230490912404892B71F4F09324044F
S1130860E09323048091250490912604892B21F49C
S1130870F0932604E0932504CF01DF91CF911F91DB
S11308800F910895CF93DF93CDB7DEB7FE0136966F
S113089061917191AF01809123049091240430D02F
S11308A0DF91CF9108950F931F93CF93DF93E0913E
S11308B02304F0912404238121FF1BC0EC0100E0F8
S11308C010E089916091230470912404DB0118964F
S11308D0ED91FC911997882331F01995892B89F3AF
S11308E00FEF1FEFEECF8AE01995892B11F4C801A1
S11308F002C08FEF9FEFDF91CF911F910F91089569
S11309002F923F924F925F926F927F928F929F921B
S1130910AF92BF92CF92DF92EF92FF920F931F9309
S1130920CF93DF93CDB7DEB72C970FB6F894DEBF25
S11309300FBECDBF7C016B018A01FC0117821682B8
S1130940838181FFB0C1CE0101964C01F7019381EF
S1130950F60193FD859193FF81916F01882309F43A
S11309609EC1853239F493FD859193FF81916F0186
S1130970853221F4B70190E00FD3E8CF512C312C0C
S113098020E02032A0F48B3269F030F4803259F048
S1130990833269F420612CC08D3239F0803339F40C
S11309A0216026C02260246023C0286021C027FD66
S11309B027C030ED380F3A3078F426FF06C0FAE04D
S11309C05F9E300D1124532E13C08AE0389E300DE3
S11309D01124332E20620CC08E3221F426FD5FC117
S11309E0206406C08C3611F4206802C0883641F4B5
S11309F0F60193FD859193FF81916F018111C1CF20
S1130A00982F9F7D9554933028F40C5F1F4FFFE37C
S1130A10F9830DC0833631F0833771F0833509F0E3
S1130A2057C021C0F801808189830E5F1F4F442481
S1130A304394512C540114C03801F2E06F0E711C20
S1130A40F801A080B18026FF03C0652D70E002C0CC
S1130A506FEF7FEFC5012C8794D22C0183012C8585
S1130A602F77222E16C03801F2E06F0E711CF801A8
S1130A70A080B18026FF03C0652D70E002C06FEF37
S1130A807FEFC5012C876BD22C012C852068222E88
S1130A90830123FC19C0832D90E048165906A0F465
S1130AA0B70180E290E078D23A94F5CFF50127FCC3
S1130AB0859127FE81915F01B70190E06DD23110DD
S1130AC03A94F1E04F1A51084114510479F7DEC009
S1130AD0843611F0893631F5F80127FF07C06081AB
S1130AE07181828193810C5F1F4F08C06081718185
S1130AF0882777FD8095982F0E5F1F4F2F76B22E93
S1130B0097FF09C090958095709561957F4F8F4FA1
S1130B109F4F2068B22E2AE030E0A4016FD2A82EA5
S1130B20A81843C0853729F42F7EB22E2AE030E07E
S1130B3025C0F22FF97FBF2E8F36C1F018F4883507
S1130B4079F0ADC0803719F0883721F0A8C02F2F75
S1130B502061B22EB4FE0DC08B2D8460B82E09C066
S1130B6024FF0AC09F2F9660B92E06C028E030E00B
S1130B7005C020E130E002C020E132E0F801B7FE18
S1130B8007C060817181828193810C5F1F4F06C011
S1130B906081718180E090E00E5F1F4FA4012ED22E
S1130BA0A82EA818FB2DFF77BF2EB6FE0BC02B2D49
S1130BB02E7FA51450F4B4FE0AC0B2FC08C02B2D3D
S1130BC02E7E05C07A2C2B2D03C07A2C01C0752CE7
S1130BD024FF0DC0FE01EA0DF11D8081803311F464
S1130BE0297E09C022FF06C07394739404C0822F27
S1130BF0867809F0739423FD12C020FF06C05A2C96
S1130C00731418F4530C5718732C731460F4B7014D
S1130C1080E290E02C87C0D173942C85F6CF7314B6
S1130C2010F4371801C0312C24FF11C0B70180E340
S1130C3090E02C87B1D12C8522FF16C021FF03C080
S1130C4088E590E002C088E790E0B7010CC0822FED
S1130C50867851F021FD02C080E201C08BE227FDBD
S1130C608DE2B70190E098D1A51430F4B70180E388
S1130C7090E092D15A94F8CFAA94F401EA0DF11DB0
S1130C808081B70190E088D1A110F6CF332009F418
S1130C905DCEB70180E290E07FD13A94F7CFF701BF
S1130CA08681978102C08FEF9FEF2C960FB6F89440
S1130CB0DEBF0FBECDBFDF91CF911F910F91FF908B
S1130CC0EF90DF90CF90BF90AF909F908F907F90E8
S1130CD06F905F904F903F902F9008950F931F93C4
S1130CE0CF93DF93869F8001879F100D969F100DF1
S1130CF01124C8010DD0EC01009721F0A80160E097
S1130D0070E038D1CE01DF91CF911F910F910895FA
S1130D10CF93DF938230910510F482E090E0E0916C
S1130D202904F0912A0420E030E0A0E0B0E03097FC
S1130D3039F14081518148175907B8F048175907CC
S1130D4071F482819381109729F013969C938E936A
S1130D5012972CC090932A048093290427C021154C
S1130D60310531F04217530718F0A901DB0101C026
S1130D70EF019A01BD01DF010280F381E02DD7CF9D
S1130D8021153105F9F0281B390B2430310580F485
S1130D908A819B816115710521F0FB019383828314
S1130DA004C090932A0480932904FE01329644C01F
S1130DB0FE01E20FF31F819391932250310939838D
S1130DC028833AC02091270430912804232B41F42E
S1130DD020910202309103023093280420932704C7
S1130DE020910002309101022115310541F42DB703
S1130DF03EB74091040250910502241B350BE0914B
S1130E002704F0912804E217F307A0F42E1B3F0BEC
S1130E102817390778F0AC014E5F5F4F2417350768
S1130E2048F04E0F5F1F509328044093270481938A
S1130E30919302C0E0E0F0E0CF01DF91CF910895FB
S1130E40CF93DF93009709F487C0FC013297138294
S1130E501282C0912904D0912A04209781F4208120
S1130E603181280F391F809127049091280482171B
S1130E70930779F5F0932804E09327046DC0DE010D
S1130E8020E030E0AE17BF0750F412964D915C910C
S1130E9013979D014115510509F1DA01F3CFB3838D
S1130EA0A28340815181840F951F8A179B0771F497
S1130EB08D919C911197840F951F02969183808345
S1130EC012968D919C9113979383828321153105FA
S1130ED029F4F0932A04E09329043EC0D90113961F
S1130EE0FC93EE9312974D915D91A40FB51FEA17F1
S1130EF0FB0779F480819181840F951F0296D901B3
S1130F0011969C938E938281938113969C938E93D6
S1130F101297E0E0F0E08A819B81009719F0FE01CE
S1130F20EC01F9CFCE01029628813981820F931FFB
S1130F3020912704309128042817390769F4309741
S1130F4029F410922A041092290402C013821282F6
S1130F50D0932804C0932704DF91CF910895FC0116
S1130F600590615070400110D8F7809590958E0FD0
S1130F709F1F0895DC0101C06D9341505040E0F77C
S1130F800895FC016150704001900110D8F78095DC
S1130F9090958E0F9F1F08950F931F93CF93DF9308
S1130FA0182F092FEB018B8181FD03C08FEF9FEF79
S1130FB020C082FF10C04E815F812C813D81421789
S1130FC053077CF4E881F9819F012F5F3F4F3983F8
S1130FD02883108306C0E885F985812F1995892B0C
S1130FE029F72E813F812F5F3F4F3F832E83812F2F
S1130FF0902FDF91CF911F910F910895FA01AA27A5
S1131000283051F1203181F1E8946F936E7F6E5F47
S11310107F4F8F4F9F4FAF4FB1E03ED0B4E03CD0F5
S1131020670F781F891F9A1FA11D680F791F8A1FD8
S1131030911DA11D6A0F711D811D911DA11D20D03F
S113104009F468943F912AE0269F11243019305DF9
S11310503193DEF6CF010895462F4770405D4193EA
S1131060B3E00FD0C9F7F6CF462F4F70405D4A3337
S113107018F0495D31FD4052419302D0A9F7EACFFF
S1131080B4E0A6959795879577956795BA95C9F72E
S113109000976105710508959B01AC010A2E069421
S11310A05795479537952795BA95C9F7620F731FDA
S10F10B0841F951FA01D0895F894FFCF25
S11310BC00002B04200005014D65737361676520E6
S11310CC6C6F7374206172626974726174696F6E8F
S11310DC005472616E736D697373696F6E206572FF
S11310EC726F722064657465637465640052656321
S11310FC6569766520627566666572206F766572C1
S113110C666C6F7720666C6167207365740054722B
S113111C616E736D6974206E6F7420636F6D706C87
S113112C6574650043414E204D455353414745205A
S113113C53454E44204641494C4544210061636368
S113114C756D756C617465645F76616C75653D2055
S113115C2564200A005265636569766564206461C0
S113116C74613A2069643A202564206C656E3A20D7
S113117C25640A006C65667420627574746F6E3A2B
S113118C202564202C20726967687420627574743D
S113119C6F6E3A202564202C206A6F79737469630E
S11311AC6B20627574746F6E3A2025642C2064690C
S11311BC72656374696F6E3A2025732C20782061F4
S11311CC7869733A2025642C207920617869733A04
S11311DC202564200A0053656E7421200066616921
S11311EC6C656400555000444F574E004C454654B2
S11311FC005249474854004E45555452414C003412
S113120C0337033C03410347034E4F5420696E20BC
S113121C4C4F4F504241434B206D6F6465004C6FF3
S113122C6F706261636B20656E61626C6564004D06
S113123C43503235313520696E206E6F726D616C9E
S113124C206D6F64650052656164206D6370323586
S113125C3135004D435032353135206973204E4FB2
S113126C5420696E20636F6E666967757261746968
S113127C6F6E206D6F646520616674657220726593
S113128C73657421004D435032353135206D6F64D4
S113129C6520616674657220696E69743A202564F0
S10512AC0A0032
S9030000FC
