S01500004279676765726E5F6E6F6465322E737265630A
S113000071C000008EC000008CC000008AC00000D7
S113001088C0000048C1000084C0000082C0000005
S113002080C000007EC000007CC000007AC00000D8
S113003078C0000076C0000074C0000072C00000E8
S113004070C000006EC000006CC000006AC00000F8
S113005068C0000066C0000064C0000062C0000008
S113006060C000005EC000005CC000005AC0000018
S113007058C0000056C0000054C0000052C0000028
S113008050C000004EC000004CC000004AC0000038
S113009048C0000046C0000044C0000042C0000048
S11300A040C000003EC000003CC000003AC0000058
S11300B038C0000036C0000034C0000032C0000068
S11300C030C000002EC000002CC000002AC0000078
S11300D028C0000026C0000024C0000022C0000088
S11300E020C0000011241FBECFEFD1E2DEBFCDBF80
S11300F000E00CBF13E0A0E0B2E0E0EDFEE000E0C1
S11301000BBF02C007900D92A83BB107D9F723E0BB
S1130110A8EBB3E001C01D92A33EB207E1F71AD1E8
S1130120D5C66ECF07D240E664E680E6D1D141E081
S11301306FEF8BE2CDD1EC9AEAE6F0E08081826049
S1130140808380818E7F8083789480E00895D4C1F9
S11301500895EF92FF920F931F93CF93DF93CDB740
S1130160DEB72B970FB6F894DEBF0FBECDBF8091DC
S1130170B803882371F181E687D1182F82E684D1F0
S1130180212F30E0322F2227282B207E3A83298307
S113019085E67AD18B83882399F07E0184E0E80E8A
S11301A0F11C00E010E086E6800F6ED1F701819328
S11301B07F010F5F1F4F8B8190E0081719079CF395
S11301C040E061E08CE284D18091B8038150809357
S11301D0B803CE0101962B960FB6F894DEBF0FBE7E
S11301E0CDBFDF91CF911F910F91FF90EF900895B4
S11301F08091B8030895CF9380E346D1C82FC0728D
S113020085FF05C086E092E058D291E008C0982F9F
S1130210907184FF04C08FE192E04FD29C2F892F0C
S1130220CF91089580E330D183FF05C08BE392E042
S113023044D280E0089581E008951F93CF93DF9323
S1130240EC01F0DF8823F1F01881698181E329D181
S1130250612F607E82E325D16A8185E322D18A8180
S1130260882361F010E0FE01E10FF11D638186E354
S1130270810F17D11F5F8A811817A8F381E820D155
S113028081E00DC0B8DF882349F081E592E09F93B7
S11302908F9302D20F900F908FEF01C080E0DF9117
S11302A0CF911F9108951F920F920FB60F921124B0
S11302B00BB60F922F933F934F935F936F937F935C
S11302C08F939F93AF93BF93EF93FF93CF93DF935A
S11302D01F92CDB7DEB78CE2D7D089838981813074
S11302E029F440E061E08CE2F3D00CC08981857090
S11302F0853041F440E064E08CE2EAD040E061E023
S11303008CE2E6D08981882324F440E060E88CE222
S1130310DFD08091B8038F5F8093B8030F90DF9193
S1130320CF91FF91EF91BF91AF919F918F917F9169
S11303306F915F914F913F912F910F900BBE0F9052
S11303400FBE0F901F90189587E690E047D1EADE24
S1130350FECE0895CF93DF93CDB7DEB72B970FB6BC
S1130360F894DEBF0FBECDBFEFDF0F2EFBE02F2EC4
S1130370F02D0F2EF0ED6F2EF3E07F2EF02D0F2ECB
S1130380FAE6AF2EF2E0BF2EF02D0F2EF9E8CF2EB5
S1130390F2E0DF2EF02D0F2EF4E68F2E912CF02DAF
S11303A027DF8823E9F3D5DEFC01ACECB3E0822D32
S11303B001900D928A95E1F7F3015080E1EDF3E0AD
S11303C04080E2EDF3E03080E3EDF3E0008110E003
S11303D0102F0027E4EDF3E08081082BE5EDF3E036
S11303E0E080F12CFE2CEE24E6EDF3E08081E82A97
S11303F0EEECF3E080811F928F93ACECB3E01196A6
S11304008C9111978F938C918F93BF92AF9244D11B
S1130410FF92EF921F930F93E32DF0E0EE0FFF1F77
S1130420EC5EFC4F81818F9380818F931F924F925A
S11304301F925F921F925F92DF92CF922DD19A8288
S1130440898288E08B831C8285E08D838AE08E8399
S11304508FE08F8384E1888789E189878EE18A87A9
S113046083E28B87CE010196E8DE0FB6F894DEBFF7
S11304700FBECDBF813021F48BEE92E01ED190CF20
S113048082EF92E01AD18CCFCF93C82F8ED083E025
S113049081D08C2F7FD083D0C82F8AD08C2FCF913E
S11304A00895CF93DF93D82FC62F7FD082E072D0E8
S11304B08D2F70D08C2F6ED07BD0DF91CF9108958B
S11304C0CF93C82F72D08C2F65D072D0CF9108955E
S11304D01F93CF93DF93182FD62FC42F66D085E0B8
S11304E059D0812F57D08D2F55D08C2F53D060D019
S11304F0DF91CF911F910895CF93DF931F92CDB7D2
S1130500DEB740E060EE8FE0E3DF8EE0BDDF89839D
S11305108981807E29F484E493E0CFD080E001C017
S113052081E00F90DF91CF9108953FD080EC32D0DD
S11305303FC00895CF93DF931F92CDB7DEB721D08C
S1130540F4DF8BE593E0B9D08EE09EDF8983898167
S1130550807E803829F088E693E0AFD081E00DC03A
S113056089811F928F938AE993E09F938F9394D00C
S11305700F900F900F900F9080E00F90DF91CF912C
S1130580089587E884B923982B9A81E58CBD8DB5AD
S11305908EB508958EBD0DB407FEFDCF08951EBC23
S11305A00DB407FEFDCF8EB508952F9828980895B1
S11305B02F9A289A0895E0ECF0E0908195FFFDCF02
S11305C08093C60080E090E00895E0ECF0E0808144
S11305D08823ECF78091C60090E008959093C500BD
S11305E08093C40088E18093C1008EE08093C200B0
S11305F065EE72E08BED92E005D09093D803809382
S1130600D70308950F931F93CF93DF93EC018B01CE
S1130610009731F46115710519F480E090E037C05A
S11306206EE070E081E090E063D2FC010097A9F3F2
S113063080E883830115110571F01387028781E82F
S113064083838091D9039091DA03892B21F4F09369
S1130650DA03E093D9032097C9F0D187C087838157
S1130660826083838091DB039091DC03892B71F496
S1130670F093DC03E093DB038091DD039091DE03D0
S1130680892B21F4F093DE03E093DD03CF01DF91A6
S1130690CF911F910F910895CF93DF93CDB7DEB71C
S11306A0FE01369661917191AF018091DB039091C7
S11306B0DC0330D0DF91CF9108950F931F93CF9334
S11306C0DF93E091DB03F091DC03238121FF1BC066
S11306D0EC0100E010E089916091DB037091DC0390
S11306E0DB011896ED91FC911997882331F0199547
S11306F0892B89F30FEF1FEFEECF8AE01995892B31
S113070011F4C80102C08FEF9FEFDF91CF911F91C9
S11307100F9108952F923F924F925F926F927F9222
S11307208F929F92AF92BF92CF92DF92EF92FF92FD
S11307300F931F93CF93DF93CDB7DEB72C970FB6EC
S1130740F894DEBF0FBECDBF7C016B018A01FC01B2
S113075017821682838181FFB0C1CE0101964C01BC
S1130760F7019381F60193FD859193FF81916F01C8
S1130770882309F49EC1853239F493FD859193FF52
S113078081916F01853221F4B70190E00FD3E8CF56
S1130790512C312C20E02032A0F48B3269F030F45B
S11307A0803259F0833269F420612CC08D3239F0E3
S11307B0803339F4216026C02260246023C028607D
S11307C021C027FD27C030ED380F3A3078F426FFDA
S11307D006C0FAE05F9E300D1124532E13C08AE048
S11307E0389E300D1124332E20620CC08E3221F439
S11307F026FD5FC1206406C08C3611F4206802C057
S1130800883641F4F60193FD859193FF81916F0140
S11308108111C1CF982F9F7D9554933028F40C5F9C
S11308201F4FFFE3F9830DC0833631F0833771F036
S1130830833509F057C021C0F801808189830E5F98
S11308401F4F44244394512C540114C03801F2E046
S11308506F0E711CF801A080B18026FF03C0652DC6
S113086070E002C06FEF7FEFC5012C8794D22C019A
S113087083012C852F77222E16C03801F2E06F0EEB
S1130880711CF801A080B18026FF03C0652D70E0C3
S113089002C06FEF7FEFC5012C876BD22C012C8532
S11308A02068222E830123FC19C0832D90E0481672
S11308B05906A0F4B70180E290E078D23A94F5CFDB
S11308C0F50127FC859127FE81915F01B70190E036
S11308D06DD231103A94F1E04F1A51084114510489
S11308E079F7DEC0843611F0893631F5F80127FF37
S11308F007C060817181828193810C5F1F4F08C0A2
S113090060817181882777FD8095982F0E5F1F4F36
S11309102F76B22E97FF09C09095809570956195BA
S11309207F4F8F4F9F4F2068B22E2AE030E0A40102
S11309306FD2A82EA81843C0853729F42F7EB22E73
S11309402AE030E025C0F22FF97FBF2E8F36C1F0A8
S113095018F4883579F0ADC0803719F0883721F064
S1130960A8C02F2F2061B22EB4FE0DC08B2D846041
S1130970B82E09C024FF0AC09F2F9660B92E06C066
S113098028E030E005C020E130E002C020E132E0A0
S1130990F801B7FE07C060817181828193810C5F89
S11309A01F4F06C06081718180E090E00E5F1F4F91
S11309B0A4012ED2A82EA818FB2DFF77BF2EB6FEB9
S11309C00BC02B2D2E7FA51450F4B4FE0AC0B2FC2C
S11309D008C02B2D2E7E05C07A2C2B2D03C07A2C1B
S11309E001C0752C24FF0DC0FE01EA0DF11D8081AC
S11309F0803311F4297E09C022FF06C073947394D6
S1130A0004C0822F867809F0739423FD12C020FF5E
S1130A1006C05A2C731418F4530C5718732C7314FF
S1130A2060F4B70180E290E02C87C0D173942C85E8
S1130A30F6CF731410F4371801C0312C24FF11C001
S1130A40B70180E390E02C87B1D12C8522FF16C03A
S1130A5021FF03C088E590E002C088E790E0B70179
S1130A600CC0822F867851F021FD02C080E201C0C3
S1130A708BE227FD8DE2B70190E098D1A51430F404
S1130A80B70180E390E092D15A94F8CFAA94F4018C
S1130A90EA0DF11D8081B70190E088D1A110F6CF55
S1130AA0332009F45DCEB70180E290E07FD13A941F
S1130AB0F7CFF7018681978102C08FEF9FEF2C96C5
S1130AC00FB6F894DEBF0FBECDBFDF91CF911F915B
S1130AD00F91FF90EF90DF90CF90BF90AF909F90D9
S1130AE08F907F906F905F904F903F902F900895DC
S1130AF00F931F93CF93DF93869F8001879F100DE1
S1130B00969F100D1124C8010DD0EC01009721F01F
S1130B10A80160E070E038D1CE01DF91CF911F9140
S1130B200F910895CF93DF938230910510F482E002
S1130B3090E0E091E103F091E20320E030E0A0E0F6
S1130B40B0E0309739F14081518148175907B8F026
S1130B504817590771F482819381109729F01396ED
S1130B609C938E9312972CC09093E2038093E1039D
S1130B7027C02115310531F04217530718F0A90198
S1130B80DB0101C0EF019A01BD01DF010280F381A5
S1130B90E02DD7CF21153105F9F0281B390B24306E
S1130BA0310580F48A819B816115710521F0FB0177
S1130BB09383828304C09093E2038093E103FE0154
S1130BC0329644C0FE01E20FF31F819391932250A9
S1130BD03109398328833AC02091DF033091E0033F
S1130BE0232B41F420910202309103023093E0035D
S1130BF02093DF0320910002309101022115310579
S1130C0041F42DB73EB74091040250910502241BD4
S1130C10350BE091DF03F091E003E217F307A0F452
S1130C202E1B3F0B2817390778F0AC014E5F5F4F3E
S1130C302417350748F04E0F5F1F5093E00340938D
S1130C40DF038193919302C0E0E0F0E0CF01DF91F4
S1130C50CF910895CF93DF93009709F487C0FC01E7
S1130C60329713821282C091E103D091E20320975C
S1130C7081F420813181280F391F8091DF03909105
S1130C80E0038217930779F5F093E003E093DF0321
S1130C906DC0DE0120E030E0AE17BF0750F41296BD
S1130CA04D915C9113979D014115510509F1DA01AC
S1130CB0F3CFB383A28340815181840F951F8A1798
S1130CC09B0771F48D919C911197840F951F029647
S1130CD09183808312968D919C9113979383828341
S1130CE02115310529F4F093E203E093E1033EC0BA
S1130CF0D9011396FC93EE9312974D915D91A40F35
S1130D00B51FEA17FB0779F480819181840F951F41
S1130D100296D90111969C938E93828193811396A6
S1130D209C938E931297E0E0F0E08A819B81009778
S1130D3019F0FE01EC01F9CFCE0102962881398128
S1130D40820F931F2091DF033091E00328173907A6
S1130D5069F4309729F41092E2031092E10302C07F
S1130D6013821282D093E003C093DF03DF91CF910B
S1130D700895FC010590615070400110D8F78095EA
S1130D8090958E0F9F1F0895DC0101C06D93415013
S1130D905040E0F70895FC0161507040019001104B
S1130DA0D8F7809590958E0F9F1F08950F931F93EA
S1130DB0CF93DF93182F092FEB018B8181FD03C0A3
S1130DC08FEF9FEF20C082FF10C04E815F812C8186
S1130DD03D81421753077CF4E881F9819F012F5F1D
S1130DE03F4F39832883108306C0E885F985812F16
S1130DF01995892B29F72E813F812F5F3F4F3F8320
S1130E002E83812F902FDF91CF911F910F91089501
S1130E10FA01AA27283051F1203181F1E8946F9327
S1130E206E7F6E5F7F4F8F4F9F4FAF4FB1E03ED0CD
S1130E30B4E03CD0670F781F891F9A1FA11D680F6B
S1130E40791F8A1F911DA11D6A0F711D811D911D9E
S1130E50A11D20D009F468943F912AE0269F112413
S1130E603019305D3193DEF6CF010895462F477077
S1130E70405D4193B3E00FD0C9F7F6CF462F4F70D2
S1130E80405D4A3318F0495D31FD4052419302D030
S1130E90A9F7EACFB4E0A6959795879577956795D6
S1130EA0BA95C9F700976105710508959B01AC01D6
S1130EB00A2E06945795479537952795BA95C9F7FD
S1130EC0620F731F841F951FA01D0895F894FFCF10
S1130ED00000E30320004D657373616765206C6F48
S1130EE07374206172626974726174696F6E005404
S1130EF072616E736D697373696F6E206572726F60
S1130F0072206465746563746564005472616E7301
S1130F106D6974206E6F7420636F6D706C65746599
S1130F200043414E204D4553534147452053454EC0
S1130F3044204641494C4544210052656365697625
S1130F40656420646174613A2069643A20256420F0
S1130F506C656E3A2025640A006C656674206275BF
S1130F6074746F6E3A202564202C2072696768744B
S1130F7020627574746F6E3A202564202C206A6F89
S1130F8079737469636B20627574746F6E3A20258B
S1130F90642C20646972656374696F6E3A202573EA
S1130FA02C207820617869733A2025642C207920DC
S1130FB0617869733A202564200A0053656E7421B0
S1130FC020006661696C656400555000444F574EBB
S1130FD0004C454654005249474854004E45555428
S1130FE052414C00F902FC02010306030C034E4F6C
S1130FF05420696E204C4F4F504241434B206D6F3B
S11310006465004C6F6F706261636B20656E616232
S11310106C6564004D43503235313520696E206E65
S11310206F726D616C206D6F646500526561642040
S11310306D637032353135004D43503235313520D2
S11310406973204E4F5420696E20636F6E66696722
S113105075726174696F6E206D6F6465206166746A
S1131060657220726573657421004D4350323531C9
S113107035206D6F646520616674657220696E69E0
S10B1080743A2025640A000003
S9030000FC
