S01500004279676765726E5F6E6F6465322E737265630A
S1130000C2C00000E0C00000DEC00000DCC0000090
S1130010DAC00000CAC10000D6C00000D4C000008D
S1130020D2C00000D0C00000CEC00000CCC0000090
S1130030CAC00000C8C00000C6C00000C4C00000A0
S1130040C2C00000C0C00000BEC00000BCC00000B0
S1130050BAC00000B8C00000B6C00000B4C00000C0
S1130060B2C00000B0C00000AEC00000ACC00000D0
S1130070AAC00000A8C00000A6C00000A4C00000E0
S1130080A2C00000A0C000009EC000009CC00000F0
S11300909AC0000098C0000096C00000ADC30000E4
S11300A092C0000090C000008EC000008CC0000010
S11300B08AC0000088C0000086C0000084C0000020
S11300C082C0000080C000007EC000007CC0000030
S11300D07AC0000078C0000076C0000074C0000040
S11300E072C000001704690469046904690469049E
S11300F069046904170469046904690469046904E6
S113010069046904190469046904690469046904D3
S11301106904690469046904690469046904690473
S113012069046904190469046904690469046904B3
S11301306904690469046904690469046904690453
S11301406904690465046904690469046904690447
S1130150690469044204690469046904690469045A
S11301606904690469046904690469046904690423
S11301706904690436046904690469046904690446
S113018069046904540411241FBECFEFD1E2DEBF19
S1130190CDBF00E00CBF13E0A0E0B2E0ECE4F2E17C
S11301A000E00BBF02C007900D92A034B107D9F74D
S11301B023E0A0E4B3E001C01D92A436B207E1F746
S11301C060D10C9424091CCFE4E6F0E080818E7F9A
S11301D08083ECE7F0E08081806680838081807694
S11301E08083EAE7F0E08081806A8083EBE7F0E0D7
S11301F08081887F80830895EAE7F0E08081806AC7
S1130200808380818064808308958091790008953B
S113021046D240E664E680E610D241E06FEF8BE21E
S11302200CD2EC9A80E008951CC20895EF92FF92DC
S11302300F931F93CF93DF93CDB7DEB72B970FB6F2
S1130240F894DEBF0FBECDBF8CE2D3D180FF32C0A5
S113025081E6CFD1182F82E6CCD1212F30E0322F86
S11302602227282B36952795329522952F70232700
S11302703F7023273A83298385E6BBD18B83882368
S113028099F07E0184E0E80EF11C00E010E086E6BF
S1130290800FAFD1F70181937F010F5F1F4F8B81D7
S11302A090E0081719079CF340E061E08CE2C5D1A7
S11302B010924003CE0101962B960FB6F894DEBF40
S11302C00FBECDBFDF91CF911F910F91FF90EF90A3
S11302D0089580E38ED185FF05C088E092E0D2D4F2
S11302E091E013C084FF05C081E292E0CBD492E098
S11302F00CC0982F907486FF08C08DE392E0C2D49E
S113030040E460E48DE299D193E0892F089580E37D
S113031070D183FF14C08EE592E0B4D480914B0376
S11303208F5F80934B039091060289130AC040E0CB
S113033068E080E382D110924B0380E0089581E06D
S1130340089580E008951F93CF93DF93EC01DFDFDE
S1130350882301F11881698181E358D1612F629565
S1130360660F607E82E352D16A8185E34FD18A8130
S1130370882361F010E0FE01E10FF11D638186E343
S1130380810F44D11F5F8A811817A8F381E84DD1EA
S113039081E007C09EDF91E0811101C090E0892FC8
S11303A08195DF91CF911F9108951F920F920FB6FF
S11303B00F9211240BB60F922F933F934F935F9399
S11303C06F937F938F939F93AF93BF93EF93FF9319
S11303D0CF93DF931F92CDB7DEB78CE20AD1898326
S11303E089818570853041F440E064E08CE225D158
S11303F040E061E08CE221D18981882324F440E04B
S113040060E88CE21AD140E061E08CE216D181E030
S1130410809340030F90DF91CF91FF91EF91BF91B3
S1130420AF919F918F917F916F915F914F913F9188
S11304302F910F900BBE0F900FBE0F901F90189529
S113044087E690E06FD284E792E01CD4E1DEECDE34
S11304504DD1BADED1CE0895809143038F5F80934E
S11304604303109241031F928F9381E892E09F937C
S11304708F93F7D30F900F900F900F9080914303B9
S11304800895CF93DF93CDB7DEB72B970FB6F894CB
S1130490DEBF0FBECDBFD4DF412CE12CF12C712C7B
S11304A00F2EFFE88F2EF2E09F2EF02D212C312C01
S11304B0612C552453940F2EF3E0AF2EB12CF02D64
S11304C06894CC24C1F8D12C80914203811121C0BD
S11304D09CDEE80EF11C739485E078121AC0FF923A
S11304E0EF929F928F92BDD30F900F900F900F9029
S11304F0E0E9EE16E1E0FE064CF4AEDF8093430340
S113050050924203E22CF32C762C03C0E22CF32C01
S1130510762C8CDE8C01FC0180819181019749F558
S1130520238130E0878190E0982F88274085842BB1
S1130530442D50E02417350751F02130310531F4B2
S11305406092420360924103452C01C0462C9C01F9
S1130550992324F422273327281B390B263031050D
S11305602CF091958195910902D103C0822D932D90
S1130570FED0809143038330C0F4909141039111E4
S113058014C0BA82A9825B828C83CE010196DBDE21
S1130590E3ECF9E03197F1F700C00000813019F481
S11305A05092410302C060924103C80181D28091FC
S11305B04303833008F488CF90914103911184CF91
S11305C0DA82C9825B828C83CE010196BCDEE3ECC5
S11305D0F9E03197F1F700C00000813019F450922E
S11305E0410302C06092410360924303509242036C
S11305F06BCFCF93C82FFAD083E0EDD08C2FEBD004
S1130600EFD0C82FF6D08C2FCF910895CF93DF93DE
S1130610D82FC62FEBD082E0DED08D2FDCD08C2FEC
S1130620DAD0E7D0DF91CF910895CF93C82FDED0F1
S11306308C2FD1D0DED0CF9108951F93CF93DF9329
S1130640182FD62FC42FD2D085E0C5D0812FC3D088
S11306508D2FC1D08C2FBFD0CCD0DF91CF911F91E3
S11306600895CF93DF931F92CDB7DEB740E060EEDD
S11306708FE0E3DF8EE0BDDF89838981807E29F40A
S11306808DEC92E0FFD280E001C081E00F90DF9119
S1130690CF910895ABD080EC9ED0ABC00895CF939A
S11306A0DF931F92CDB7DEB78DD0F4DF84EE92E0F6
S11306B0E9D28EE09EDF89838981807E803829F0AB
S11306C081EF92E0DFD281E00DC089811F928F9388
S11306D083E293E09F938F93C4D20F900F900F9077
S11306E00F9080E00F90DF91CF910895E0E9F0E062
S11306F080818268808380818E7F8083E1E9F0E05D
S113070080818B61808380818B7F808388E893E103
S113071090939700809396006B9A87E791E090936B
S11307209900809398008CE99FEF90934D038093F8
S11307304C0384E690E090934F0380934E038AEF3A
S113074090E0909353038093520324EF31E030936D
S113075057032093560328EC30E030935103209341
S11307605003909355038093540380E008959C01B3
S11307702C593F4F293C310518F520914C033091F9
S11307804D03AC01421B530B20915403309155038C
S1130790429FC001439F900D529F900D1124609180
S11307A0500370915103D2D080915203909153031E
S11307B0680F791F709399006093980080E0089502
S11307C081E0089587E884B923982B9A81E58CBD4C
S11307D08DB58EB508958EBD0DB407FEFDCF089579
S11307E01EBC0DB407FEFDCF8EB508952F98289832
S11307F008952F9A289A08951F920F920FB60F9278
S113080011240BB60F922F933F938F939F93AF9323
S1130810BF93EF93FF938091B90090E0FC01389768
S1130820E135F10508F055C0EE58FF4FA3C0109212
S11308304403E091440380914603E81770F481E097
S11308408E0F80934403F0E0E95BFC4F808180933A
S1130850BB0085E88093BC0043C080914503816060
S11308608093450384E98093BC003AC0E09144033B
S113087081E08E0F809344038091BB00F0E0E95B3C
S1130880FC4F80832091440330E08091460390E044
S113089001972817390724F485EC8093BC0020C005
S11308A085E88093BC001CC08091BB00E0914403A8
S11308B0F0E0E95BFC4F8083809145038160809385
S11308C0450384E98093BC000BC085EA8093BC0097
S11308D007C08091B9008093070284E08093BC0034
S11308E0FF91EF91BF91AF919F918F913F912F9184
S11308F00F900BBE0F900FBE0F901F901895E0EC59
S1130900F0E0908195FFFDCF8093C60080E090E0F9
S11309100895E0ECF0E080818823ECF78091C60034
S113092090E008959093C5008093C40088E180937B
S1130930C1008EE08093C20069E874E08FE794E020
S113094046D190935903809358030895AA1BBB1B67
S113095051E107C0AA1FBB1FA617B70710F0A61BBB
S1130960B70B881F991F5A95A9F780959095BC01DC
S1130970CD010895EE0FFF1F0590F491E02D199419
S1130980CF93DF938230910510F482E090E0E09100
S11309905C03F0915D0320E030E0A0E0B0E030972C
S11309A039F14081518148175907B8F04817590760
S11309B071F482819381109729F013969C938E93FE
S11309C012972CC090935D0380935C0327C021157C
S11309D0310531F04217530718F0A901DB0101C0BA
S11309E0EF019A01BD01DF010280F381E02DD7CF31
S11309F021153105F9F0281B390B2430310580F419
S1130A008A819B816115710521F0FB0193838283A7
S1130A1004C090935D0380935C03FE01329644C04E
S1130A20FE01E20FF31F8193919322503109398320
S1130A3028833AC020915A0330915B03232B41F45D
S1130A40209102023091030230935B0320935A03F6
S1130A5020910002309101022115310541F42DB796
S1130A603EB74091040250910502241B350BE091DE
S1130A705A03F0915B03E217F307A0F42E1B3F0B1C
S1130A802817390778F0AC014E5F5F4F24173507FC
S1130A9048F04E0F5F1F50935B0340935A038193BA
S1130AA0919302C0E0E0F0E0CF01DF91CF9108958F
S1130AB0CF93DF93009709F487C0FC013297138228
S1130AC01282C0915C03D0915D03209781F4208150
S1130AD03181280F391F80915A0390915B0382174B
S1130AE0930779F5F0935B03E0935A036DC0DE013D
S1130AF020E030E0AE17BF0750F412964D915C91A0
S1130B0013979D014115510509F1DA01F3CFB38320
S1130B10A28340815181840F951F8A179B0771F42A
S1130B208D919C911197840F951F029691838083D8
S1130B3012968D919C91139793838283211531058D
S1130B4029F4F0935D03E0935C033EC0D90113964E
S1130B50FC93EE9312974D915D91A40FB51FEA1784
S1130B60FB0779F480819181840F951F0296D90146
S1130B7011969C938E938281938113969C938E936A
S1130B801297E0E0F0E08A819B81009719F0FE0162
S1130B90EC01F9CFCE01029628813981820F931F8F
S1130BA020915A0330915B032817390769F4309771
S1130BB029F410925D0310925C0302C01382128226
S1130BC0D0935B03C0935A03DF91CF9108950F93A1
S1130BD01F93CF93DF93EC018B01009731F46115E0
S1130BE0710519F480E090E037C06EE070E081E0B8
S1130BF090E063D2FC010097A9F380E88383011598
S1130C00110571F01387028781E8838380915E0365
S1130C1090915F03892B21F4F0935F03E0935E03CB
S1130C202097C9F0D187C0878381826083838091B4
S1130C30600390916103892B71F4F0936103E09355
S1130C4060038091620390916303892B21F4F093F4
S1130C506303E0936203CF01DF91CF911F910F9162
S1130C600895CF93DF93CDB7DEB7FE013696619139
S1130C707191AF01809160039091610330D0DF9155
S1130C80CF9108950F931F93CF93DF93E091600367
S1130C90F0916103238121FF1BC0EC0100E010E00F
S1130CA089916091600370916103DB011896ED9165
S1130CB0FC911997882331F01995892B89F30FEF4B
S1130CC01FEFEECF8AE01995892B11F4C80102C0F9
S1130CD08FEF9FEFDF91CF911F910F9108952F9286
S1130CE03F924F925F926F927F928F929F92AF92B8
S1130CF0BF92CF92DF92EF92FF920F931F93CF9305
S1130D00DF93CDB7DEB72C970FB6F894DEBF0FBED6
S1130D10CDBF7C016B018A01FC011782168283819D
S1130D2081FFB0C1CE0101964C01F7019381F60118
S1130D3093FD859193FF81916F01882309F49EC1EE
S1130D40853239F493FD859193FF81916F0185324A
S1130D5021F4B70190E0E8D1E8CF512C312C20E008
S1130D602032A0F48B3269F030F4803259F08332AF
S1130D7069F420612CC08D3239F0803339F421605C
S1130D8026C02260246023C0286021C027FD27C01C
S1130D9030ED380F3A3078F426FF06C0FAE05F9E53
S1130DA0300D1124532E13C08AE0389E300D1124C7
S1130DB0332E20620CC08E3221F426FD5FC12064E4
S1130DC006C08C3611F4206802C0883641F4F6015E
S1130DD093FD859193FF81916F018111C1CF982F6C
S1130DE09F7D9554933028F40C5F1F4FFFE3F983E4
S1130DF00DC0833631F0833771F0833509F057C065
S1130E0021C0F801808189830E5F1F4F44244394DD
S1130E10512C540114C03801F2E06F0E711CF8011A
S1130E20A080B18026FF03C0652D70E002C06FEF83
S1130E307FEFC5012C876DD12C0183012C852F7781
S1130E40222E16C03801F2E06F0E711CF801A0804A
S1130E50B18026FF03C0652D70E002C06FEF7FEF05
S1130E60C5012C8744D12C012C852068222E8301B6
S1130E7023FC19C0832D90E048165906A0F4B7014D
S1130E8080E290E051D13A94F5CFF50127FC8591A9
S1130E9027FE81915F01B70190E046D131103A9469
S1130EA0F1E04F1A51084114510479F7DEC0843639
S1130EB011F0893631F5F80127FF07C0608171818F
S1130EC0828193810C5F1F4F08C0608171818827E4
S1130ED077FD8095982F0E5F1F4F2F76B22E97FFC8
S1130EE009C090958095709561957F4F8F4F9F4F66
S1130EF02068B22E2AE030E0A40148D1A82EA81818
S1130F0043C0853729F42F7EB22E2AE030E025C075
S1130F10F22FF97FBF2E8F36C1F018F4883579F09F
S1130F20ADC0803719F0883721F0A8C02F2F206179
S1130F30B22EB4FE0DC08B2D8460B82E09C024FFE0
S1130F400AC09F2F9660B92E06C028E030E005C085
S1130F5020E130E002C020E132E0F801B7FE07C032
S1130F6060817181828193810C5F1F4F06C0608113
S1130F70718180E090E00E5F1F4FA40107D1A82E7D
S1130F80A818FB2DFF77BF2EB6FE0BC02B2D2E7F8E
S1130F90A51450F4B4FE0AC0B2FC08C02B2D2E7E5A
S1130FA005C07A2C2B2D03C07A2C01C0752C24FF8C
S1130FB00DC0FE01EA0DF11D8081803311F4297EFC
S1130FC009C022FF06C07394739404C0822F8678EC
S1130FD009F0739423FD12C020FF06C05A2C731429
S1130FE018F4530C5718732C731460F4B70180E28F
S1130FF090E02C8799D073942C85F6CF731410F459
S1131000371801C0312C24FF11C0B70180E390E0F0
S11310102C878AD02C8522FF16C021FF03C088E5C7
S113102090E002C088E790E0B7010CC0822F867878
S113103051F021FD02C080E201C08BE227FD8DE268
S1131040B70190E071D0A51430F4B70180E390E0CB
S11310506BD05A94F8CFAA94F401EA0DF11D808163
S1131060B70190E061D0A110F6CF332009F45DCE32
S1131070B70180E290E058D03A94F7CFF701868127
S1131080978102C08FEF9FEF2C960FB6F894DEBFC6
S11310900FBECDBFDF91CF911F910F91FF90EF90C5
S11310A0DF90CF90BF90AF909F908F907F906F9084
S11310B05F904F903F902F9008950F931F93CF937D
S11310C0DF93869F8001879F100D969F100D11243A
S11310D0C80156DCEC01009721F0A80160E070E043
S11310E011D0CE01DF91CF911F910F910895FC0192
S11310F00590615070400110D8F7809590958E0F3F
S11311009F1F0895DC0101C06D9341505040E0F7EA
S11311100895FC016150704001900110D8F780954A
S113112090958E0F9F1F08950F931F93CF93DF9376
S1131130182F092FEB018B8181FD03C08FEF9FEFE7
S113114020C082FF10C04E815F812C813D814217F7
S113115053077CF4E881F9819F012F5F3F4F398366
S11311602883108306C0E885F985812F1995892B7A
S113117029F72E813F812F5F3F4F3F832E83812F9D
S1131180902FDF91CF911F910F910895FA01AA2713
S1131190283051F1203181F1E8946F936E7F6E5FB6
S11311A07F4F8F4F9F4FAF4FB1E03ED0B4E03CD064
S11311B0670F781F891F9A1FA11D680F791F8A1F47
S11311C0911DA11D6A0F711D811D911DA11D20D0AE
S11311D009F468943F912AE0269F11243019305D68
S11311E03193DEF6CF010895462F4770405D419359
S11311F0B3E00FD0C9F7F6CF462F4F70405D4A33A6
S113120018F0495D31FD4052419302D0A9F7EACF6D
S1131210B4E0A6959795879577956795BA95C9F79C
S113122000976105710508959B01AC010A2E06948F
S11312305795479537952795BA95C9F7620F731F48
S10F1240841F951FA01D0895F894FFCF93
S113124C00006403200005F84D6573736167652025
S113125C6C6F7374206172626974726174696F6EFD
S113126C005472616E736D697373696F6E2065726D
S113127C726F72206465746563746564005265638F
S113128C6569766520627566666572206F7665722F
S113129C666C6F7720666C6167207365740054729A
S11312AC616E736D6974206E6F7420636F6D706CF6
S11312BC65746500496E69742063616C6C656420A7
S11312CC0053636F72652069733A2025640A0061C8
S11312DC6363756D756C617465645F76616C75655B
S11312EC3D202564200A004E4F5420696E204C4F3B
S11312FC4F504241434B206D6F6465004C6F6F70CF
S113130C6261636B20656E61626C6564004D435071
S113131C3235313520696E206E6F726D616C206DC3
S113132C6F64650052656164206D637032353135CC
S113133C004D435032353135206973204E4F5420C3
S113134C696E20636F6E66696775726174696F6E1E
S113135C206D6F64652061667465722072657365B7
S113136C7421004D435032353135206D6F64652046
S113137C616674657220696E69743A2025640A008A
S9030000FC
