S01500004279676765726E5F6E6F6465322E737265630A
S1130000E6C0000004C1000002C1000000C10000FD
S1130010FEC00000FCC00000FAC00000F8C00000F0
S1130020F6C00000F4C00000F2C00000F0C0000000
S1130030EEC00000ECC00000EAC00000E8C0000010
S1130040E6C0000016C50000E2C00000E0C00000E9
S1130050DEC00000DCC00000DAC00000D8C0000030
S1130060D6C00000D4C00000D2C00000D0C0000040
S1130070CEC00000CCC00000CAC00000C8C0000050
S1130080C6C00000C4C00000C2C00000C0C0000060
S1130090BEC00000BCC00000BAC000007DC70000A4
S11300A0B6C00000B4C00000B2C00000B0C0000080
S11300B0AEC00000ACC00000AAC00000A8C0000090
S11300C0A6C00000A4C00000A2C00000A0C00000A0
S11300D09EC000009CC000009AC0000098C00000B0
S11300E096C00000E7073908390839083908390883
S11300F039083908E7073908390839083908390847
S113010039083908E9073908390839083908390834
S113011039083908390839083908390839083908D3
S113012039083908E9073908390839083908390814
S113013039083908390839083908390839083908B3
S113014039083908350839083908390839083908A7
S113015039083908120839083908390839083908BA
S11301603908390839083908390839083908390883
S113017039083908060839083908390839083908A6
S11301803908390824086364696E6F707375785888
S11301905B004E414E494E495459494E46CDCCCC54
S11301A03D0AD7233C17B7D13877CC2B329595E647
S11301B0241FB14F0A000020410000C84200401C27
S11301C04620BCBE4CCA1B0E5AAEC59D74001124F9
S11301D01FBECFEFD1E2DEBFCDBF00E00CBF13E006
S11301E0A0E0B2E0E6ECF7E200E00BBF02C007904B
S11301F00D92A03CB107D9F724E0A0ECB3E001C014
S11302001D92A832B207E1F7C2D10C94E113F8CEE3
S1130210E4E6F0E080818E7F8083ECE7F0E080818B
S113022080668083808180768083EAE7F0E0808145
S1130230806A8083EBE7F0E08081887F8083089583
S1130240EAE7F0E08081806A808380818064808333
S1130250089580917900089501D340E664E680E62C
S1130260CBD241E06FEF8BE2C7D280E00895D8C2D1
S11302700895EF92FF920F931F93CF93DF938C0116
S11302808CE296D280FF35C081E692D2C82F82E6F6
S11302908FD22C2F30E0322F2227282B369527950A
S11302A0329522952F7023273F702327F80131833D
S11302B0208385E67DD2F8018283882399F0780132
S11302C0F3E0EF0EF11CC0E0D0E08C2F8A5970D21D
S11302D0F70181937F012196F801828190E0C8178C
S11302E0D9079CF340E061E08CE286D21092C0030F
S11302F004C0F801118210821282C801DF91CF91EB
S11303001F910F91FF90EF90089580E351D285FFE4
S113031006C08AE092E00E941E0C91E015C084FFA2
S113032006C083E292E00E941E0C92E00DC0982F5A
S1130330907486FF09C08FE392E00E941E0C40E493
S113034060E48DE259D293E0892F089580E330D29E
S113035083FF15C080E692E00E941E0C8091CF03BB
S11303608F5F8093CF039091060289130AC040E007
S113037068E080E341D21092CF0380E0089581E0E9
S1130380089580E008951F93CF93DF93EC01DEDF9F
S1130390882301F11881698181E317D2612F629565
S11303A0660F607E82E311D26A8185E30ED28A8170
S11303B0882361F010E0FE01E10FF11D638186E303
S11303C0810F03D21F5F8A811817A8F381E80CD22A
S11303D081E007C09ADF91E0811101C090E0892F8C
S11303E08195DF91CF911F910895AAD58AB1836039
S11303F08AB9789408951F93CF93DF93182F83E0DD
S113040090E00E94810AEC018EE5888319821A83A8
S113041087EC90E00197F1F700C0000063E0CE01A3
S113042099D58FE891E00197F1F700C00000CE0163
S11304300E94190BDF91CF911F910895EF92FF92C3
S11304400F931F9387E690E03DD62FEF89EF90E05E
S1130450215080409040E1F700C0000086E792E020
S11304600E941E0CF9DE03DF8FD44DD4D1DEE8DE0A
S113047046D51BD281E097D2E12CF12C87012AE9E1
S113048039E949E95EE360E070E080E89FE3D0D2B7
S11304901F910F91FF90EF9008958091C3038F5F98
S11304A08093C3031092C1031F928F9383E892E059
S11304B09F938F930E940D0C0F900F900F900F90AD
S11304C08091C3030895EF92FF920F931F93CF93EC
S11304D0DF93CDB7DEB7C456D1090FB6F894DEBFAB
S11304E00FBECDBF8091C000882364F5CE01019674
S11304F09F938F9381E992E09F938F930E944B0C7B
S11305000BED13E00F2EFFEEEF2EF3E0FF2EF02D98
S11305100F900F900F900F9008C00E94A80BF80145
S113052061937193819391938F0164E972E0CE0199
S113053001960E94AB0B009739F00E151F0569F761
S113054081E003C080E001C081E0CC59DF4F0FB6E9
S1130550F894DEBF0FBECDBFDF91CF911F910F91F5
S1130560FF90EF90089527D644E6469F9001479F59
S1130570300D11242C593F4F4FEF429FC001439F30
S1130580900D112468EC70E04CD7CB010895CF9303
S1130590DF93CDB7DEB72F970FB6F894DEBF0FBE4B
S11305A0CDBF4CDFBB24B3940F2EF2E37F2EF02D8E
S11305B0312C212CC12CD12C812C912CAA24A39434
S11305C08091C203811118C044DEC80ED11C8394EB
S11305D025E0821211C030E9C31631E0D3064CF491
S11305E05CDF8093C303A092C203C12CD12C892C5D
S11305F003C0C12CD12C892C8BE090E082D78C01D4
S113060038DEF8018081918199278130910519F0B4
S1130610029711F129C0F801238130E0858190E02F
S1130620578040847184422D50E02417350751F0DF
S11306302130310531F49092C2039092C1032A2CE7
S113064001C0292C232D30E08217930769F001970C
S113065051F446D43A2C08C0BA2CF8018381811194
S113066003C0B92C01C0392CBB2029F0F1E0BF161E
S113067009F438C051C027DF882309F44DC0EBEDDD
S1130680F3E0608171818281938195D544E6469F30
S11306909001479F300D11243E872D87E3EEF3E050
S11306A060817181828193815EDF7C01EBEEF3E0F6
S11306B0608171818281938183D56C87FF856F17F7
S11306C039F0613021F40CD42C852F8701C09F862A
S11306D0C70125D16A2D8D859E85919581959109B6
S11306E098D31AC0872D90E01AD1E52CF42C9701E9
S11306F02619310967FC3395C901992324F4882705
S11307009927821B930B049734F06A2D8827992725
S11307108E199F097ED36E2C8091C3038330D0F44D
S11307209091C103911116C0E3E0F0E0FA83E983EC
S1130730AB828C83CE01019626DEEFE3FCE9319790
S1130740F1F700C00000813019F4A092C10302C087
S11307509092C103C8016DD78091C3038330F0F038
S11307609091C10391111AC024E030E03A832983A7
S1130770AB828C83CE01019606DEEFE3FCE9319770
S1130780F1F700C00000813019F4A092C10302C047
S11307909092C1039092C303A092C203FFEF20E79B
S11307A032E0F15020403040E1F700C0000008CFB3
S11307B0CF93C82FBFD383E0B2D38C2FB0D3B4D39D
S11307C0C82FBBD38C2FCF910895CF93DF93D82F0D
S11307D0C62FB0D382E0A3D38D2FA1D38C2F9FD368
S11307E0ACD3DF91CF910895CF93C82FA3D38C2F8F
S11307F096D3A3D3CF9108951F93CF93DF93182F4C
S1130800D62FC42F97D385E08AD3812F88D38D2FF9
S113081086D38C2F84D391D3DF91CF911F910895E8
S1130820CF93DF931F92CDB7DEB740E060EE8FE049
S1130830E3DF8EE0BDDF89838981807E29F48CEB40
S113084092E0FCD780E001C081E00F90DF91CF916E
S1130850089570D380EC63D370C30895CF93DF936E
S11308601F92CDB7DEB752D3F4DF83ED92E0E6D723
S11308708EE09EDF89838981807E803829F080EE36
S113088092E0DCD781E00DC089811F928F9382E1D1
S113089093E09F938F93C1D70F900F900F900F9079
S11308A080E00F90DF91CF91089588E893E19093D1
S11308B0890080938800E0E8F0E080818064808390
S11308C0E1E8F0E080818B608083EFE6F0E08081F6
S11308D0826080830895823031F4E2E0F1E0808127
S11308E0826080830895813029F4E2E0F1E0808120
S11308F08D7F80830895882349F0E2E0F1E08081D0
S1130900806180838FE293E099C708958DE393E03B
S113091095D7E2E0F1E080818F7E808308952FEF08
S113092030E0281B390B309300042093FF03089513
S1130930882331F0E2E0F1E080818F7D80830895A7
S1130940E2E0F1E08081806280830895CF93DF93B9
S113095081E0EEDFE2E0F1E08081877F80838AE658
S11309608A95F1F700C0C091060180818860808378
S11309708AE68A95F1F700C0D091060180E0D8DFBD
S11309808D2F90E09C2BDF91CF910895E2E0F1E070
S113099080818F7B80838AE68A95F1F700C080810D
S11309A0806480830895CF93C82F1F928F932CE483
S11309B033E03F932F9331D70F900F900F900F9008
S11309C0CC2339F081E090E09093C5038093C40375
S11309D004C01092C5031092C403CF9108958C39BA
S11309E02FEF920714F48CE99FEF8536910514F0EC
S11309F084E690E00895CF93DF93EC01A7DF909312
S1130A00F6038093F503CE01EADFEC01DD2324F441
S1130A10882799278C1B9D0BEEDC1C161D061CF4E5
S1130A2082E059DF02C081E056DFDF91CF91089563
S1130A30EF92FF920F931F93609306047093070441
S1130A4080930804909309042093010430930204D2
S1130A504093030450930404E092F103F092F203F0
S1130A600093F3031093F4031F910F91FF90EF9001
S1130A7008951F920F920FB60F9211240BB60F9286
S1130A808F929F92AF92BF92CF92DF92EF92FF929A
S1130A902F933F934F935F936F937F938F939F9382
S1130AA0AF93BF93EF93FF938091C6039091C703D5
S1130AB0892B99F0809105048F5F843618F4809314
S1130AC005040BC0109205048091FD039091FE0370
S1130AD001969093FE038093FD038091C40390914B
S1130AE0C503892B09F48FC031DF992324F06C01ED
S1130AF0E12CF12C03C0C12CD12C7601FF92EF9292
S1130B00DF92CF9282E693E09F938F9386D6809074
S1130B10FF0390900004AA2497FCA094BA2CAFEF92
S1130B20B0E0A7019601B2D42091EF033091F00315
S1130B3040E050E089D4C501B401621B730B840BFF
S1130B40950B6CD36B017C0136D36E5F7F4F0F9096
S1130B500F900F900F900F900F906530710518F45F
S1130B6080E049DC50C08090F8039090F903A09095
S1130B70FA03B090FB03C501B4011DD32091070211
S1130B803091080262177307A4F42AE037ED43EAB0
S1130B905CE3C701B601CED39B01AC01C501B4012E
S1130BA0A6D26093F8037093F9038093FA039093A9
S1130BB0FB038091060490910704A0910804B0916E
S1130BC00904BC01CD019058A7019601B3D3F3D217
S1130BD06B017C018091010490910204A0910304B3
S1130BE0B0910404BC01CD0190582091F8033091D8
S1130BF0F9034091FA035091FB039CD3DCD2CB015F
S1130C008C0D9D1DF8DEFF91EF91BF91AF919F91E7
S1130C108F917F916F915F914F913F912F91FF90B1
S1130C20EF90DF90CF90BF90AF909F908F900F90F8
S1130C300BBE0F900FBE0F901F901895CF93DF93AC
S1130C4080E793E09F938F93E8D58CE390E0D3DE25
S1130C502FEF85EC9CE5215080409040E1F700C0E7
S1130C60000080E090E0C7DE2FEF83EC99E0215094
S1130C7080409040E1F700C0000068DE9F938F93AE
S1130C8084E893E09F938F93C8D580DE84EC9FEF34
S1130C90B2DE2FEF87E99AE3215080409040E1F7DC
S1130CA000C0000080E090E0A6DE2FEF81EE94E02B
S1130CB0215080409040E1F700C0000047DE9F9340
S1130CC08F9387E993E09F938F93A7D53FDEEC0141
S1130CD084E190E090DE2FEF83EC99E02150804096
S1130CE09040E1F700C0000080E090E084DE8DB722
S1130CF09EB70A960FB6F8949EBF0FBE8DBFCE0165
S1130D00DF91CF910895E1E0F1E0808180648083F8
S1130D108081806280838081806180838081826021
S1130D208083808188608083109207015EDB81E08C
S1130D30FFDD2CDE80E05FDB81E0DDDD7FDF8093A3
S1130D40EF039093F0039F938F938CEA93E09F9328
S1130D508F9363D51092FE031092FD031092050445
S1130D608FEF90E0909300048093FF031092F803B8
S1130D701092F9031092FA031092FB030F900F9054
S1130D800F900F9080E00895E0E9F0E080818268A0
S1130D90808380818E7F8083E1E9F0E080818B61B4
S1130DA0808380818B7F808388E893E19093970090
S1130DB0809396006B9A87E791E0909399008093D3
S1130DC098008CE99FEF9093100480930F0484E6BD
S1130DD090E090930C0480930B0410920A044FEF5C
S1130DE040930D048AEF90E09093150480931404CB
S1130DF024EF31E0309319042093180428EC209355
S1130E000E0440931304909317048093160480E017
S1130E100895613019F0623079F158C020910F04BF
S1130E2030911004821793070CF452C040910B04C4
S1130E3050910C04481759070CF44CC0AC01421BE8
S1130E40530B2091160430911704429FC001439F15
S1130E50900D529F900D112460910E0470E0CDD23C
S1130E608091140490911504680F791F7093990070
S1130E706093980080E0089520910A0430E082177E
S1130E80930754F140910D0450E04817590734F189
S1130E90AC01421B530B2091160430911704429F5E
S1130EA0C001439F900D529F900D11246091130433
S1130EB070E0A3D28091140490911504680F791FF7
S1130EC0709399006093980080E0089581E00895FC
S1130ED081E0089581E0089581E0089581E0089516
S1130EE011989EE106C086B58436E9F716BC915088
S1130EF021F086B58436B9F7F9CF119A0895099A85
S1130F00119A85B5856085BDEBCF089587E884B9CE
S1130F1023982B9A81E58CBD8DB58EB508958EBD31
S1130F200DB407FEFDCF08951EBC0DB407FEFDCF22
S1130F308EB508952F98289808952F9A289A089581
S1130F408CE08093B8008FEF8093BB0084E08093A3
S1130F50BC000895ECEBF0E0208120FDFDCF609310
S1130F60CA03FC0120812093CB0320FD0CC0623016
S1130F7050F0DC011196ECECF3E081E09D9191934B
S1130F808F5F8613FBCF1092C90388EF8093090209
S1130F9085EA8093BC0008951F920F920FB60F92BA
S1130FA011240BB60F922F933F938F939F93AF937C
S1130FB0BF93EF93FF938091B90090E0FC013897C1
S1130FC0E135F10508F055C0EE58FF4F59C21092B3
S1130FD0C803E091C8038091CA03E81770F481E064
S1130FE08E0F8093C803F0E0E553FC4F808180931B
S1130FF0BB0085E88093BC0043C08091C903816035
S11310008093C90384E98093BC003AC0E091C8038B
S113101081E08E0F8093C8038091BB00F0E0E5531C
S1131020FC4F80832091C80330E08091CA0390E094
S113103001972817390724F485EC8093BC0020C05D
S113104085E88093BC001CC08091BB00E091C8037C
S1131050F0E0E553FC4F80838091C9038160809365
S1131060C90384E98093BC000BC085EA8093BC006B
S113107007C08091B9008093090284E08093BC008A
S1131080FF91EF91BF91AF919F918F913F912F91DC
S11310900F900BBE0F900FBE0F901F901895E0ECB1
S11310A0F0E0908195FFFDCF8093C60080E090E052
S11310B00895E0ECF0E080818823ECF78091C6008D
S11310C090E008959093C5008093C40088E18093D4
S11310D0C1008EE08093C20069E578E08FE498E077
S11310E052D390931B0480931A0408955058BB273D
S11310F0AA270ED0E5C0D6D030F0DBD020F031F4F2
S11311009F3F11F41EF4CBC00EF4E095E7FBC1C081
S1131110E92FE7D080F3BA176207730784079507AE
S113112018F071F49EF5FFC00EF4E0950B2EBA2F63
S1131130A02D0B01B90190010C01CA01A0011124D9
S1131140FF27591B99F0593F50F4503E68F11A1685
S1131150F040A22F232F342F4427585FF3CF469516
S113116037952795A795F0405395C9F77EF41F1638
S1131170BA0B620B730B840BBAF09150A1F0FF0F02
S1131180BB1F661F771F881FC2F70EC0BA0F621FEE
S1131190731F841F48F4879577956795B795F795DE
S11311A09E3F08F0B3CF9395880F08F09927EE0F70
S11311B097958795089504D06894B111B5C00895A2
S11311C098D088F09F5790F0B92F9927B751A0F085
S11311D0D1F0660F771F881F991F1AF0BA95C9F7C7
S11311E012C0B13081F09FD0B1E008959CC0672F48
S11311F0782F8827B85F39F0B93FCCF38695779577
S11312006795B395D9F73EF490958095709561955F
S11312107F4F8F4F9F4F0895E89409C097FB3EF48A
S113122090958095709561957F4F8F4F9F4F99232F
S1131230A9F0F92F96E9BB279395F69587957795AD
S11312406795B795F111F8CFFAF4BB0F11F460FF6D
S11312501BC06F5F7F4F8F4F9F4F16C0882311F0C5
S113126096E911C0772321F09EE8872F762F05C0D9
S1131270662371F096E8862F70E060E02AF09A9574
S1131280660F771F881FDAF7880F9695879597F969
S1131290089597F99F6780E870E060E008959FEFF4
S11312A080EC089500240A941616170618060906F9
S11312B0089500240A9412161306140605060895C8
S11312C0092E0394000C11F4882352F0BB0F40F450
S11312D0BF2B11F460FF04C06F5F7F4F8F4F9F4F90
S11312E0089557FD9058440F551F59F05F3F71F012
S11312F04795880F97FB991F61F09F3F79F0879579
S11313000895121613061406551FF2CF4695F1DF01
S113131008C0161617061806991FF1CF8695710591
S1131320610508940895E894BB2766277727CB01C5
S113133097F908950BD0C4CFB5DF28F0BADF18F0C1
S1131340952309F0A6CFABCF1124EECFCADFA0F3CB
S1131350959FD1F3950F50E0551F629FF001729F46
S1131360BB27F00DB11D639FAA27F00DB11DAA1F65
S1131370649F6627B00DA11D661F829F2227B00DB2
S1131380A11D621F739FB00DA11D621F839FA00D3D
S1131390611D221F749F3327A00D611D231F849F8D
S11313A0600D211D822F762F6A2F11249F575040E4
S11313B08AF0E1F088234AF0EE0FFF1FBB1F661F7F
S11313C0771F881F91505040A9F79E3F510570F038
S11313D060CFAACF5F3FECF3983EDCF38695779518
S11313E06795B795F795E7959F5FC1F7FE2B880F33
S11313F0911D9695879597F90895AA1BBB1B51E1FA
S113140007C0AA1FBB1FA617B70710F0A61BB70B70
S1131410881F991F5A95A9F780959095BC01CD0115
S1131420089597FB072E16F4009406D077FD08D094
S1131430E4DF07FC05D03EF4909581959F4F089515
S1131440709561957F4F0895052E97FB16F40094CF
S11314500FD057FD05D024D007FC02D046F408C0B5
S113146050954095309521953F4F4F4F5F4F0895CC
S113147090958095709561957F4F8F4F9F4F0895FC
S1131480EE0FFF1F0590F491E02D19942BD0A59F2A
S1131490900DB49F900DA49F800D911D112408956B
S11314A0A1E21A2EAA1BBB1BFD010DC0AA1FBB1F64
S11314B0EE1FFF1FA217B307E407F50720F0A21BD6
S11314C0B30BE40BF50B661F771F881F991F1A9443
S11314D069F760957095809590959B01AC01BD016D
S11314E0CF010895A29FB001B39FC001A39F700DC7
S11314F0811D1124911DB29F700D811D1124911D18
S11315000895CF93DF938230910510F482E090E048
S1131510E0911E04F0911F0420E030E0A0E0B0E070
S1131520309739F14081518148175907B8F048176D
S1131530590771F482819381109729F013969C9333
S11315408E9312972CC090931F0480931E0427C07F
S11315502115310531F04217530718F0A901DB01B9
S113156001C0EF019A01BD01DF010280F381E02D8A
S1131570D7CF21153105F9F0281B390B243031055B
S113158080F48A819B816115710521F0FB019383AD
S1131590828304C090931F0480931E04FE0132963C
S11315A044C0FE01E20FF31F81939193225031094D
S11315B0398328833AC020911C0430911D04232BC5
S11315C041F4209102023091030230931D042093D0
S11315D01C0420910002309101022115310541F4CF
S11315E02DB73EB74091040250910502241B350BE0
S11315F0E0911C04F0911D04E217F307A0F42E1BE4
S11316003F0B2817390778F0AC014E5F5F4F241762
S1131610350748F04E0F5F1F50931D0440931C0480
S11316208193919302C0E0E0F0E0CF01DF91CF918C
S11316300895CF93DF93009709F487C0FC01329794
S113164013821282C0911E04D0911F04209781F44A
S113165020813181280F391F80911C0490911D0431
S11316608217930779F5F0931D04E0931C046DC071
S1131670DE0120E030E0AE17BF0750F412964D9122
S11316805C9113979D014115510509F1DA01F3CFDE
S1131690B383A28340815181840F951F8A179B07CE
S11316A071F48D919C911197840F951F02969183EB
S11316B0808312968D919C91139793838283211535
S11316C0310529F4F0931F04E0931E043EC0D901B0
S11316D01396FC93EE9312974D915D91A40FB51F51
S11316E0EA17FB0779F480819181840F951F029694
S11316F0D90111969C938E938281938113969C9326
S11317008E931297E0E0F0E08A819B81009719F0B4
S1131710FE01EC01F9CFCE01029628813981820FB6
S1131720931F20911C0430911D042817390769F474
S1131730309729F410921F0410921E0402C01382E1
S11317401282D0931D04C0931C04DF91CF9108959D
S11317506627772772C5FC01A081B181AD0110967F
S113176081F03D91FB01019003160110E1F7C9F7E7
S1131770002011F4D00102C01E921196FC01A08336
S1131780B183CA0108950F931F93CF93DF93EC01A4
S11317908B01009731F46115710519F480E090E034
S11317A037C06EE070E081E090E02DD5FC01009739
S11317B0A9F380E883830115110571F0138702876B
S11317C081E883838091200490912104892B21F462
S11317D0F0932104E09320042097C9F0D187C087B7
S11317E08381826083838091220490912304892BD6
S11317F071F4F0932304E0932204809124049091E3
S11318002504892B21F4F0932504E0932404CF01CB
S1131810DF91CF911F910F910895CF93DF93CDB7AF
S1131820DEB7FE01369661917191AF018091220479
S11318309091230441D0DF91CF9108950F931F938A
S1131840CF93DF93E0912204F0912304238121FFBD
S11318501BC0EC0100E010E08991609122047091BA
S11318602304DB011896ED91FC911997882331F03C
S11318701995892B89F30FEF1FEFEECF8AE01995A5
S1131880892B11F4C80102C08FEF9FEFDF91CF9134
S11318901F910F910895CF93DF93CDB7DEB7FE016B
S11318A0369661917191AF01809120049091210449
S11318B081D3DF91CF9108952F923F924F925F92FF
S11318C06F927F928F929F92AF92BF92CF92DF924C
S11318D0EF92FF920F931F93CF93DF93CDB7DEB7B1
S11318E02C970FB6F894DEBF0FBECDBF7C016B0101
S11318F08A01FC0117821682838181FFB0C1CE0167
S113190001964C01F7019381F60193FD859193FFB4
S113191081916F01882309F49EC1853239F493FDC6
S1131920859193FF81916F01853221F4B70190E095
S113193074D6E8CF512C312C20E02032A0F48B3225
S113194069F030F4803259F0833269F420612CC09C
S11319508D3239F0803339F4216026C0226024604E
S113196023C0286021C027FD27C030ED380F3A304E
S113197078F426FF06C0FAE05F9E300D1124532E42
S113198013C08AE0389E300D1124332E20620CC01F
S11319908E3221F426FD5FC1206406C08C3611F41A
S11319A0206802C0883641F4F60193FD859193FFC7
S11319B081916F018111C1CF982F9F7D95549330F0
S11319C028F40C5F1F4FFFE3F9830DC0833631F019
S11319D0833771F0833509F057C021C0F801808145
S11319E089830E5F1F4F44244394512C540114C027
S11319F03801F2E06F0E711CF801A080B18026FF5F
S1131A0003C0652D70E002C06FEF7FEFC5012C8726
S1131A10BBD52C0183012C852F77222E16C03801CB
S1131A20F2E06F0E711CF801A080B18026FF03C0A4
S1131A30652D70E002C06FEF7FEFC5012C8792D552
S1131A402C012C852068222E830123FC19C0832DB0
S1131A5090E048165906A0F4B70180E290E0DDD585
S1131A603A94F5CFF50127FC859127FE81915F011A
S1131A70B70190E0D2D531103A94F1E04F1A5108F1
S1131A804114510479F7DEC0843611F0893631F5FA
S1131A90F80127FF07C060817181828193810C5F07
S1131AA01F4F08C060817181882777FD8095982F2A
S1131AB00E5F1F4F2F76B22E97FF09C09095809529
S1131AC0709561957F4F8F4F9F4F2068B22E2AE00B
S1131AD030E0A401EDD5A82EA81843C0853729F419
S1131AE02F7EB22E2AE030E025C0F22FF97FBF2EE0
S1131AF08F36C1F018F4883579F0ADC0803719F00D
S1131B00883721F0A8C02F2F2061B22EB4FE0DC05B
S1131B108B2D8460B82E09C024FF0AC09F2F9660C5
S1131B20B92E06C028E030E005C020E130E002C054
S1131B3020E132E0F801B7FE07C060817181828143
S1131B4093810C5F1F4F06C06081718180E090E03B
S1131B500E5F1F4FA401ACD5A82EA818FB2DFF774C
S1131B60BF2EB6FE0BC02B2D2E7FA51450F4B4FE51
S1131B700AC0B2FC08C02B2D2E7E05C07A2C2B2D5A
S1131B8003C07A2C01C0752C24FF0DC0FE01EA0DA0
S1131B90F11D8081803311F4297E09C022FF06C023
S1131BA07394739404C0822F867809F0739423FD90
S1131BB012C020FF06C05A2C731418F4530C571883
S1131BC0732C731460F4B70180E290E02C8725D560
S1131BD073942C85F6CF731410F4371801C0312C8C
S1131BE024FF11C0B70180E390E02C8716D52C8523
S1131BF022FF16C021FF03C088E590E002C088E7F9
S1131C0090E0B7010CC0822F867851F021FD02C00C
S1131C1080E201C08BE227FD8DE2B70190E0FDD4A4
S1131C20A51430F4B70180E390E0F7D45A94F8CFC8
S1131C30AA94F401EA0DF11D8081B70190E0EDD47E
S1131C40A110F6CF332009F45DCEB70180E290E015
S1131C50E4D43A94F7CFF7018681978102C08FEFDD
S1131C609FEF2C960FB6F894DEBF0FBECDBFDF9169
S1131C70CF911F910F91FF90EF90DF90CF90BF9085
S1131C80AF909F908F907F906F905F904F903F9018
S1131C902F90089520FD09C0FC0123FD05C022FFFB
S1131CA002C07383628351834083089544FD10C04E
S1131CB046FD10C0DB01FC01AA0FBB1FEE1FFF1F76
S1131CC01094D1F76A0F7B1F8E1F9F1F31E003C052
S1131CD033E001C034E0660F771F881F991F31502D
S1131CE0D1F7620F711D811D911D08950F931F93EC
S1131CF0CF93DF938C01C80152D4EC0197FD06C049
S1131D0006D4892BC1F7B801CE01B9D4CE01DF9135
S1131D10CF911F910F9108958F929F92AF92CF927E
S1131D20DF92EF92FF920F931F93CF93DF93EC0117
S1131D30A62E4A01022F33D4AC0155274B3251054C
S1131D4021F04D32510549F40068AA9411F480E061
S1131D5060C0CE0124D497FDFACF102F1D7F302F01
S1131D603073F1F48033E1F4FF24FA94FA0C09F4AB
S1131D703DC0CE0114D497FD39C0382F3F7D38358E
S1131D8049F41264AA94AA9489F1CE0108D497FF65
S1131D9007C02CC006FF02C0126001C01261AF2C44
S1131DA0C12CD12C760120ED280F283078F014FFB7
S1131DB003C0BE0164D417C02A3040F016FFF9CF27
S1131DC02F7D3FEE320F3630A0F72750412FC70149
S1131DD0B6016CDF6B017C011260AA9451F0CE0154
S1131DE0DED397FFE0CF11FD04C0B1CFC12CD12CBD
S1131DF0760117FF08C0F094E094D094C094C11CFD
S1131E00D11CE11CF11C212FB701A601C40142DF42
S1131E1081E0DF91CF911F910F91FF90EF90DF90C0
S1131E20CF90AF909F908F9008957F928F929F92C2
S1131E30AF92BF92CF92DF92EF92FF920F931F93D4
S1131E40CF93DF93CDB7DEB7A1970FB6F894DEBF7B
S1131E500FBECDBF5C017A018E010F5F1F4F680179
S1131E6080E2D8011D928A95E9F7F501738040E07C
S1131E7050E0812CB0E0912C81E090E0F90173FCFA
S1131E80A59173FEA1918F017A2F9F01A11103C027
S1131E9080E090E07BC0AE3519F44115510559F14D
S1131EA0E92DF0E0E417F5073CF4AD3569F1AD3206
S1131EB019F4BB2319F103C0B11101C08A2EE72F15
S1131EC0E695E695E69586010E0F111DF801A72FFC
S1131ED0A7708C0102C0000F111FAA95E2F7D80168
S1131EE0B081BA2BB083781559F0781510F47F5F60
S1131EF0E6CF7150E4CF9924939403C0B1E001C0BC
S1131F00B0E04F5F5F4FBACFBB2319F08E81806280
S1131F108E83911003C09924939415C0F601CE01C9
S1131F208196208120952193E817F907D1F7F3CF03
S1131F30E114F10429F0D7018C93F70131967F0164
S1131F406150F1F0912CC50169A329D369A197FDD2
S1131F5015C0282F269526952695F601E20FF11D2A
S1131F60208130E0AC014770552702C03595279594
S1131F704A95E2F720FDDCCFB50181D3911088CFDB
S1131F80E114F10411F0D7011C92C801A1960FB617
S1131F90F894DEBF0FBECDBFDF91CF911F910F919B
S1131FA0FF90EF90DF90CF90BF90AF909F908F9075
S1131FB07F9008954F925F927F928F929F92AF92FB
S1131FC0BF92CF92DF92EF92FF920F931F93CF9322
S1131FD0DF931F92CDB7DEB78C012B017A01FC0190
S1131FE017821682A12CF801D380F201D3FC8591CB
S1131FF0D3FE8191382F2F01882309F4EEC090E09D
S1132000398385D23981892B19F0C8016FDEEBCF72
S1132010353241F4F201D3FC3591D3FE31912F01D5
S1132020353259F4C8013983BAD2398197FDD3C006
S11320303817C9F2B80123D3D0C03A3241F4D3FCE3
S11320403591D3FE31912F01BB24B39401C0B12C3F
S1132050712C20ED230F2A3088F4FB2DF260BF2E63
S1132060672D70E080E090E040E220DE762EF20101
S1132070D3FC3591D3FE31912F01EBCFB1FE03C0D8
S1132080711003C0AAC077247A94383619F03C360C
S113209061F014C0F201D3FC3591D3FE31912F01CC
S11320A0383661F4FB2DF860BF2E8B2D8460B82E7A
S11320B0F201D3FC3591D3FE31912F01332309F47E
S11320C08CC0632F70E086E891E0398328D239818F
S11320D0892B09F482C0B0FC07C0F701C080D1800D
S11320E0C70102967C0102C0C12CD12C3E3649F4B2
S11320F0F8014681578160E070E02B2DC601CADDEE
S113210072CF333699F4B1FC02C077247394C801BA
S113211046D297FD60C0C114D10429F0F601808332
S1132120C60101966C017A9491F751C03B3551F484
S11321309201A601672DC80178DE2C01009709F0F1
S113214046C040C0C8013983D1DD398197FD43C001
S11321503F3651F128F4343619F1393661F128C08B
S1132160333769F03537E1F023C0C114D10429F0C5
S1132170F6018082C60101966C017A9459F0C80177
S11321800ED24C0197FD06C0C2D1892B71F3B80160
S1132190C40175D2C114D104D1F0F601108217C064
S11321A0FB2DF062BF2E07C08B2D8061B82E03C0BB
S11321B09B2D9064B92E2B2DA601672DC801ACDD93
S11321C0811105C0F8018381807329F406C0B0FC35
S11321D00ACFA39408CFAA2019F08A2D90E002C058
S11321E08FEF9FEF0F90DF91CF911F910F91FF9091
S11321F0EF90DF90CF90BF90AF909F908F907F90A3
S11322005F904F9008950F931F93CF93DF93869F12
S11322108001879F100D969F100D1124C80171D95C
S1132220EC01009721F0A80160E070E0A6D1CE0196
S1132230DF91CF911F910F9108958F929F92AF924A
S1132240BF92CF92DF92EF92FF920F931F93CF939F
S1132250DF938B016115710521F0DB018C931196DD
S11322609C93EC015E01BFEFAB1ABB0A7501C880F9
S11322708C2D90E04CD1892B11F0E501F3CFEDE2E8
S1132280CE1208C07E01F2E0EF0EF11CC980DD24FD
S1132290D39409C02BE2C21205C07E0142E0E40ED1
S11322A0F11CC980D12CE701219743E050E06AE991
S11322B071E0CE013FD1892BB9F4239645E050E07B
S11322C065E971E0CE0136D1892B09F42596011513
S11322D0110519F0D801CD93DC93D11002C160E04F
S11322E070E080E89FE706C143E050E062E971E0F6
S11322F0CE0120D1892B59F40115110509F4F6C03A
S1132300B2E0EB0EF11CF801F182E082EFC0F701BC
S113231060E070E0CB01C0E0D0E07F01A0EDAA2E28
S1132320AC0C29E02A1528F14D2D4260B42E2D2D38
S11323302870D2FE04C0211124C0219622C021118C
S11323402197A5E0B0E09B01AC01A0D8660F771FF0
S1132350881F991F6A0D711D811D911D6839A9E996
S11323607A078A07A9E19A0760F0BD2DB660BB2EF3
S113237008C02EEFA2120AC0D3FC50C04D2D4860F5
S1132380B42E3196D701CC90DB2CC7CF2C2D2F7DCA
S1132390253409F043C0A081AD3241F4BD2DB061B4
S11323A0DB2E7F0122E0E20EF11C0CC07F01AB3278
S11323B031F04FEFE41AF40A21E030E006C0A2E065
S11323C0EA0EF11CA18122E030E0A053AA3018F0FB
S11323D0E21AF30A23C0F70120E030E02038BCE021
S11323E03B075CF4A901440F551F440F551F240FEC
S11323F0351F220F331F2A0F311DAF014F5F5F4F6F
S11324007A01A081A053AA3010F4FA01E7CFD4FED8
S113241003C0319521953109C20FD31FD1FE09C0E4
S11324200115110531F0E1E0EE1AF108D801ED9241
S1132430FC920E940C092D2D2370233019F04B01BE
S11324405C0106C04B015C01B7FAB094B7F8B094D4
S113245020E030E0A901C501B40188D1882309F442
S11324603DC0D7FF06C0D195C195D10901EB11E05C
S113247002C009EC11E06801B8E1CB1AD10890E27E
S1132480E92EF12CCE15DF0574F0F8012591359174
S113249045915491C501B4010E949A094B015C0114
S11324A0CE19DF09EFCF04501109F594E7940C1508
S11324B01D0541F78A2D880F8B2D881F8F3F41F012
S11324C020E030E0A901C501B40150D1811106C05A
S11324D082E290E09093270480932604C501B4011E
S11324E009C060E070E080E89FEF04C060E070E045
S11324F080EC9FE7DF91CF911F910F91FF90EF90B8
S1132500DF90CF90BF90AF909F908F9008959111DE
S113251055C1803219F089508550D0F70895FC01D7
S11325200590061621F00020D9F7C00108953197CF
S1132530CF010895FB01DC014150504088F08D919A
S113254081341CF08B350CF4805E659161341CF091
S11325506B350CF4605E861B611171F3990B089561
S1132560881BFCCFFC010590615070400110D8F726
S1132570809590958E0F9F1F0895DC0101C06D9387
S113258041505040E0F70895FC01615070400190C3
S11325900110D8F7809590958E0F9F1F0895CF93C3
S11325A0DF93EC012B8120FF33C026FF0AC02F7B71
S11325B02B838E819F8101969F838E838A8190E0F5
S11325C029C022FF0FC0E881F9818081992787FD06
S11325D09095009719F420622B831AC03196F983E1
S11325E0E8830EC0EA85FB85199597FF09C02B8106
S11325F0019611F480E101C080E2822B8B8308C034
S11326002E813F812F5F3F4F3F832E83992702C046
S11326108FEF9FEFDF91CF9108950F931F93CF9387
S1132620DF93182F092FEB018B8181FD03C08FEFFE
S11326309FEF20C082FF10C04E815F812C813D81BD
S1132640421753077CF4E881F9819F012F5F3F4FC4
S113265039832883108306C0E885F985812F19956D
S1132660892B29F72E813F812F5F3F4F3F832E8394
S1132670812F902FDF91CF911F910F910895FB012E
S1132680238120FF12C026FD10C08F3F3FEF930728
S113269061F082832F7D206423832681378121503A
S11326A0310937832683992708958FEF9FEF089583
S11326B0FA01AA27283051F1203181F1E8946F936F
S11326C06E7F6E5F7F4F8F4F9F4FAF4FB1E03ED015
S11326D0B4E03CD0670F781F891F9A1FA11D680FB3
S11326E0791F8A1F911DA11D6A0F711D811D911DE6
S11326F0A11D20D009F468943F912AE0269F11245B
S11327003019305D3193DEF6CF010895462F4770BE
S1132710405D4193B3E00FD0C9F7F6CF462F4F7019
S1132720405D4A3318F0495D31FD4052419302D077
S1132730A9F7EACFB4E0A69597958795779567951D
S1132740BA95C9F700976105710508959B01AC011D
S11327500A2E06945795479537952795BA95C9F744
S1132760620F731F841F951FA01D089503D008F4E2
S113277081E00895990F0008550FAA0BE0E8FEEFD9
S113278016161706E807F907C0F012161306E40731
S1132790F50798F0621B730B840B950B39F40A262A
S11327A061F0232B242B252B21F408950A2609F408
S11327B0A140A6958FEF811D811D08959927882733
S10927C00895F894FFCF18
S11327C6000028042000052C01F84D657373616729
S11327D665206C6F737420617262697472617469C6
S11327E66F6E005472616E736D697373696F6E20D8
S11327F66572726F722064657465637465640052F1
S113280665636569766520627566666572206F76AE
S11328166572666C6F7720666C61672073657400F9
S11328265472616E736D6974206E6F7420636F6D7C
S1132836706C65746500496E69742063616C6C65BF
S113284664200053636F72652069733A2025640A15
S1132856002573003A004E4F5420696E204C4F4FAA
S1132866504241434B206D6F6465004C6F6F70623C
S113287661636B20656E61626C6564004D43503222
S113288635313520696E206E6F726D616C206D6F07
S113289664650052656164206D63703235313500BC
S11328A64D435032353135206973204E4F542069DB
S11328B66E20636F6E66696775726174696F6E20E8
S11328C66D6F6465206166746572207265736574E4
S11328D621004D435032353135206D6F64652061DA
S11328E66674657220696E69743A2025640A006DFF
S11328F66F746F7220656E61626C6564004D6F74EF
S11329066F722064697361626C6564005365742038
S1132916706C6179696E6720666C61673A2025641C
S11329260A0009456E636F6465723A2025640A00DD
S1132936496E2066696E6420656E636F64657220F5
S11329466D617800456E636F6465722076616C759F
S1132956653A2025640A0009456E636F6465722032
S113296676616C7565323A2025640A00456E636F9C
S1132976646572206D6178206973203A20256400AD
S9030000FC
