S01500004279676765726E5F6E6F6465322E737265630A
S113000071C000008EC000008CC000008AC00000D7
S113001088C00000F0C0000084C0000082C000005E
S113002080C000007EC000007CC000007AC00000D8
S113003078C0000076C0000074C0000072C00000E8
S113004070C000006EC000006CC000006AC00000F8
S113005068C0000066C0000064C0000062C0000008
S113006060C000005EC000005CC000005AC0000018
S113007058C0000056C0000054C0000052C0000028
S113008050C000004EC000004CC000004AC0000038
S113009048C0000046C0000044C0000042C0000048
S11300A040C000003EC000003CC000003AC0000058
S11300B038C0000036C0000034C0000032C0000068
S11300C030C000002EC000002CC000002AC0000078
S11300D028C0000026C0000024C0000022C0000088
S11300E020C0000011241FBECFEFD1E2DEBFCDBF80
S11300F000E00CBF13E0A0E0B2E0ECEAFEE000E0B8
S11301000BBF02C007900D92A634B107D9F723E0C4
S1130110A6E4B3E001C01D92AD37B207E1F7BFD04A
S1130120C3C66ECF75D140E664E680E63FD141E0B8
S11301306FEF8BE23BD1EC9AEAE6F0E080818260DB
S1130140808380818E7F8083789480E0089542C18B
S11301500895EF92FF920F931F93CF93DF93CDB740
S1130160DEB72B970FB6F894DEBF0FBECDBF8091DC
S11301704603882371F181E60CD1182F82E609D158
S1130180212F30E0322F2227282B207E3A83298307
S113019085E6FFD08B83882399F07E0184E0E80E06
S11301A0F11C00E010E086E6800FF3D0F7018193A4
S11301B07F010F5F1F4F8B8190E0081719079CF395
S11301C040E061E08CE2F2D080914603815080935C
S11301D04603CE0101962B960FB6F894DEBF0FBEF0
S11301E0CDBFDF91CF911F910F91FF90EF900895B4
S11301F08091460308951F920F920FB60F92112417
S11302000BB60F922F933F934F935F936F937F930C
S11302108F939F93AF93BF93EF93FF93CF93DF930A
S11302201F92CDB7DEB78CE2B4D089838981857003
S1130230853041F440E064E08CE2B8D040E061E015
S11302408CE2B4D08981882324F440E060E88CE215
S1130250ADD040E061E08CE2A9D0809146038F5F8D
S1130260809346030F90DF91CF91FF91EF91BF915F
S1130270AF919F918F917F916F915F914F913F913A
S11302802F910F900BBE0F900FBE0F901F901895DB
S113029087E690E07DD146DF5ADFE1C00895F8DFBC
S11302A00F2EFBE02F2EF02D0F2EFEE5AF2EF3E0E8
S11302B0BF2EF02D0F2EFFE5CF2EF3E0DF2EF02D15
S11302C00F2EF2E68F2EF3E09F2EF02D0F2EF6E088
S11302D0EF2EF2E0FF2EF02D05E212E089DF8823F5
S11302E0E9F337DFFC01AAE5B3E0822D01900D921A
S11302F08A95E1F7F5015080F6014080E0E6F3E0ED
S11303003080E1E6F3E0C081D0E0DC2FCC27F401BB
S11303108081C82BE3E6F3E06080712C762C6624A0
S1130320E4E6F3E08081682A882799278C1B9D0BDB
S1130330D7D0ECE5F3E080811F928F93AAE5B3E078
S113034011968C9111978F938C918F93FF92EF92CA
S113035091D17F926F92DF93CF93E32DF0E0EE0F74
S1130360FF1FEE55FD4F81818F9380818F931F92E4
S11303704F921F925F921F925F921F930F937AD1B5
S1130380EDB7FEB774960FB6F894FEBF0FBEEDBF7F
S1130390A5CFCF93C82FE3D083E0D6D08C2FD4D071
S11303A0D8D0C82FDFD08C2FCF9108951F93CF932F
S11303B0DF93182FD62FC42FD2D085E0C5D0812F3C
S11303C0C3D08D2FC1D08C2FBFD0CCD0DF91CF9193
S11303D01F910895CF93DF931F92CDB7DEB740E00E
S11303E060EE8FE0E3DF8EE0D4DF89838981807E55
S11303F029F482ED92E04FD180E001C081E00F90BA
S1130400DF91CF910895ABD080EC9ED0ABC008951E
S1130410CF93DF931F92CDB7DEB78DD0F4DF89EE93
S113042092E039D18EE0B5DF89838981807E80387E
S113043029F086EF92E02FD181E00DC089811F92CF
S11304408F9388E293E09F938F9314D10F900F9032
S11304500F900F9080E00F90DF91CF910895E0E925
S1130460F0E080818268808380818E7F8083E1E9EF
S1130470F0E080818B61808380818B7F808388E83A
S113048093E190939700809396006B9A87E791E0AD
S113049090939900809398008CE99FEF9093660362
S11304A08093650384E690E09093680380936703E8
S11304B08AEF90E090936C0380936B0324EF31E018
S11304C03093700320936F0328EC30E030936A0379
S11304D02093690390936E0380936D0380E00895E5
S11304E09C012C593F4F293C310518F52091650397
S11304F030916603AC01421B530B20916D03309184
S11305006E03429FC001439F900D529F900D112492
S11305106091690370916A034FD080916B0390914D
S11305206C03680F791F709399006093980080E0C2
S1130530089581E0089587E884B923982B9A81E58A
S11305408CBD8DB58EB508958EBD0DB407FEFDCF5F
S113055008951EBC0DB407FEFDCF8EB508952F98E7
S1130560289808952F9A289A0895E0ECF0E0908155
S113057095FFFDCF8093C60080E090E00895E0EC05
S1130580F0E080818823ECF78091C60090E0089524
S11305909093C5008093C40088E18093C1008EE0ED
S11305A08093C2006FEB72E085EB92E019D09093D8
S11305B07203809371030895AA1BBB1B51E107C00A
S11305C0AA1FBB1FA617B70710F0A61BB70B881FDF
S11305D0991F5A95A9F780959095BC01CD0108956E
S11305E00F931F93CF93DF93EC018B01009731F4AA
S11305F06115710519F480E090E037C06EE070E099
S113060081E090E063D2FC010097A9F380E8838342
S11306100115110571F01387028781E883838091A6
S1130620730390917403892B21F4F0937403E09382
S113063073032097C9F0D187C08783818260838345
S11306408091750390917603892B71F4F09376036E
S1130650E09375038091770390917803892B21F4BB
S1130660F0937803E0937703CF01DF91CF911F914B
S11306700F910895CF93DF93CDB7DEB7FE01369681
S113068061917191AF01809175039091760330D09F
S1130690DF91CF9108950F931F93CF93DF93E09150
S11306A07503F0917603238121FF1BC0EC0100E068
S11306B010E089916091750370917603DB011896BF
S11306C0ED91FC911997882331F01995892B89F3C1
S11306D00FEF1FEFEECF8AE01995892B11F4C801B3
S11306E002C08FEF9FEFDF91CF911F910F9108957B
S11306F02F923F924F925F926F927F928F929F922E
S1130700AF92BF92CF92DF92EF92FF920F931F931B
S1130710CF93DF93CDB7DEB72C970FB6F894DEBF37
S11307200FBECDBF7C016B018A01FC0117821682CA
S1130730838181FFB0C1CE0101964C01F701938101
S1130740F60193FD859193FF81916F01882309F44C
S11307509EC1853239F493FD859193FF81916F0198
S1130760853221F4B70190E00FD3E8CF512C312C1E
S113077020E02032A0F48B3269F030F4803259F05A
S1130780833269F420612CC08D3239F0803339F41E
S1130790216026C02260246023C0286021C027FD78
S11307A027C030ED380F3A3078F426FF06C0FAE05F
S11307B05F9E300D1124532E13C08AE0389E300DF5
S11307C01124332E20620CC08E3221F426FD5FC129
S11307D0206406C08C3611F4206802C0883641F4C7
S11307E0F60193FD859193FF81916F018111C1CF32
S11307F0982F9F7D9554933028F40C5F1F4FFFE38F
S1130800F9830DC0833631F0833771F0833509F0F5
S113081057C021C0F801808189830E5F1F4F442493
S11308204394512C540114C03801F2E06F0E711C32
S1130830F801A080B18026FF03C0652D70E002C0DE
S11308406FEF7FEFC5012C8794D22C0183012C8597
S11308502F77222E16C03801F2E06F0E711CF801BA
S1130860A080B18026FF03C0652D70E002C06FEF49
S11308707FEFC5012C876BD22C012C852068222E9A
S1130880830123FC19C0832D90E048165906A0F477
S1130890B70180E290E078D23A94F5CFF50127FCD5
S11308A0859127FE81915F01B70190E06DD23110EF
S11308B03A94F1E04F1A51084114510479F7DEC01B
S11308C0843611F0893631F5F80127FF07C06081BD
S11308D07181828193810C5F1F4F08C06081718197
S11308E0882777FD8095982F0E5F1F4F2F76B22EA5
S11308F097FF09C090958095709561957F4F8F4FB4
S11309009F4F2068B22E2AE030E0A4016FD2A82EB7
S1130910A81843C0853729F42F7EB22E2AE030E090
S113092025C0F22FF97FBF2E8F36C1F018F4883519
S113093079F0ADC0803719F0883721F0A8C02F2F87
S11309402061B22EB4FE0DC08B2D8460B82E09C078
S113095024FF0AC09F2F9660B92E06C028E030E01D
S113096005C020E130E002C020E132E0F801B7FE2A
S113097007C060817181828193810C5F1F4F06C023
S11309806081718180E090E00E5F1F4FA4012ED240
S1130990A82EA818FB2DFF77BF2EB6FE0BC02B2D5B
S11309A02E7FA51450F4B4FE0AC0B2FC08C02B2D4F
S11309B02E7E05C07A2C2B2D03C07A2C01C0752CF9
S11309C024FF0DC0FE01EA0DF11D8081803311F476
S11309D0297E09C022FF06C07394739404C0822F39
S11309E0867809F0739423FD12C020FF06C05A2CA8
S11309F0731418F4530C5718732C731460F4B70160
S1130A0080E290E02C87C0D173942C85F6CF7314C8
S1130A1010F4371801C0312C24FF11C0B70180E352
S1130A2090E02C87B1D12C8522FF16C021FF03C092
S1130A3088E590E002C088E790E0B7010CC0822FFF
S1130A40867851F021FD02C080E201C08BE227FDCF
S1130A508DE2B70190E098D1A51430F4B70180E39A
S1130A6090E092D15A94F8CFAA94F401EA0DF11DC2
S1130A708081B70190E088D1A110F6CF332009F42A
S1130A805DCEB70180E290E07FD13A94F7CFF701D1
S1130A908681978102C08FEF9FEF2C960FB6F89452
S1130AA0DEBF0FBECDBFDF91CF911F910F91FF909D
S1130AB0EF90DF90CF90BF90AF909F908F907F90FA
S1130AC06F905F904F903F902F9008950F931F93D6
S1130AD0CF93DF93869F8001879F100D969F100D03
S1130AE01124C8010DD0EC01009721F0A80160E0A9
S1130AF070E038D1CE01DF91CF911F910F9108950D
S1130B00CF93DF938230910510F482E090E0E0917E
S1130B107B03F0917C0320E030E0A0E0B0E030976C
S1130B2039F14081518148175907B8F048175907DE
S1130B3071F482819381109729F013969C938E937C
S1130B4012972CC090937C0380937B0327C02115BC
S1130B50310531F04217530718F0A901DB0101C038
S1130B60EF019A01BD01DF010280F381E02DD7CFAF
S1130B7021153105F9F0281B390B2430310580F497
S1130B808A819B816115710521F0FB019383828326
S1130B9004C090937C0380937B03FE01329644C08F
S1130BA0FE01E20FF31F819391932250310939839F
S1130BB028833AC02091790330917A03232B41F49E
S1130BC0209102023091030230937A032093790337
S1130BD020910002309101022115310541F42DB715
S1130BE03EB74091040250910502241B350BE0915D
S1130BF07903F0917A03E217F307A0F42E1B3F0B5D
S1130C002817390778F0AC014E5F5F4F241735077A
S1130C1048F04E0F5F1F50937A03409379038193FA
S1130C20919302C0E0E0F0E0CF01DF91CF9108950D
S1130C30CF93DF93009709F487C0FC0132971382A6
S1130C401282C0917B03D0917C03209781F4208190
S1130C503181280F391F8091790390917A0382178B
S1130C60930779F5F0937A03E09379036DC0DE017D
S1130C7020E030E0AE17BF0750F412964D915C911E
S1130C8013979D014115510509F1DA01F3CFB3839F
S1130C90A28340815181840F951F8A179B0771F4A9
S1130CA08D919C911197840F951F02969183808357
S1130CB012968D919C91139793838283211531050C
S1130CC029F4F0937C03E0937B033EC0D90113968F
S1130CD0FC93EE9312974D915D91A40FB51FEA1703
S1130CE0FB0779F480819181840F951F0296D901C5
S1130CF011969C938E938281938113969C938E93E9
S1130D001297E0E0F0E08A819B81009719F0FE01E0
S1130D10EC01F9CFCE01029628813981820F931F0D
S1130D202091790330917A032817390769F43097B1
S1130D3029F410927C0310927B0302C01382128266
S1130D40D0937A03C0937903DF91CF910895FC0186
S1130D500590615070400110D8F7809590958E0FE2
S1130D609F1F0895DC0101C06D9341505040E0F78E
S1130D700895FC016150704001900110D8F78095EE
S1130D8090958E0F9F1F08950F931F93CF93DF931A
S1130D90182F092FEB018B8181FD03C08FEF9FEF8B
S1130DA020C082FF10C04E815F812C813D8142179B
S1130DB053077CF4E881F9819F012F5F3F4F39830A
S1130DC02883108306C0E885F985812F1995892B1E
S1130DD029F72E813F812F5F3F4F3F832E83812F41
S1130DE0902FDF91CF911F910F910895FA01AA27B7
S1130DF0283051F1203181F1E8946F936E7F6E5F5A
S1130E007F4F8F4F9F4FAF4FB1E03ED0B4E03CD007
S1130E10670F781F891F9A1FA11D680F791F8A1FEA
S1130E20911DA11D6A0F711D811D911DA11D20D051
S1130E3009F468943F912AE0269F11243019305D0B
S1130E403193DEF6CF010895462F4770405D4193FC
S1130E50B3E00FD0C9F7F6CF462F4F70405D4A3349
S1130E6018F0495D31FD4052419302D0A9F7EACF11
S1130E70B4E0A6959795879577956795BA95C9F740
S1130E8000976105710508959B01AC010A2E069433
S1130E905795479537952795BA95C9F7620F731FEC
S10F0EA0841F951FA01D0895F894FFCF37
S1130EAC00007D03200052656365697665642064E7
S1130EBC6174613A2069643A202564206C656E3A49
S1130ECC2025640A006C65667420627574746F6EF8
S1130EDC3A202564202C207269676874206275742A
S1130EEC746F6E3A202564202C206A6F79737469B0
S1130EFC636B20627574746F6E3A2025642C2064C5
S1130F0C6972656374696F6E3A2025732C2078209E
S1130F1C617869733A2025642C207920617869738F
S1130F2C3A202564200A00555000444F574E004C7B
S1130F3C454654005249474854004E455554524175
S1130F4C4C0087028A028F0294029A024E4F54205C
S1130F5C696E204C4F4F504241434B206D6F64657A
S1130F6C004C6F6F706261636B20656E61626C65BF
S1130F7C64004D43503235313520696E206E6F72EA
S1130F8C6D616C206D6F64650052656164206D63E6
S1130F9C7032353135004D4350323531352069735B
S1130FAC204E4F5420696E20636F6E6669677572AC
S1130FBC6174696F6E206D6F64652061667465720F
S1130FCC20726573657421004D43503235313520E0
S1130FDC6D6F646520616674657220696E69743A1C
S1090FEC2025640A000048
S9030000FC
